{
	"TP-DAO24/desarrollo-de-una-dao/contracts/Ojeador.sol": {
		"Ojeador": {
			"abi": [
				{
					"inputs": [],
					"stateMutability": "nonpayable",
					"type": "constructor"
				},
				{
					"anonymous": false,
					"inputs": [
						{
							"indexed": false,
							"internalType": "address",
							"name": "member",
							"type": "address"
						}
					],
					"name": "MemberAdded",
					"type": "event"
				},
				{
					"anonymous": false,
					"inputs": [
						{
							"indexed": false,
							"internalType": "address",
							"name": "member",
							"type": "address"
						}
					],
					"name": "MemberRemoved",
					"type": "event"
				},
				{
					"anonymous": false,
					"inputs": [
						{
							"indexed": false,
							"internalType": "address",
							"name": "ojeador",
							"type": "address"
						}
					],
					"name": "OjeadorAdded",
					"type": "event"
				},
				{
					"anonymous": false,
					"inputs": [
						{
							"indexed": false,
							"internalType": "address",
							"name": "ojeador",
							"type": "address"
						}
					],
					"name": "OjeadorRemoved",
					"type": "event"
				},
				{
					"inputs": [
						{
							"internalType": "address",
							"name": "_member",
							"type": "address"
						}
					],
					"name": "addMember",
					"outputs": [],
					"stateMutability": "payable",
					"type": "function"
				},
				{
					"inputs": [
						{
							"internalType": "address",
							"name": "_ojeador",
							"type": "address"
						}
					],
					"name": "addOjeador",
					"outputs": [],
					"stateMutability": "nonpayable",
					"type": "function"
				},
				{
					"inputs": [],
					"name": "getCount",
					"outputs": [
						{
							"internalType": "uint256",
							"name": "",
							"type": "uint256"
						}
					],
					"stateMutability": "view",
					"type": "function"
				},
				{
					"inputs": [
						{
							"internalType": "address",
							"name": "_address",
							"type": "address"
						}
					],
					"name": "isMember",
					"outputs": [
						{
							"internalType": "bool",
							"name": "",
							"type": "bool"
						}
					],
					"stateMutability": "view",
					"type": "function"
				},
				{
					"inputs": [
						{
							"internalType": "address",
							"name": "_address",
							"type": "address"
						}
					],
					"name": "isOjeador",
					"outputs": [
						{
							"internalType": "bool",
							"name": "",
							"type": "bool"
						}
					],
					"stateMutability": "view",
					"type": "function"
				},
				{
					"inputs": [
						{
							"internalType": "address",
							"name": "",
							"type": "address"
						}
					],
					"name": "ojeadores",
					"outputs": [
						{
							"internalType": "bool",
							"name": "",
							"type": "bool"
						}
					],
					"stateMutability": "view",
					"type": "function"
				},
				{
					"inputs": [
						{
							"internalType": "address",
							"name": "_member",
							"type": "address"
						}
					],
					"name": "removeMember",
					"outputs": [],
					"stateMutability": "nonpayable",
					"type": "function"
				},
				{
					"inputs": [
						{
							"internalType": "address",
							"name": "_ojeador",
							"type": "address"
						}
					],
					"name": "removeOjeador",
					"outputs": [],
					"stateMutability": "nonpayable",
					"type": "function"
				},
				{
					"inputs": [
						{
							"internalType": "address payable",
							"name": "dao_",
							"type": "address"
						}
					],
					"name": "setDAO",
					"outputs": [],
					"stateMutability": "nonpayable",
					"type": "function"
				}
			],
			"devdoc": {
				"kind": "dev",
				"methods": {},
				"version": 1
			},
			"evm": {
				"assembly": "    /* \"TP-DAO24/desarrollo-de-una-dao/contracts/Ojeador.sol\":122:1248  contract Ojeador is Member {... */\n  mstore(0x40, 0x80)\n    /* \"TP-DAO24/desarrollo-de-una-dao/contracts/Ojeador.sol\":250:308  constructor(){... */\n  callvalue\n  dup1\n  iszero\n  tag_1\n  jumpi\n  0x00\n  dup1\n  revert\ntag_1:\n  pop\n    /* \"TP-DAO24/desarrollo-de-una-dao/contracts/Member.sol\":338:342  true */\n  0x01\n    /* \"TP-DAO24/desarrollo-de-una-dao/contracts/Member.sol\":316:323  members */\n  0x00\n    /* \"TP-DAO24/desarrollo-de-una-dao/contracts/Member.sol\":316:335  members[msg.sender] */\n  dup1\n    /* \"TP-DAO24/desarrollo-de-una-dao/contracts/Member.sol\":324:334  msg.sender */\n  caller\n    /* \"TP-DAO24/desarrollo-de-una-dao/contracts/Member.sol\":316:335  members[msg.sender] */\n  0xffffffffffffffffffffffffffffffffffffffff\n  and\n  0xffffffffffffffffffffffffffffffffffffffff\n  and\n  dup2\n  mstore\n  0x20\n  add\n  swap1\n  dup2\n  mstore\n  0x20\n  add\n  0x00\n  keccak256\n  0x00\n    /* \"TP-DAO24/desarrollo-de-una-dao/contracts/Member.sol\":316:342  members[msg.sender] = true */\n  0x0100\n  exp\n  dup2\n  sload\n  dup2\n  0xff\n  mul\n  not\n  and\n  swap1\n  dup4\n  iszero\n  iszero\n  mul\n  or\n  swap1\n  sstore\n  pop\n    /* \"TP-DAO24/desarrollo-de-una-dao/contracts/Member.sol\":360:361  1 */\n  0x01\n    /* \"TP-DAO24/desarrollo-de-una-dao/contracts/Member.sol\":352:357  count */\n  0x02\n    /* \"TP-DAO24/desarrollo-de-una-dao/contracts/Member.sol\":352:361  count = 1 */\n  dup2\n  swap1\n  sstore\n  pop\n    /* \"TP-DAO24/desarrollo-de-una-dao/contracts/Ojeador.sol\":297:301  true */\n  0x01\n    /* \"TP-DAO24/desarrollo-de-una-dao/contracts/Ojeador.sol\":273:282  ojeadores */\n  0x03\n    /* \"TP-DAO24/desarrollo-de-una-dao/contracts/Ojeador.sol\":273:294  ojeadores[msg.sender] */\n  0x00\n    /* \"TP-DAO24/desarrollo-de-una-dao/contracts/Ojeador.sol\":283:293  msg.sender */\n  caller\n    /* \"TP-DAO24/desarrollo-de-una-dao/contracts/Ojeador.sol\":273:294  ojeadores[msg.sender] */\n  0xffffffffffffffffffffffffffffffffffffffff\n  and\n  0xffffffffffffffffffffffffffffffffffffffff\n  and\n  dup2\n  mstore\n  0x20\n  add\n  swap1\n  dup2\n  mstore\n  0x20\n  add\n  0x00\n  keccak256\n  0x00\n    /* \"TP-DAO24/desarrollo-de-una-dao/contracts/Ojeador.sol\":273:301  ojeadores[msg.sender] = true */\n  0x0100\n  exp\n  dup2\n  sload\n  dup2\n  0xff\n  mul\n  not\n  and\n  swap1\n  dup4\n  iszero\n  iszero\n  mul\n  or\n  swap1\n  sstore\n  pop\n    /* \"TP-DAO24/desarrollo-de-una-dao/contracts/Ojeador.sol\":122:1248  contract Ojeador is Member {... */\n  dataSize(sub_0)\n  dup1\n  dataOffset(sub_0)\n  0x00\n  codecopy\n  0x00\n  return\nstop\n\nsub_0: assembly {\n        /* \"TP-DAO24/desarrollo-de-una-dao/contracts/Ojeador.sol\":122:1248  contract Ojeador is Member {... */\n      mstore(0x40, 0x80)\n      jumpi(tag_1, lt(calldatasize, 0x04))\n      shr(0xe0, calldataload(0x00))\n      dup1\n      0x8654ad8e\n      gt\n      tag_11\n      jumpi\n      dup1\n      0x8654ad8e\n      eq\n      tag_6\n      jumpi\n      dup1\n      0xa230c524\n      eq\n      tag_7\n      jumpi\n      dup1\n      0xa87d942c\n      eq\n      tag_8\n      jumpi\n      dup1\n      0xca6d56dc\n      eq\n      tag_9\n      jumpi\n      dup1\n      0xe73a914c\n      eq\n      tag_10\n      jumpi\n      jump(tag_1)\n    tag_11:\n      dup1\n      0x0b1ca49a\n      eq\n      tag_2\n      jumpi\n      dup1\n      0x248fdce9\n      eq\n      tag_3\n      jumpi\n      dup1\n      0x2d5545a9\n      eq\n      tag_4\n      jumpi\n      dup1\n      0x49aca594\n      eq\n      tag_5\n      jumpi\n    tag_1:\n      0x00\n      dup1\n      revert\n        /* \"TP-DAO24/desarrollo-de-una-dao/contracts/Member.sol\":1071:1285  function removeMember(address _member) external {... */\n    tag_2:\n      callvalue\n      dup1\n      iszero\n      tag_12\n      jumpi\n      0x00\n      dup1\n      revert\n    tag_12:\n      pop\n      tag_13\n      0x04\n      dup1\n      calldatasize\n      sub\n      dup2\n      add\n      swap1\n      tag_14\n      swap2\n      swap1\n      tag_15\n      jump\t// in\n    tag_14:\n      tag_16\n      jump\t// in\n    tag_13:\n      stop\n        /* \"TP-DAO24/desarrollo-de-una-dao/contracts/Ojeador.sol\":862:1071  function removeOjeador(address _ojeador) external onlyOjeador {... */\n    tag_3:\n      callvalue\n      dup1\n      iszero\n      tag_17\n      jumpi\n      0x00\n      dup1\n      revert\n    tag_17:\n      pop\n      tag_18\n      0x04\n      dup1\n      calldatasize\n      sub\n      dup2\n      add\n      swap1\n      tag_19\n      swap2\n      swap1\n      tag_15\n      jump\t// in\n    tag_19:\n      tag_20\n      jump\t// in\n    tag_18:\n      stop\n        /* \"TP-DAO24/desarrollo-de-una-dao/contracts/Ojeador.sol\":202:243  mapping(address => bool) public ojeadores */\n    tag_4:\n      callvalue\n      dup1\n      iszero\n      tag_21\n      jumpi\n      0x00\n      dup1\n      revert\n    tag_21:\n      pop\n      tag_22\n      0x04\n      dup1\n      calldatasize\n      sub\n      dup2\n      add\n      swap1\n      tag_23\n      swap2\n      swap1\n      tag_15\n      jump\t// in\n    tag_23:\n      tag_24\n      jump\t// in\n    tag_22:\n      mload(0x40)\n      tag_25\n      swap2\n      swap1\n      tag_26\n      jump\t// in\n    tag_25:\n      mload(0x40)\n      dup1\n      swap2\n      sub\n      swap1\n      return\n        /* \"TP-DAO24/desarrollo-de-una-dao/contracts/Ojeador.sol\":578:814  function addOjeador(address _ojeador) external onlyOjeador {... */\n    tag_5:\n      callvalue\n      dup1\n      iszero\n      tag_27\n      jumpi\n      0x00\n      dup1\n      revert\n    tag_27:\n      pop\n      tag_28\n      0x04\n      dup1\n      calldatasize\n      sub\n      dup2\n      add\n      swap1\n      tag_29\n      swap2\n      swap1\n      tag_15\n      jump\t// in\n    tag_29:\n      tag_30\n      jump\t// in\n    tag_28:\n      stop\n        /* \"TP-DAO24/desarrollo-de-una-dao/contracts/Ojeador.sol\":1137:1246  function isOjeador(address _address) external view returns (bool) {... */\n    tag_6:\n      callvalue\n      dup1\n      iszero\n      tag_31\n      jumpi\n      0x00\n      dup1\n      revert\n    tag_31:\n      pop\n      tag_32\n      0x04\n      dup1\n      calldatasize\n      sub\n      dup2\n      add\n      swap1\n      tag_33\n      swap2\n      swap1\n      tag_15\n      jump\t// in\n    tag_33:\n      tag_34\n      jump\t// in\n    tag_32:\n      mload(0x40)\n      tag_35\n      swap2\n      swap1\n      tag_26\n      jump\t// in\n    tag_35:\n      mload(0x40)\n      dup1\n      swap2\n      sub\n      swap1\n      return\n        /* \"TP-DAO24/desarrollo-de-una-dao/contracts/Member.sol\":1442:1548  function isMember(address _address) external view returns (bool) {... */\n    tag_7:\n      callvalue\n      dup1\n      iszero\n      tag_36\n      jumpi\n      0x00\n      dup1\n      revert\n    tag_36:\n      pop\n      tag_37\n      0x04\n      dup1\n      calldatasize\n      sub\n      dup2\n      add\n      swap1\n      tag_38\n      swap2\n      swap1\n      tag_15\n      jump\t// in\n    tag_38:\n      tag_39\n      jump\t// in\n    tag_37:\n      mload(0x40)\n      tag_40\n      swap2\n      swap1\n      tag_26\n      jump\t// in\n    tag_40:\n      mload(0x40)\n      dup1\n      swap2\n      sub\n      swap1\n      return\n        /* \"TP-DAO24/desarrollo-de-una-dao/contracts/Member.sol\":1295:1376  function getCount() external view returns (uint256) {... */\n    tag_8:\n      callvalue\n      dup1\n      iszero\n      tag_41\n      jumpi\n      0x00\n      dup1\n      revert\n    tag_41:\n      pop\n      tag_42\n      tag_43\n      jump\t// in\n    tag_42:\n      mload(0x40)\n      tag_44\n      swap2\n      swap1\n      tag_45\n      jump\t// in\n    tag_44:\n      mload(0x40)\n      dup1\n      swap2\n      sub\n      swap1\n      return\n        /* \"TP-DAO24/desarrollo-de-una-dao/contracts/Member.sol\":626:1024  function addMember(address _member) external payable {... */\n    tag_9:\n      tag_46\n      0x04\n      dup1\n      calldatasize\n      sub\n      dup2\n      add\n      swap1\n      tag_47\n      swap2\n      swap1\n      tag_15\n      jump\t// in\n    tag_47:\n      tag_48\n      jump\t// in\n    tag_46:\n      stop\n        /* \"TP-DAO24/desarrollo-de-una-dao/contracts/Member.sol\":374:448  function setDAO(address payable dao_) external {... */\n    tag_10:\n      callvalue\n      dup1\n      iszero\n      tag_49\n      jumpi\n      0x00\n      dup1\n      revert\n    tag_49:\n      pop\n      tag_50\n      0x04\n      dup1\n      calldatasize\n      sub\n      dup2\n      add\n      swap1\n      tag_51\n      swap2\n      swap1\n      tag_52\n      jump\t// in\n    tag_51:\n      tag_53\n      jump\t// in\n    tag_50:\n      stop\n        /* \"TP-DAO24/desarrollo-de-una-dao/contracts/Member.sol\":1071:1285  function removeMember(address _member) external {... */\n    tag_16:\n        /* \"TP-DAO24/desarrollo-de-una-dao/contracts/Member.sol\":1137:1144  members */\n      0x00\n        /* \"TP-DAO24/desarrollo-de-una-dao/contracts/Member.sol\":1137:1153  members[_member] */\n      dup1\n        /* \"TP-DAO24/desarrollo-de-una-dao/contracts/Member.sol\":1145:1152  _member */\n      dup3\n        /* \"TP-DAO24/desarrollo-de-una-dao/contracts/Member.sol\":1137:1153  members[_member] */\n      0xffffffffffffffffffffffffffffffffffffffff\n      and\n      0xffffffffffffffffffffffffffffffffffffffff\n      and\n      dup2\n      mstore\n      0x20\n      add\n      swap1\n      dup2\n      mstore\n      0x20\n      add\n      0x00\n      keccak256\n      0x00\n      swap1\n      sload\n      swap1\n      0x0100\n      exp\n      swap1\n      div\n      0xff\n      and\n        /* \"TP-DAO24/desarrollo-de-una-dao/contracts/Member.sol\":1129:1180  require(members[_member], \"No existe este miembro\") */\n      tag_55\n      jumpi\n      mload(0x40)\n      0x08c379a000000000000000000000000000000000000000000000000000000000\n      dup2\n      mstore\n      0x04\n      add\n      tag_56\n      swap1\n      tag_57\n      jump\t// in\n    tag_56:\n      mload(0x40)\n      dup1\n      swap2\n      sub\n      swap1\n      revert\n    tag_55:\n        /* \"TP-DAO24/desarrollo-de-una-dao/contracts/Member.sol\":1209:1214  false */\n      0x00\n        /* \"TP-DAO24/desarrollo-de-una-dao/contracts/Member.sol\":1190:1197  members */\n      dup1\n        /* \"TP-DAO24/desarrollo-de-una-dao/contracts/Member.sol\":1190:1206  members[_member] */\n      0x00\n        /* \"TP-DAO24/desarrollo-de-una-dao/contracts/Member.sol\":1198:1205  _member */\n      dup4\n        /* \"TP-DAO24/desarrollo-de-una-dao/contracts/Member.sol\":1190:1206  members[_member] */\n      0xffffffffffffffffffffffffffffffffffffffff\n      and\n      0xffffffffffffffffffffffffffffffffffffffff\n      and\n      dup2\n      mstore\n      0x20\n      add\n      swap1\n      dup2\n      mstore\n      0x20\n      add\n      0x00\n      keccak256\n      0x00\n        /* \"TP-DAO24/desarrollo-de-una-dao/contracts/Member.sol\":1190:1214  members[_member] = false */\n      0x0100\n      exp\n      dup2\n      sload\n      dup2\n      0xff\n      mul\n      not\n      and\n      swap1\n      dup4\n      iszero\n      iszero\n      mul\n      or\n      swap1\n      sstore\n      pop\n        /* \"TP-DAO24/desarrollo-de-una-dao/contracts/Member.sol\":1229:1251  MemberRemoved(_member) */\n      0x6e76fb4c77256006d9c38ec7d82b45a8c8f3c27b1d6766fffc42dfb8de684492\n        /* \"TP-DAO24/desarrollo-de-una-dao/contracts/Member.sol\":1243:1250  _member */\n      dup2\n        /* \"TP-DAO24/desarrollo-de-una-dao/contracts/Member.sol\":1229:1251  MemberRemoved(_member) */\n      mload(0x40)\n      tag_58\n      swap2\n      swap1\n      tag_59\n      jump\t// in\n    tag_58:\n      mload(0x40)\n      dup1\n      swap2\n      sub\n      swap1\n      log1\n        /* \"TP-DAO24/desarrollo-de-una-dao/contracts/Member.sol\":1277:1278  1 */\n      0x01\n        /* \"TP-DAO24/desarrollo-de-una-dao/contracts/Member.sol\":1269:1274  count */\n      sload(0x02)\n        /* \"TP-DAO24/desarrollo-de-una-dao/contracts/Member.sol\":1269:1278  count - 1 */\n      tag_60\n      swap2\n      swap1\n      tag_61\n      jump\t// in\n    tag_60:\n        /* \"TP-DAO24/desarrollo-de-una-dao/contracts/Member.sol\":1261:1266  count */\n      0x02\n        /* \"TP-DAO24/desarrollo-de-una-dao/contracts/Member.sol\":1261:1278  count = count - 1 */\n      dup2\n      swap1\n      sstore\n      pop\n        /* \"TP-DAO24/desarrollo-de-una-dao/contracts/Member.sol\":1071:1285  function removeMember(address _member) external {... */\n      pop\n      jump\t// out\n        /* \"TP-DAO24/desarrollo-de-una-dao/contracts/Ojeador.sol\":862:1071  function removeOjeador(address _ojeador) external onlyOjeador {... */\n    tag_20:\n        /* \"TP-DAO24/desarrollo-de-una-dao/contracts/Ojeador.sol\":440:449  ojeadores */\n      0x03\n        /* \"TP-DAO24/desarrollo-de-una-dao/contracts/Ojeador.sol\":440:461  ojeadores[msg.sender] */\n      0x00\n        /* \"TP-DAO24/desarrollo-de-una-dao/contracts/Ojeador.sol\":450:460  msg.sender */\n      caller\n        /* \"TP-DAO24/desarrollo-de-una-dao/contracts/Ojeador.sol\":440:461  ojeadores[msg.sender] */\n      0xffffffffffffffffffffffffffffffffffffffff\n      and\n      0xffffffffffffffffffffffffffffffffffffffff\n      and\n      dup2\n      mstore\n      0x20\n      add\n      swap1\n      dup2\n      mstore\n      0x20\n      add\n      0x00\n      keccak256\n      0x00\n      swap1\n      sload\n      swap1\n      0x0100\n      exp\n      swap1\n      div\n      0xff\n      and\n        /* \"TP-DAO24/desarrollo-de-una-dao/contracts/Ojeador.sol\":432:508  require(ojeadores[msg.sender], \"Solo ojeadores pueden realizar esta accion\") */\n      tag_63\n      jumpi\n      mload(0x40)\n      0x08c379a000000000000000000000000000000000000000000000000000000000\n      dup2\n      mstore\n      0x04\n      add\n      tag_64\n      swap1\n      tag_65\n      jump\t// in\n    tag_64:\n      mload(0x40)\n      dup1\n      swap2\n      sub\n      swap1\n      revert\n    tag_63:\n        /* \"TP-DAO24/desarrollo-de-una-dao/contracts/Ojeador.sol\":942:951  ojeadores */\n      0x03\n        /* \"TP-DAO24/desarrollo-de-una-dao/contracts/Ojeador.sol\":942:961  ojeadores[_ojeador] */\n      0x00\n        /* \"TP-DAO24/desarrollo-de-una-dao/contracts/Ojeador.sol\":952:960  _ojeador */\n      dup3\n        /* \"TP-DAO24/desarrollo-de-una-dao/contracts/Ojeador.sol\":942:961  ojeadores[_ojeador] */\n      0xffffffffffffffffffffffffffffffffffffffff\n      and\n      0xffffffffffffffffffffffffffffffffffffffff\n      and\n      dup2\n      mstore\n      0x20\n      add\n      swap1\n      dup2\n      mstore\n      0x20\n      add\n      0x00\n      keccak256\n      0x00\n      swap1\n      sload\n      swap1\n      0x0100\n      exp\n      swap1\n      div\n      0xff\n      and\n        /* \"TP-DAO24/desarrollo-de-una-dao/contracts/Ojeador.sol\":934:988  require(ojeadores[_ojeador], \"No existe este Ojeador\") */\n      tag_67\n      jumpi\n      mload(0x40)\n      0x08c379a000000000000000000000000000000000000000000000000000000000\n      dup2\n      mstore\n      0x04\n      add\n      tag_68\n      swap1\n      tag_69\n      jump\t// in\n    tag_68:\n      mload(0x40)\n      dup1\n      swap2\n      sub\n      swap1\n      revert\n    tag_67:\n        /* \"TP-DAO24/desarrollo-de-una-dao/contracts/Ojeador.sol\":1020:1025  false */\n      0x00\n        /* \"TP-DAO24/desarrollo-de-una-dao/contracts/Ojeador.sol\":998:1007  ojeadores */\n      0x03\n        /* \"TP-DAO24/desarrollo-de-una-dao/contracts/Ojeador.sol\":998:1017  ojeadores[_ojeador] */\n      0x00\n        /* \"TP-DAO24/desarrollo-de-una-dao/contracts/Ojeador.sol\":1008:1016  _ojeador */\n      dup4\n        /* \"TP-DAO24/desarrollo-de-una-dao/contracts/Ojeador.sol\":998:1017  ojeadores[_ojeador] */\n      0xffffffffffffffffffffffffffffffffffffffff\n      and\n      0xffffffffffffffffffffffffffffffffffffffff\n      and\n      dup2\n      mstore\n      0x20\n      add\n      swap1\n      dup2\n      mstore\n      0x20\n      add\n      0x00\n      keccak256\n      0x00\n        /* \"TP-DAO24/desarrollo-de-una-dao/contracts/Ojeador.sol\":998:1025  ojeadores[_ojeador] = false */\n      0x0100\n      exp\n      dup2\n      sload\n      dup2\n      0xff\n      mul\n      not\n      and\n      swap1\n      dup4\n      iszero\n      iszero\n      mul\n      or\n      swap1\n      sstore\n      pop\n        /* \"TP-DAO24/desarrollo-de-una-dao/contracts/Ojeador.sol\":1040:1064  OjeadorRemoved(_ojeador) */\n      0x682828943bd9d40a434bc578bed0c7b86f6d4b6b60b4df9f31ae37610a66854f\n        /* \"TP-DAO24/desarrollo-de-una-dao/contracts/Ojeador.sol\":1055:1063  _ojeador */\n      dup2\n        /* \"TP-DAO24/desarrollo-de-una-dao/contracts/Ojeador.sol\":1040:1064  OjeadorRemoved(_ojeador) */\n      mload(0x40)\n      tag_70\n      swap2\n      swap1\n      tag_59\n      jump\t// in\n    tag_70:\n      mload(0x40)\n      dup1\n      swap2\n      sub\n      swap1\n      log1\n        /* \"TP-DAO24/desarrollo-de-una-dao/contracts/Ojeador.sol\":862:1071  function removeOjeador(address _ojeador) external onlyOjeador {... */\n      pop\n      jump\t// out\n        /* \"TP-DAO24/desarrollo-de-una-dao/contracts/Ojeador.sol\":202:243  mapping(address => bool) public ojeadores */\n    tag_24:\n      mstore(0x20, 0x03)\n      dup1\n      0x00\n      mstore\n      keccak256(0x00, 0x40)\n      0x00\n      swap2\n      pop\n      sload\n      swap1\n      0x0100\n      exp\n      swap1\n      div\n      0xff\n      and\n      dup2\n      jump\t// out\n        /* \"TP-DAO24/desarrollo-de-una-dao/contracts/Ojeador.sol\":578:814  function addOjeador(address _ojeador) external onlyOjeador {... */\n    tag_30:\n        /* \"TP-DAO24/desarrollo-de-una-dao/contracts/Ojeador.sol\":440:449  ojeadores */\n      0x03\n        /* \"TP-DAO24/desarrollo-de-una-dao/contracts/Ojeador.sol\":440:461  ojeadores[msg.sender] */\n      0x00\n        /* \"TP-DAO24/desarrollo-de-una-dao/contracts/Ojeador.sol\":450:460  msg.sender */\n      caller\n        /* \"TP-DAO24/desarrollo-de-una-dao/contracts/Ojeador.sol\":440:461  ojeadores[msg.sender] */\n      0xffffffffffffffffffffffffffffffffffffffff\n      and\n      0xffffffffffffffffffffffffffffffffffffffff\n      and\n      dup2\n      mstore\n      0x20\n      add\n      swap1\n      dup2\n      mstore\n      0x20\n      add\n      0x00\n      keccak256\n      0x00\n      swap1\n      sload\n      swap1\n      0x0100\n      exp\n      swap1\n      div\n      0xff\n      and\n        /* \"TP-DAO24/desarrollo-de-una-dao/contracts/Ojeador.sol\":432:508  require(ojeadores[msg.sender], \"Solo ojeadores pueden realizar esta accion\") */\n      tag_72\n      jumpi\n      mload(0x40)\n      0x08c379a000000000000000000000000000000000000000000000000000000000\n      dup2\n      mstore\n      0x04\n      add\n      tag_73\n      swap1\n      tag_65\n      jump\t// in\n    tag_73:\n      mload(0x40)\n      dup1\n      swap2\n      sub\n      swap1\n      revert\n    tag_72:\n        /* \"TP-DAO24/desarrollo-de-una-dao/contracts/Ojeador.sol\":656:665  ojeadores */\n      0x03\n        /* \"TP-DAO24/desarrollo-de-una-dao/contracts/Ojeador.sol\":656:675  ojeadores[_ojeador] */\n      0x00\n        /* \"TP-DAO24/desarrollo-de-una-dao/contracts/Ojeador.sol\":666:674  _ojeador */\n      dup3\n        /* \"TP-DAO24/desarrollo-de-una-dao/contracts/Ojeador.sol\":656:675  ojeadores[_ojeador] */\n      0xffffffffffffffffffffffffffffffffffffffff\n      and\n      0xffffffffffffffffffffffffffffffffffffffff\n      and\n      dup2\n      mstore\n      0x20\n      add\n      swap1\n      dup2\n      mstore\n      0x20\n      add\n      0x00\n      keccak256\n      0x00\n      swap1\n      sload\n      swap1\n      0x0100\n      exp\n      swap1\n      div\n      0xff\n      and\n        /* \"TP-DAO24/desarrollo-de-una-dao/contracts/Ojeador.sol\":655:675  !ojeadores[_ojeador] */\n      iszero\n        /* \"TP-DAO24/desarrollo-de-una-dao/contracts/Ojeador.sol\":647:734  require(!ojeadores[_ojeador], \"La direccion ingresada ya esta actualmente registrada.\") */\n      tag_75\n      jumpi\n      mload(0x40)\n      0x08c379a000000000000000000000000000000000000000000000000000000000\n      dup2\n      mstore\n      0x04\n      add\n      tag_76\n      swap1\n      tag_77\n      jump\t// in\n    tag_76:\n      mload(0x40)\n      dup1\n      swap2\n      sub\n      swap1\n      revert\n    tag_75:\n        /* \"TP-DAO24/desarrollo-de-una-dao/contracts/Ojeador.sol\":766:770  true */\n      0x01\n        /* \"TP-DAO24/desarrollo-de-una-dao/contracts/Ojeador.sol\":744:753  ojeadores */\n      0x03\n        /* \"TP-DAO24/desarrollo-de-una-dao/contracts/Ojeador.sol\":744:763  ojeadores[_ojeador] */\n      0x00\n        /* \"TP-DAO24/desarrollo-de-una-dao/contracts/Ojeador.sol\":754:762  _ojeador */\n      dup4\n        /* \"TP-DAO24/desarrollo-de-una-dao/contracts/Ojeador.sol\":744:763  ojeadores[_ojeador] */\n      0xffffffffffffffffffffffffffffffffffffffff\n      and\n      0xffffffffffffffffffffffffffffffffffffffff\n      and\n      dup2\n      mstore\n      0x20\n      add\n      swap1\n      dup2\n      mstore\n      0x20\n      add\n      0x00\n      keccak256\n      0x00\n        /* \"TP-DAO24/desarrollo-de-una-dao/contracts/Ojeador.sol\":744:770  ojeadores[_ojeador] = true */\n      0x0100\n      exp\n      dup2\n      sload\n      dup2\n      0xff\n      mul\n      not\n      and\n      swap1\n      dup4\n      iszero\n      iszero\n      mul\n      or\n      swap1\n      sstore\n      pop\n        /* \"TP-DAO24/desarrollo-de-una-dao/contracts/Ojeador.sol\":785:807  OjeadorAdded(_ojeador) */\n      0x56e5ac9f290e03b6e84bbc9d97f71d5a2d6d6a749372c9e595f2b040e7ba73c7\n        /* \"TP-DAO24/desarrollo-de-una-dao/contracts/Ojeador.sol\":798:806  _ojeador */\n      dup2\n        /* \"TP-DAO24/desarrollo-de-una-dao/contracts/Ojeador.sol\":785:807  OjeadorAdded(_ojeador) */\n      mload(0x40)\n      tag_78\n      swap2\n      swap1\n      tag_59\n      jump\t// in\n    tag_78:\n      mload(0x40)\n      dup1\n      swap2\n      sub\n      swap1\n      log1\n        /* \"TP-DAO24/desarrollo-de-una-dao/contracts/Ojeador.sol\":578:814  function addOjeador(address _ojeador) external onlyOjeador {... */\n      pop\n      jump\t// out\n        /* \"TP-DAO24/desarrollo-de-una-dao/contracts/Ojeador.sol\":1137:1246  function isOjeador(address _address) external view returns (bool) {... */\n    tag_34:\n        /* \"TP-DAO24/desarrollo-de-una-dao/contracts/Ojeador.sol\":1197:1201  bool */\n      0x00\n        /* \"TP-DAO24/desarrollo-de-una-dao/contracts/Ojeador.sol\":1220:1229  ojeadores */\n      0x03\n        /* \"TP-DAO24/desarrollo-de-una-dao/contracts/Ojeador.sol\":1220:1239  ojeadores[_address] */\n      0x00\n        /* \"TP-DAO24/desarrollo-de-una-dao/contracts/Ojeador.sol\":1230:1238  _address */\n      dup4\n        /* \"TP-DAO24/desarrollo-de-una-dao/contracts/Ojeador.sol\":1220:1239  ojeadores[_address] */\n      0xffffffffffffffffffffffffffffffffffffffff\n      and\n      0xffffffffffffffffffffffffffffffffffffffff\n      and\n      dup2\n      mstore\n      0x20\n      add\n      swap1\n      dup2\n      mstore\n      0x20\n      add\n      0x00\n      keccak256\n      0x00\n      swap1\n      sload\n      swap1\n      0x0100\n      exp\n      swap1\n      div\n      0xff\n      and\n        /* \"TP-DAO24/desarrollo-de-una-dao/contracts/Ojeador.sol\":1213:1239  return ojeadores[_address] */\n      swap1\n      pop\n        /* \"TP-DAO24/desarrollo-de-una-dao/contracts/Ojeador.sol\":1137:1246  function isOjeador(address _address) external view returns (bool) {... */\n      swap2\n      swap1\n      pop\n      jump\t// out\n        /* \"TP-DAO24/desarrollo-de-una-dao/contracts/Member.sol\":1442:1548  function isMember(address _address) external view returns (bool) {... */\n    tag_39:\n        /* \"TP-DAO24/desarrollo-de-una-dao/contracts/Member.sol\":1501:1505  bool */\n      0x00\n        /* \"TP-DAO24/desarrollo-de-una-dao/contracts/Member.sol\":1524:1531  members */\n      dup1\n        /* \"TP-DAO24/desarrollo-de-una-dao/contracts/Member.sol\":1524:1541  members[_address] */\n      0x00\n        /* \"TP-DAO24/desarrollo-de-una-dao/contracts/Member.sol\":1532:1540  _address */\n      dup4\n        /* \"TP-DAO24/desarrollo-de-una-dao/contracts/Member.sol\":1524:1541  members[_address] */\n      0xffffffffffffffffffffffffffffffffffffffff\n      and\n      0xffffffffffffffffffffffffffffffffffffffff\n      and\n      dup2\n      mstore\n      0x20\n      add\n      swap1\n      dup2\n      mstore\n      0x20\n      add\n      0x00\n      keccak256\n      0x00\n      swap1\n      sload\n      swap1\n      0x0100\n      exp\n      swap1\n      div\n      0xff\n      and\n        /* \"TP-DAO24/desarrollo-de-una-dao/contracts/Member.sol\":1517:1541  return members[_address] */\n      swap1\n      pop\n        /* \"TP-DAO24/desarrollo-de-una-dao/contracts/Member.sol\":1442:1548  function isMember(address _address) external view returns (bool) {... */\n      swap2\n      swap1\n      pop\n      jump\t// out\n        /* \"TP-DAO24/desarrollo-de-una-dao/contracts/Member.sol\":1295:1376  function getCount() external view returns (uint256) {... */\n    tag_43:\n        /* \"TP-DAO24/desarrollo-de-una-dao/contracts/Member.sol\":1338:1345  uint256 */\n      0x00\n        /* \"TP-DAO24/desarrollo-de-una-dao/contracts/Member.sol\":1364:1369  count */\n      sload(0x02)\n        /* \"TP-DAO24/desarrollo-de-una-dao/contracts/Member.sol\":1357:1369  return count */\n      swap1\n      pop\n        /* \"TP-DAO24/desarrollo-de-una-dao/contracts/Member.sol\":1295:1376  function getCount() external view returns (uint256) {... */\n      swap1\n      jump\t// out\n        /* \"TP-DAO24/desarrollo-de-una-dao/contracts/Member.sol\":626:1024  function addMember(address _member) external payable {... */\n    tag_48:\n        /* \"TP-DAO24/desarrollo-de-una-dao/contracts/Member.sol\":698:705  members */\n      0x00\n        /* \"TP-DAO24/desarrollo-de-una-dao/contracts/Member.sol\":698:714  members[_member] */\n      dup1\n        /* \"TP-DAO24/desarrollo-de-una-dao/contracts/Member.sol\":706:713  _member */\n      dup3\n        /* \"TP-DAO24/desarrollo-de-una-dao/contracts/Member.sol\":698:714  members[_member] */\n      0xffffffffffffffffffffffffffffffffffffffff\n      and\n      0xffffffffffffffffffffffffffffffffffffffff\n      and\n      dup2\n      mstore\n      0x20\n      add\n      swap1\n      dup2\n      mstore\n      0x20\n      add\n      0x00\n      keccak256\n      0x00\n      swap1\n      sload\n      swap1\n      0x0100\n      exp\n      swap1\n      div\n      0xff\n      and\n        /* \"TP-DAO24/desarrollo-de-una-dao/contracts/Member.sol\":697:714  !members[_member] */\n      iszero\n        /* \"TP-DAO24/desarrollo-de-una-dao/contracts/Member.sol\":689:773  require(!members[_member], \"La direccion ingresada ya esta actualmente registrada.\") */\n      tag_83\n      jumpi\n      mload(0x40)\n      0x08c379a000000000000000000000000000000000000000000000000000000000\n      dup2\n      mstore\n      0x04\n      add\n      tag_84\n      swap1\n      tag_77\n      jump\t// in\n    tag_84:\n      mload(0x40)\n      dup1\n      swap2\n      sub\n      swap1\n      revert\n    tag_83:\n        /* \"TP-DAO24/desarrollo-de-una-dao/contracts/Member.sol\":803:804  1 */\n      0x01\n        /* \"TP-DAO24/desarrollo-de-una-dao/contracts/Member.sol\":791:800  msg.value */\n      callvalue\n        /* \"TP-DAO24/desarrollo-de-una-dao/contracts/Member.sol\":791:804  msg.value > 1 */\n      gt\n        /* \"TP-DAO24/desarrollo-de-una-dao/contracts/Member.sol\":783:810  require(msg.value > 1, \"-\") */\n      tag_85\n      jumpi\n      mload(0x40)\n      0x08c379a000000000000000000000000000000000000000000000000000000000\n      dup2\n      mstore\n      0x04\n      add\n      tag_86\n      swap1\n      tag_87\n      jump\t// in\n    tag_86:\n      mload(0x40)\n      dup1\n      swap2\n      sub\n      swap1\n      revert\n    tag_85:\n        /* \"TP-DAO24/desarrollo-de-una-dao/contracts/Member.sol\":848:852  true */\n      0x01\n        /* \"TP-DAO24/desarrollo-de-una-dao/contracts/Member.sol\":829:836  members */\n      0x00\n        /* \"TP-DAO24/desarrollo-de-una-dao/contracts/Member.sol\":829:845  members[_member] */\n      dup1\n        /* \"TP-DAO24/desarrollo-de-una-dao/contracts/Member.sol\":837:844  _member */\n      dup4\n        /* \"TP-DAO24/desarrollo-de-una-dao/contracts/Member.sol\":829:845  members[_member] */\n      0xffffffffffffffffffffffffffffffffffffffff\n      and\n      0xffffffffffffffffffffffffffffffffffffffff\n      and\n      dup2\n      mstore\n      0x20\n      add\n      swap1\n      dup2\n      mstore\n      0x20\n      add\n      0x00\n      keccak256\n      0x00\n        /* \"TP-DAO24/desarrollo-de-una-dao/contracts/Member.sol\":829:852  members[_member] = true */\n      0x0100\n      exp\n      dup2\n      sload\n      dup2\n      0xff\n      mul\n      not\n      and\n      swap1\n      dup4\n      iszero\n      iszero\n      mul\n      or\n      swap1\n      sstore\n      pop\n        /* \"TP-DAO24/desarrollo-de-una-dao/contracts/Member.sol\":868:888  MemberAdded(_member) */\n      0xb251eb052afc73ffd02ffe85ad79990a8b3fed60d76dbc2fa2fdd7123dffd914\n        /* \"TP-DAO24/desarrollo-de-una-dao/contracts/Member.sol\":880:887  _member */\n      dup2\n        /* \"TP-DAO24/desarrollo-de-una-dao/contracts/Member.sol\":868:888  MemberAdded(_member) */\n      mload(0x40)\n      tag_88\n      swap2\n      swap1\n      tag_59\n      jump\t// in\n    tag_88:\n      mload(0x40)\n      dup1\n      swap2\n      sub\n      swap1\n      log1\n        /* \"TP-DAO24/desarrollo-de-una-dao/contracts/Member.sol\":914:915  1 */\n      0x01\n        /* \"TP-DAO24/desarrollo-de-una-dao/contracts/Member.sol\":906:911  count */\n      sload(0x02)\n        /* \"TP-DAO24/desarrollo-de-una-dao/contracts/Member.sol\":906:915  count + 1 */\n      tag_89\n      swap2\n      swap1\n      tag_90\n      jump\t// in\n    tag_89:\n        /* \"TP-DAO24/desarrollo-de-una-dao/contracts/Member.sol\":898:903  count */\n      0x02\n        /* \"TP-DAO24/desarrollo-de-una-dao/contracts/Member.sol\":898:915  count = count + 1 */\n      dup2\n      swap1\n      sstore\n      pop\n        /* \"TP-DAO24/desarrollo-de-una-dao/contracts/Member.sol\":994:997  DAO */\n      0x01\n      0x00\n      swap1\n      sload\n      swap1\n      0x0100\n      exp\n      swap1\n      div\n      0xffffffffffffffffffffffffffffffffffffffff\n      and\n        /* \"TP-DAO24/desarrollo-de-una-dao/contracts/Member.sol\":994:1006  DAO.transfer */\n      0xffffffffffffffffffffffffffffffffffffffff\n      and\n        /* \"TP-DAO24/desarrollo-de-una-dao/contracts/Member.sol\":994:1017  DAO.transfer(msg.value) */\n      0x08fc\n        /* \"TP-DAO24/desarrollo-de-una-dao/contracts/Member.sol\":1007:1016  msg.value */\n      callvalue\n        /* \"TP-DAO24/desarrollo-de-una-dao/contracts/Member.sol\":994:1017  DAO.transfer(msg.value) */\n      swap1\n      dup2\n      iszero\n      mul\n      swap1\n      mload(0x40)\n      0x00\n      mload(0x40)\n      dup1\n      dup4\n      sub\n      dup2\n      dup6\n      dup9\n      dup9\n      call\n      swap4\n      pop\n      pop\n      pop\n      pop\n      iszero\n      dup1\n      iszero\n      tag_92\n      jumpi\n      returndatasize\n      0x00\n      dup1\n      returndatacopy\n      revert(0x00, returndatasize)\n    tag_92:\n      pop\n        /* \"TP-DAO24/desarrollo-de-una-dao/contracts/Member.sol\":626:1024  function addMember(address _member) external payable {... */\n      pop\n      jump\t// out\n        /* \"TP-DAO24/desarrollo-de-una-dao/contracts/Member.sol\":374:448  function setDAO(address payable dao_) external {... */\n    tag_53:\n        /* \"TP-DAO24/desarrollo-de-una-dao/contracts/Member.sol\":437:441  dao_ */\n      dup1\n        /* \"TP-DAO24/desarrollo-de-una-dao/contracts/Member.sol\":431:434  DAO */\n      0x01\n      0x00\n        /* \"TP-DAO24/desarrollo-de-una-dao/contracts/Member.sol\":431:441  DAO = dao_ */\n      0x0100\n      exp\n      dup2\n      sload\n      dup2\n      0xffffffffffffffffffffffffffffffffffffffff\n      mul\n      not\n      and\n      swap1\n      dup4\n      0xffffffffffffffffffffffffffffffffffffffff\n      and\n      mul\n      or\n      swap1\n      sstore\n      pop\n        /* \"TP-DAO24/desarrollo-de-una-dao/contracts/Member.sol\":374:448  function setDAO(address payable dao_) external {... */\n      pop\n      jump\t// out\n        /* \"#utility.yul\":88:205   */\n    tag_95:\n        /* \"#utility.yul\":197:198   */\n      0x00\n        /* \"#utility.yul\":194:195   */\n      dup1\n        /* \"#utility.yul\":187:199   */\n      revert\n        /* \"#utility.yul\":334:460   */\n    tag_97:\n        /* \"#utility.yul\":371:378   */\n      0x00\n        /* \"#utility.yul\":411:453   */\n      0xffffffffffffffffffffffffffffffffffffffff\n        /* \"#utility.yul\":404:409   */\n      dup3\n        /* \"#utility.yul\":400:454   */\n      and\n        /* \"#utility.yul\":389:454   */\n      swap1\n      pop\n        /* \"#utility.yul\":334:460   */\n      swap2\n      swap1\n      pop\n      jump\t// out\n        /* \"#utility.yul\":466:562   */\n    tag_98:\n        /* \"#utility.yul\":503:510   */\n      0x00\n        /* \"#utility.yul\":532:556   */\n      tag_127\n        /* \"#utility.yul\":550:555   */\n      dup3\n        /* \"#utility.yul\":532:556   */\n      tag_97\n      jump\t// in\n    tag_127:\n        /* \"#utility.yul\":521:556   */\n      swap1\n      pop\n        /* \"#utility.yul\":466:562   */\n      swap2\n      swap1\n      pop\n      jump\t// out\n        /* \"#utility.yul\":568:690   */\n    tag_99:\n        /* \"#utility.yul\":641:665   */\n      tag_129\n        /* \"#utility.yul\":659:664   */\n      dup2\n        /* \"#utility.yul\":641:665   */\n      tag_98\n      jump\t// in\n    tag_129:\n        /* \"#utility.yul\":634:639   */\n      dup2\n        /* \"#utility.yul\":631:666   */\n      eq\n        /* \"#utility.yul\":621:684   */\n      tag_130\n      jumpi\n        /* \"#utility.yul\":680:681   */\n      0x00\n        /* \"#utility.yul\":677:678   */\n      dup1\n        /* \"#utility.yul\":670:682   */\n      revert\n        /* \"#utility.yul\":621:684   */\n    tag_130:\n        /* \"#utility.yul\":568:690   */\n      pop\n      jump\t// out\n        /* \"#utility.yul\":696:835   */\n    tag_100:\n        /* \"#utility.yul\":742:747   */\n      0x00\n        /* \"#utility.yul\":780:786   */\n      dup2\n        /* \"#utility.yul\":767:787   */\n      calldataload\n        /* \"#utility.yul\":758:787   */\n      swap1\n      pop\n        /* \"#utility.yul\":796:829   */\n      tag_132\n        /* \"#utility.yul\":823:828   */\n      dup2\n        /* \"#utility.yul\":796:829   */\n      tag_99\n      jump\t// in\n    tag_132:\n        /* \"#utility.yul\":696:835   */\n      swap3\n      swap2\n      pop\n      pop\n      jump\t// out\n        /* \"#utility.yul\":841:1170   */\n    tag_15:\n        /* \"#utility.yul\":900:906   */\n      0x00\n        /* \"#utility.yul\":949:951   */\n      0x20\n        /* \"#utility.yul\":937:946   */\n      dup3\n        /* \"#utility.yul\":928:935   */\n      dup5\n        /* \"#utility.yul\":924:947   */\n      sub\n        /* \"#utility.yul\":920:952   */\n      slt\n        /* \"#utility.yul\":917:1036   */\n      iszero\n      tag_134\n      jumpi\n        /* \"#utility.yul\":955:1034   */\n      tag_135\n      tag_95\n      jump\t// in\n    tag_135:\n        /* \"#utility.yul\":917:1036   */\n    tag_134:\n        /* \"#utility.yul\":1075:1076   */\n      0x00\n        /* \"#utility.yul\":1100:1153   */\n      tag_136\n        /* \"#utility.yul\":1145:1152   */\n      dup5\n        /* \"#utility.yul\":1136:1142   */\n      dup3\n        /* \"#utility.yul\":1125:1134   */\n      dup6\n        /* \"#utility.yul\":1121:1143   */\n      add\n        /* \"#utility.yul\":1100:1153   */\n      tag_100\n      jump\t// in\n    tag_136:\n        /* \"#utility.yul\":1090:1153   */\n      swap2\n      pop\n        /* \"#utility.yul\":1046:1163   */\n      pop\n        /* \"#utility.yul\":841:1170   */\n      swap3\n      swap2\n      pop\n      pop\n      jump\t// out\n        /* \"#utility.yul\":1176:1266   */\n    tag_101:\n        /* \"#utility.yul\":1210:1217   */\n      0x00\n        /* \"#utility.yul\":1253:1258   */\n      dup2\n        /* \"#utility.yul\":1246:1259   */\n      iszero\n        /* \"#utility.yul\":1239:1260   */\n      iszero\n        /* \"#utility.yul\":1228:1260   */\n      swap1\n      pop\n        /* \"#utility.yul\":1176:1266   */\n      swap2\n      swap1\n      pop\n      jump\t// out\n        /* \"#utility.yul\":1272:1381   */\n    tag_102:\n        /* \"#utility.yul\":1353:1374   */\n      tag_139\n        /* \"#utility.yul\":1368:1373   */\n      dup2\n        /* \"#utility.yul\":1353:1374   */\n      tag_101\n      jump\t// in\n    tag_139:\n        /* \"#utility.yul\":1348:1351   */\n      dup3\n        /* \"#utility.yul\":1341:1375   */\n      mstore\n        /* \"#utility.yul\":1272:1381   */\n      pop\n      pop\n      jump\t// out\n        /* \"#utility.yul\":1387:1597   */\n    tag_26:\n        /* \"#utility.yul\":1474:1478   */\n      0x00\n        /* \"#utility.yul\":1512:1514   */\n      0x20\n        /* \"#utility.yul\":1501:1510   */\n      dup3\n        /* \"#utility.yul\":1497:1515   */\n      add\n        /* \"#utility.yul\":1489:1515   */\n      swap1\n      pop\n        /* \"#utility.yul\":1525:1590   */\n      tag_141\n        /* \"#utility.yul\":1587:1588   */\n      0x00\n        /* \"#utility.yul\":1576:1585   */\n      dup4\n        /* \"#utility.yul\":1572:1589   */\n      add\n        /* \"#utility.yul\":1563:1569   */\n      dup5\n        /* \"#utility.yul\":1525:1590   */\n      tag_102\n      jump\t// in\n    tag_141:\n        /* \"#utility.yul\":1387:1597   */\n      swap3\n      swap2\n      pop\n      pop\n      jump\t// out\n        /* \"#utility.yul\":1603:1680   */\n    tag_103:\n        /* \"#utility.yul\":1640:1647   */\n      0x00\n        /* \"#utility.yul\":1669:1674   */\n      dup2\n        /* \"#utility.yul\":1658:1674   */\n      swap1\n      pop\n        /* \"#utility.yul\":1603:1680   */\n      swap2\n      swap1\n      pop\n      jump\t// out\n        /* \"#utility.yul\":1686:1804   */\n    tag_104:\n        /* \"#utility.yul\":1773:1797   */\n      tag_144\n        /* \"#utility.yul\":1791:1796   */\n      dup2\n        /* \"#utility.yul\":1773:1797   */\n      tag_103\n      jump\t// in\n    tag_144:\n        /* \"#utility.yul\":1768:1771   */\n      dup3\n        /* \"#utility.yul\":1761:1798   */\n      mstore\n        /* \"#utility.yul\":1686:1804   */\n      pop\n      pop\n      jump\t// out\n        /* \"#utility.yul\":1810:2032   */\n    tag_45:\n        /* \"#utility.yul\":1903:1907   */\n      0x00\n        /* \"#utility.yul\":1941:1943   */\n      0x20\n        /* \"#utility.yul\":1930:1939   */\n      dup3\n        /* \"#utility.yul\":1926:1944   */\n      add\n        /* \"#utility.yul\":1918:1944   */\n      swap1\n      pop\n        /* \"#utility.yul\":1954:2025   */\n      tag_146\n        /* \"#utility.yul\":2022:2023   */\n      0x00\n        /* \"#utility.yul\":2011:2020   */\n      dup4\n        /* \"#utility.yul\":2007:2024   */\n      add\n        /* \"#utility.yul\":1998:2004   */\n      dup5\n        /* \"#utility.yul\":1954:2025   */\n      tag_104\n      jump\t// in\n    tag_146:\n        /* \"#utility.yul\":1810:2032   */\n      swap3\n      swap2\n      pop\n      pop\n      jump\t// out\n        /* \"#utility.yul\":2038:2142   */\n    tag_105:\n        /* \"#utility.yul\":2083:2090   */\n      0x00\n        /* \"#utility.yul\":2112:2136   */\n      tag_148\n        /* \"#utility.yul\":2130:2135   */\n      dup3\n        /* \"#utility.yul\":2112:2136   */\n      tag_97\n      jump\t// in\n    tag_148:\n        /* \"#utility.yul\":2101:2136   */\n      swap1\n      pop\n        /* \"#utility.yul\":2038:2142   */\n      swap2\n      swap1\n      pop\n      jump\t// out\n        /* \"#utility.yul\":2148:2286   */\n    tag_106:\n        /* \"#utility.yul\":2229:2261   */\n      tag_150\n        /* \"#utility.yul\":2255:2260   */\n      dup2\n        /* \"#utility.yul\":2229:2261   */\n      tag_105\n      jump\t// in\n    tag_150:\n        /* \"#utility.yul\":2222:2227   */\n      dup2\n        /* \"#utility.yul\":2219:2262   */\n      eq\n        /* \"#utility.yul\":2209:2280   */\n      tag_151\n      jumpi\n        /* \"#utility.yul\":2276:2277   */\n      0x00\n        /* \"#utility.yul\":2273:2274   */\n      dup1\n        /* \"#utility.yul\":2266:2278   */\n      revert\n        /* \"#utility.yul\":2209:2280   */\n    tag_151:\n        /* \"#utility.yul\":2148:2286   */\n      pop\n      jump\t// out\n        /* \"#utility.yul\":2292:2447   */\n    tag_107:\n        /* \"#utility.yul\":2346:2351   */\n      0x00\n        /* \"#utility.yul\":2384:2390   */\n      dup2\n        /* \"#utility.yul\":2371:2391   */\n      calldataload\n        /* \"#utility.yul\":2362:2391   */\n      swap1\n      pop\n        /* \"#utility.yul\":2400:2441   */\n      tag_153\n        /* \"#utility.yul\":2435:2440   */\n      dup2\n        /* \"#utility.yul\":2400:2441   */\n      tag_106\n      jump\t// in\n    tag_153:\n        /* \"#utility.yul\":2292:2447   */\n      swap3\n      swap2\n      pop\n      pop\n      jump\t// out\n        /* \"#utility.yul\":2453:2798   */\n    tag_52:\n        /* \"#utility.yul\":2520:2526   */\n      0x00\n        /* \"#utility.yul\":2569:2571   */\n      0x20\n        /* \"#utility.yul\":2557:2566   */\n      dup3\n        /* \"#utility.yul\":2548:2555   */\n      dup5\n        /* \"#utility.yul\":2544:2567   */\n      sub\n        /* \"#utility.yul\":2540:2572   */\n      slt\n        /* \"#utility.yul\":2537:2656   */\n      iszero\n      tag_155\n      jumpi\n        /* \"#utility.yul\":2575:2654   */\n      tag_156\n      tag_95\n      jump\t// in\n    tag_156:\n        /* \"#utility.yul\":2537:2656   */\n    tag_155:\n        /* \"#utility.yul\":2695:2696   */\n      0x00\n        /* \"#utility.yul\":2720:2781   */\n      tag_157\n        /* \"#utility.yul\":2773:2780   */\n      dup5\n        /* \"#utility.yul\":2764:2770   */\n      dup3\n        /* \"#utility.yul\":2753:2762   */\n      dup6\n        /* \"#utility.yul\":2749:2771   */\n      add\n        /* \"#utility.yul\":2720:2781   */\n      tag_107\n      jump\t// in\n    tag_157:\n        /* \"#utility.yul\":2710:2781   */\n      swap2\n      pop\n        /* \"#utility.yul\":2666:2791   */\n      pop\n        /* \"#utility.yul\":2453:2798   */\n      swap3\n      swap2\n      pop\n      pop\n      jump\t// out\n        /* \"#utility.yul\":2804:2973   */\n    tag_108:\n        /* \"#utility.yul\":2888:2899   */\n      0x00\n        /* \"#utility.yul\":2922:2928   */\n      dup3\n        /* \"#utility.yul\":2917:2920   */\n      dup3\n        /* \"#utility.yul\":2910:2929   */\n      mstore\n        /* \"#utility.yul\":2962:2966   */\n      0x20\n        /* \"#utility.yul\":2957:2960   */\n      dup3\n        /* \"#utility.yul\":2953:2967   */\n      add\n        /* \"#utility.yul\":2938:2967   */\n      swap1\n      pop\n        /* \"#utility.yul\":2804:2973   */\n      swap3\n      swap2\n      pop\n      pop\n      jump\t// out\n        /* \"#utility.yul\":2979:3151   */\n    tag_109:\n        /* \"#utility.yul\":3119:3143   */\n      0x4e6f206578697374652065737465206d69656d62726f00000000000000000000\n        /* \"#utility.yul\":3115:3116   */\n      0x00\n        /* \"#utility.yul\":3107:3113   */\n      dup3\n        /* \"#utility.yul\":3103:3117   */\n      add\n        /* \"#utility.yul\":3096:3144   */\n      mstore\n        /* \"#utility.yul\":2979:3151   */\n      pop\n      jump\t// out\n        /* \"#utility.yul\":3157:3523   */\n    tag_110:\n        /* \"#utility.yul\":3299:3302   */\n      0x00\n        /* \"#utility.yul\":3320:3387   */\n      tag_161\n        /* \"#utility.yul\":3384:3386   */\n      0x16\n        /* \"#utility.yul\":3379:3382   */\n      dup4\n        /* \"#utility.yul\":3320:3387   */\n      tag_108\n      jump\t// in\n    tag_161:\n        /* \"#utility.yul\":3313:3387   */\n      swap2\n      pop\n        /* \"#utility.yul\":3396:3489   */\n      tag_162\n        /* \"#utility.yul\":3485:3488   */\n      dup3\n        /* \"#utility.yul\":3396:3489   */\n      tag_109\n      jump\t// in\n    tag_162:\n        /* \"#utility.yul\":3514:3516   */\n      0x20\n        /* \"#utility.yul\":3509:3512   */\n      dup3\n        /* \"#utility.yul\":3505:3517   */\n      add\n        /* \"#utility.yul\":3498:3517   */\n      swap1\n      pop\n        /* \"#utility.yul\":3157:3523   */\n      swap2\n      swap1\n      pop\n      jump\t// out\n        /* \"#utility.yul\":3529:3948   */\n    tag_57:\n        /* \"#utility.yul\":3695:3699   */\n      0x00\n        /* \"#utility.yul\":3733:3735   */\n      0x20\n        /* \"#utility.yul\":3722:3731   */\n      dup3\n        /* \"#utility.yul\":3718:3736   */\n      add\n        /* \"#utility.yul\":3710:3736   */\n      swap1\n      pop\n        /* \"#utility.yul\":3782:3791   */\n      dup2\n        /* \"#utility.yul\":3776:3780   */\n      dup2\n        /* \"#utility.yul\":3772:3792   */\n      sub\n        /* \"#utility.yul\":3768:3769   */\n      0x00\n        /* \"#utility.yul\":3757:3766   */\n      dup4\n        /* \"#utility.yul\":3753:3770   */\n      add\n        /* \"#utility.yul\":3746:3793   */\n      mstore\n        /* \"#utility.yul\":3810:3941   */\n      tag_164\n        /* \"#utility.yul\":3936:3940   */\n      dup2\n        /* \"#utility.yul\":3810:3941   */\n      tag_110\n      jump\t// in\n    tag_164:\n        /* \"#utility.yul\":3802:3941   */\n      swap1\n      pop\n        /* \"#utility.yul\":3529:3948   */\n      swap2\n      swap1\n      pop\n      jump\t// out\n        /* \"#utility.yul\":3954:4072   */\n    tag_111:\n        /* \"#utility.yul\":4041:4065   */\n      tag_166\n        /* \"#utility.yul\":4059:4064   */\n      dup2\n        /* \"#utility.yul\":4041:4065   */\n      tag_98\n      jump\t// in\n    tag_166:\n        /* \"#utility.yul\":4036:4039   */\n      dup3\n        /* \"#utility.yul\":4029:4066   */\n      mstore\n        /* \"#utility.yul\":3954:4072   */\n      pop\n      pop\n      jump\t// out\n        /* \"#utility.yul\":4078:4300   */\n    tag_59:\n        /* \"#utility.yul\":4171:4175   */\n      0x00\n        /* \"#utility.yul\":4209:4211   */\n      0x20\n        /* \"#utility.yul\":4198:4207   */\n      dup3\n        /* \"#utility.yul\":4194:4212   */\n      add\n        /* \"#utility.yul\":4186:4212   */\n      swap1\n      pop\n        /* \"#utility.yul\":4222:4293   */\n      tag_168\n        /* \"#utility.yul\":4290:4291   */\n      0x00\n        /* \"#utility.yul\":4279:4288   */\n      dup4\n        /* \"#utility.yul\":4275:4292   */\n      add\n        /* \"#utility.yul\":4266:4272   */\n      dup5\n        /* \"#utility.yul\":4222:4293   */\n      tag_111\n      jump\t// in\n    tag_168:\n        /* \"#utility.yul\":4078:4300   */\n      swap3\n      swap2\n      pop\n      pop\n      jump\t// out\n        /* \"#utility.yul\":4306:4486   */\n    tag_112:\n        /* \"#utility.yul\":4354:4431   */\n      0x4e487b7100000000000000000000000000000000000000000000000000000000\n        /* \"#utility.yul\":4351:4352   */\n      0x00\n        /* \"#utility.yul\":4344:4432   */\n      mstore\n        /* \"#utility.yul\":4451:4455   */\n      0x11\n        /* \"#utility.yul\":4448:4449   */\n      0x04\n        /* \"#utility.yul\":4441:4456   */\n      mstore\n        /* \"#utility.yul\":4475:4479   */\n      0x24\n        /* \"#utility.yul\":4472:4473   */\n      0x00\n        /* \"#utility.yul\":4465:4480   */\n      revert\n        /* \"#utility.yul\":4492:4686   */\n    tag_61:\n        /* \"#utility.yul\":4532:4536   */\n      0x00\n        /* \"#utility.yul\":4552:4572   */\n      tag_171\n        /* \"#utility.yul\":4570:4571   */\n      dup3\n        /* \"#utility.yul\":4552:4572   */\n      tag_103\n      jump\t// in\n    tag_171:\n        /* \"#utility.yul\":4547:4572   */\n      swap2\n      pop\n        /* \"#utility.yul\":4586:4606   */\n      tag_172\n        /* \"#utility.yul\":4604:4605   */\n      dup4\n        /* \"#utility.yul\":4586:4606   */\n      tag_103\n      jump\t// in\n    tag_172:\n        /* \"#utility.yul\":4581:4606   */\n      swap3\n      pop\n        /* \"#utility.yul\":4630:4631   */\n      dup3\n        /* \"#utility.yul\":4627:4628   */\n      dup3\n        /* \"#utility.yul\":4623:4632   */\n      sub\n        /* \"#utility.yul\":4615:4632   */\n      swap1\n      pop\n        /* \"#utility.yul\":4654:4655   */\n      dup2\n        /* \"#utility.yul\":4648:4652   */\n      dup2\n        /* \"#utility.yul\":4645:4656   */\n      gt\n        /* \"#utility.yul\":4642:4679   */\n      iszero\n      tag_173\n      jumpi\n        /* \"#utility.yul\":4659:4677   */\n      tag_174\n      tag_112\n      jump\t// in\n    tag_174:\n        /* \"#utility.yul\":4642:4679   */\n    tag_173:\n        /* \"#utility.yul\":4492:4686   */\n      swap3\n      swap2\n      pop\n      pop\n      jump\t// out\n        /* \"#utility.yul\":4692:4921   */\n    tag_113:\n        /* \"#utility.yul\":4832:4866   */\n      0x536f6c6f206f6a6561646f7265732070756564656e207265616c697a61722065\n        /* \"#utility.yul\":4828:4829   */\n      0x00\n        /* \"#utility.yul\":4820:4826   */\n      dup3\n        /* \"#utility.yul\":4816:4830   */\n      add\n        /* \"#utility.yul\":4809:4867   */\n      mstore\n        /* \"#utility.yul\":4901:4913   */\n      0x73746120616363696f6e00000000000000000000000000000000000000000000\n        /* \"#utility.yul\":4896:4898   */\n      0x20\n        /* \"#utility.yul\":4888:4894   */\n      dup3\n        /* \"#utility.yul\":4884:4899   */\n      add\n        /* \"#utility.yul\":4877:4914   */\n      mstore\n        /* \"#utility.yul\":4692:4921   */\n      pop\n      jump\t// out\n        /* \"#utility.yul\":4927:5293   */\n    tag_114:\n        /* \"#utility.yul\":5069:5072   */\n      0x00\n        /* \"#utility.yul\":5090:5157   */\n      tag_177\n        /* \"#utility.yul\":5154:5156   */\n      0x2a\n        /* \"#utility.yul\":5149:5152   */\n      dup4\n        /* \"#utility.yul\":5090:5157   */\n      tag_108\n      jump\t// in\n    tag_177:\n        /* \"#utility.yul\":5083:5157   */\n      swap2\n      pop\n        /* \"#utility.yul\":5166:5259   */\n      tag_178\n        /* \"#utility.yul\":5255:5258   */\n      dup3\n        /* \"#utility.yul\":5166:5259   */\n      tag_113\n      jump\t// in\n    tag_178:\n        /* \"#utility.yul\":5284:5286   */\n      0x40\n        /* \"#utility.yul\":5279:5282   */\n      dup3\n        /* \"#utility.yul\":5275:5287   */\n      add\n        /* \"#utility.yul\":5268:5287   */\n      swap1\n      pop\n        /* \"#utility.yul\":4927:5293   */\n      swap2\n      swap1\n      pop\n      jump\t// out\n        /* \"#utility.yul\":5299:5718   */\n    tag_65:\n        /* \"#utility.yul\":5465:5469   */\n      0x00\n        /* \"#utility.yul\":5503:5505   */\n      0x20\n        /* \"#utility.yul\":5492:5501   */\n      dup3\n        /* \"#utility.yul\":5488:5506   */\n      add\n        /* \"#utility.yul\":5480:5506   */\n      swap1\n      pop\n        /* \"#utility.yul\":5552:5561   */\n      dup2\n        /* \"#utility.yul\":5546:5550   */\n      dup2\n        /* \"#utility.yul\":5542:5562   */\n      sub\n        /* \"#utility.yul\":5538:5539   */\n      0x00\n        /* \"#utility.yul\":5527:5536   */\n      dup4\n        /* \"#utility.yul\":5523:5540   */\n      add\n        /* \"#utility.yul\":5516:5563   */\n      mstore\n        /* \"#utility.yul\":5580:5711   */\n      tag_180\n        /* \"#utility.yul\":5706:5710   */\n      dup2\n        /* \"#utility.yul\":5580:5711   */\n      tag_114\n      jump\t// in\n    tag_180:\n        /* \"#utility.yul\":5572:5711   */\n      swap1\n      pop\n        /* \"#utility.yul\":5299:5718   */\n      swap2\n      swap1\n      pop\n      jump\t// out\n        /* \"#utility.yul\":5724:5896   */\n    tag_115:\n        /* \"#utility.yul\":5864:5888   */\n      0x4e6f206578697374652065737465204f6a6561646f7200000000000000000000\n        /* \"#utility.yul\":5860:5861   */\n      0x00\n        /* \"#utility.yul\":5852:5858   */\n      dup3\n        /* \"#utility.yul\":5848:5862   */\n      add\n        /* \"#utility.yul\":5841:5889   */\n      mstore\n        /* \"#utility.yul\":5724:5896   */\n      pop\n      jump\t// out\n        /* \"#utility.yul\":5902:6268   */\n    tag_116:\n        /* \"#utility.yul\":6044:6047   */\n      0x00\n        /* \"#utility.yul\":6065:6132   */\n      tag_183\n        /* \"#utility.yul\":6129:6131   */\n      0x16\n        /* \"#utility.yul\":6124:6127   */\n      dup4\n        /* \"#utility.yul\":6065:6132   */\n      tag_108\n      jump\t// in\n    tag_183:\n        /* \"#utility.yul\":6058:6132   */\n      swap2\n      pop\n        /* \"#utility.yul\":6141:6234   */\n      tag_184\n        /* \"#utility.yul\":6230:6233   */\n      dup3\n        /* \"#utility.yul\":6141:6234   */\n      tag_115\n      jump\t// in\n    tag_184:\n        /* \"#utility.yul\":6259:6261   */\n      0x20\n        /* \"#utility.yul\":6254:6257   */\n      dup3\n        /* \"#utility.yul\":6250:6262   */\n      add\n        /* \"#utility.yul\":6243:6262   */\n      swap1\n      pop\n        /* \"#utility.yul\":5902:6268   */\n      swap2\n      swap1\n      pop\n      jump\t// out\n        /* \"#utility.yul\":6274:6693   */\n    tag_69:\n        /* \"#utility.yul\":6440:6444   */\n      0x00\n        /* \"#utility.yul\":6478:6480   */\n      0x20\n        /* \"#utility.yul\":6467:6476   */\n      dup3\n        /* \"#utility.yul\":6463:6481   */\n      add\n        /* \"#utility.yul\":6455:6481   */\n      swap1\n      pop\n        /* \"#utility.yul\":6527:6536   */\n      dup2\n        /* \"#utility.yul\":6521:6525   */\n      dup2\n        /* \"#utility.yul\":6517:6537   */\n      sub\n        /* \"#utility.yul\":6513:6514   */\n      0x00\n        /* \"#utility.yul\":6502:6511   */\n      dup4\n        /* \"#utility.yul\":6498:6515   */\n      add\n        /* \"#utility.yul\":6491:6538   */\n      mstore\n        /* \"#utility.yul\":6555:6686   */\n      tag_186\n        /* \"#utility.yul\":6681:6685   */\n      dup2\n        /* \"#utility.yul\":6555:6686   */\n      tag_116\n      jump\t// in\n    tag_186:\n        /* \"#utility.yul\":6547:6686   */\n      swap1\n      pop\n        /* \"#utility.yul\":6274:6693   */\n      swap2\n      swap1\n      pop\n      jump\t// out\n        /* \"#utility.yul\":6699:6940   */\n    tag_117:\n        /* \"#utility.yul\":6839:6873   */\n      0x4c6120646972656363696f6e20696e6772657361646120796120657374612061\n        /* \"#utility.yul\":6835:6836   */\n      0x00\n        /* \"#utility.yul\":6827:6833   */\n      dup3\n        /* \"#utility.yul\":6823:6837   */\n      add\n        /* \"#utility.yul\":6816:6874   */\n      mstore\n        /* \"#utility.yul\":6908:6932   */\n      0x637475616c6d656e746520726567697374726164612e00000000000000000000\n        /* \"#utility.yul\":6903:6905   */\n      0x20\n        /* \"#utility.yul\":6895:6901   */\n      dup3\n        /* \"#utility.yul\":6891:6906   */\n      add\n        /* \"#utility.yul\":6884:6933   */\n      mstore\n        /* \"#utility.yul\":6699:6940   */\n      pop\n      jump\t// out\n        /* \"#utility.yul\":6946:7312   */\n    tag_118:\n        /* \"#utility.yul\":7088:7091   */\n      0x00\n        /* \"#utility.yul\":7109:7176   */\n      tag_189\n        /* \"#utility.yul\":7173:7175   */\n      0x36\n        /* \"#utility.yul\":7168:7171   */\n      dup4\n        /* \"#utility.yul\":7109:7176   */\n      tag_108\n      jump\t// in\n    tag_189:\n        /* \"#utility.yul\":7102:7176   */\n      swap2\n      pop\n        /* \"#utility.yul\":7185:7278   */\n      tag_190\n        /* \"#utility.yul\":7274:7277   */\n      dup3\n        /* \"#utility.yul\":7185:7278   */\n      tag_117\n      jump\t// in\n    tag_190:\n        /* \"#utility.yul\":7303:7305   */\n      0x40\n        /* \"#utility.yul\":7298:7301   */\n      dup3\n        /* \"#utility.yul\":7294:7306   */\n      add\n        /* \"#utility.yul\":7287:7306   */\n      swap1\n      pop\n        /* \"#utility.yul\":6946:7312   */\n      swap2\n      swap1\n      pop\n      jump\t// out\n        /* \"#utility.yul\":7318:7737   */\n    tag_77:\n        /* \"#utility.yul\":7484:7488   */\n      0x00\n        /* \"#utility.yul\":7522:7524   */\n      0x20\n        /* \"#utility.yul\":7511:7520   */\n      dup3\n        /* \"#utility.yul\":7507:7525   */\n      add\n        /* \"#utility.yul\":7499:7525   */\n      swap1\n      pop\n        /* \"#utility.yul\":7571:7580   */\n      dup2\n        /* \"#utility.yul\":7565:7569   */\n      dup2\n        /* \"#utility.yul\":7561:7581   */\n      sub\n        /* \"#utility.yul\":7557:7558   */\n      0x00\n        /* \"#utility.yul\":7546:7555   */\n      dup4\n        /* \"#utility.yul\":7542:7559   */\n      add\n        /* \"#utility.yul\":7535:7582   */\n      mstore\n        /* \"#utility.yul\":7599:7730   */\n      tag_192\n        /* \"#utility.yul\":7725:7729   */\n      dup2\n        /* \"#utility.yul\":7599:7730   */\n      tag_118\n      jump\t// in\n    tag_192:\n        /* \"#utility.yul\":7591:7730   */\n      swap1\n      pop\n        /* \"#utility.yul\":7318:7737   */\n      swap2\n      swap1\n      pop\n      jump\t// out\n        /* \"#utility.yul\":7743:7894   */\n    tag_119:\n        /* \"#utility.yul\":7883:7886   */\n      0x2d00000000000000000000000000000000000000000000000000000000000000\n        /* \"#utility.yul\":7879:7880   */\n      0x00\n        /* \"#utility.yul\":7871:7877   */\n      dup3\n        /* \"#utility.yul\":7867:7881   */\n      add\n        /* \"#utility.yul\":7860:7887   */\n      mstore\n        /* \"#utility.yul\":7743:7894   */\n      pop\n      jump\t// out\n        /* \"#utility.yul\":7900:8265   */\n    tag_120:\n        /* \"#utility.yul\":8042:8045   */\n      0x00\n        /* \"#utility.yul\":8063:8129   */\n      tag_195\n        /* \"#utility.yul\":8127:8128   */\n      0x01\n        /* \"#utility.yul\":8122:8125   */\n      dup4\n        /* \"#utility.yul\":8063:8129   */\n      tag_108\n      jump\t// in\n    tag_195:\n        /* \"#utility.yul\":8056:8129   */\n      swap2\n      pop\n        /* \"#utility.yul\":8138:8231   */\n      tag_196\n        /* \"#utility.yul\":8227:8230   */\n      dup3\n        /* \"#utility.yul\":8138:8231   */\n      tag_119\n      jump\t// in\n    tag_196:\n        /* \"#utility.yul\":8256:8258   */\n      0x20\n        /* \"#utility.yul\":8251:8254   */\n      dup3\n        /* \"#utility.yul\":8247:8259   */\n      add\n        /* \"#utility.yul\":8240:8259   */\n      swap1\n      pop\n        /* \"#utility.yul\":7900:8265   */\n      swap2\n      swap1\n      pop\n      jump\t// out\n        /* \"#utility.yul\":8271:8690   */\n    tag_87:\n        /* \"#utility.yul\":8437:8441   */\n      0x00\n        /* \"#utility.yul\":8475:8477   */\n      0x20\n        /* \"#utility.yul\":8464:8473   */\n      dup3\n        /* \"#utility.yul\":8460:8478   */\n      add\n        /* \"#utility.yul\":8452:8478   */\n      swap1\n      pop\n        /* \"#utility.yul\":8524:8533   */\n      dup2\n        /* \"#utility.yul\":8518:8522   */\n      dup2\n        /* \"#utility.yul\":8514:8534   */\n      sub\n        /* \"#utility.yul\":8510:8511   */\n      0x00\n        /* \"#utility.yul\":8499:8508   */\n      dup4\n        /* \"#utility.yul\":8495:8512   */\n      add\n        /* \"#utility.yul\":8488:8535   */\n      mstore\n        /* \"#utility.yul\":8552:8683   */\n      tag_198\n        /* \"#utility.yul\":8678:8682   */\n      dup2\n        /* \"#utility.yul\":8552:8683   */\n      tag_120\n      jump\t// in\n    tag_198:\n        /* \"#utility.yul\":8544:8683   */\n      swap1\n      pop\n        /* \"#utility.yul\":8271:8690   */\n      swap2\n      swap1\n      pop\n      jump\t// out\n        /* \"#utility.yul\":8696:8887   */\n    tag_90:\n        /* \"#utility.yul\":8736:8739   */\n      0x00\n        /* \"#utility.yul\":8755:8775   */\n      tag_200\n        /* \"#utility.yul\":8773:8774   */\n      dup3\n        /* \"#utility.yul\":8755:8775   */\n      tag_103\n      jump\t// in\n    tag_200:\n        /* \"#utility.yul\":8750:8775   */\n      swap2\n      pop\n        /* \"#utility.yul\":8789:8809   */\n      tag_201\n        /* \"#utility.yul\":8807:8808   */\n      dup4\n        /* \"#utility.yul\":8789:8809   */\n      tag_103\n      jump\t// in\n    tag_201:\n        /* \"#utility.yul\":8784:8809   */\n      swap3\n      pop\n        /* \"#utility.yul\":8832:8833   */\n      dup3\n        /* \"#utility.yul\":8829:8830   */\n      dup3\n        /* \"#utility.yul\":8825:8834   */\n      add\n        /* \"#utility.yul\":8818:8834   */\n      swap1\n      pop\n        /* \"#utility.yul\":8853:8856   */\n      dup1\n        /* \"#utility.yul\":8850:8851   */\n      dup3\n        /* \"#utility.yul\":8847:8857   */\n      gt\n        /* \"#utility.yul\":8844:8880   */\n      iszero\n      tag_202\n      jumpi\n        /* \"#utility.yul\":8860:8878   */\n      tag_203\n      tag_112\n      jump\t// in\n    tag_203:\n        /* \"#utility.yul\":8844:8880   */\n    tag_202:\n        /* \"#utility.yul\":8696:8887   */\n      swap3\n      swap2\n      pop\n      pop\n      jump\t// out\n\n    auxdata: 0xa264697066735822122013c43ce907f6d4f1546ae95c10f49440c011aa5f3dac0cb62833907aeebb167e64736f6c63430008190033\n}\n",
				"bytecode": {
					"linkReferences": {},
					"object": "6080604052348015600e575f80fd5b5060015f803373ffffffffffffffffffffffffffffffffffffffff1673ffffffffffffffffffffffffffffffffffffffff1681526020019081526020015f205f6101000a81548160ff0219169083151502179055506001600281905550600160035f3373ffffffffffffffffffffffffffffffffffffffff1673ffffffffffffffffffffffffffffffffffffffff1681526020019081526020015f205f6101000a81548160ff021916908315150217905550610e17806100cd5f395ff3fe608060405260043610610085575f3560e01c80638654ad8e116100585780638654ad8e1461013d578063a230c52414610179578063a87d942c146101b5578063ca6d56dc146101df578063e73a914c146101fb57610085565b80630b1ca49a14610089578063248fdce9146100b15780632d5545a9146100d957806349aca59414610115575b5f80fd5b348015610094575f80fd5b506100af60048036038101906100aa91906109cd565b610223565b005b3480156100bc575f80fd5b506100d760048036038101906100d291906109cd565b61034d565b005b3480156100e4575f80fd5b506100ff60048036038101906100fa91906109cd565b6104ed565b60405161010c9190610a12565b60405180910390f35b348015610120575f80fd5b5061013b600480360381019061013691906109cd565b61050a565b005b348015610148575f80fd5b50610163600480360381019061015e91906109cd565b6106ac565b6040516101709190610a12565b60405180910390f35b348015610184575f80fd5b5061019f600480360381019061019a91906109cd565b6106fe565b6040516101ac9190610a12565b60405180910390f35b3480156101c0575f80fd5b506101c961074f565b6040516101d69190610a43565b60405180910390f35b6101f960048036038101906101f491906109cd565b610758565b005b348015610206575f80fd5b50610221600480360381019061021c9190610a97565b61092c565b005b5f808273ffffffffffffffffffffffffffffffffffffffff1673ffffffffffffffffffffffffffffffffffffffff1681526020019081526020015f205f9054906101000a900460ff166102ab576040517f08c379a00000000000000000000000000000000000000000000000000000000081526004016102a290610b1c565b60405180910390fd5b5f805f8373ffffffffffffffffffffffffffffffffffffffff1673ffffffffffffffffffffffffffffffffffffffff1681526020019081526020015f205f6101000a81548160ff0219169083151502179055507f6e76fb4c77256006d9c38ec7d82b45a8c8f3c27b1d6766fffc42dfb8de6844928160405161032d9190610b49565b60405180910390a160016002546103449190610b8f565b60028190555050565b60035f3373ffffffffffffffffffffffffffffffffffffffff1673ffffffffffffffffffffffffffffffffffffffff1681526020019081526020015f205f9054906101000a900460ff166103d6576040517f08c379a00000000000000000000000000000000000000000000000000000000081526004016103cd90610c32565b60405180910390fd5b60035f8273ffffffffffffffffffffffffffffffffffffffff1673ffffffffffffffffffffffffffffffffffffffff1681526020019081526020015f205f9054906101000a900460ff1661045f576040517f08c379a000000000000000000000000000000000000000000000000000000000815260040161045690610c9a565b60405180910390fd5b5f60035f8373ffffffffffffffffffffffffffffffffffffffff1673ffffffffffffffffffffffffffffffffffffffff1681526020019081526020015f205f6101000a81548160ff0219169083151502179055507f682828943bd9d40a434bc578bed0c7b86f6d4b6b60b4df9f31ae37610a66854f816040516104e29190610b49565b60405180910390a150565b6003602052805f5260405f205f915054906101000a900460ff1681565b60035f3373ffffffffffffffffffffffffffffffffffffffff1673ffffffffffffffffffffffffffffffffffffffff1681526020019081526020015f205f9054906101000a900460ff16610593576040517f08c379a000000000000000000000000000000000000000000000000000000000815260040161058a90610c32565b60405180910390fd5b60035f8273ffffffffffffffffffffffffffffffffffffffff1673ffffffffffffffffffffffffffffffffffffffff1681526020019081526020015f205f9054906101000a900460ff161561061d576040517f08c379a000000000000000000000000000000000000000000000000000000000815260040161061490610d28565b60405180910390fd5b600160035f8373ffffffffffffffffffffffffffffffffffffffff1673ffffffffffffffffffffffffffffffffffffffff1681526020019081526020015f205f6101000a81548160ff0219169083151502179055507f56e5ac9f290e03b6e84bbc9d97f71d5a2d6d6a749372c9e595f2b040e7ba73c7816040516106a19190610b49565b60405180910390a150565b5f60035f8373ffffffffffffffffffffffffffffffffffffffff1673ffffffffffffffffffffffffffffffffffffffff1681526020019081526020015f205f9054906101000a900460ff169050919050565b5f805f8373ffffffffffffffffffffffffffffffffffffffff1673ffffffffffffffffffffffffffffffffffffffff1681526020019081526020015f205f9054906101000a900460ff169050919050565b5f600254905090565b5f808273ffffffffffffffffffffffffffffffffffffffff1673ffffffffffffffffffffffffffffffffffffffff1681526020019081526020015f205f9054906101000a900460ff16156107e1576040517f08c379a00000000000000000000000000000000000000000000000000000000081526004016107d890610d28565b60405180910390fd5b60013411610824576040517f08c379a000000000000000000000000000000000000000000000000000000000815260040161081b90610d90565b60405180910390fd5b60015f808373ffffffffffffffffffffffffffffffffffffffff1673ffffffffffffffffffffffffffffffffffffffff1681526020019081526020015f205f6101000a81548160ff0219169083151502179055507fb251eb052afc73ffd02ffe85ad79990a8b3fed60d76dbc2fa2fdd7123dffd914816040516108a79190610b49565b60405180910390a160016002546108be9190610dae565b60028190555060015f9054906101000a900473ffffffffffffffffffffffffffffffffffffffff1673ffffffffffffffffffffffffffffffffffffffff166108fc3490811502906040515f60405180830381858888f19350505050158015610928573d5f803e3d5ffd5b5050565b8060015f6101000a81548173ffffffffffffffffffffffffffffffffffffffff021916908373ffffffffffffffffffffffffffffffffffffffff16021790555050565b5f80fd5b5f73ffffffffffffffffffffffffffffffffffffffff82169050919050565b5f61099c82610973565b9050919050565b6109ac81610992565b81146109b6575f80fd5b50565b5f813590506109c7816109a3565b92915050565b5f602082840312156109e2576109e161096f565b5b5f6109ef848285016109b9565b91505092915050565b5f8115159050919050565b610a0c816109f8565b82525050565b5f602082019050610a255f830184610a03565b92915050565b5f819050919050565b610a3d81610a2b565b82525050565b5f602082019050610a565f830184610a34565b92915050565b5f610a6682610973565b9050919050565b610a7681610a5c565b8114610a80575f80fd5b50565b5f81359050610a9181610a6d565b92915050565b5f60208284031215610aac57610aab61096f565b5b5f610ab984828501610a83565b91505092915050565b5f82825260208201905092915050565b7f4e6f206578697374652065737465206d69656d62726f000000000000000000005f82015250565b5f610b06601683610ac2565b9150610b1182610ad2565b602082019050919050565b5f6020820190508181035f830152610b3381610afa565b9050919050565b610b4381610992565b82525050565b5f602082019050610b5c5f830184610b3a565b92915050565b7f4e487b71000000000000000000000000000000000000000000000000000000005f52601160045260245ffd5b5f610b9982610a2b565b9150610ba483610a2b565b9250828203905081811115610bbc57610bbb610b62565b5b92915050565b7f536f6c6f206f6a6561646f7265732070756564656e207265616c697a617220655f8201527f73746120616363696f6e00000000000000000000000000000000000000000000602082015250565b5f610c1c602a83610ac2565b9150610c2782610bc2565b604082019050919050565b5f6020820190508181035f830152610c4981610c10565b9050919050565b7f4e6f206578697374652065737465204f6a6561646f72000000000000000000005f82015250565b5f610c84601683610ac2565b9150610c8f82610c50565b602082019050919050565b5f6020820190508181035f830152610cb181610c78565b9050919050565b7f4c6120646972656363696f6e20696e67726573616461207961206573746120615f8201527f637475616c6d656e746520726567697374726164612e00000000000000000000602082015250565b5f610d12603683610ac2565b9150610d1d82610cb8565b604082019050919050565b5f6020820190508181035f830152610d3f81610d06565b9050919050565b7f2d000000000000000000000000000000000000000000000000000000000000005f82015250565b5f610d7a600183610ac2565b9150610d8582610d46565b602082019050919050565b5f6020820190508181035f830152610da781610d6e565b9050919050565b5f610db882610a2b565b9150610dc383610a2b565b9250828201905080821115610ddb57610dda610b62565b5b9291505056fea264697066735822122013c43ce907f6d4f1546ae95c10f49440c011aa5f3dac0cb62833907aeebb167e64736f6c63430008190033",
					"opcodes": "PUSH1 0x80 PUSH1 0x40 MSTORE CALLVALUE DUP1 ISZERO PUSH1 0xE JUMPI PUSH0 DUP1 REVERT JUMPDEST POP PUSH1 0x1 PUSH0 DUP1 CALLER PUSH20 0xFFFFFFFFFFFFFFFFFFFFFFFFFFFFFFFFFFFFFFFF AND PUSH20 0xFFFFFFFFFFFFFFFFFFFFFFFFFFFFFFFFFFFFFFFF AND DUP2 MSTORE PUSH1 0x20 ADD SWAP1 DUP2 MSTORE PUSH1 0x20 ADD PUSH0 KECCAK256 PUSH0 PUSH2 0x100 EXP DUP2 SLOAD DUP2 PUSH1 0xFF MUL NOT AND SWAP1 DUP4 ISZERO ISZERO MUL OR SWAP1 SSTORE POP PUSH1 0x1 PUSH1 0x2 DUP2 SWAP1 SSTORE POP PUSH1 0x1 PUSH1 0x3 PUSH0 CALLER PUSH20 0xFFFFFFFFFFFFFFFFFFFFFFFFFFFFFFFFFFFFFFFF AND PUSH20 0xFFFFFFFFFFFFFFFFFFFFFFFFFFFFFFFFFFFFFFFF AND DUP2 MSTORE PUSH1 0x20 ADD SWAP1 DUP2 MSTORE PUSH1 0x20 ADD PUSH0 KECCAK256 PUSH0 PUSH2 0x100 EXP DUP2 SLOAD DUP2 PUSH1 0xFF MUL NOT AND SWAP1 DUP4 ISZERO ISZERO MUL OR SWAP1 SSTORE POP PUSH2 0xE17 DUP1 PUSH2 0xCD PUSH0 CODECOPY PUSH0 RETURN INVALID PUSH1 0x80 PUSH1 0x40 MSTORE PUSH1 0x4 CALLDATASIZE LT PUSH2 0x85 JUMPI PUSH0 CALLDATALOAD PUSH1 0xE0 SHR DUP1 PUSH4 0x8654AD8E GT PUSH2 0x58 JUMPI DUP1 PUSH4 0x8654AD8E EQ PUSH2 0x13D JUMPI DUP1 PUSH4 0xA230C524 EQ PUSH2 0x179 JUMPI DUP1 PUSH4 0xA87D942C EQ PUSH2 0x1B5 JUMPI DUP1 PUSH4 0xCA6D56DC EQ PUSH2 0x1DF JUMPI DUP1 PUSH4 0xE73A914C EQ PUSH2 0x1FB JUMPI PUSH2 0x85 JUMP JUMPDEST DUP1 PUSH4 0xB1CA49A EQ PUSH2 0x89 JUMPI DUP1 PUSH4 0x248FDCE9 EQ PUSH2 0xB1 JUMPI DUP1 PUSH4 0x2D5545A9 EQ PUSH2 0xD9 JUMPI DUP1 PUSH4 0x49ACA594 EQ PUSH2 0x115 JUMPI JUMPDEST PUSH0 DUP1 REVERT JUMPDEST CALLVALUE DUP1 ISZERO PUSH2 0x94 JUMPI PUSH0 DUP1 REVERT JUMPDEST POP PUSH2 0xAF PUSH1 0x4 DUP1 CALLDATASIZE SUB DUP2 ADD SWAP1 PUSH2 0xAA SWAP2 SWAP1 PUSH2 0x9CD JUMP JUMPDEST PUSH2 0x223 JUMP JUMPDEST STOP JUMPDEST CALLVALUE DUP1 ISZERO PUSH2 0xBC JUMPI PUSH0 DUP1 REVERT JUMPDEST POP PUSH2 0xD7 PUSH1 0x4 DUP1 CALLDATASIZE SUB DUP2 ADD SWAP1 PUSH2 0xD2 SWAP2 SWAP1 PUSH2 0x9CD JUMP JUMPDEST PUSH2 0x34D JUMP JUMPDEST STOP JUMPDEST CALLVALUE DUP1 ISZERO PUSH2 0xE4 JUMPI PUSH0 DUP1 REVERT JUMPDEST POP PUSH2 0xFF PUSH1 0x4 DUP1 CALLDATASIZE SUB DUP2 ADD SWAP1 PUSH2 0xFA SWAP2 SWAP1 PUSH2 0x9CD JUMP JUMPDEST PUSH2 0x4ED JUMP JUMPDEST PUSH1 0x40 MLOAD PUSH2 0x10C SWAP2 SWAP1 PUSH2 0xA12 JUMP JUMPDEST PUSH1 0x40 MLOAD DUP1 SWAP2 SUB SWAP1 RETURN JUMPDEST CALLVALUE DUP1 ISZERO PUSH2 0x120 JUMPI PUSH0 DUP1 REVERT JUMPDEST POP PUSH2 0x13B PUSH1 0x4 DUP1 CALLDATASIZE SUB DUP2 ADD SWAP1 PUSH2 0x136 SWAP2 SWAP1 PUSH2 0x9CD JUMP JUMPDEST PUSH2 0x50A JUMP JUMPDEST STOP JUMPDEST CALLVALUE DUP1 ISZERO PUSH2 0x148 JUMPI PUSH0 DUP1 REVERT JUMPDEST POP PUSH2 0x163 PUSH1 0x4 DUP1 CALLDATASIZE SUB DUP2 ADD SWAP1 PUSH2 0x15E SWAP2 SWAP1 PUSH2 0x9CD JUMP JUMPDEST PUSH2 0x6AC JUMP JUMPDEST PUSH1 0x40 MLOAD PUSH2 0x170 SWAP2 SWAP1 PUSH2 0xA12 JUMP JUMPDEST PUSH1 0x40 MLOAD DUP1 SWAP2 SUB SWAP1 RETURN JUMPDEST CALLVALUE DUP1 ISZERO PUSH2 0x184 JUMPI PUSH0 DUP1 REVERT JUMPDEST POP PUSH2 0x19F PUSH1 0x4 DUP1 CALLDATASIZE SUB DUP2 ADD SWAP1 PUSH2 0x19A SWAP2 SWAP1 PUSH2 0x9CD JUMP JUMPDEST PUSH2 0x6FE JUMP JUMPDEST PUSH1 0x40 MLOAD PUSH2 0x1AC SWAP2 SWAP1 PUSH2 0xA12 JUMP JUMPDEST PUSH1 0x40 MLOAD DUP1 SWAP2 SUB SWAP1 RETURN JUMPDEST CALLVALUE DUP1 ISZERO PUSH2 0x1C0 JUMPI PUSH0 DUP1 REVERT JUMPDEST POP PUSH2 0x1C9 PUSH2 0x74F JUMP JUMPDEST PUSH1 0x40 MLOAD PUSH2 0x1D6 SWAP2 SWAP1 PUSH2 0xA43 JUMP JUMPDEST PUSH1 0x40 MLOAD DUP1 SWAP2 SUB SWAP1 RETURN JUMPDEST PUSH2 0x1F9 PUSH1 0x4 DUP1 CALLDATASIZE SUB DUP2 ADD SWAP1 PUSH2 0x1F4 SWAP2 SWAP1 PUSH2 0x9CD JUMP JUMPDEST PUSH2 0x758 JUMP JUMPDEST STOP JUMPDEST CALLVALUE DUP1 ISZERO PUSH2 0x206 JUMPI PUSH0 DUP1 REVERT JUMPDEST POP PUSH2 0x221 PUSH1 0x4 DUP1 CALLDATASIZE SUB DUP2 ADD SWAP1 PUSH2 0x21C SWAP2 SWAP1 PUSH2 0xA97 JUMP JUMPDEST PUSH2 0x92C JUMP JUMPDEST STOP JUMPDEST PUSH0 DUP1 DUP3 PUSH20 0xFFFFFFFFFFFFFFFFFFFFFFFFFFFFFFFFFFFFFFFF AND PUSH20 0xFFFFFFFFFFFFFFFFFFFFFFFFFFFFFFFFFFFFFFFF AND DUP2 MSTORE PUSH1 0x20 ADD SWAP1 DUP2 MSTORE PUSH1 0x20 ADD PUSH0 KECCAK256 PUSH0 SWAP1 SLOAD SWAP1 PUSH2 0x100 EXP SWAP1 DIV PUSH1 0xFF AND PUSH2 0x2AB JUMPI PUSH1 0x40 MLOAD PUSH32 0x8C379A000000000000000000000000000000000000000000000000000000000 DUP2 MSTORE PUSH1 0x4 ADD PUSH2 0x2A2 SWAP1 PUSH2 0xB1C JUMP JUMPDEST PUSH1 0x40 MLOAD DUP1 SWAP2 SUB SWAP1 REVERT JUMPDEST PUSH0 DUP1 PUSH0 DUP4 PUSH20 0xFFFFFFFFFFFFFFFFFFFFFFFFFFFFFFFFFFFFFFFF AND PUSH20 0xFFFFFFFFFFFFFFFFFFFFFFFFFFFFFFFFFFFFFFFF AND DUP2 MSTORE PUSH1 0x20 ADD SWAP1 DUP2 MSTORE PUSH1 0x20 ADD PUSH0 KECCAK256 PUSH0 PUSH2 0x100 EXP DUP2 SLOAD DUP2 PUSH1 0xFF MUL NOT AND SWAP1 DUP4 ISZERO ISZERO MUL OR SWAP1 SSTORE POP PUSH32 0x6E76FB4C77256006D9C38EC7D82B45A8C8F3C27B1D6766FFFC42DFB8DE684492 DUP2 PUSH1 0x40 MLOAD PUSH2 0x32D SWAP2 SWAP1 PUSH2 0xB49 JUMP JUMPDEST PUSH1 0x40 MLOAD DUP1 SWAP2 SUB SWAP1 LOG1 PUSH1 0x1 PUSH1 0x2 SLOAD PUSH2 0x344 SWAP2 SWAP1 PUSH2 0xB8F JUMP JUMPDEST PUSH1 0x2 DUP2 SWAP1 SSTORE POP POP JUMP JUMPDEST PUSH1 0x3 PUSH0 CALLER PUSH20 0xFFFFFFFFFFFFFFFFFFFFFFFFFFFFFFFFFFFFFFFF AND PUSH20 0xFFFFFFFFFFFFFFFFFFFFFFFFFFFFFFFFFFFFFFFF AND DUP2 MSTORE PUSH1 0x20 ADD SWAP1 DUP2 MSTORE PUSH1 0x20 ADD PUSH0 KECCAK256 PUSH0 SWAP1 SLOAD SWAP1 PUSH2 0x100 EXP SWAP1 DIV PUSH1 0xFF AND PUSH2 0x3D6 JUMPI PUSH1 0x40 MLOAD PUSH32 0x8C379A000000000000000000000000000000000000000000000000000000000 DUP2 MSTORE PUSH1 0x4 ADD PUSH2 0x3CD SWAP1 PUSH2 0xC32 JUMP JUMPDEST PUSH1 0x40 MLOAD DUP1 SWAP2 SUB SWAP1 REVERT JUMPDEST PUSH1 0x3 PUSH0 DUP3 PUSH20 0xFFFFFFFFFFFFFFFFFFFFFFFFFFFFFFFFFFFFFFFF AND PUSH20 0xFFFFFFFFFFFFFFFFFFFFFFFFFFFFFFFFFFFFFFFF AND DUP2 MSTORE PUSH1 0x20 ADD SWAP1 DUP2 MSTORE PUSH1 0x20 ADD PUSH0 KECCAK256 PUSH0 SWAP1 SLOAD SWAP1 PUSH2 0x100 EXP SWAP1 DIV PUSH1 0xFF AND PUSH2 0x45F JUMPI PUSH1 0x40 MLOAD PUSH32 0x8C379A000000000000000000000000000000000000000000000000000000000 DUP2 MSTORE PUSH1 0x4 ADD PUSH2 0x456 SWAP1 PUSH2 0xC9A JUMP JUMPDEST PUSH1 0x40 MLOAD DUP1 SWAP2 SUB SWAP1 REVERT JUMPDEST PUSH0 PUSH1 0x3 PUSH0 DUP4 PUSH20 0xFFFFFFFFFFFFFFFFFFFFFFFFFFFFFFFFFFFFFFFF AND PUSH20 0xFFFFFFFFFFFFFFFFFFFFFFFFFFFFFFFFFFFFFFFF AND DUP2 MSTORE PUSH1 0x20 ADD SWAP1 DUP2 MSTORE PUSH1 0x20 ADD PUSH0 KECCAK256 PUSH0 PUSH2 0x100 EXP DUP2 SLOAD DUP2 PUSH1 0xFF MUL NOT AND SWAP1 DUP4 ISZERO ISZERO MUL OR SWAP1 SSTORE POP PUSH32 0x682828943BD9D40A434BC578BED0C7B86F6D4B6B60B4DF9F31AE37610A66854F DUP2 PUSH1 0x40 MLOAD PUSH2 0x4E2 SWAP2 SWAP1 PUSH2 0xB49 JUMP JUMPDEST PUSH1 0x40 MLOAD DUP1 SWAP2 SUB SWAP1 LOG1 POP JUMP JUMPDEST PUSH1 0x3 PUSH1 0x20 MSTORE DUP1 PUSH0 MSTORE PUSH1 0x40 PUSH0 KECCAK256 PUSH0 SWAP2 POP SLOAD SWAP1 PUSH2 0x100 EXP SWAP1 DIV PUSH1 0xFF AND DUP2 JUMP JUMPDEST PUSH1 0x3 PUSH0 CALLER PUSH20 0xFFFFFFFFFFFFFFFFFFFFFFFFFFFFFFFFFFFFFFFF AND PUSH20 0xFFFFFFFFFFFFFFFFFFFFFFFFFFFFFFFFFFFFFFFF AND DUP2 MSTORE PUSH1 0x20 ADD SWAP1 DUP2 MSTORE PUSH1 0x20 ADD PUSH0 KECCAK256 PUSH0 SWAP1 SLOAD SWAP1 PUSH2 0x100 EXP SWAP1 DIV PUSH1 0xFF AND PUSH2 0x593 JUMPI PUSH1 0x40 MLOAD PUSH32 0x8C379A000000000000000000000000000000000000000000000000000000000 DUP2 MSTORE PUSH1 0x4 ADD PUSH2 0x58A SWAP1 PUSH2 0xC32 JUMP JUMPDEST PUSH1 0x40 MLOAD DUP1 SWAP2 SUB SWAP1 REVERT JUMPDEST PUSH1 0x3 PUSH0 DUP3 PUSH20 0xFFFFFFFFFFFFFFFFFFFFFFFFFFFFFFFFFFFFFFFF AND PUSH20 0xFFFFFFFFFFFFFFFFFFFFFFFFFFFFFFFFFFFFFFFF AND DUP2 MSTORE PUSH1 0x20 ADD SWAP1 DUP2 MSTORE PUSH1 0x20 ADD PUSH0 KECCAK256 PUSH0 SWAP1 SLOAD SWAP1 PUSH2 0x100 EXP SWAP1 DIV PUSH1 0xFF AND ISZERO PUSH2 0x61D JUMPI PUSH1 0x40 MLOAD PUSH32 0x8C379A000000000000000000000000000000000000000000000000000000000 DUP2 MSTORE PUSH1 0x4 ADD PUSH2 0x614 SWAP1 PUSH2 0xD28 JUMP JUMPDEST PUSH1 0x40 MLOAD DUP1 SWAP2 SUB SWAP1 REVERT JUMPDEST PUSH1 0x1 PUSH1 0x3 PUSH0 DUP4 PUSH20 0xFFFFFFFFFFFFFFFFFFFFFFFFFFFFFFFFFFFFFFFF AND PUSH20 0xFFFFFFFFFFFFFFFFFFFFFFFFFFFFFFFFFFFFFFFF AND DUP2 MSTORE PUSH1 0x20 ADD SWAP1 DUP2 MSTORE PUSH1 0x20 ADD PUSH0 KECCAK256 PUSH0 PUSH2 0x100 EXP DUP2 SLOAD DUP2 PUSH1 0xFF MUL NOT AND SWAP1 DUP4 ISZERO ISZERO MUL OR SWAP1 SSTORE POP PUSH32 0x56E5AC9F290E03B6E84BBC9D97F71D5A2D6D6A749372C9E595F2B040E7BA73C7 DUP2 PUSH1 0x40 MLOAD PUSH2 0x6A1 SWAP2 SWAP1 PUSH2 0xB49 JUMP JUMPDEST PUSH1 0x40 MLOAD DUP1 SWAP2 SUB SWAP1 LOG1 POP JUMP JUMPDEST PUSH0 PUSH1 0x3 PUSH0 DUP4 PUSH20 0xFFFFFFFFFFFFFFFFFFFFFFFFFFFFFFFFFFFFFFFF AND PUSH20 0xFFFFFFFFFFFFFFFFFFFFFFFFFFFFFFFFFFFFFFFF AND DUP2 MSTORE PUSH1 0x20 ADD SWAP1 DUP2 MSTORE PUSH1 0x20 ADD PUSH0 KECCAK256 PUSH0 SWAP1 SLOAD SWAP1 PUSH2 0x100 EXP SWAP1 DIV PUSH1 0xFF AND SWAP1 POP SWAP2 SWAP1 POP JUMP JUMPDEST PUSH0 DUP1 PUSH0 DUP4 PUSH20 0xFFFFFFFFFFFFFFFFFFFFFFFFFFFFFFFFFFFFFFFF AND PUSH20 0xFFFFFFFFFFFFFFFFFFFFFFFFFFFFFFFFFFFFFFFF AND DUP2 MSTORE PUSH1 0x20 ADD SWAP1 DUP2 MSTORE PUSH1 0x20 ADD PUSH0 KECCAK256 PUSH0 SWAP1 SLOAD SWAP1 PUSH2 0x100 EXP SWAP1 DIV PUSH1 0xFF AND SWAP1 POP SWAP2 SWAP1 POP JUMP JUMPDEST PUSH0 PUSH1 0x2 SLOAD SWAP1 POP SWAP1 JUMP JUMPDEST PUSH0 DUP1 DUP3 PUSH20 0xFFFFFFFFFFFFFFFFFFFFFFFFFFFFFFFFFFFFFFFF AND PUSH20 0xFFFFFFFFFFFFFFFFFFFFFFFFFFFFFFFFFFFFFFFF AND DUP2 MSTORE PUSH1 0x20 ADD SWAP1 DUP2 MSTORE PUSH1 0x20 ADD PUSH0 KECCAK256 PUSH0 SWAP1 SLOAD SWAP1 PUSH2 0x100 EXP SWAP1 DIV PUSH1 0xFF AND ISZERO PUSH2 0x7E1 JUMPI PUSH1 0x40 MLOAD PUSH32 0x8C379A000000000000000000000000000000000000000000000000000000000 DUP2 MSTORE PUSH1 0x4 ADD PUSH2 0x7D8 SWAP1 PUSH2 0xD28 JUMP JUMPDEST PUSH1 0x40 MLOAD DUP1 SWAP2 SUB SWAP1 REVERT JUMPDEST PUSH1 0x1 CALLVALUE GT PUSH2 0x824 JUMPI PUSH1 0x40 MLOAD PUSH32 0x8C379A000000000000000000000000000000000000000000000000000000000 DUP2 MSTORE PUSH1 0x4 ADD PUSH2 0x81B SWAP1 PUSH2 0xD90 JUMP JUMPDEST PUSH1 0x40 MLOAD DUP1 SWAP2 SUB SWAP1 REVERT JUMPDEST PUSH1 0x1 PUSH0 DUP1 DUP4 PUSH20 0xFFFFFFFFFFFFFFFFFFFFFFFFFFFFFFFFFFFFFFFF AND PUSH20 0xFFFFFFFFFFFFFFFFFFFFFFFFFFFFFFFFFFFFFFFF AND DUP2 MSTORE PUSH1 0x20 ADD SWAP1 DUP2 MSTORE PUSH1 0x20 ADD PUSH0 KECCAK256 PUSH0 PUSH2 0x100 EXP DUP2 SLOAD DUP2 PUSH1 0xFF MUL NOT AND SWAP1 DUP4 ISZERO ISZERO MUL OR SWAP1 SSTORE POP PUSH32 0xB251EB052AFC73FFD02FFE85AD79990A8B3FED60D76DBC2FA2FDD7123DFFD914 DUP2 PUSH1 0x40 MLOAD PUSH2 0x8A7 SWAP2 SWAP1 PUSH2 0xB49 JUMP JUMPDEST PUSH1 0x40 MLOAD DUP1 SWAP2 SUB SWAP1 LOG1 PUSH1 0x1 PUSH1 0x2 SLOAD PUSH2 0x8BE SWAP2 SWAP1 PUSH2 0xDAE JUMP JUMPDEST PUSH1 0x2 DUP2 SWAP1 SSTORE POP PUSH1 0x1 PUSH0 SWAP1 SLOAD SWAP1 PUSH2 0x100 EXP SWAP1 DIV PUSH20 0xFFFFFFFFFFFFFFFFFFFFFFFFFFFFFFFFFFFFFFFF AND PUSH20 0xFFFFFFFFFFFFFFFFFFFFFFFFFFFFFFFFFFFFFFFF AND PUSH2 0x8FC CALLVALUE SWAP1 DUP2 ISZERO MUL SWAP1 PUSH1 0x40 MLOAD PUSH0 PUSH1 0x40 MLOAD DUP1 DUP4 SUB DUP2 DUP6 DUP9 DUP9 CALL SWAP4 POP POP POP POP ISZERO DUP1 ISZERO PUSH2 0x928 JUMPI RETURNDATASIZE PUSH0 DUP1 RETURNDATACOPY RETURNDATASIZE PUSH0 REVERT JUMPDEST POP POP JUMP JUMPDEST DUP1 PUSH1 0x1 PUSH0 PUSH2 0x100 EXP DUP2 SLOAD DUP2 PUSH20 0xFFFFFFFFFFFFFFFFFFFFFFFFFFFFFFFFFFFFFFFF MUL NOT AND SWAP1 DUP4 PUSH20 0xFFFFFFFFFFFFFFFFFFFFFFFFFFFFFFFFFFFFFFFF AND MUL OR SWAP1 SSTORE POP POP JUMP JUMPDEST PUSH0 DUP1 REVERT JUMPDEST PUSH0 PUSH20 0xFFFFFFFFFFFFFFFFFFFFFFFFFFFFFFFFFFFFFFFF DUP3 AND SWAP1 POP SWAP2 SWAP1 POP JUMP JUMPDEST PUSH0 PUSH2 0x99C DUP3 PUSH2 0x973 JUMP JUMPDEST SWAP1 POP SWAP2 SWAP1 POP JUMP JUMPDEST PUSH2 0x9AC DUP2 PUSH2 0x992 JUMP JUMPDEST DUP2 EQ PUSH2 0x9B6 JUMPI PUSH0 DUP1 REVERT JUMPDEST POP JUMP JUMPDEST PUSH0 DUP2 CALLDATALOAD SWAP1 POP PUSH2 0x9C7 DUP2 PUSH2 0x9A3 JUMP JUMPDEST SWAP3 SWAP2 POP POP JUMP JUMPDEST PUSH0 PUSH1 0x20 DUP3 DUP5 SUB SLT ISZERO PUSH2 0x9E2 JUMPI PUSH2 0x9E1 PUSH2 0x96F JUMP JUMPDEST JUMPDEST PUSH0 PUSH2 0x9EF DUP5 DUP3 DUP6 ADD PUSH2 0x9B9 JUMP JUMPDEST SWAP2 POP POP SWAP3 SWAP2 POP POP JUMP JUMPDEST PUSH0 DUP2 ISZERO ISZERO SWAP1 POP SWAP2 SWAP1 POP JUMP JUMPDEST PUSH2 0xA0C DUP2 PUSH2 0x9F8 JUMP JUMPDEST DUP3 MSTORE POP POP JUMP JUMPDEST PUSH0 PUSH1 0x20 DUP3 ADD SWAP1 POP PUSH2 0xA25 PUSH0 DUP4 ADD DUP5 PUSH2 0xA03 JUMP JUMPDEST SWAP3 SWAP2 POP POP JUMP JUMPDEST PUSH0 DUP2 SWAP1 POP SWAP2 SWAP1 POP JUMP JUMPDEST PUSH2 0xA3D DUP2 PUSH2 0xA2B JUMP JUMPDEST DUP3 MSTORE POP POP JUMP JUMPDEST PUSH0 PUSH1 0x20 DUP3 ADD SWAP1 POP PUSH2 0xA56 PUSH0 DUP4 ADD DUP5 PUSH2 0xA34 JUMP JUMPDEST SWAP3 SWAP2 POP POP JUMP JUMPDEST PUSH0 PUSH2 0xA66 DUP3 PUSH2 0x973 JUMP JUMPDEST SWAP1 POP SWAP2 SWAP1 POP JUMP JUMPDEST PUSH2 0xA76 DUP2 PUSH2 0xA5C JUMP JUMPDEST DUP2 EQ PUSH2 0xA80 JUMPI PUSH0 DUP1 REVERT JUMPDEST POP JUMP JUMPDEST PUSH0 DUP2 CALLDATALOAD SWAP1 POP PUSH2 0xA91 DUP2 PUSH2 0xA6D JUMP JUMPDEST SWAP3 SWAP2 POP POP JUMP JUMPDEST PUSH0 PUSH1 0x20 DUP3 DUP5 SUB SLT ISZERO PUSH2 0xAAC JUMPI PUSH2 0xAAB PUSH2 0x96F JUMP JUMPDEST JUMPDEST PUSH0 PUSH2 0xAB9 DUP5 DUP3 DUP6 ADD PUSH2 0xA83 JUMP JUMPDEST SWAP2 POP POP SWAP3 SWAP2 POP POP JUMP JUMPDEST PUSH0 DUP3 DUP3 MSTORE PUSH1 0x20 DUP3 ADD SWAP1 POP SWAP3 SWAP2 POP POP JUMP JUMPDEST PUSH32 0x4E6F206578697374652065737465206D69656D62726F00000000000000000000 PUSH0 DUP3 ADD MSTORE POP JUMP JUMPDEST PUSH0 PUSH2 0xB06 PUSH1 0x16 DUP4 PUSH2 0xAC2 JUMP JUMPDEST SWAP2 POP PUSH2 0xB11 DUP3 PUSH2 0xAD2 JUMP JUMPDEST PUSH1 0x20 DUP3 ADD SWAP1 POP SWAP2 SWAP1 POP JUMP JUMPDEST PUSH0 PUSH1 0x20 DUP3 ADD SWAP1 POP DUP2 DUP2 SUB PUSH0 DUP4 ADD MSTORE PUSH2 0xB33 DUP2 PUSH2 0xAFA JUMP JUMPDEST SWAP1 POP SWAP2 SWAP1 POP JUMP JUMPDEST PUSH2 0xB43 DUP2 PUSH2 0x992 JUMP JUMPDEST DUP3 MSTORE POP POP JUMP JUMPDEST PUSH0 PUSH1 0x20 DUP3 ADD SWAP1 POP PUSH2 0xB5C PUSH0 DUP4 ADD DUP5 PUSH2 0xB3A JUMP JUMPDEST SWAP3 SWAP2 POP POP JUMP JUMPDEST PUSH32 0x4E487B7100000000000000000000000000000000000000000000000000000000 PUSH0 MSTORE PUSH1 0x11 PUSH1 0x4 MSTORE PUSH1 0x24 PUSH0 REVERT JUMPDEST PUSH0 PUSH2 0xB99 DUP3 PUSH2 0xA2B JUMP JUMPDEST SWAP2 POP PUSH2 0xBA4 DUP4 PUSH2 0xA2B JUMP JUMPDEST SWAP3 POP DUP3 DUP3 SUB SWAP1 POP DUP2 DUP2 GT ISZERO PUSH2 0xBBC JUMPI PUSH2 0xBBB PUSH2 0xB62 JUMP JUMPDEST JUMPDEST SWAP3 SWAP2 POP POP JUMP JUMPDEST PUSH32 0x536F6C6F206F6A6561646F7265732070756564656E207265616C697A61722065 PUSH0 DUP3 ADD MSTORE PUSH32 0x73746120616363696F6E00000000000000000000000000000000000000000000 PUSH1 0x20 DUP3 ADD MSTORE POP JUMP JUMPDEST PUSH0 PUSH2 0xC1C PUSH1 0x2A DUP4 PUSH2 0xAC2 JUMP JUMPDEST SWAP2 POP PUSH2 0xC27 DUP3 PUSH2 0xBC2 JUMP JUMPDEST PUSH1 0x40 DUP3 ADD SWAP1 POP SWAP2 SWAP1 POP JUMP JUMPDEST PUSH0 PUSH1 0x20 DUP3 ADD SWAP1 POP DUP2 DUP2 SUB PUSH0 DUP4 ADD MSTORE PUSH2 0xC49 DUP2 PUSH2 0xC10 JUMP JUMPDEST SWAP1 POP SWAP2 SWAP1 POP JUMP JUMPDEST PUSH32 0x4E6F206578697374652065737465204F6A6561646F7200000000000000000000 PUSH0 DUP3 ADD MSTORE POP JUMP JUMPDEST PUSH0 PUSH2 0xC84 PUSH1 0x16 DUP4 PUSH2 0xAC2 JUMP JUMPDEST SWAP2 POP PUSH2 0xC8F DUP3 PUSH2 0xC50 JUMP JUMPDEST PUSH1 0x20 DUP3 ADD SWAP1 POP SWAP2 SWAP1 POP JUMP JUMPDEST PUSH0 PUSH1 0x20 DUP3 ADD SWAP1 POP DUP2 DUP2 SUB PUSH0 DUP4 ADD MSTORE PUSH2 0xCB1 DUP2 PUSH2 0xC78 JUMP JUMPDEST SWAP1 POP SWAP2 SWAP1 POP JUMP JUMPDEST PUSH32 0x4C6120646972656363696F6E20696E6772657361646120796120657374612061 PUSH0 DUP3 ADD MSTORE PUSH32 0x637475616C6D656E746520726567697374726164612E00000000000000000000 PUSH1 0x20 DUP3 ADD MSTORE POP JUMP JUMPDEST PUSH0 PUSH2 0xD12 PUSH1 0x36 DUP4 PUSH2 0xAC2 JUMP JUMPDEST SWAP2 POP PUSH2 0xD1D DUP3 PUSH2 0xCB8 JUMP JUMPDEST PUSH1 0x40 DUP3 ADD SWAP1 POP SWAP2 SWAP1 POP JUMP JUMPDEST PUSH0 PUSH1 0x20 DUP3 ADD SWAP1 POP DUP2 DUP2 SUB PUSH0 DUP4 ADD MSTORE PUSH2 0xD3F DUP2 PUSH2 0xD06 JUMP JUMPDEST SWAP1 POP SWAP2 SWAP1 POP JUMP JUMPDEST PUSH32 0x2D00000000000000000000000000000000000000000000000000000000000000 PUSH0 DUP3 ADD MSTORE POP JUMP JUMPDEST PUSH0 PUSH2 0xD7A PUSH1 0x1 DUP4 PUSH2 0xAC2 JUMP JUMPDEST SWAP2 POP PUSH2 0xD85 DUP3 PUSH2 0xD46 JUMP JUMPDEST PUSH1 0x20 DUP3 ADD SWAP1 POP SWAP2 SWAP1 POP JUMP JUMPDEST PUSH0 PUSH1 0x20 DUP3 ADD SWAP1 POP DUP2 DUP2 SUB PUSH0 DUP4 ADD MSTORE PUSH2 0xDA7 DUP2 PUSH2 0xD6E JUMP JUMPDEST SWAP1 POP SWAP2 SWAP1 POP JUMP JUMPDEST PUSH0 PUSH2 0xDB8 DUP3 PUSH2 0xA2B JUMP JUMPDEST SWAP2 POP PUSH2 0xDC3 DUP4 PUSH2 0xA2B JUMP JUMPDEST SWAP3 POP DUP3 DUP3 ADD SWAP1 POP DUP1 DUP3 GT ISZERO PUSH2 0xDDB JUMPI PUSH2 0xDDA PUSH2 0xB62 JUMP JUMPDEST JUMPDEST SWAP3 SWAP2 POP POP JUMP INVALID LOG2 PUSH5 0x6970667358 0x22 SLT KECCAK256 SGT 0xC4 EXTCODECOPY 0xE9 SMOD 0xF6 0xD4 CALL SLOAD PUSH11 0xE95C10F49440C011AA5F3D 0xAC 0xC 0xB6 0x28 CALLER SWAP1 PUSH27 0xEEBB167E64736F6C63430008190033000000000000000000000000 "
				},
				"gasEstimates": {
					"creation": {
						"codeDepositCost": "721400",
						"executionCost": "71571",
						"totalCost": "792971"
					},
					"external": {
						"addMember(address)": "infinite",
						"addOjeador(address)": "infinite",
						"getCount()": "2476",
						"isMember(address)": "2892",
						"isOjeador(address)": "2870",
						"ojeadores(address)": "2878",
						"removeMember(address)": "infinite",
						"removeOjeador(address)": "infinite",
						"setDAO(address)": "24803"
					}
				},
				"methodIdentifiers": {
					"addMember(address)": "ca6d56dc",
					"addOjeador(address)": "49aca594",
					"getCount()": "a87d942c",
					"isMember(address)": "a230c524",
					"isOjeador(address)": "8654ad8e",
					"ojeadores(address)": "2d5545a9",
					"removeMember(address)": "0b1ca49a",
					"removeOjeador(address)": "248fdce9",
					"setDAO(address)": "e73a914c"
				}
			},
			"storageLayout": {
				"storage": [
					{
						"astId": 5,
						"contract": "TP-DAO24/desarrollo-de-una-dao/contracts/Ojeador.sol:Ojeador",
						"label": "members",
						"offset": 0,
						"slot": "0",
						"type": "t_mapping(t_address,t_bool)"
					},
					{
						"astId": 7,
						"contract": "TP-DAO24/desarrollo-de-una-dao/contracts/Ojeador.sol:Ojeador",
						"label": "DAO",
						"offset": 0,
						"slot": "1",
						"type": "t_address_payable"
					},
					{
						"astId": 9,
						"contract": "TP-DAO24/desarrollo-de-una-dao/contracts/Ojeador.sol:Ojeador",
						"label": "count",
						"offset": 0,
						"slot": "2",
						"type": "t_uint256"
					},
					{
						"astId": 146,
						"contract": "TP-DAO24/desarrollo-de-una-dao/contracts/Ojeador.sol:Ojeador",
						"label": "ojeadores",
						"offset": 0,
						"slot": "3",
						"type": "t_mapping(t_address,t_bool)"
					}
				],
				"types": {
					"t_address": {
						"encoding": "inplace",
						"label": "address",
						"numberOfBytes": "20"
					},
					"t_address_payable": {
						"encoding": "inplace",
						"label": "address payable",
						"numberOfBytes": "20"
					},
					"t_bool": {
						"encoding": "inplace",
						"label": "bool",
						"numberOfBytes": "1"
					},
					"t_mapping(t_address,t_bool)": {
						"encoding": "mapping",
						"key": "t_address",
						"label": "mapping(address => bool)",
						"numberOfBytes": "32",
						"value": "t_bool"
					},
					"t_uint256": {
						"encoding": "inplace",
						"label": "uint256",
						"numberOfBytes": "32"
					}
				}
			},
			"userdoc": {
				"kind": "user",
				"methods": {},
				"version": 1
			}
		}
	}
}