{
	"desarrollo-de-una-dao/contracts/Ojeador.sol": {
		"Ojeador": {
			"abi": [
				{
					"inputs": [],
					"stateMutability": "nonpayable",
					"type": "constructor"
				},
				{
					"anonymous": false,
					"inputs": [
						{
							"indexed": false,
							"internalType": "address",
							"name": "member",
							"type": "address"
						}
					],
					"name": "MemberAdded",
					"type": "event"
				},
				{
					"anonymous": false,
					"inputs": [
						{
							"indexed": false,
							"internalType": "address",
							"name": "member",
							"type": "address"
						}
					],
					"name": "MemberRemoved",
					"type": "event"
				},
				{
					"anonymous": false,
					"inputs": [
						{
							"indexed": false,
							"internalType": "address",
							"name": "ojeador",
							"type": "address"
						}
					],
					"name": "OjeadorAdded",
					"type": "event"
				},
				{
					"anonymous": false,
					"inputs": [
						{
							"indexed": false,
							"internalType": "address",
							"name": "ojeador",
							"type": "address"
						}
					],
					"name": "OjeadorRemoved",
					"type": "event"
				},
				{
					"inputs": [
						{
							"internalType": "address",
							"name": "_member",
							"type": "address"
						}
					],
					"name": "addMember",
					"outputs": [],
					"stateMutability": "payable",
					"type": "function"
				},
				{
					"inputs": [
						{
							"internalType": "address",
							"name": "_ojeador",
							"type": "address"
						}
					],
					"name": "addOjeador",
					"outputs": [],
					"stateMutability": "nonpayable",
					"type": "function"
				},
				{
					"inputs": [],
					"name": "getCount",
					"outputs": [
						{
							"internalType": "uint256",
							"name": "",
							"type": "uint256"
						}
					],
					"stateMutability": "view",
					"type": "function"
				},
				{
					"inputs": [
						{
							"internalType": "address",
							"name": "_address",
							"type": "address"
						}
					],
					"name": "isMember",
					"outputs": [
						{
							"internalType": "bool",
							"name": "",
							"type": "bool"
						}
					],
					"stateMutability": "view",
					"type": "function"
				},
				{
					"inputs": [
						{
							"internalType": "address",
							"name": "_address",
							"type": "address"
						}
					],
					"name": "isOjeador",
					"outputs": [
						{
							"internalType": "bool",
							"name": "",
							"type": "bool"
						}
					],
					"stateMutability": "view",
					"type": "function"
				},
				{
					"inputs": [
						{
							"internalType": "address",
							"name": "",
							"type": "address"
						}
					],
					"name": "ojeadores",
					"outputs": [
						{
							"internalType": "bool",
							"name": "",
							"type": "bool"
						}
					],
					"stateMutability": "view",
					"type": "function"
				},
				{
					"inputs": [
						{
							"internalType": "address",
							"name": "_member",
							"type": "address"
						}
					],
					"name": "removeMember",
					"outputs": [],
					"stateMutability": "nonpayable",
					"type": "function"
				},
				{
					"inputs": [
						{
							"internalType": "address",
							"name": "_ojeador",
							"type": "address"
						}
					],
					"name": "removeOjeador",
					"outputs": [],
					"stateMutability": "nonpayable",
					"type": "function"
				},
				{
					"inputs": [
						{
							"internalType": "address payable",
							"name": "dao_",
							"type": "address"
						}
					],
					"name": "setDAO",
					"outputs": [],
					"stateMutability": "nonpayable",
					"type": "function"
				}
			],
			"devdoc": {
				"kind": "dev",
				"methods": {},
				"version": 1
			},
			"evm": {
				"assembly": "    /* \"desarrollo-de-una-dao/contracts/Ojeador.sol\":122:1094  contract Ojeador is Member {... */\n  mstore(0x40, 0x80)\n    /* \"desarrollo-de-una-dao/contracts/Ojeador.sol\":250:308  constructor(){... */\n  callvalue\n  dup1\n  iszero\n  tag_1\n  jumpi\n  0x00\n  dup1\n  revert\ntag_1:\n  pop\n    /* \"desarrollo-de-una-dao/contracts/Member.sol\":337:341  true */\n  0x01\n    /* \"desarrollo-de-una-dao/contracts/Member.sol\":315:322  members */\n  0x00\n    /* \"desarrollo-de-una-dao/contracts/Member.sol\":315:334  members[msg.sender] */\n  dup1\n    /* \"desarrollo-de-una-dao/contracts/Member.sol\":323:333  msg.sender */\n  caller\n    /* \"desarrollo-de-una-dao/contracts/Member.sol\":315:334  members[msg.sender] */\n  0xffffffffffffffffffffffffffffffffffffffff\n  and\n  0xffffffffffffffffffffffffffffffffffffffff\n  and\n  dup2\n  mstore\n  0x20\n  add\n  swap1\n  dup2\n  mstore\n  0x20\n  add\n  0x00\n  keccak256\n  0x00\n    /* \"desarrollo-de-una-dao/contracts/Member.sol\":315:341  members[msg.sender] = true */\n  0x0100\n  exp\n  dup2\n  sload\n  dup2\n  0xff\n  mul\n  not\n  and\n  swap1\n  dup4\n  iszero\n  iszero\n  mul\n  or\n  swap1\n  sstore\n  pop\n    /* \"desarrollo-de-una-dao/contracts/Member.sol\":359:360  1 */\n  0x01\n    /* \"desarrollo-de-una-dao/contracts/Member.sol\":351:356  count */\n  0x02\n    /* \"desarrollo-de-una-dao/contracts/Member.sol\":351:360  count = 1 */\n  dup2\n  swap1\n  sstore\n  pop\n    /* \"desarrollo-de-una-dao/contracts/Ojeador.sol\":297:301  true */\n  0x01\n    /* \"desarrollo-de-una-dao/contracts/Ojeador.sol\":273:282  ojeadores */\n  0x03\n    /* \"desarrollo-de-una-dao/contracts/Ojeador.sol\":273:294  ojeadores[msg.sender] */\n  0x00\n    /* \"desarrollo-de-una-dao/contracts/Ojeador.sol\":283:293  msg.sender */\n  caller\n    /* \"desarrollo-de-una-dao/contracts/Ojeador.sol\":273:294  ojeadores[msg.sender] */\n  0xffffffffffffffffffffffffffffffffffffffff\n  and\n  0xffffffffffffffffffffffffffffffffffffffff\n  and\n  dup2\n  mstore\n  0x20\n  add\n  swap1\n  dup2\n  mstore\n  0x20\n  add\n  0x00\n  keccak256\n  0x00\n    /* \"desarrollo-de-una-dao/contracts/Ojeador.sol\":273:301  ojeadores[msg.sender] = true */\n  0x0100\n  exp\n  dup2\n  sload\n  dup2\n  0xff\n  mul\n  not\n  and\n  swap1\n  dup4\n  iszero\n  iszero\n  mul\n  or\n  swap1\n  sstore\n  pop\n    /* \"desarrollo-de-una-dao/contracts/Ojeador.sol\":122:1094  contract Ojeador is Member {... */\n  dataSize(sub_0)\n  dup1\n  dataOffset(sub_0)\n  0x00\n  codecopy\n  0x00\n  return\nstop\n\nsub_0: assembly {\n        /* \"desarrollo-de-una-dao/contracts/Ojeador.sol\":122:1094  contract Ojeador is Member {... */\n      mstore(0x40, 0x80)\n      jumpi(tag_1, lt(calldatasize, 0x04))\n      shr(0xe0, calldataload(0x00))\n      dup1\n      0x8654ad8e\n      gt\n      tag_11\n      jumpi\n      dup1\n      0x8654ad8e\n      eq\n      tag_6\n      jumpi\n      dup1\n      0xa230c524\n      eq\n      tag_7\n      jumpi\n      dup1\n      0xa87d942c\n      eq\n      tag_8\n      jumpi\n      dup1\n      0xca6d56dc\n      eq\n      tag_9\n      jumpi\n      dup1\n      0xe73a914c\n      eq\n      tag_10\n      jumpi\n      jump(tag_1)\n    tag_11:\n      dup1\n      0x0b1ca49a\n      eq\n      tag_2\n      jumpi\n      dup1\n      0x248fdce9\n      eq\n      tag_3\n      jumpi\n      dup1\n      0x2d5545a9\n      eq\n      tag_4\n      jumpi\n      dup1\n      0x49aca594\n      eq\n      tag_5\n      jumpi\n    tag_1:\n      0x00\n      dup1\n      revert\n        /* \"desarrollo-de-una-dao/contracts/Member.sol\":865:1079  function removeMember(address _member) external {... */\n    tag_2:\n      callvalue\n      dup1\n      iszero\n      tag_12\n      jumpi\n      0x00\n      dup1\n      revert\n    tag_12:\n      pop\n      tag_13\n      0x04\n      dup1\n      calldatasize\n      sub\n      dup2\n      add\n      swap1\n      tag_14\n      swap2\n      swap1\n      tag_15\n      jump\t// in\n    tag_14:\n      tag_16\n      jump\t// in\n    tag_13:\n      stop\n        /* \"desarrollo-de-una-dao/contracts/Ojeador.sol\":718:915  function removeOjeador(address _ojeador) external {... */\n    tag_3:\n      callvalue\n      dup1\n      iszero\n      tag_17\n      jumpi\n      0x00\n      dup1\n      revert\n    tag_17:\n      pop\n      tag_18\n      0x04\n      dup1\n      calldatasize\n      sub\n      dup2\n      add\n      swap1\n      tag_19\n      swap2\n      swap1\n      tag_15\n      jump\t// in\n    tag_19:\n      tag_20\n      jump\t// in\n    tag_18:\n      stop\n        /* \"desarrollo-de-una-dao/contracts/Ojeador.sol\":202:243  mapping(address => bool) public ojeadores */\n    tag_4:\n      callvalue\n      dup1\n      iszero\n      tag_21\n      jumpi\n      0x00\n      dup1\n      revert\n    tag_21:\n      pop\n      tag_22\n      0x04\n      dup1\n      calldatasize\n      sub\n      dup2\n      add\n      swap1\n      tag_23\n      swap2\n      swap1\n      tag_15\n      jump\t// in\n    tag_23:\n      tag_24\n      jump\t// in\n    tag_22:\n      mload(0x40)\n      tag_25\n      swap2\n      swap1\n      tag_26\n      jump\t// in\n    tag_25:\n      mload(0x40)\n      dup1\n      swap2\n      sub\n      swap1\n      return\n        /* \"desarrollo-de-una-dao/contracts/Ojeador.sol\":446:671  function addOjeador(address _ojeador) external {... */\n    tag_5:\n      callvalue\n      dup1\n      iszero\n      tag_27\n      jumpi\n      0x00\n      dup1\n      revert\n    tag_27:\n      pop\n      tag_28\n      0x04\n      dup1\n      calldatasize\n      sub\n      dup2\n      add\n      swap1\n      tag_29\n      swap2\n      swap1\n      tag_15\n      jump\t// in\n    tag_29:\n      tag_30\n      jump\t// in\n    tag_28:\n      stop\n        /* \"desarrollo-de-una-dao/contracts/Ojeador.sol\":981:1090  function isOjeador(address _address) external view returns (bool) {... */\n    tag_6:\n      callvalue\n      dup1\n      iszero\n      tag_31\n      jumpi\n      0x00\n      dup1\n      revert\n    tag_31:\n      pop\n      tag_32\n      0x04\n      dup1\n      calldatasize\n      sub\n      dup2\n      add\n      swap1\n      tag_33\n      swap2\n      swap1\n      tag_15\n      jump\t// in\n    tag_33:\n      tag_34\n      jump\t// in\n    tag_32:\n      mload(0x40)\n      tag_35\n      swap2\n      swap1\n      tag_26\n      jump\t// in\n    tag_35:\n      mload(0x40)\n      dup1\n      swap2\n      sub\n      swap1\n      return\n        /* \"desarrollo-de-una-dao/contracts/Member.sol\":1234:1340  function isMember(address _address) external view returns (bool) {... */\n    tag_7:\n      callvalue\n      dup1\n      iszero\n      tag_36\n      jumpi\n      0x00\n      dup1\n      revert\n    tag_36:\n      pop\n      tag_37\n      0x04\n      dup1\n      calldatasize\n      sub\n      dup2\n      add\n      swap1\n      tag_38\n      swap2\n      swap1\n      tag_15\n      jump\t// in\n    tag_38:\n      tag_39\n      jump\t// in\n    tag_37:\n      mload(0x40)\n      tag_40\n      swap2\n      swap1\n      tag_26\n      jump\t// in\n    tag_40:\n      mload(0x40)\n      dup1\n      swap2\n      sub\n      swap1\n      return\n        /* \"desarrollo-de-una-dao/contracts/Member.sol\":1084:1164  function getCount() external view returns (uint256){... */\n    tag_8:\n      callvalue\n      dup1\n      iszero\n      tag_41\n      jumpi\n      0x00\n      dup1\n      revert\n    tag_41:\n      pop\n      tag_42\n      tag_43\n      jump\t// in\n    tag_42:\n      mload(0x40)\n      tag_44\n      swap2\n      swap1\n      tag_45\n      jump\t// in\n    tag_44:\n      mload(0x40)\n      dup1\n      swap2\n      sub\n      swap1\n      return\n        /* \"desarrollo-de-una-dao/contracts/Member.sol\":499:818  function addMember(address _member) external payable  {... */\n    tag_9:\n      tag_46\n      0x04\n      dup1\n      calldatasize\n      sub\n      dup2\n      add\n      swap1\n      tag_47\n      swap2\n      swap1\n      tag_15\n      jump\t// in\n    tag_47:\n      tag_48\n      jump\t// in\n    tag_46:\n      stop\n        /* \"desarrollo-de-una-dao/contracts/Member.sol\":373:447  function setDAO(address payable dao_) external {... */\n    tag_10:\n      callvalue\n      dup1\n      iszero\n      tag_49\n      jumpi\n      0x00\n      dup1\n      revert\n    tag_49:\n      pop\n      tag_50\n      0x04\n      dup1\n      calldatasize\n      sub\n      dup2\n      add\n      swap1\n      tag_51\n      swap2\n      swap1\n      tag_52\n      jump\t// in\n    tag_51:\n      tag_53\n      jump\t// in\n    tag_50:\n      stop\n        /* \"desarrollo-de-una-dao/contracts/Member.sol\":865:1079  function removeMember(address _member) external {... */\n    tag_16:\n        /* \"desarrollo-de-una-dao/contracts/Member.sol\":931:938  members */\n      0x00\n        /* \"desarrollo-de-una-dao/contracts/Member.sol\":931:947  members[_member] */\n      dup1\n        /* \"desarrollo-de-una-dao/contracts/Member.sol\":939:946  _member */\n      dup3\n        /* \"desarrollo-de-una-dao/contracts/Member.sol\":931:947  members[_member] */\n      0xffffffffffffffffffffffffffffffffffffffff\n      and\n      0xffffffffffffffffffffffffffffffffffffffff\n      and\n      dup2\n      mstore\n      0x20\n      add\n      swap1\n      dup2\n      mstore\n      0x20\n      add\n      0x00\n      keccak256\n      0x00\n      swap1\n      sload\n      swap1\n      0x0100\n      exp\n      swap1\n      div\n      0xff\n      and\n        /* \"desarrollo-de-una-dao/contracts/Member.sol\":923:974  require(members[_member], \"No existe este miembro\") */\n      tag_55\n      jumpi\n      mload(0x40)\n      0x08c379a000000000000000000000000000000000000000000000000000000000\n      dup2\n      mstore\n      0x04\n      add\n      tag_56\n      swap1\n      tag_57\n      jump\t// in\n    tag_56:\n      mload(0x40)\n      dup1\n      swap2\n      sub\n      swap1\n      revert\n    tag_55:\n        /* \"desarrollo-de-una-dao/contracts/Member.sol\":1003:1008  false */\n      0x00\n        /* \"desarrollo-de-una-dao/contracts/Member.sol\":984:991  members */\n      dup1\n        /* \"desarrollo-de-una-dao/contracts/Member.sol\":984:1000  members[_member] */\n      0x00\n        /* \"desarrollo-de-una-dao/contracts/Member.sol\":992:999  _member */\n      dup4\n        /* \"desarrollo-de-una-dao/contracts/Member.sol\":984:1000  members[_member] */\n      0xffffffffffffffffffffffffffffffffffffffff\n      and\n      0xffffffffffffffffffffffffffffffffffffffff\n      and\n      dup2\n      mstore\n      0x20\n      add\n      swap1\n      dup2\n      mstore\n      0x20\n      add\n      0x00\n      keccak256\n      0x00\n        /* \"desarrollo-de-una-dao/contracts/Member.sol\":984:1008  members[_member] = false */\n      0x0100\n      exp\n      dup2\n      sload\n      dup2\n      0xff\n      mul\n      not\n      and\n      swap1\n      dup4\n      iszero\n      iszero\n      mul\n      or\n      swap1\n      sstore\n      pop\n        /* \"desarrollo-de-una-dao/contracts/Member.sol\":1023:1045  MemberRemoved(_member) */\n      0x6e76fb4c77256006d9c38ec7d82b45a8c8f3c27b1d6766fffc42dfb8de684492\n        /* \"desarrollo-de-una-dao/contracts/Member.sol\":1037:1044  _member */\n      dup2\n        /* \"desarrollo-de-una-dao/contracts/Member.sol\":1023:1045  MemberRemoved(_member) */\n      mload(0x40)\n      tag_58\n      swap2\n      swap1\n      tag_59\n      jump\t// in\n    tag_58:\n      mload(0x40)\n      dup1\n      swap2\n      sub\n      swap1\n      log1\n        /* \"desarrollo-de-una-dao/contracts/Member.sol\":1071:1072  1 */\n      0x01\n        /* \"desarrollo-de-una-dao/contracts/Member.sol\":1063:1068  count */\n      sload(0x02)\n        /* \"desarrollo-de-una-dao/contracts/Member.sol\":1063:1072  count - 1 */\n      tag_60\n      swap2\n      swap1\n      tag_61\n      jump\t// in\n    tag_60:\n        /* \"desarrollo-de-una-dao/contracts/Member.sol\":1055:1060  count */\n      0x02\n        /* \"desarrollo-de-una-dao/contracts/Member.sol\":1055:1072  count = count - 1 */\n      dup2\n      swap1\n      sstore\n      pop\n        /* \"desarrollo-de-una-dao/contracts/Member.sol\":865:1079  function removeMember(address _member) external {... */\n      pop\n      jump\t// out\n        /* \"desarrollo-de-una-dao/contracts/Ojeador.sol\":718:915  function removeOjeador(address _ojeador) external {... */\n    tag_20:\n        /* \"desarrollo-de-una-dao/contracts/Ojeador.sol\":786:795  ojeadores */\n      0x03\n        /* \"desarrollo-de-una-dao/contracts/Ojeador.sol\":786:805  ojeadores[_ojeador] */\n      0x00\n        /* \"desarrollo-de-una-dao/contracts/Ojeador.sol\":796:804  _ojeador */\n      dup3\n        /* \"desarrollo-de-una-dao/contracts/Ojeador.sol\":786:805  ojeadores[_ojeador] */\n      0xffffffffffffffffffffffffffffffffffffffff\n      and\n      0xffffffffffffffffffffffffffffffffffffffff\n      and\n      dup2\n      mstore\n      0x20\n      add\n      swap1\n      dup2\n      mstore\n      0x20\n      add\n      0x00\n      keccak256\n      0x00\n      swap1\n      sload\n      swap1\n      0x0100\n      exp\n      swap1\n      div\n      0xff\n      and\n        /* \"desarrollo-de-una-dao/contracts/Ojeador.sol\":778:832  require(ojeadores[_ojeador], \"No existe este Ojeador\") */\n      tag_63\n      jumpi\n      mload(0x40)\n      0x08c379a000000000000000000000000000000000000000000000000000000000\n      dup2\n      mstore\n      0x04\n      add\n      tag_64\n      swap1\n      tag_65\n      jump\t// in\n    tag_64:\n      mload(0x40)\n      dup1\n      swap2\n      sub\n      swap1\n      revert\n    tag_63:\n        /* \"desarrollo-de-una-dao/contracts/Ojeador.sol\":864:869  false */\n      0x00\n        /* \"desarrollo-de-una-dao/contracts/Ojeador.sol\":842:851  ojeadores */\n      0x03\n        /* \"desarrollo-de-una-dao/contracts/Ojeador.sol\":842:861  ojeadores[_ojeador] */\n      0x00\n        /* \"desarrollo-de-una-dao/contracts/Ojeador.sol\":852:860  _ojeador */\n      dup4\n        /* \"desarrollo-de-una-dao/contracts/Ojeador.sol\":842:861  ojeadores[_ojeador] */\n      0xffffffffffffffffffffffffffffffffffffffff\n      and\n      0xffffffffffffffffffffffffffffffffffffffff\n      and\n      dup2\n      mstore\n      0x20\n      add\n      swap1\n      dup2\n      mstore\n      0x20\n      add\n      0x00\n      keccak256\n      0x00\n        /* \"desarrollo-de-una-dao/contracts/Ojeador.sol\":842:869  ojeadores[_ojeador] = false */\n      0x0100\n      exp\n      dup2\n      sload\n      dup2\n      0xff\n      mul\n      not\n      and\n      swap1\n      dup4\n      iszero\n      iszero\n      mul\n      or\n      swap1\n      sstore\n      pop\n        /* \"desarrollo-de-una-dao/contracts/Ojeador.sol\":884:908  OjeadorRemoved(_ojeador) */\n      0x682828943bd9d40a434bc578bed0c7b86f6d4b6b60b4df9f31ae37610a66854f\n        /* \"desarrollo-de-una-dao/contracts/Ojeador.sol\":899:907  _ojeador */\n      dup2\n        /* \"desarrollo-de-una-dao/contracts/Ojeador.sol\":884:908  OjeadorRemoved(_ojeador) */\n      mload(0x40)\n      tag_66\n      swap2\n      swap1\n      tag_59\n      jump\t// in\n    tag_66:\n      mload(0x40)\n      dup1\n      swap2\n      sub\n      swap1\n      log1\n        /* \"desarrollo-de-una-dao/contracts/Ojeador.sol\":718:915  function removeOjeador(address _ojeador) external {... */\n      pop\n      jump\t// out\n        /* \"desarrollo-de-una-dao/contracts/Ojeador.sol\":202:243  mapping(address => bool) public ojeadores */\n    tag_24:\n      mstore(0x20, 0x03)\n      dup1\n      0x00\n      mstore\n      keccak256(0x00, 0x40)\n      0x00\n      swap2\n      pop\n      sload\n      swap1\n      0x0100\n      exp\n      swap1\n      div\n      0xff\n      and\n      dup2\n      jump\t// out\n        /* \"desarrollo-de-una-dao/contracts/Ojeador.sol\":446:671  function addOjeador(address _ojeador) external {... */\n    tag_30:\n        /* \"desarrollo-de-una-dao/contracts/Ojeador.sol\":512:521  ojeadores */\n      0x03\n        /* \"desarrollo-de-una-dao/contracts/Ojeador.sol\":512:531  ojeadores[_ojeador] */\n      0x00\n        /* \"desarrollo-de-una-dao/contracts/Ojeador.sol\":522:530  _ojeador */\n      dup3\n        /* \"desarrollo-de-una-dao/contracts/Ojeador.sol\":512:531  ojeadores[_ojeador] */\n      0xffffffffffffffffffffffffffffffffffffffff\n      and\n      0xffffffffffffffffffffffffffffffffffffffff\n      and\n      dup2\n      mstore\n      0x20\n      add\n      swap1\n      dup2\n      mstore\n      0x20\n      add\n      0x00\n      keccak256\n      0x00\n      swap1\n      sload\n      swap1\n      0x0100\n      exp\n      swap1\n      div\n      0xff\n      and\n        /* \"desarrollo-de-una-dao/contracts/Ojeador.sol\":511:531  !ojeadores[_ojeador] */\n      iszero\n        /* \"desarrollo-de-una-dao/contracts/Ojeador.sol\":503:590  require(!ojeadores[_ojeador], \"La direccion ingresada ya esta actualmente registrada.\") */\n      tag_68\n      jumpi\n      mload(0x40)\n      0x08c379a000000000000000000000000000000000000000000000000000000000\n      dup2\n      mstore\n      0x04\n      add\n      tag_69\n      swap1\n      tag_70\n      jump\t// in\n    tag_69:\n      mload(0x40)\n      dup1\n      swap2\n      sub\n      swap1\n      revert\n    tag_68:\n        /* \"desarrollo-de-una-dao/contracts/Ojeador.sol\":622:626  true */\n      0x01\n        /* \"desarrollo-de-una-dao/contracts/Ojeador.sol\":600:609  ojeadores */\n      0x03\n        /* \"desarrollo-de-una-dao/contracts/Ojeador.sol\":600:619  ojeadores[_ojeador] */\n      0x00\n        /* \"desarrollo-de-una-dao/contracts/Ojeador.sol\":610:618  _ojeador */\n      dup4\n        /* \"desarrollo-de-una-dao/contracts/Ojeador.sol\":600:619  ojeadores[_ojeador] */\n      0xffffffffffffffffffffffffffffffffffffffff\n      and\n      0xffffffffffffffffffffffffffffffffffffffff\n      and\n      dup2\n      mstore\n      0x20\n      add\n      swap1\n      dup2\n      mstore\n      0x20\n      add\n      0x00\n      keccak256\n      0x00\n        /* \"desarrollo-de-una-dao/contracts/Ojeador.sol\":600:626  ojeadores[_ojeador] = true */\n      0x0100\n      exp\n      dup2\n      sload\n      dup2\n      0xff\n      mul\n      not\n      and\n      swap1\n      dup4\n      iszero\n      iszero\n      mul\n      or\n      swap1\n      sstore\n      pop\n        /* \"desarrollo-de-una-dao/contracts/Ojeador.sol\":642:664  OjeadorAdded(_ojeador) */\n      0x56e5ac9f290e03b6e84bbc9d97f71d5a2d6d6a749372c9e595f2b040e7ba73c7\n        /* \"desarrollo-de-una-dao/contracts/Ojeador.sol\":655:663  _ojeador */\n      dup2\n        /* \"desarrollo-de-una-dao/contracts/Ojeador.sol\":642:664  OjeadorAdded(_ojeador) */\n      mload(0x40)\n      tag_71\n      swap2\n      swap1\n      tag_59\n      jump\t// in\n    tag_71:\n      mload(0x40)\n      dup1\n      swap2\n      sub\n      swap1\n      log1\n        /* \"desarrollo-de-una-dao/contracts/Ojeador.sol\":446:671  function addOjeador(address _ojeador) external {... */\n      pop\n      jump\t// out\n        /* \"desarrollo-de-una-dao/contracts/Ojeador.sol\":981:1090  function isOjeador(address _address) external view returns (bool) {... */\n    tag_34:\n        /* \"desarrollo-de-una-dao/contracts/Ojeador.sol\":1041:1045  bool */\n      0x00\n        /* \"desarrollo-de-una-dao/contracts/Ojeador.sol\":1064:1073  ojeadores */\n      0x03\n        /* \"desarrollo-de-una-dao/contracts/Ojeador.sol\":1064:1083  ojeadores[_address] */\n      0x00\n        /* \"desarrollo-de-una-dao/contracts/Ojeador.sol\":1074:1082  _address */\n      dup4\n        /* \"desarrollo-de-una-dao/contracts/Ojeador.sol\":1064:1083  ojeadores[_address] */\n      0xffffffffffffffffffffffffffffffffffffffff\n      and\n      0xffffffffffffffffffffffffffffffffffffffff\n      and\n      dup2\n      mstore\n      0x20\n      add\n      swap1\n      dup2\n      mstore\n      0x20\n      add\n      0x00\n      keccak256\n      0x00\n      swap1\n      sload\n      swap1\n      0x0100\n      exp\n      swap1\n      div\n      0xff\n      and\n        /* \"desarrollo-de-una-dao/contracts/Ojeador.sol\":1057:1083  return ojeadores[_address] */\n      swap1\n      pop\n        /* \"desarrollo-de-una-dao/contracts/Ojeador.sol\":981:1090  function isOjeador(address _address) external view returns (bool) {... */\n      swap2\n      swap1\n      pop\n      jump\t// out\n        /* \"desarrollo-de-una-dao/contracts/Member.sol\":1234:1340  function isMember(address _address) external view returns (bool) {... */\n    tag_39:\n        /* \"desarrollo-de-una-dao/contracts/Member.sol\":1293:1297  bool */\n      0x00\n        /* \"desarrollo-de-una-dao/contracts/Member.sol\":1316:1323  members */\n      dup1\n        /* \"desarrollo-de-una-dao/contracts/Member.sol\":1316:1333  members[_address] */\n      0x00\n        /* \"desarrollo-de-una-dao/contracts/Member.sol\":1324:1332  _address */\n      dup4\n        /* \"desarrollo-de-una-dao/contracts/Member.sol\":1316:1333  members[_address] */\n      0xffffffffffffffffffffffffffffffffffffffff\n      and\n      0xffffffffffffffffffffffffffffffffffffffff\n      and\n      dup2\n      mstore\n      0x20\n      add\n      swap1\n      dup2\n      mstore\n      0x20\n      add\n      0x00\n      keccak256\n      0x00\n      swap1\n      sload\n      swap1\n      0x0100\n      exp\n      swap1\n      div\n      0xff\n      and\n        /* \"desarrollo-de-una-dao/contracts/Member.sol\":1309:1333  return members[_address] */\n      swap1\n      pop\n        /* \"desarrollo-de-una-dao/contracts/Member.sol\":1234:1340  function isMember(address _address) external view returns (bool) {... */\n      swap2\n      swap1\n      pop\n      jump\t// out\n        /* \"desarrollo-de-una-dao/contracts/Member.sol\":1084:1164  function getCount() external view returns (uint256){... */\n    tag_43:\n        /* \"desarrollo-de-una-dao/contracts/Member.sol\":1127:1134  uint256 */\n      0x00\n        /* \"desarrollo-de-una-dao/contracts/Member.sol\":1152:1157  count */\n      sload(0x02)\n        /* \"desarrollo-de-una-dao/contracts/Member.sol\":1145:1157  return count */\n      swap1\n      pop\n        /* \"desarrollo-de-una-dao/contracts/Member.sol\":1084:1164  function getCount() external view returns (uint256){... */\n      swap1\n      jump\t// out\n        /* \"desarrollo-de-una-dao/contracts/Member.sol\":499:818  function addMember(address _member) external payable  {... */\n    tag_48:\n        /* \"desarrollo-de-una-dao/contracts/Member.sol\":572:579  members */\n      0x00\n        /* \"desarrollo-de-una-dao/contracts/Member.sol\":572:588  members[_member] */\n      dup1\n        /* \"desarrollo-de-una-dao/contracts/Member.sol\":580:587  _member */\n      dup3\n        /* \"desarrollo-de-una-dao/contracts/Member.sol\":572:588  members[_member] */\n      0xffffffffffffffffffffffffffffffffffffffff\n      and\n      0xffffffffffffffffffffffffffffffffffffffff\n      and\n      dup2\n      mstore\n      0x20\n      add\n      swap1\n      dup2\n      mstore\n      0x20\n      add\n      0x00\n      keccak256\n      0x00\n      swap1\n      sload\n      swap1\n      0x0100\n      exp\n      swap1\n      div\n      0xff\n      and\n        /* \"desarrollo-de-una-dao/contracts/Member.sol\":571:588  !members[_member] */\n      iszero\n        /* \"desarrollo-de-una-dao/contracts/Member.sol\":563:647  require(!members[_member], \"La direccion ingresada ya esta actualmente registrada.\") */\n      tag_76\n      jumpi\n      mload(0x40)\n      0x08c379a000000000000000000000000000000000000000000000000000000000\n      dup2\n      mstore\n      0x04\n      add\n      tag_77\n      swap1\n      tag_70\n      jump\t// in\n    tag_77:\n      mload(0x40)\n      dup1\n      swap2\n      sub\n      swap1\n      revert\n    tag_76:\n        /* \"desarrollo-de-una-dao/contracts/Member.sol\":675:676  1 */\n      0x01\n        /* \"desarrollo-de-una-dao/contracts/Member.sol\":665:674  msg.value */\n      callvalue\n        /* \"desarrollo-de-una-dao/contracts/Member.sol\":665:676  msg.value>1 */\n      gt\n        /* \"desarrollo-de-una-dao/contracts/Member.sol\":657:682  require(msg.value>1, \"-\") */\n      tag_78\n      jumpi\n      mload(0x40)\n      0x08c379a000000000000000000000000000000000000000000000000000000000\n      dup2\n      mstore\n      0x04\n      add\n      tag_79\n      swap1\n      tag_80\n      jump\t// in\n    tag_79:\n      mload(0x40)\n      dup1\n      swap2\n      sub\n      swap1\n      revert\n    tag_78:\n        /* \"desarrollo-de-una-dao/contracts/Member.sol\":692:695  DAO */\n      0x01\n      0x00\n      swap1\n      sload\n      swap1\n      0x0100\n      exp\n      swap1\n      div\n      0xffffffffffffffffffffffffffffffffffffffff\n      and\n        /* \"desarrollo-de-una-dao/contracts/Member.sol\":692:704  DAO.transfer */\n      0xffffffffffffffffffffffffffffffffffffffff\n      and\n        /* \"desarrollo-de-una-dao/contracts/Member.sol\":692:715  DAO.transfer(msg.value) */\n      0x08fc\n        /* \"desarrollo-de-una-dao/contracts/Member.sol\":705:714  msg.value */\n      callvalue\n        /* \"desarrollo-de-una-dao/contracts/Member.sol\":692:715  DAO.transfer(msg.value) */\n      swap1\n      dup2\n      iszero\n      mul\n      swap1\n      mload(0x40)\n      0x00\n      mload(0x40)\n      dup1\n      dup4\n      sub\n      dup2\n      dup6\n      dup9\n      dup9\n      call\n      swap4\n      pop\n      pop\n      pop\n      pop\n      iszero\n      dup1\n      iszero\n      tag_82\n      jumpi\n      returndatasize\n      0x00\n      dup1\n      returndatacopy\n      revert(0x00, returndatasize)\n    tag_82:\n      pop\n        /* \"desarrollo-de-una-dao/contracts/Member.sol\":744:748  true */\n      0x01\n        /* \"desarrollo-de-una-dao/contracts/Member.sol\":725:732  members */\n      0x00\n        /* \"desarrollo-de-una-dao/contracts/Member.sol\":725:741  members[_member] */\n      dup1\n        /* \"desarrollo-de-una-dao/contracts/Member.sol\":733:740  _member */\n      dup4\n        /* \"desarrollo-de-una-dao/contracts/Member.sol\":725:741  members[_member] */\n      0xffffffffffffffffffffffffffffffffffffffff\n      and\n      0xffffffffffffffffffffffffffffffffffffffff\n      and\n      dup2\n      mstore\n      0x20\n      add\n      swap1\n      dup2\n      mstore\n      0x20\n      add\n      0x00\n      keccak256\n      0x00\n        /* \"desarrollo-de-una-dao/contracts/Member.sol\":725:748  members[_member] = true */\n      0x0100\n      exp\n      dup2\n      sload\n      dup2\n      0xff\n      mul\n      not\n      and\n      swap1\n      dup4\n      iszero\n      iszero\n      mul\n      or\n      swap1\n      sstore\n      pop\n        /* \"desarrollo-de-una-dao/contracts/Member.sol\":764:784  MemberAdded(_member) */\n      0xb251eb052afc73ffd02ffe85ad79990a8b3fed60d76dbc2fa2fdd7123dffd914\n        /* \"desarrollo-de-una-dao/contracts/Member.sol\":776:783  _member */\n      dup2\n        /* \"desarrollo-de-una-dao/contracts/Member.sol\":764:784  MemberAdded(_member) */\n      mload(0x40)\n      tag_83\n      swap2\n      swap1\n      tag_59\n      jump\t// in\n    tag_83:\n      mload(0x40)\n      dup1\n      swap2\n      sub\n      swap1\n      log1\n        /* \"desarrollo-de-una-dao/contracts/Member.sol\":810:811  1 */\n      0x01\n        /* \"desarrollo-de-una-dao/contracts/Member.sol\":802:807  count */\n      sload(0x02)\n        /* \"desarrollo-de-una-dao/contracts/Member.sol\":802:811  count + 1 */\n      tag_84\n      swap2\n      swap1\n      tag_85\n      jump\t// in\n    tag_84:\n        /* \"desarrollo-de-una-dao/contracts/Member.sol\":794:799  count */\n      0x02\n        /* \"desarrollo-de-una-dao/contracts/Member.sol\":794:811  count = count + 1 */\n      dup2\n      swap1\n      sstore\n      pop\n        /* \"desarrollo-de-una-dao/contracts/Member.sol\":499:818  function addMember(address _member) external payable  {... */\n      pop\n      jump\t// out\n        /* \"desarrollo-de-una-dao/contracts/Member.sol\":373:447  function setDAO(address payable dao_) external {... */\n    tag_53:\n        /* \"desarrollo-de-una-dao/contracts/Member.sol\":436:440  dao_ */\n      dup1\n        /* \"desarrollo-de-una-dao/contracts/Member.sol\":430:433  DAO */\n      0x01\n      0x00\n        /* \"desarrollo-de-una-dao/contracts/Member.sol\":430:440  DAO = dao_ */\n      0x0100\n      exp\n      dup2\n      sload\n      dup2\n      0xffffffffffffffffffffffffffffffffffffffff\n      mul\n      not\n      and\n      swap1\n      dup4\n      0xffffffffffffffffffffffffffffffffffffffff\n      and\n      mul\n      or\n      swap1\n      sstore\n      pop\n        /* \"desarrollo-de-una-dao/contracts/Member.sol\":373:447  function setDAO(address payable dao_) external {... */\n      pop\n      jump\t// out\n        /* \"#utility.yul\":88:205   */\n    tag_88:\n        /* \"#utility.yul\":197:198   */\n      0x00\n        /* \"#utility.yul\":194:195   */\n      dup1\n        /* \"#utility.yul\":187:199   */\n      revert\n        /* \"#utility.yul\":334:460   */\n    tag_90:\n        /* \"#utility.yul\":371:378   */\n      0x00\n        /* \"#utility.yul\":411:453   */\n      0xffffffffffffffffffffffffffffffffffffffff\n        /* \"#utility.yul\":404:409   */\n      dup3\n        /* \"#utility.yul\":400:454   */\n      and\n        /* \"#utility.yul\":389:454   */\n      swap1\n      pop\n        /* \"#utility.yul\":334:460   */\n      swap2\n      swap1\n      pop\n      jump\t// out\n        /* \"#utility.yul\":466:562   */\n    tag_91:\n        /* \"#utility.yul\":503:510   */\n      0x00\n        /* \"#utility.yul\":532:556   */\n      tag_118\n        /* \"#utility.yul\":550:555   */\n      dup3\n        /* \"#utility.yul\":532:556   */\n      tag_90\n      jump\t// in\n    tag_118:\n        /* \"#utility.yul\":521:556   */\n      swap1\n      pop\n        /* \"#utility.yul\":466:562   */\n      swap2\n      swap1\n      pop\n      jump\t// out\n        /* \"#utility.yul\":568:690   */\n    tag_92:\n        /* \"#utility.yul\":641:665   */\n      tag_120\n        /* \"#utility.yul\":659:664   */\n      dup2\n        /* \"#utility.yul\":641:665   */\n      tag_91\n      jump\t// in\n    tag_120:\n        /* \"#utility.yul\":634:639   */\n      dup2\n        /* \"#utility.yul\":631:666   */\n      eq\n        /* \"#utility.yul\":621:684   */\n      tag_121\n      jumpi\n        /* \"#utility.yul\":680:681   */\n      0x00\n        /* \"#utility.yul\":677:678   */\n      dup1\n        /* \"#utility.yul\":670:682   */\n      revert\n        /* \"#utility.yul\":621:684   */\n    tag_121:\n        /* \"#utility.yul\":568:690   */\n      pop\n      jump\t// out\n        /* \"#utility.yul\":696:835   */\n    tag_93:\n        /* \"#utility.yul\":742:747   */\n      0x00\n        /* \"#utility.yul\":780:786   */\n      dup2\n        /* \"#utility.yul\":767:787   */\n      calldataload\n        /* \"#utility.yul\":758:787   */\n      swap1\n      pop\n        /* \"#utility.yul\":796:829   */\n      tag_123\n        /* \"#utility.yul\":823:828   */\n      dup2\n        /* \"#utility.yul\":796:829   */\n      tag_92\n      jump\t// in\n    tag_123:\n        /* \"#utility.yul\":696:835   */\n      swap3\n      swap2\n      pop\n      pop\n      jump\t// out\n        /* \"#utility.yul\":841:1170   */\n    tag_15:\n        /* \"#utility.yul\":900:906   */\n      0x00\n        /* \"#utility.yul\":949:951   */\n      0x20\n        /* \"#utility.yul\":937:946   */\n      dup3\n        /* \"#utility.yul\":928:935   */\n      dup5\n        /* \"#utility.yul\":924:947   */\n      sub\n        /* \"#utility.yul\":920:952   */\n      slt\n        /* \"#utility.yul\":917:1036   */\n      iszero\n      tag_125\n      jumpi\n        /* \"#utility.yul\":955:1034   */\n      tag_126\n      tag_88\n      jump\t// in\n    tag_126:\n        /* \"#utility.yul\":917:1036   */\n    tag_125:\n        /* \"#utility.yul\":1075:1076   */\n      0x00\n        /* \"#utility.yul\":1100:1153   */\n      tag_127\n        /* \"#utility.yul\":1145:1152   */\n      dup5\n        /* \"#utility.yul\":1136:1142   */\n      dup3\n        /* \"#utility.yul\":1125:1134   */\n      dup6\n        /* \"#utility.yul\":1121:1143   */\n      add\n        /* \"#utility.yul\":1100:1153   */\n      tag_93\n      jump\t// in\n    tag_127:\n        /* \"#utility.yul\":1090:1153   */\n      swap2\n      pop\n        /* \"#utility.yul\":1046:1163   */\n      pop\n        /* \"#utility.yul\":841:1170   */\n      swap3\n      swap2\n      pop\n      pop\n      jump\t// out\n        /* \"#utility.yul\":1176:1266   */\n    tag_94:\n        /* \"#utility.yul\":1210:1217   */\n      0x00\n        /* \"#utility.yul\":1253:1258   */\n      dup2\n        /* \"#utility.yul\":1246:1259   */\n      iszero\n        /* \"#utility.yul\":1239:1260   */\n      iszero\n        /* \"#utility.yul\":1228:1260   */\n      swap1\n      pop\n        /* \"#utility.yul\":1176:1266   */\n      swap2\n      swap1\n      pop\n      jump\t// out\n        /* \"#utility.yul\":1272:1381   */\n    tag_95:\n        /* \"#utility.yul\":1353:1374   */\n      tag_130\n        /* \"#utility.yul\":1368:1373   */\n      dup2\n        /* \"#utility.yul\":1353:1374   */\n      tag_94\n      jump\t// in\n    tag_130:\n        /* \"#utility.yul\":1348:1351   */\n      dup3\n        /* \"#utility.yul\":1341:1375   */\n      mstore\n        /* \"#utility.yul\":1272:1381   */\n      pop\n      pop\n      jump\t// out\n        /* \"#utility.yul\":1387:1597   */\n    tag_26:\n        /* \"#utility.yul\":1474:1478   */\n      0x00\n        /* \"#utility.yul\":1512:1514   */\n      0x20\n        /* \"#utility.yul\":1501:1510   */\n      dup3\n        /* \"#utility.yul\":1497:1515   */\n      add\n        /* \"#utility.yul\":1489:1515   */\n      swap1\n      pop\n        /* \"#utility.yul\":1525:1590   */\n      tag_132\n        /* \"#utility.yul\":1587:1588   */\n      0x00\n        /* \"#utility.yul\":1576:1585   */\n      dup4\n        /* \"#utility.yul\":1572:1589   */\n      add\n        /* \"#utility.yul\":1563:1569   */\n      dup5\n        /* \"#utility.yul\":1525:1590   */\n      tag_95\n      jump\t// in\n    tag_132:\n        /* \"#utility.yul\":1387:1597   */\n      swap3\n      swap2\n      pop\n      pop\n      jump\t// out\n        /* \"#utility.yul\":1603:1680   */\n    tag_96:\n        /* \"#utility.yul\":1640:1647   */\n      0x00\n        /* \"#utility.yul\":1669:1674   */\n      dup2\n        /* \"#utility.yul\":1658:1674   */\n      swap1\n      pop\n        /* \"#utility.yul\":1603:1680   */\n      swap2\n      swap1\n      pop\n      jump\t// out\n        /* \"#utility.yul\":1686:1804   */\n    tag_97:\n        /* \"#utility.yul\":1773:1797   */\n      tag_135\n        /* \"#utility.yul\":1791:1796   */\n      dup2\n        /* \"#utility.yul\":1773:1797   */\n      tag_96\n      jump\t// in\n    tag_135:\n        /* \"#utility.yul\":1768:1771   */\n      dup3\n        /* \"#utility.yul\":1761:1798   */\n      mstore\n        /* \"#utility.yul\":1686:1804   */\n      pop\n      pop\n      jump\t// out\n        /* \"#utility.yul\":1810:2032   */\n    tag_45:\n        /* \"#utility.yul\":1903:1907   */\n      0x00\n        /* \"#utility.yul\":1941:1943   */\n      0x20\n        /* \"#utility.yul\":1930:1939   */\n      dup3\n        /* \"#utility.yul\":1926:1944   */\n      add\n        /* \"#utility.yul\":1918:1944   */\n      swap1\n      pop\n        /* \"#utility.yul\":1954:2025   */\n      tag_137\n        /* \"#utility.yul\":2022:2023   */\n      0x00\n        /* \"#utility.yul\":2011:2020   */\n      dup4\n        /* \"#utility.yul\":2007:2024   */\n      add\n        /* \"#utility.yul\":1998:2004   */\n      dup5\n        /* \"#utility.yul\":1954:2025   */\n      tag_97\n      jump\t// in\n    tag_137:\n        /* \"#utility.yul\":1810:2032   */\n      swap3\n      swap2\n      pop\n      pop\n      jump\t// out\n        /* \"#utility.yul\":2038:2142   */\n    tag_98:\n        /* \"#utility.yul\":2083:2090   */\n      0x00\n        /* \"#utility.yul\":2112:2136   */\n      tag_139\n        /* \"#utility.yul\":2130:2135   */\n      dup3\n        /* \"#utility.yul\":2112:2136   */\n      tag_90\n      jump\t// in\n    tag_139:\n        /* \"#utility.yul\":2101:2136   */\n      swap1\n      pop\n        /* \"#utility.yul\":2038:2142   */\n      swap2\n      swap1\n      pop\n      jump\t// out\n        /* \"#utility.yul\":2148:2286   */\n    tag_99:\n        /* \"#utility.yul\":2229:2261   */\n      tag_141\n        /* \"#utility.yul\":2255:2260   */\n      dup2\n        /* \"#utility.yul\":2229:2261   */\n      tag_98\n      jump\t// in\n    tag_141:\n        /* \"#utility.yul\":2222:2227   */\n      dup2\n        /* \"#utility.yul\":2219:2262   */\n      eq\n        /* \"#utility.yul\":2209:2280   */\n      tag_142\n      jumpi\n        /* \"#utility.yul\":2276:2277   */\n      0x00\n        /* \"#utility.yul\":2273:2274   */\n      dup1\n        /* \"#utility.yul\":2266:2278   */\n      revert\n        /* \"#utility.yul\":2209:2280   */\n    tag_142:\n        /* \"#utility.yul\":2148:2286   */\n      pop\n      jump\t// out\n        /* \"#utility.yul\":2292:2447   */\n    tag_100:\n        /* \"#utility.yul\":2346:2351   */\n      0x00\n        /* \"#utility.yul\":2384:2390   */\n      dup2\n        /* \"#utility.yul\":2371:2391   */\n      calldataload\n        /* \"#utility.yul\":2362:2391   */\n      swap1\n      pop\n        /* \"#utility.yul\":2400:2441   */\n      tag_144\n        /* \"#utility.yul\":2435:2440   */\n      dup2\n        /* \"#utility.yul\":2400:2441   */\n      tag_99\n      jump\t// in\n    tag_144:\n        /* \"#utility.yul\":2292:2447   */\n      swap3\n      swap2\n      pop\n      pop\n      jump\t// out\n        /* \"#utility.yul\":2453:2798   */\n    tag_52:\n        /* \"#utility.yul\":2520:2526   */\n      0x00\n        /* \"#utility.yul\":2569:2571   */\n      0x20\n        /* \"#utility.yul\":2557:2566   */\n      dup3\n        /* \"#utility.yul\":2548:2555   */\n      dup5\n        /* \"#utility.yul\":2544:2567   */\n      sub\n        /* \"#utility.yul\":2540:2572   */\n      slt\n        /* \"#utility.yul\":2537:2656   */\n      iszero\n      tag_146\n      jumpi\n        /* \"#utility.yul\":2575:2654   */\n      tag_147\n      tag_88\n      jump\t// in\n    tag_147:\n        /* \"#utility.yul\":2537:2656   */\n    tag_146:\n        /* \"#utility.yul\":2695:2696   */\n      0x00\n        /* \"#utility.yul\":2720:2781   */\n      tag_148\n        /* \"#utility.yul\":2773:2780   */\n      dup5\n        /* \"#utility.yul\":2764:2770   */\n      dup3\n        /* \"#utility.yul\":2753:2762   */\n      dup6\n        /* \"#utility.yul\":2749:2771   */\n      add\n        /* \"#utility.yul\":2720:2781   */\n      tag_100\n      jump\t// in\n    tag_148:\n        /* \"#utility.yul\":2710:2781   */\n      swap2\n      pop\n        /* \"#utility.yul\":2666:2791   */\n      pop\n        /* \"#utility.yul\":2453:2798   */\n      swap3\n      swap2\n      pop\n      pop\n      jump\t// out\n        /* \"#utility.yul\":2804:2973   */\n    tag_101:\n        /* \"#utility.yul\":2888:2899   */\n      0x00\n        /* \"#utility.yul\":2922:2928   */\n      dup3\n        /* \"#utility.yul\":2917:2920   */\n      dup3\n        /* \"#utility.yul\":2910:2929   */\n      mstore\n        /* \"#utility.yul\":2962:2966   */\n      0x20\n        /* \"#utility.yul\":2957:2960   */\n      dup3\n        /* \"#utility.yul\":2953:2967   */\n      add\n        /* \"#utility.yul\":2938:2967   */\n      swap1\n      pop\n        /* \"#utility.yul\":2804:2973   */\n      swap3\n      swap2\n      pop\n      pop\n      jump\t// out\n        /* \"#utility.yul\":2979:3151   */\n    tag_102:\n        /* \"#utility.yul\":3119:3143   */\n      0x4e6f206578697374652065737465206d69656d62726f00000000000000000000\n        /* \"#utility.yul\":3115:3116   */\n      0x00\n        /* \"#utility.yul\":3107:3113   */\n      dup3\n        /* \"#utility.yul\":3103:3117   */\n      add\n        /* \"#utility.yul\":3096:3144   */\n      mstore\n        /* \"#utility.yul\":2979:3151   */\n      pop\n      jump\t// out\n        /* \"#utility.yul\":3157:3523   */\n    tag_103:\n        /* \"#utility.yul\":3299:3302   */\n      0x00\n        /* \"#utility.yul\":3320:3387   */\n      tag_152\n        /* \"#utility.yul\":3384:3386   */\n      0x16\n        /* \"#utility.yul\":3379:3382   */\n      dup4\n        /* \"#utility.yul\":3320:3387   */\n      tag_101\n      jump\t// in\n    tag_152:\n        /* \"#utility.yul\":3313:3387   */\n      swap2\n      pop\n        /* \"#utility.yul\":3396:3489   */\n      tag_153\n        /* \"#utility.yul\":3485:3488   */\n      dup3\n        /* \"#utility.yul\":3396:3489   */\n      tag_102\n      jump\t// in\n    tag_153:\n        /* \"#utility.yul\":3514:3516   */\n      0x20\n        /* \"#utility.yul\":3509:3512   */\n      dup3\n        /* \"#utility.yul\":3505:3517   */\n      add\n        /* \"#utility.yul\":3498:3517   */\n      swap1\n      pop\n        /* \"#utility.yul\":3157:3523   */\n      swap2\n      swap1\n      pop\n      jump\t// out\n        /* \"#utility.yul\":3529:3948   */\n    tag_57:\n        /* \"#utility.yul\":3695:3699   */\n      0x00\n        /* \"#utility.yul\":3733:3735   */\n      0x20\n        /* \"#utility.yul\":3722:3731   */\n      dup3\n        /* \"#utility.yul\":3718:3736   */\n      add\n        /* \"#utility.yul\":3710:3736   */\n      swap1\n      pop\n        /* \"#utility.yul\":3782:3791   */\n      dup2\n        /* \"#utility.yul\":3776:3780   */\n      dup2\n        /* \"#utility.yul\":3772:3792   */\n      sub\n        /* \"#utility.yul\":3768:3769   */\n      0x00\n        /* \"#utility.yul\":3757:3766   */\n      dup4\n        /* \"#utility.yul\":3753:3770   */\n      add\n        /* \"#utility.yul\":3746:3793   */\n      mstore\n        /* \"#utility.yul\":3810:3941   */\n      tag_155\n        /* \"#utility.yul\":3936:3940   */\n      dup2\n        /* \"#utility.yul\":3810:3941   */\n      tag_103\n      jump\t// in\n    tag_155:\n        /* \"#utility.yul\":3802:3941   */\n      swap1\n      pop\n        /* \"#utility.yul\":3529:3948   */\n      swap2\n      swap1\n      pop\n      jump\t// out\n        /* \"#utility.yul\":3954:4072   */\n    tag_104:\n        /* \"#utility.yul\":4041:4065   */\n      tag_157\n        /* \"#utility.yul\":4059:4064   */\n      dup2\n        /* \"#utility.yul\":4041:4065   */\n      tag_91\n      jump\t// in\n    tag_157:\n        /* \"#utility.yul\":4036:4039   */\n      dup3\n        /* \"#utility.yul\":4029:4066   */\n      mstore\n        /* \"#utility.yul\":3954:4072   */\n      pop\n      pop\n      jump\t// out\n        /* \"#utility.yul\":4078:4300   */\n    tag_59:\n        /* \"#utility.yul\":4171:4175   */\n      0x00\n        /* \"#utility.yul\":4209:4211   */\n      0x20\n        /* \"#utility.yul\":4198:4207   */\n      dup3\n        /* \"#utility.yul\":4194:4212   */\n      add\n        /* \"#utility.yul\":4186:4212   */\n      swap1\n      pop\n        /* \"#utility.yul\":4222:4293   */\n      tag_159\n        /* \"#utility.yul\":4290:4291   */\n      0x00\n        /* \"#utility.yul\":4279:4288   */\n      dup4\n        /* \"#utility.yul\":4275:4292   */\n      add\n        /* \"#utility.yul\":4266:4272   */\n      dup5\n        /* \"#utility.yul\":4222:4293   */\n      tag_104\n      jump\t// in\n    tag_159:\n        /* \"#utility.yul\":4078:4300   */\n      swap3\n      swap2\n      pop\n      pop\n      jump\t// out\n        /* \"#utility.yul\":4306:4486   */\n    tag_105:\n        /* \"#utility.yul\":4354:4431   */\n      0x4e487b7100000000000000000000000000000000000000000000000000000000\n        /* \"#utility.yul\":4351:4352   */\n      0x00\n        /* \"#utility.yul\":4344:4432   */\n      mstore\n        /* \"#utility.yul\":4451:4455   */\n      0x11\n        /* \"#utility.yul\":4448:4449   */\n      0x04\n        /* \"#utility.yul\":4441:4456   */\n      mstore\n        /* \"#utility.yul\":4475:4479   */\n      0x24\n        /* \"#utility.yul\":4472:4473   */\n      0x00\n        /* \"#utility.yul\":4465:4480   */\n      revert\n        /* \"#utility.yul\":4492:4686   */\n    tag_61:\n        /* \"#utility.yul\":4532:4536   */\n      0x00\n        /* \"#utility.yul\":4552:4572   */\n      tag_162\n        /* \"#utility.yul\":4570:4571   */\n      dup3\n        /* \"#utility.yul\":4552:4572   */\n      tag_96\n      jump\t// in\n    tag_162:\n        /* \"#utility.yul\":4547:4572   */\n      swap2\n      pop\n        /* \"#utility.yul\":4586:4606   */\n      tag_163\n        /* \"#utility.yul\":4604:4605   */\n      dup4\n        /* \"#utility.yul\":4586:4606   */\n      tag_96\n      jump\t// in\n    tag_163:\n        /* \"#utility.yul\":4581:4606   */\n      swap3\n      pop\n        /* \"#utility.yul\":4630:4631   */\n      dup3\n        /* \"#utility.yul\":4627:4628   */\n      dup3\n        /* \"#utility.yul\":4623:4632   */\n      sub\n        /* \"#utility.yul\":4615:4632   */\n      swap1\n      pop\n        /* \"#utility.yul\":4654:4655   */\n      dup2\n        /* \"#utility.yul\":4648:4652   */\n      dup2\n        /* \"#utility.yul\":4645:4656   */\n      gt\n        /* \"#utility.yul\":4642:4679   */\n      iszero\n      tag_164\n      jumpi\n        /* \"#utility.yul\":4659:4677   */\n      tag_165\n      tag_105\n      jump\t// in\n    tag_165:\n        /* \"#utility.yul\":4642:4679   */\n    tag_164:\n        /* \"#utility.yul\":4492:4686   */\n      swap3\n      swap2\n      pop\n      pop\n      jump\t// out\n        /* \"#utility.yul\":4692:4864   */\n    tag_106:\n        /* \"#utility.yul\":4832:4856   */\n      0x4e6f206578697374652065737465204f6a6561646f7200000000000000000000\n        /* \"#utility.yul\":4828:4829   */\n      0x00\n        /* \"#utility.yul\":4820:4826   */\n      dup3\n        /* \"#utility.yul\":4816:4830   */\n      add\n        /* \"#utility.yul\":4809:4857   */\n      mstore\n        /* \"#utility.yul\":4692:4864   */\n      pop\n      jump\t// out\n        /* \"#utility.yul\":4870:5236   */\n    tag_107:\n        /* \"#utility.yul\":5012:5015   */\n      0x00\n        /* \"#utility.yul\":5033:5100   */\n      tag_168\n        /* \"#utility.yul\":5097:5099   */\n      0x16\n        /* \"#utility.yul\":5092:5095   */\n      dup4\n        /* \"#utility.yul\":5033:5100   */\n      tag_101\n      jump\t// in\n    tag_168:\n        /* \"#utility.yul\":5026:5100   */\n      swap2\n      pop\n        /* \"#utility.yul\":5109:5202   */\n      tag_169\n        /* \"#utility.yul\":5198:5201   */\n      dup3\n        /* \"#utility.yul\":5109:5202   */\n      tag_106\n      jump\t// in\n    tag_169:\n        /* \"#utility.yul\":5227:5229   */\n      0x20\n        /* \"#utility.yul\":5222:5225   */\n      dup3\n        /* \"#utility.yul\":5218:5230   */\n      add\n        /* \"#utility.yul\":5211:5230   */\n      swap1\n      pop\n        /* \"#utility.yul\":4870:5236   */\n      swap2\n      swap1\n      pop\n      jump\t// out\n        /* \"#utility.yul\":5242:5661   */\n    tag_65:\n        /* \"#utility.yul\":5408:5412   */\n      0x00\n        /* \"#utility.yul\":5446:5448   */\n      0x20\n        /* \"#utility.yul\":5435:5444   */\n      dup3\n        /* \"#utility.yul\":5431:5449   */\n      add\n        /* \"#utility.yul\":5423:5449   */\n      swap1\n      pop\n        /* \"#utility.yul\":5495:5504   */\n      dup2\n        /* \"#utility.yul\":5489:5493   */\n      dup2\n        /* \"#utility.yul\":5485:5505   */\n      sub\n        /* \"#utility.yul\":5481:5482   */\n      0x00\n        /* \"#utility.yul\":5470:5479   */\n      dup4\n        /* \"#utility.yul\":5466:5483   */\n      add\n        /* \"#utility.yul\":5459:5506   */\n      mstore\n        /* \"#utility.yul\":5523:5654   */\n      tag_171\n        /* \"#utility.yul\":5649:5653   */\n      dup2\n        /* \"#utility.yul\":5523:5654   */\n      tag_107\n      jump\t// in\n    tag_171:\n        /* \"#utility.yul\":5515:5654   */\n      swap1\n      pop\n        /* \"#utility.yul\":5242:5661   */\n      swap2\n      swap1\n      pop\n      jump\t// out\n        /* \"#utility.yul\":5667:5908   */\n    tag_108:\n        /* \"#utility.yul\":5807:5841   */\n      0x4c6120646972656363696f6e20696e6772657361646120796120657374612061\n        /* \"#utility.yul\":5803:5804   */\n      0x00\n        /* \"#utility.yul\":5795:5801   */\n      dup3\n        /* \"#utility.yul\":5791:5805   */\n      add\n        /* \"#utility.yul\":5784:5842   */\n      mstore\n        /* \"#utility.yul\":5876:5900   */\n      0x637475616c6d656e746520726567697374726164612e00000000000000000000\n        /* \"#utility.yul\":5871:5873   */\n      0x20\n        /* \"#utility.yul\":5863:5869   */\n      dup3\n        /* \"#utility.yul\":5859:5874   */\n      add\n        /* \"#utility.yul\":5852:5901   */\n      mstore\n        /* \"#utility.yul\":5667:5908   */\n      pop\n      jump\t// out\n        /* \"#utility.yul\":5914:6280   */\n    tag_109:\n        /* \"#utility.yul\":6056:6059   */\n      0x00\n        /* \"#utility.yul\":6077:6144   */\n      tag_174\n        /* \"#utility.yul\":6141:6143   */\n      0x36\n        /* \"#utility.yul\":6136:6139   */\n      dup4\n        /* \"#utility.yul\":6077:6144   */\n      tag_101\n      jump\t// in\n    tag_174:\n        /* \"#utility.yul\":6070:6144   */\n      swap2\n      pop\n        /* \"#utility.yul\":6153:6246   */\n      tag_175\n        /* \"#utility.yul\":6242:6245   */\n      dup3\n        /* \"#utility.yul\":6153:6246   */\n      tag_108\n      jump\t// in\n    tag_175:\n        /* \"#utility.yul\":6271:6273   */\n      0x40\n        /* \"#utility.yul\":6266:6269   */\n      dup3\n        /* \"#utility.yul\":6262:6274   */\n      add\n        /* \"#utility.yul\":6255:6274   */\n      swap1\n      pop\n        /* \"#utility.yul\":5914:6280   */\n      swap2\n      swap1\n      pop\n      jump\t// out\n        /* \"#utility.yul\":6286:6705   */\n    tag_70:\n        /* \"#utility.yul\":6452:6456   */\n      0x00\n        /* \"#utility.yul\":6490:6492   */\n      0x20\n        /* \"#utility.yul\":6479:6488   */\n      dup3\n        /* \"#utility.yul\":6475:6493   */\n      add\n        /* \"#utility.yul\":6467:6493   */\n      swap1\n      pop\n        /* \"#utility.yul\":6539:6548   */\n      dup2\n        /* \"#utility.yul\":6533:6537   */\n      dup2\n        /* \"#utility.yul\":6529:6549   */\n      sub\n        /* \"#utility.yul\":6525:6526   */\n      0x00\n        /* \"#utility.yul\":6514:6523   */\n      dup4\n        /* \"#utility.yul\":6510:6527   */\n      add\n        /* \"#utility.yul\":6503:6550   */\n      mstore\n        /* \"#utility.yul\":6567:6698   */\n      tag_177\n        /* \"#utility.yul\":6693:6697   */\n      dup2\n        /* \"#utility.yul\":6567:6698   */\n      tag_109\n      jump\t// in\n    tag_177:\n        /* \"#utility.yul\":6559:6698   */\n      swap1\n      pop\n        /* \"#utility.yul\":6286:6705   */\n      swap2\n      swap1\n      pop\n      jump\t// out\n        /* \"#utility.yul\":6711:6862   */\n    tag_110:\n        /* \"#utility.yul\":6851:6854   */\n      0x2d00000000000000000000000000000000000000000000000000000000000000\n        /* \"#utility.yul\":6847:6848   */\n      0x00\n        /* \"#utility.yul\":6839:6845   */\n      dup3\n        /* \"#utility.yul\":6835:6849   */\n      add\n        /* \"#utility.yul\":6828:6855   */\n      mstore\n        /* \"#utility.yul\":6711:6862   */\n      pop\n      jump\t// out\n        /* \"#utility.yul\":6868:7233   */\n    tag_111:\n        /* \"#utility.yul\":7010:7013   */\n      0x00\n        /* \"#utility.yul\":7031:7097   */\n      tag_180\n        /* \"#utility.yul\":7095:7096   */\n      0x01\n        /* \"#utility.yul\":7090:7093   */\n      dup4\n        /* \"#utility.yul\":7031:7097   */\n      tag_101\n      jump\t// in\n    tag_180:\n        /* \"#utility.yul\":7024:7097   */\n      swap2\n      pop\n        /* \"#utility.yul\":7106:7199   */\n      tag_181\n        /* \"#utility.yul\":7195:7198   */\n      dup3\n        /* \"#utility.yul\":7106:7199   */\n      tag_110\n      jump\t// in\n    tag_181:\n        /* \"#utility.yul\":7224:7226   */\n      0x20\n        /* \"#utility.yul\":7219:7222   */\n      dup3\n        /* \"#utility.yul\":7215:7227   */\n      add\n        /* \"#utility.yul\":7208:7227   */\n      swap1\n      pop\n        /* \"#utility.yul\":6868:7233   */\n      swap2\n      swap1\n      pop\n      jump\t// out\n        /* \"#utility.yul\":7239:7658   */\n    tag_80:\n        /* \"#utility.yul\":7405:7409   */\n      0x00\n        /* \"#utility.yul\":7443:7445   */\n      0x20\n        /* \"#utility.yul\":7432:7441   */\n      dup3\n        /* \"#utility.yul\":7428:7446   */\n      add\n        /* \"#utility.yul\":7420:7446   */\n      swap1\n      pop\n        /* \"#utility.yul\":7492:7501   */\n      dup2\n        /* \"#utility.yul\":7486:7490   */\n      dup2\n        /* \"#utility.yul\":7482:7502   */\n      sub\n        /* \"#utility.yul\":7478:7479   */\n      0x00\n        /* \"#utility.yul\":7467:7476   */\n      dup4\n        /* \"#utility.yul\":7463:7480   */\n      add\n        /* \"#utility.yul\":7456:7503   */\n      mstore\n        /* \"#utility.yul\":7520:7651   */\n      tag_183\n        /* \"#utility.yul\":7646:7650   */\n      dup2\n        /* \"#utility.yul\":7520:7651   */\n      tag_111\n      jump\t// in\n    tag_183:\n        /* \"#utility.yul\":7512:7651   */\n      swap1\n      pop\n        /* \"#utility.yul\":7239:7658   */\n      swap2\n      swap1\n      pop\n      jump\t// out\n        /* \"#utility.yul\":7664:7855   */\n    tag_85:\n        /* \"#utility.yul\":7704:7707   */\n      0x00\n        /* \"#utility.yul\":7723:7743   */\n      tag_185\n        /* \"#utility.yul\":7741:7742   */\n      dup3\n        /* \"#utility.yul\":7723:7743   */\n      tag_96\n      jump\t// in\n    tag_185:\n        /* \"#utility.yul\":7718:7743   */\n      swap2\n      pop\n        /* \"#utility.yul\":7757:7777   */\n      tag_186\n        /* \"#utility.yul\":7775:7776   */\n      dup4\n        /* \"#utility.yul\":7757:7777   */\n      tag_96\n      jump\t// in\n    tag_186:\n        /* \"#utility.yul\":7752:7777   */\n      swap3\n      pop\n        /* \"#utility.yul\":7800:7801   */\n      dup3\n        /* \"#utility.yul\":7797:7798   */\n      dup3\n        /* \"#utility.yul\":7793:7802   */\n      add\n        /* \"#utility.yul\":7786:7802   */\n      swap1\n      pop\n        /* \"#utility.yul\":7821:7824   */\n      dup1\n        /* \"#utility.yul\":7818:7819   */\n      dup3\n        /* \"#utility.yul\":7815:7825   */\n      gt\n        /* \"#utility.yul\":7812:7848   */\n      iszero\n      tag_187\n      jumpi\n        /* \"#utility.yul\":7828:7846   */\n      tag_188\n      tag_105\n      jump\t// in\n    tag_188:\n        /* \"#utility.yul\":7812:7848   */\n    tag_187:\n        /* \"#utility.yul\":7664:7855   */\n      swap3\n      swap2\n      pop\n      pop\n      jump\t// out\n\n    auxdata: 0xa264697066735822122054c5bc25174fca49474cad4d8e193052df1006920828dfce3091cf9c8bea990a64736f6c63430008190033\n}\n",
				"bytecode": {
					"linkReferences": {},
					"object": "6080604052348015600e575f80fd5b5060015f803373ffffffffffffffffffffffffffffffffffffffff1673ffffffffffffffffffffffffffffffffffffffff1681526020019081526020015f205f6101000a81548160ff0219169083151502179055506001600281905550600160035f3373ffffffffffffffffffffffffffffffffffffffff1673ffffffffffffffffffffffffffffffffffffffff1681526020019081526020015f205f6101000a81548160ff021916908315150217905550610c77806100cd5f395ff3fe608060405260043610610085575f3560e01c80638654ad8e116100585780638654ad8e1461013d578063a230c52414610179578063a87d942c146101b5578063ca6d56dc146101df578063e73a914c146101fb57610085565b80630b1ca49a14610089578063248fdce9146100b15780632d5545a9146100d957806349aca59414610115575b5f80fd5b348015610094575f80fd5b506100af60048036038101906100aa91906108bb565b610223565b005b3480156100bc575f80fd5b506100d760048036038101906100d291906108bb565b61034d565b005b3480156100e4575f80fd5b506100ff60048036038101906100fa91906108bb565b610464565b60405161010c9190610900565b60405180910390f35b348015610120575f80fd5b5061013b600480360381019061013691906108bb565b610481565b005b348015610148575f80fd5b50610163600480360381019061015e91906108bb565b61059a565b6040516101709190610900565b60405180910390f35b348015610184575f80fd5b5061019f600480360381019061019a91906108bb565b6105ec565b6040516101ac9190610900565b60405180910390f35b3480156101c0575f80fd5b506101c961063d565b6040516101d69190610931565b60405180910390f35b6101f960048036038101906101f491906108bb565b610646565b005b348015610206575f80fd5b50610221600480360381019061021c9190610985565b61081a565b005b5f808273ffffffffffffffffffffffffffffffffffffffff1673ffffffffffffffffffffffffffffffffffffffff1681526020019081526020015f205f9054906101000a900460ff166102ab576040517f08c379a00000000000000000000000000000000000000000000000000000000081526004016102a290610a0a565b60405180910390fd5b5f805f8373ffffffffffffffffffffffffffffffffffffffff1673ffffffffffffffffffffffffffffffffffffffff1681526020019081526020015f205f6101000a81548160ff0219169083151502179055507f6e76fb4c77256006d9c38ec7d82b45a8c8f3c27b1d6766fffc42dfb8de6844928160405161032d9190610a37565b60405180910390a160016002546103449190610a7d565b60028190555050565b60035f8273ffffffffffffffffffffffffffffffffffffffff1673ffffffffffffffffffffffffffffffffffffffff1681526020019081526020015f205f9054906101000a900460ff166103d6576040517f08c379a00000000000000000000000000000000000000000000000000000000081526004016103cd90610afa565b60405180910390fd5b5f60035f8373ffffffffffffffffffffffffffffffffffffffff1673ffffffffffffffffffffffffffffffffffffffff1681526020019081526020015f205f6101000a81548160ff0219169083151502179055507f682828943bd9d40a434bc578bed0c7b86f6d4b6b60b4df9f31ae37610a66854f816040516104599190610a37565b60405180910390a150565b6003602052805f5260405f205f915054906101000a900460ff1681565b60035f8273ffffffffffffffffffffffffffffffffffffffff1673ffffffffffffffffffffffffffffffffffffffff1681526020019081526020015f205f9054906101000a900460ff161561050b576040517f08c379a000000000000000000000000000000000000000000000000000000000815260040161050290610b88565b60405180910390fd5b600160035f8373ffffffffffffffffffffffffffffffffffffffff1673ffffffffffffffffffffffffffffffffffffffff1681526020019081526020015f205f6101000a81548160ff0219169083151502179055507f56e5ac9f290e03b6e84bbc9d97f71d5a2d6d6a749372c9e595f2b040e7ba73c78160405161058f9190610a37565b60405180910390a150565b5f60035f8373ffffffffffffffffffffffffffffffffffffffff1673ffffffffffffffffffffffffffffffffffffffff1681526020019081526020015f205f9054906101000a900460ff169050919050565b5f805f8373ffffffffffffffffffffffffffffffffffffffff1673ffffffffffffffffffffffffffffffffffffffff1681526020019081526020015f205f9054906101000a900460ff169050919050565b5f600254905090565b5f808273ffffffffffffffffffffffffffffffffffffffff1673ffffffffffffffffffffffffffffffffffffffff1681526020019081526020015f205f9054906101000a900460ff16156106cf576040517f08c379a00000000000000000000000000000000000000000000000000000000081526004016106c690610b88565b60405180910390fd5b60013411610712576040517f08c379a000000000000000000000000000000000000000000000000000000000815260040161070990610bf0565b60405180910390fd5b60015f9054906101000a900473ffffffffffffffffffffffffffffffffffffffff1673ffffffffffffffffffffffffffffffffffffffff166108fc3490811502906040515f60405180830381858888f19350505050158015610776573d5f803e3d5ffd5b5060015f808373ffffffffffffffffffffffffffffffffffffffff1673ffffffffffffffffffffffffffffffffffffffff1681526020019081526020015f205f6101000a81548160ff0219169083151502179055507fb251eb052afc73ffd02ffe85ad79990a8b3fed60d76dbc2fa2fdd7123dffd914816040516107fa9190610a37565b60405180910390a160016002546108119190610c0e565b60028190555050565b8060015f6101000a81548173ffffffffffffffffffffffffffffffffffffffff021916908373ffffffffffffffffffffffffffffffffffffffff16021790555050565b5f80fd5b5f73ffffffffffffffffffffffffffffffffffffffff82169050919050565b5f61088a82610861565b9050919050565b61089a81610880565b81146108a4575f80fd5b50565b5f813590506108b581610891565b92915050565b5f602082840312156108d0576108cf61085d565b5b5f6108dd848285016108a7565b91505092915050565b5f8115159050919050565b6108fa816108e6565b82525050565b5f6020820190506109135f8301846108f1565b92915050565b5f819050919050565b61092b81610919565b82525050565b5f6020820190506109445f830184610922565b92915050565b5f61095482610861565b9050919050565b6109648161094a565b811461096e575f80fd5b50565b5f8135905061097f8161095b565b92915050565b5f6020828403121561099a5761099961085d565b5b5f6109a784828501610971565b91505092915050565b5f82825260208201905092915050565b7f4e6f206578697374652065737465206d69656d62726f000000000000000000005f82015250565b5f6109f46016836109b0565b91506109ff826109c0565b602082019050919050565b5f6020820190508181035f830152610a21816109e8565b9050919050565b610a3181610880565b82525050565b5f602082019050610a4a5f830184610a28565b92915050565b7f4e487b71000000000000000000000000000000000000000000000000000000005f52601160045260245ffd5b5f610a8782610919565b9150610a9283610919565b9250828203905081811115610aaa57610aa9610a50565b5b92915050565b7f4e6f206578697374652065737465204f6a6561646f72000000000000000000005f82015250565b5f610ae46016836109b0565b9150610aef82610ab0565b602082019050919050565b5f6020820190508181035f830152610b1181610ad8565b9050919050565b7f4c6120646972656363696f6e20696e67726573616461207961206573746120615f8201527f637475616c6d656e746520726567697374726164612e00000000000000000000602082015250565b5f610b726036836109b0565b9150610b7d82610b18565b604082019050919050565b5f6020820190508181035f830152610b9f81610b66565b9050919050565b7f2d000000000000000000000000000000000000000000000000000000000000005f82015250565b5f610bda6001836109b0565b9150610be582610ba6565b602082019050919050565b5f6020820190508181035f830152610c0781610bce565b9050919050565b5f610c1882610919565b9150610c2383610919565b9250828201905080821115610c3b57610c3a610a50565b5b9291505056fea264697066735822122054c5bc25174fca49474cad4d8e193052df1006920828dfce3091cf9c8bea990a64736f6c63430008190033",
					"opcodes": "PUSH1 0x80 PUSH1 0x40 MSTORE CALLVALUE DUP1 ISZERO PUSH1 0xE JUMPI PUSH0 DUP1 REVERT JUMPDEST POP PUSH1 0x1 PUSH0 DUP1 CALLER PUSH20 0xFFFFFFFFFFFFFFFFFFFFFFFFFFFFFFFFFFFFFFFF AND PUSH20 0xFFFFFFFFFFFFFFFFFFFFFFFFFFFFFFFFFFFFFFFF AND DUP2 MSTORE PUSH1 0x20 ADD SWAP1 DUP2 MSTORE PUSH1 0x20 ADD PUSH0 KECCAK256 PUSH0 PUSH2 0x100 EXP DUP2 SLOAD DUP2 PUSH1 0xFF MUL NOT AND SWAP1 DUP4 ISZERO ISZERO MUL OR SWAP1 SSTORE POP PUSH1 0x1 PUSH1 0x2 DUP2 SWAP1 SSTORE POP PUSH1 0x1 PUSH1 0x3 PUSH0 CALLER PUSH20 0xFFFFFFFFFFFFFFFFFFFFFFFFFFFFFFFFFFFFFFFF AND PUSH20 0xFFFFFFFFFFFFFFFFFFFFFFFFFFFFFFFFFFFFFFFF AND DUP2 MSTORE PUSH1 0x20 ADD SWAP1 DUP2 MSTORE PUSH1 0x20 ADD PUSH0 KECCAK256 PUSH0 PUSH2 0x100 EXP DUP2 SLOAD DUP2 PUSH1 0xFF MUL NOT AND SWAP1 DUP4 ISZERO ISZERO MUL OR SWAP1 SSTORE POP PUSH2 0xC77 DUP1 PUSH2 0xCD PUSH0 CODECOPY PUSH0 RETURN INVALID PUSH1 0x80 PUSH1 0x40 MSTORE PUSH1 0x4 CALLDATASIZE LT PUSH2 0x85 JUMPI PUSH0 CALLDATALOAD PUSH1 0xE0 SHR DUP1 PUSH4 0x8654AD8E GT PUSH2 0x58 JUMPI DUP1 PUSH4 0x8654AD8E EQ PUSH2 0x13D JUMPI DUP1 PUSH4 0xA230C524 EQ PUSH2 0x179 JUMPI DUP1 PUSH4 0xA87D942C EQ PUSH2 0x1B5 JUMPI DUP1 PUSH4 0xCA6D56DC EQ PUSH2 0x1DF JUMPI DUP1 PUSH4 0xE73A914C EQ PUSH2 0x1FB JUMPI PUSH2 0x85 JUMP JUMPDEST DUP1 PUSH4 0xB1CA49A EQ PUSH2 0x89 JUMPI DUP1 PUSH4 0x248FDCE9 EQ PUSH2 0xB1 JUMPI DUP1 PUSH4 0x2D5545A9 EQ PUSH2 0xD9 JUMPI DUP1 PUSH4 0x49ACA594 EQ PUSH2 0x115 JUMPI JUMPDEST PUSH0 DUP1 REVERT JUMPDEST CALLVALUE DUP1 ISZERO PUSH2 0x94 JUMPI PUSH0 DUP1 REVERT JUMPDEST POP PUSH2 0xAF PUSH1 0x4 DUP1 CALLDATASIZE SUB DUP2 ADD SWAP1 PUSH2 0xAA SWAP2 SWAP1 PUSH2 0x8BB JUMP JUMPDEST PUSH2 0x223 JUMP JUMPDEST STOP JUMPDEST CALLVALUE DUP1 ISZERO PUSH2 0xBC JUMPI PUSH0 DUP1 REVERT JUMPDEST POP PUSH2 0xD7 PUSH1 0x4 DUP1 CALLDATASIZE SUB DUP2 ADD SWAP1 PUSH2 0xD2 SWAP2 SWAP1 PUSH2 0x8BB JUMP JUMPDEST PUSH2 0x34D JUMP JUMPDEST STOP JUMPDEST CALLVALUE DUP1 ISZERO PUSH2 0xE4 JUMPI PUSH0 DUP1 REVERT JUMPDEST POP PUSH2 0xFF PUSH1 0x4 DUP1 CALLDATASIZE SUB DUP2 ADD SWAP1 PUSH2 0xFA SWAP2 SWAP1 PUSH2 0x8BB JUMP JUMPDEST PUSH2 0x464 JUMP JUMPDEST PUSH1 0x40 MLOAD PUSH2 0x10C SWAP2 SWAP1 PUSH2 0x900 JUMP JUMPDEST PUSH1 0x40 MLOAD DUP1 SWAP2 SUB SWAP1 RETURN JUMPDEST CALLVALUE DUP1 ISZERO PUSH2 0x120 JUMPI PUSH0 DUP1 REVERT JUMPDEST POP PUSH2 0x13B PUSH1 0x4 DUP1 CALLDATASIZE SUB DUP2 ADD SWAP1 PUSH2 0x136 SWAP2 SWAP1 PUSH2 0x8BB JUMP JUMPDEST PUSH2 0x481 JUMP JUMPDEST STOP JUMPDEST CALLVALUE DUP1 ISZERO PUSH2 0x148 JUMPI PUSH0 DUP1 REVERT JUMPDEST POP PUSH2 0x163 PUSH1 0x4 DUP1 CALLDATASIZE SUB DUP2 ADD SWAP1 PUSH2 0x15E SWAP2 SWAP1 PUSH2 0x8BB JUMP JUMPDEST PUSH2 0x59A JUMP JUMPDEST PUSH1 0x40 MLOAD PUSH2 0x170 SWAP2 SWAP1 PUSH2 0x900 JUMP JUMPDEST PUSH1 0x40 MLOAD DUP1 SWAP2 SUB SWAP1 RETURN JUMPDEST CALLVALUE DUP1 ISZERO PUSH2 0x184 JUMPI PUSH0 DUP1 REVERT JUMPDEST POP PUSH2 0x19F PUSH1 0x4 DUP1 CALLDATASIZE SUB DUP2 ADD SWAP1 PUSH2 0x19A SWAP2 SWAP1 PUSH2 0x8BB JUMP JUMPDEST PUSH2 0x5EC JUMP JUMPDEST PUSH1 0x40 MLOAD PUSH2 0x1AC SWAP2 SWAP1 PUSH2 0x900 JUMP JUMPDEST PUSH1 0x40 MLOAD DUP1 SWAP2 SUB SWAP1 RETURN JUMPDEST CALLVALUE DUP1 ISZERO PUSH2 0x1C0 JUMPI PUSH0 DUP1 REVERT JUMPDEST POP PUSH2 0x1C9 PUSH2 0x63D JUMP JUMPDEST PUSH1 0x40 MLOAD PUSH2 0x1D6 SWAP2 SWAP1 PUSH2 0x931 JUMP JUMPDEST PUSH1 0x40 MLOAD DUP1 SWAP2 SUB SWAP1 RETURN JUMPDEST PUSH2 0x1F9 PUSH1 0x4 DUP1 CALLDATASIZE SUB DUP2 ADD SWAP1 PUSH2 0x1F4 SWAP2 SWAP1 PUSH2 0x8BB JUMP JUMPDEST PUSH2 0x646 JUMP JUMPDEST STOP JUMPDEST CALLVALUE DUP1 ISZERO PUSH2 0x206 JUMPI PUSH0 DUP1 REVERT JUMPDEST POP PUSH2 0x221 PUSH1 0x4 DUP1 CALLDATASIZE SUB DUP2 ADD SWAP1 PUSH2 0x21C SWAP2 SWAP1 PUSH2 0x985 JUMP JUMPDEST PUSH2 0x81A JUMP JUMPDEST STOP JUMPDEST PUSH0 DUP1 DUP3 PUSH20 0xFFFFFFFFFFFFFFFFFFFFFFFFFFFFFFFFFFFFFFFF AND PUSH20 0xFFFFFFFFFFFFFFFFFFFFFFFFFFFFFFFFFFFFFFFF AND DUP2 MSTORE PUSH1 0x20 ADD SWAP1 DUP2 MSTORE PUSH1 0x20 ADD PUSH0 KECCAK256 PUSH0 SWAP1 SLOAD SWAP1 PUSH2 0x100 EXP SWAP1 DIV PUSH1 0xFF AND PUSH2 0x2AB JUMPI PUSH1 0x40 MLOAD PUSH32 0x8C379A000000000000000000000000000000000000000000000000000000000 DUP2 MSTORE PUSH1 0x4 ADD PUSH2 0x2A2 SWAP1 PUSH2 0xA0A JUMP JUMPDEST PUSH1 0x40 MLOAD DUP1 SWAP2 SUB SWAP1 REVERT JUMPDEST PUSH0 DUP1 PUSH0 DUP4 PUSH20 0xFFFFFFFFFFFFFFFFFFFFFFFFFFFFFFFFFFFFFFFF AND PUSH20 0xFFFFFFFFFFFFFFFFFFFFFFFFFFFFFFFFFFFFFFFF AND DUP2 MSTORE PUSH1 0x20 ADD SWAP1 DUP2 MSTORE PUSH1 0x20 ADD PUSH0 KECCAK256 PUSH0 PUSH2 0x100 EXP DUP2 SLOAD DUP2 PUSH1 0xFF MUL NOT AND SWAP1 DUP4 ISZERO ISZERO MUL OR SWAP1 SSTORE POP PUSH32 0x6E76FB4C77256006D9C38EC7D82B45A8C8F3C27B1D6766FFFC42DFB8DE684492 DUP2 PUSH1 0x40 MLOAD PUSH2 0x32D SWAP2 SWAP1 PUSH2 0xA37 JUMP JUMPDEST PUSH1 0x40 MLOAD DUP1 SWAP2 SUB SWAP1 LOG1 PUSH1 0x1 PUSH1 0x2 SLOAD PUSH2 0x344 SWAP2 SWAP1 PUSH2 0xA7D JUMP JUMPDEST PUSH1 0x2 DUP2 SWAP1 SSTORE POP POP JUMP JUMPDEST PUSH1 0x3 PUSH0 DUP3 PUSH20 0xFFFFFFFFFFFFFFFFFFFFFFFFFFFFFFFFFFFFFFFF AND PUSH20 0xFFFFFFFFFFFFFFFFFFFFFFFFFFFFFFFFFFFFFFFF AND DUP2 MSTORE PUSH1 0x20 ADD SWAP1 DUP2 MSTORE PUSH1 0x20 ADD PUSH0 KECCAK256 PUSH0 SWAP1 SLOAD SWAP1 PUSH2 0x100 EXP SWAP1 DIV PUSH1 0xFF AND PUSH2 0x3D6 JUMPI PUSH1 0x40 MLOAD PUSH32 0x8C379A000000000000000000000000000000000000000000000000000000000 DUP2 MSTORE PUSH1 0x4 ADD PUSH2 0x3CD SWAP1 PUSH2 0xAFA JUMP JUMPDEST PUSH1 0x40 MLOAD DUP1 SWAP2 SUB SWAP1 REVERT JUMPDEST PUSH0 PUSH1 0x3 PUSH0 DUP4 PUSH20 0xFFFFFFFFFFFFFFFFFFFFFFFFFFFFFFFFFFFFFFFF AND PUSH20 0xFFFFFFFFFFFFFFFFFFFFFFFFFFFFFFFFFFFFFFFF AND DUP2 MSTORE PUSH1 0x20 ADD SWAP1 DUP2 MSTORE PUSH1 0x20 ADD PUSH0 KECCAK256 PUSH0 PUSH2 0x100 EXP DUP2 SLOAD DUP2 PUSH1 0xFF MUL NOT AND SWAP1 DUP4 ISZERO ISZERO MUL OR SWAP1 SSTORE POP PUSH32 0x682828943BD9D40A434BC578BED0C7B86F6D4B6B60B4DF9F31AE37610A66854F DUP2 PUSH1 0x40 MLOAD PUSH2 0x459 SWAP2 SWAP1 PUSH2 0xA37 JUMP JUMPDEST PUSH1 0x40 MLOAD DUP1 SWAP2 SUB SWAP1 LOG1 POP JUMP JUMPDEST PUSH1 0x3 PUSH1 0x20 MSTORE DUP1 PUSH0 MSTORE PUSH1 0x40 PUSH0 KECCAK256 PUSH0 SWAP2 POP SLOAD SWAP1 PUSH2 0x100 EXP SWAP1 DIV PUSH1 0xFF AND DUP2 JUMP JUMPDEST PUSH1 0x3 PUSH0 DUP3 PUSH20 0xFFFFFFFFFFFFFFFFFFFFFFFFFFFFFFFFFFFFFFFF AND PUSH20 0xFFFFFFFFFFFFFFFFFFFFFFFFFFFFFFFFFFFFFFFF AND DUP2 MSTORE PUSH1 0x20 ADD SWAP1 DUP2 MSTORE PUSH1 0x20 ADD PUSH0 KECCAK256 PUSH0 SWAP1 SLOAD SWAP1 PUSH2 0x100 EXP SWAP1 DIV PUSH1 0xFF AND ISZERO PUSH2 0x50B JUMPI PUSH1 0x40 MLOAD PUSH32 0x8C379A000000000000000000000000000000000000000000000000000000000 DUP2 MSTORE PUSH1 0x4 ADD PUSH2 0x502 SWAP1 PUSH2 0xB88 JUMP JUMPDEST PUSH1 0x40 MLOAD DUP1 SWAP2 SUB SWAP1 REVERT JUMPDEST PUSH1 0x1 PUSH1 0x3 PUSH0 DUP4 PUSH20 0xFFFFFFFFFFFFFFFFFFFFFFFFFFFFFFFFFFFFFFFF AND PUSH20 0xFFFFFFFFFFFFFFFFFFFFFFFFFFFFFFFFFFFFFFFF AND DUP2 MSTORE PUSH1 0x20 ADD SWAP1 DUP2 MSTORE PUSH1 0x20 ADD PUSH0 KECCAK256 PUSH0 PUSH2 0x100 EXP DUP2 SLOAD DUP2 PUSH1 0xFF MUL NOT AND SWAP1 DUP4 ISZERO ISZERO MUL OR SWAP1 SSTORE POP PUSH32 0x56E5AC9F290E03B6E84BBC9D97F71D5A2D6D6A749372C9E595F2B040E7BA73C7 DUP2 PUSH1 0x40 MLOAD PUSH2 0x58F SWAP2 SWAP1 PUSH2 0xA37 JUMP JUMPDEST PUSH1 0x40 MLOAD DUP1 SWAP2 SUB SWAP1 LOG1 POP JUMP JUMPDEST PUSH0 PUSH1 0x3 PUSH0 DUP4 PUSH20 0xFFFFFFFFFFFFFFFFFFFFFFFFFFFFFFFFFFFFFFFF AND PUSH20 0xFFFFFFFFFFFFFFFFFFFFFFFFFFFFFFFFFFFFFFFF AND DUP2 MSTORE PUSH1 0x20 ADD SWAP1 DUP2 MSTORE PUSH1 0x20 ADD PUSH0 KECCAK256 PUSH0 SWAP1 SLOAD SWAP1 PUSH2 0x100 EXP SWAP1 DIV PUSH1 0xFF AND SWAP1 POP SWAP2 SWAP1 POP JUMP JUMPDEST PUSH0 DUP1 PUSH0 DUP4 PUSH20 0xFFFFFFFFFFFFFFFFFFFFFFFFFFFFFFFFFFFFFFFF AND PUSH20 0xFFFFFFFFFFFFFFFFFFFFFFFFFFFFFFFFFFFFFFFF AND DUP2 MSTORE PUSH1 0x20 ADD SWAP1 DUP2 MSTORE PUSH1 0x20 ADD PUSH0 KECCAK256 PUSH0 SWAP1 SLOAD SWAP1 PUSH2 0x100 EXP SWAP1 DIV PUSH1 0xFF AND SWAP1 POP SWAP2 SWAP1 POP JUMP JUMPDEST PUSH0 PUSH1 0x2 SLOAD SWAP1 POP SWAP1 JUMP JUMPDEST PUSH0 DUP1 DUP3 PUSH20 0xFFFFFFFFFFFFFFFFFFFFFFFFFFFFFFFFFFFFFFFF AND PUSH20 0xFFFFFFFFFFFFFFFFFFFFFFFFFFFFFFFFFFFFFFFF AND DUP2 MSTORE PUSH1 0x20 ADD SWAP1 DUP2 MSTORE PUSH1 0x20 ADD PUSH0 KECCAK256 PUSH0 SWAP1 SLOAD SWAP1 PUSH2 0x100 EXP SWAP1 DIV PUSH1 0xFF AND ISZERO PUSH2 0x6CF JUMPI PUSH1 0x40 MLOAD PUSH32 0x8C379A000000000000000000000000000000000000000000000000000000000 DUP2 MSTORE PUSH1 0x4 ADD PUSH2 0x6C6 SWAP1 PUSH2 0xB88 JUMP JUMPDEST PUSH1 0x40 MLOAD DUP1 SWAP2 SUB SWAP1 REVERT JUMPDEST PUSH1 0x1 CALLVALUE GT PUSH2 0x712 JUMPI PUSH1 0x40 MLOAD PUSH32 0x8C379A000000000000000000000000000000000000000000000000000000000 DUP2 MSTORE PUSH1 0x4 ADD PUSH2 0x709 SWAP1 PUSH2 0xBF0 JUMP JUMPDEST PUSH1 0x40 MLOAD DUP1 SWAP2 SUB SWAP1 REVERT JUMPDEST PUSH1 0x1 PUSH0 SWAP1 SLOAD SWAP1 PUSH2 0x100 EXP SWAP1 DIV PUSH20 0xFFFFFFFFFFFFFFFFFFFFFFFFFFFFFFFFFFFFFFFF AND PUSH20 0xFFFFFFFFFFFFFFFFFFFFFFFFFFFFFFFFFFFFFFFF AND PUSH2 0x8FC CALLVALUE SWAP1 DUP2 ISZERO MUL SWAP1 PUSH1 0x40 MLOAD PUSH0 PUSH1 0x40 MLOAD DUP1 DUP4 SUB DUP2 DUP6 DUP9 DUP9 CALL SWAP4 POP POP POP POP ISZERO DUP1 ISZERO PUSH2 0x776 JUMPI RETURNDATASIZE PUSH0 DUP1 RETURNDATACOPY RETURNDATASIZE PUSH0 REVERT JUMPDEST POP PUSH1 0x1 PUSH0 DUP1 DUP4 PUSH20 0xFFFFFFFFFFFFFFFFFFFFFFFFFFFFFFFFFFFFFFFF AND PUSH20 0xFFFFFFFFFFFFFFFFFFFFFFFFFFFFFFFFFFFFFFFF AND DUP2 MSTORE PUSH1 0x20 ADD SWAP1 DUP2 MSTORE PUSH1 0x20 ADD PUSH0 KECCAK256 PUSH0 PUSH2 0x100 EXP DUP2 SLOAD DUP2 PUSH1 0xFF MUL NOT AND SWAP1 DUP4 ISZERO ISZERO MUL OR SWAP1 SSTORE POP PUSH32 0xB251EB052AFC73FFD02FFE85AD79990A8B3FED60D76DBC2FA2FDD7123DFFD914 DUP2 PUSH1 0x40 MLOAD PUSH2 0x7FA SWAP2 SWAP1 PUSH2 0xA37 JUMP JUMPDEST PUSH1 0x40 MLOAD DUP1 SWAP2 SUB SWAP1 LOG1 PUSH1 0x1 PUSH1 0x2 SLOAD PUSH2 0x811 SWAP2 SWAP1 PUSH2 0xC0E JUMP JUMPDEST PUSH1 0x2 DUP2 SWAP1 SSTORE POP POP JUMP JUMPDEST DUP1 PUSH1 0x1 PUSH0 PUSH2 0x100 EXP DUP2 SLOAD DUP2 PUSH20 0xFFFFFFFFFFFFFFFFFFFFFFFFFFFFFFFFFFFFFFFF MUL NOT AND SWAP1 DUP4 PUSH20 0xFFFFFFFFFFFFFFFFFFFFFFFFFFFFFFFFFFFFFFFF AND MUL OR SWAP1 SSTORE POP POP JUMP JUMPDEST PUSH0 DUP1 REVERT JUMPDEST PUSH0 PUSH20 0xFFFFFFFFFFFFFFFFFFFFFFFFFFFFFFFFFFFFFFFF DUP3 AND SWAP1 POP SWAP2 SWAP1 POP JUMP JUMPDEST PUSH0 PUSH2 0x88A DUP3 PUSH2 0x861 JUMP JUMPDEST SWAP1 POP SWAP2 SWAP1 POP JUMP JUMPDEST PUSH2 0x89A DUP2 PUSH2 0x880 JUMP JUMPDEST DUP2 EQ PUSH2 0x8A4 JUMPI PUSH0 DUP1 REVERT JUMPDEST POP JUMP JUMPDEST PUSH0 DUP2 CALLDATALOAD SWAP1 POP PUSH2 0x8B5 DUP2 PUSH2 0x891 JUMP JUMPDEST SWAP3 SWAP2 POP POP JUMP JUMPDEST PUSH0 PUSH1 0x20 DUP3 DUP5 SUB SLT ISZERO PUSH2 0x8D0 JUMPI PUSH2 0x8CF PUSH2 0x85D JUMP JUMPDEST JUMPDEST PUSH0 PUSH2 0x8DD DUP5 DUP3 DUP6 ADD PUSH2 0x8A7 JUMP JUMPDEST SWAP2 POP POP SWAP3 SWAP2 POP POP JUMP JUMPDEST PUSH0 DUP2 ISZERO ISZERO SWAP1 POP SWAP2 SWAP1 POP JUMP JUMPDEST PUSH2 0x8FA DUP2 PUSH2 0x8E6 JUMP JUMPDEST DUP3 MSTORE POP POP JUMP JUMPDEST PUSH0 PUSH1 0x20 DUP3 ADD SWAP1 POP PUSH2 0x913 PUSH0 DUP4 ADD DUP5 PUSH2 0x8F1 JUMP JUMPDEST SWAP3 SWAP2 POP POP JUMP JUMPDEST PUSH0 DUP2 SWAP1 POP SWAP2 SWAP1 POP JUMP JUMPDEST PUSH2 0x92B DUP2 PUSH2 0x919 JUMP JUMPDEST DUP3 MSTORE POP POP JUMP JUMPDEST PUSH0 PUSH1 0x20 DUP3 ADD SWAP1 POP PUSH2 0x944 PUSH0 DUP4 ADD DUP5 PUSH2 0x922 JUMP JUMPDEST SWAP3 SWAP2 POP POP JUMP JUMPDEST PUSH0 PUSH2 0x954 DUP3 PUSH2 0x861 JUMP JUMPDEST SWAP1 POP SWAP2 SWAP1 POP JUMP JUMPDEST PUSH2 0x964 DUP2 PUSH2 0x94A JUMP JUMPDEST DUP2 EQ PUSH2 0x96E JUMPI PUSH0 DUP1 REVERT JUMPDEST POP JUMP JUMPDEST PUSH0 DUP2 CALLDATALOAD SWAP1 POP PUSH2 0x97F DUP2 PUSH2 0x95B JUMP JUMPDEST SWAP3 SWAP2 POP POP JUMP JUMPDEST PUSH0 PUSH1 0x20 DUP3 DUP5 SUB SLT ISZERO PUSH2 0x99A JUMPI PUSH2 0x999 PUSH2 0x85D JUMP JUMPDEST JUMPDEST PUSH0 PUSH2 0x9A7 DUP5 DUP3 DUP6 ADD PUSH2 0x971 JUMP JUMPDEST SWAP2 POP POP SWAP3 SWAP2 POP POP JUMP JUMPDEST PUSH0 DUP3 DUP3 MSTORE PUSH1 0x20 DUP3 ADD SWAP1 POP SWAP3 SWAP2 POP POP JUMP JUMPDEST PUSH32 0x4E6F206578697374652065737465206D69656D62726F00000000000000000000 PUSH0 DUP3 ADD MSTORE POP JUMP JUMPDEST PUSH0 PUSH2 0x9F4 PUSH1 0x16 DUP4 PUSH2 0x9B0 JUMP JUMPDEST SWAP2 POP PUSH2 0x9FF DUP3 PUSH2 0x9C0 JUMP JUMPDEST PUSH1 0x20 DUP3 ADD SWAP1 POP SWAP2 SWAP1 POP JUMP JUMPDEST PUSH0 PUSH1 0x20 DUP3 ADD SWAP1 POP DUP2 DUP2 SUB PUSH0 DUP4 ADD MSTORE PUSH2 0xA21 DUP2 PUSH2 0x9E8 JUMP JUMPDEST SWAP1 POP SWAP2 SWAP1 POP JUMP JUMPDEST PUSH2 0xA31 DUP2 PUSH2 0x880 JUMP JUMPDEST DUP3 MSTORE POP POP JUMP JUMPDEST PUSH0 PUSH1 0x20 DUP3 ADD SWAP1 POP PUSH2 0xA4A PUSH0 DUP4 ADD DUP5 PUSH2 0xA28 JUMP JUMPDEST SWAP3 SWAP2 POP POP JUMP JUMPDEST PUSH32 0x4E487B7100000000000000000000000000000000000000000000000000000000 PUSH0 MSTORE PUSH1 0x11 PUSH1 0x4 MSTORE PUSH1 0x24 PUSH0 REVERT JUMPDEST PUSH0 PUSH2 0xA87 DUP3 PUSH2 0x919 JUMP JUMPDEST SWAP2 POP PUSH2 0xA92 DUP4 PUSH2 0x919 JUMP JUMPDEST SWAP3 POP DUP3 DUP3 SUB SWAP1 POP DUP2 DUP2 GT ISZERO PUSH2 0xAAA JUMPI PUSH2 0xAA9 PUSH2 0xA50 JUMP JUMPDEST JUMPDEST SWAP3 SWAP2 POP POP JUMP JUMPDEST PUSH32 0x4E6F206578697374652065737465204F6A6561646F7200000000000000000000 PUSH0 DUP3 ADD MSTORE POP JUMP JUMPDEST PUSH0 PUSH2 0xAE4 PUSH1 0x16 DUP4 PUSH2 0x9B0 JUMP JUMPDEST SWAP2 POP PUSH2 0xAEF DUP3 PUSH2 0xAB0 JUMP JUMPDEST PUSH1 0x20 DUP3 ADD SWAP1 POP SWAP2 SWAP1 POP JUMP JUMPDEST PUSH0 PUSH1 0x20 DUP3 ADD SWAP1 POP DUP2 DUP2 SUB PUSH0 DUP4 ADD MSTORE PUSH2 0xB11 DUP2 PUSH2 0xAD8 JUMP JUMPDEST SWAP1 POP SWAP2 SWAP1 POP JUMP JUMPDEST PUSH32 0x4C6120646972656363696F6E20696E6772657361646120796120657374612061 PUSH0 DUP3 ADD MSTORE PUSH32 0x637475616C6D656E746520726567697374726164612E00000000000000000000 PUSH1 0x20 DUP3 ADD MSTORE POP JUMP JUMPDEST PUSH0 PUSH2 0xB72 PUSH1 0x36 DUP4 PUSH2 0x9B0 JUMP JUMPDEST SWAP2 POP PUSH2 0xB7D DUP3 PUSH2 0xB18 JUMP JUMPDEST PUSH1 0x40 DUP3 ADD SWAP1 POP SWAP2 SWAP1 POP JUMP JUMPDEST PUSH0 PUSH1 0x20 DUP3 ADD SWAP1 POP DUP2 DUP2 SUB PUSH0 DUP4 ADD MSTORE PUSH2 0xB9F DUP2 PUSH2 0xB66 JUMP JUMPDEST SWAP1 POP SWAP2 SWAP1 POP JUMP JUMPDEST PUSH32 0x2D00000000000000000000000000000000000000000000000000000000000000 PUSH0 DUP3 ADD MSTORE POP JUMP JUMPDEST PUSH0 PUSH2 0xBDA PUSH1 0x1 DUP4 PUSH2 0x9B0 JUMP JUMPDEST SWAP2 POP PUSH2 0xBE5 DUP3 PUSH2 0xBA6 JUMP JUMPDEST PUSH1 0x20 DUP3 ADD SWAP1 POP SWAP2 SWAP1 POP JUMP JUMPDEST PUSH0 PUSH1 0x20 DUP3 ADD SWAP1 POP DUP2 DUP2 SUB PUSH0 DUP4 ADD MSTORE PUSH2 0xC07 DUP2 PUSH2 0xBCE JUMP JUMPDEST SWAP1 POP SWAP2 SWAP1 POP JUMP JUMPDEST PUSH0 PUSH2 0xC18 DUP3 PUSH2 0x919 JUMP JUMPDEST SWAP2 POP PUSH2 0xC23 DUP4 PUSH2 0x919 JUMP JUMPDEST SWAP3 POP DUP3 DUP3 ADD SWAP1 POP DUP1 DUP3 GT ISZERO PUSH2 0xC3B JUMPI PUSH2 0xC3A PUSH2 0xA50 JUMP JUMPDEST JUMPDEST SWAP3 SWAP2 POP POP JUMP INVALID LOG2 PUSH5 0x6970667358 0x22 SLT KECCAK256 SLOAD 0xC5 0xBC 0x25 OR 0x4F 0xCA BLOBHASH SELFBALANCE 0x4C 0xAD 0x4D DUP15 NOT ADDRESS MSTORE 0xDF LT MOD SWAP3 ADDMOD 0x28 0xDF 0xCE ADDRESS SWAP2 0xCF SWAP13 DUP12 0xEA SWAP10 EXP PUSH5 0x736F6C6343 STOP ADDMOD NOT STOP CALLER "
				},
				"gasEstimates": {
					"creation": {
						"codeDepositCost": "638200",
						"executionCost": "71488",
						"totalCost": "709688"
					},
					"external": {
						"addMember(address)": "infinite",
						"addOjeador(address)": "infinite",
						"getCount()": "2476",
						"isMember(address)": "2892",
						"isOjeador(address)": "2870",
						"ojeadores(address)": "2878",
						"removeMember(address)": "infinite",
						"removeOjeador(address)": "infinite",
						"setDAO(address)": "24803"
					}
				},
				"methodIdentifiers": {
					"addMember(address)": "ca6d56dc",
					"addOjeador(address)": "49aca594",
					"getCount()": "a87d942c",
					"isMember(address)": "a230c524",
					"isOjeador(address)": "8654ad8e",
					"ojeadores(address)": "2d5545a9",
					"removeMember(address)": "0b1ca49a",
					"removeOjeador(address)": "248fdce9",
					"setDAO(address)": "e73a914c"
				}
			},
			"storageLayout": {
				"storage": [
					{
						"astId": 175,
						"contract": "desarrollo-de-una-dao/contracts/Ojeador.sol:Ojeador",
						"label": "members",
						"offset": 0,
						"slot": "0",
						"type": "t_mapping(t_address,t_bool)"
					},
					{
						"astId": 177,
						"contract": "desarrollo-de-una-dao/contracts/Ojeador.sol:Ojeador",
						"label": "DAO",
						"offset": 0,
						"slot": "1",
						"type": "t_address_payable"
					},
					{
						"astId": 179,
						"contract": "desarrollo-de-una-dao/contracts/Ojeador.sol:Ojeador",
						"label": "count",
						"offset": 0,
						"slot": "2",
						"type": "t_uint256"
					},
					{
						"astId": 316,
						"contract": "desarrollo-de-una-dao/contracts/Ojeador.sol:Ojeador",
						"label": "ojeadores",
						"offset": 0,
						"slot": "3",
						"type": "t_mapping(t_address,t_bool)"
					}
				],
				"types": {
					"t_address": {
						"encoding": "inplace",
						"label": "address",
						"numberOfBytes": "20"
					},
					"t_address_payable": {
						"encoding": "inplace",
						"label": "address payable",
						"numberOfBytes": "20"
					},
					"t_bool": {
						"encoding": "inplace",
						"label": "bool",
						"numberOfBytes": "1"
					},
					"t_mapping(t_address,t_bool)": {
						"encoding": "mapping",
						"key": "t_address",
						"label": "mapping(address => bool)",
						"numberOfBytes": "32",
						"value": "t_bool"
					},
					"t_uint256": {
						"encoding": "inplace",
						"label": "uint256",
						"numberOfBytes": "32"
					}
				}
			},
			"userdoc": {
				"kind": "user",
				"methods": {},
				"version": 1
			}
		}
	}
}