{
	"desarrollo-de-una-dao/contracts/JugadoresAFichar.sol": {
		"JugadoresAFichar": {
			"abi": [
				{
					"inputs": [
						{
							"internalType": "address",
							"name": "ojeadorContract",
							"type": "address"
						}
					],
					"stateMutability": "nonpayable",
					"type": "constructor"
				},
				{
					"anonymous": false,
					"inputs": [
						{
							"indexed": false,
							"internalType": "address",
							"name": "jugador",
							"type": "address"
						},
						{
							"indexed": false,
							"internalType": "string",
							"name": "nombre",
							"type": "string"
						},
						{
							"indexed": false,
							"internalType": "uint256",
							"name": "precio",
							"type": "uint256"
						}
					],
					"name": "JugadorAnadido",
					"type": "event"
				},
				{
					"anonymous": false,
					"inputs": [
						{
							"indexed": false,
							"internalType": "address",
							"name": "jugador",
							"type": "address"
						}
					],
					"name": "JugadorEliminado",
					"type": "event"
				},
				{
					"inputs": [
						{
							"internalType": "address",
							"name": "_jugador",
							"type": "address"
						},
						{
							"internalType": "string",
							"name": "nombre",
							"type": "string"
						},
						{
							"internalType": "uint256",
							"name": "precio",
							"type": "uint256"
						}
					],
					"name": "anadirJugador",
					"outputs": [],
					"stateMutability": "nonpayable",
					"type": "function"
				},
				{
					"inputs": [
						{
							"internalType": "address",
							"name": "_jugador",
							"type": "address"
						}
					],
					"name": "eliminarJugador",
					"outputs": [],
					"stateMutability": "nonpayable",
					"type": "function"
				},
				{
					"inputs": [
						{
							"internalType": "address",
							"name": "jugador",
							"type": "address"
						}
					],
					"name": "existeJug",
					"outputs": [
						{
							"internalType": "bool",
							"name": "",
							"type": "bool"
						}
					],
					"stateMutability": "view",
					"type": "function"
				},
				{
					"inputs": [
						{
							"internalType": "address",
							"name": "",
							"type": "address"
						}
					],
					"name": "jugadores",
					"outputs": [
						{
							"internalType": "bool",
							"name": "",
							"type": "bool"
						}
					],
					"stateMutability": "view",
					"type": "function"
				},
				{
					"inputs": [
						{
							"internalType": "address",
							"name": "",
							"type": "address"
						}
					],
					"name": "nombrecompleto",
					"outputs": [
						{
							"internalType": "string",
							"name": "",
							"type": "string"
						}
					],
					"stateMutability": "view",
					"type": "function"
				},
				{
					"inputs": [
						{
							"internalType": "address",
							"name": "_jugador",
							"type": "address"
						}
					],
					"name": "obtenerNombre",
					"outputs": [
						{
							"internalType": "string",
							"name": "",
							"type": "string"
						}
					],
					"stateMutability": "view",
					"type": "function"
				},
				{
					"inputs": [
						{
							"internalType": "address",
							"name": "_jugador",
							"type": "address"
						}
					],
					"name": "obtenerPrecio",
					"outputs": [
						{
							"internalType": "uint256",
							"name": "",
							"type": "uint256"
						}
					],
					"stateMutability": "view",
					"type": "function"
				},
				{
					"inputs": [],
					"name": "ojeadorContract_",
					"outputs": [
						{
							"internalType": "contract Ojeador",
							"name": "",
							"type": "address"
						}
					],
					"stateMutability": "view",
					"type": "function"
				},
				{
					"inputs": [
						{
							"internalType": "address",
							"name": "",
							"type": "address"
						}
					],
					"name": "value_jug",
					"outputs": [
						{
							"internalType": "uint256",
							"name": "",
							"type": "uint256"
						}
					],
					"stateMutability": "view",
					"type": "function"
				}
			],
			"devdoc": {
				"kind": "dev",
				"methods": {},
				"version": 1
			},
			"evm": {
				"assembly": "    /* \"desarrollo-de-una-dao/contracts/JugadoresAFichar.sol\":111:1950  contract JugadoresAFichar {... */\n  mstore(0x40, 0x80)\n    /* \"desarrollo-de-una-dao/contracts/JugadoresAFichar.sol\":367:463  constructor(address ojeadorContract){... */\n  callvalue\n  dup1\n  iszero\n  tag_1\n  jumpi\n  0x00\n  dup1\n  revert\ntag_1:\n  pop\n  mload(0x40)\n  sub(codesize, bytecodeSize)\n  dup1\n  bytecodeSize\n  dup4\n  codecopy\n  dup2\n  dup2\n  add\n  0x40\n  mstore\n  dup2\n  add\n  swap1\n  tag_2\n  swap2\n  swap1\n  tag_3\n  jump\t// in\ntag_2:\n    /* \"desarrollo-de-una-dao/contracts/JugadoresAFichar.sol\":440:455  ojeadorContract */\n  dup1\n    /* \"desarrollo-de-una-dao/contracts/JugadoresAFichar.sol\":413:429  ojeadorContract_ */\n  0x03\n  0x00\n    /* \"desarrollo-de-una-dao/contracts/JugadoresAFichar.sol\":413:456  ojeadorContract_ = Ojeador(ojeadorContract) */\n  0x0100\n  exp\n  dup2\n  sload\n  dup2\n  0xffffffffffffffffffffffffffffffffffffffff\n  mul\n  not\n  and\n  swap1\n  dup4\n  0xffffffffffffffffffffffffffffffffffffffff\n  and\n  mul\n  or\n  swap1\n  sstore\n  pop\n    /* \"desarrollo-de-una-dao/contracts/JugadoresAFichar.sol\":367:463  constructor(address ojeadorContract){... */\n  pop\n    /* \"desarrollo-de-una-dao/contracts/JugadoresAFichar.sol\":111:1950  contract JugadoresAFichar {... */\n  jump(tag_6)\n    /* \"#utility.yul\":88:205   */\ntag_8:\n    /* \"#utility.yul\":197:198   */\n  0x00\n    /* \"#utility.yul\":194:195   */\n  dup1\n    /* \"#utility.yul\":187:199   */\n  revert\n    /* \"#utility.yul\":334:460   */\ntag_10:\n    /* \"#utility.yul\":371:378   */\n  0x00\n    /* \"#utility.yul\":411:453   */\n  0xffffffffffffffffffffffffffffffffffffffff\n    /* \"#utility.yul\":404:409   */\n  dup3\n    /* \"#utility.yul\":400:454   */\n  and\n    /* \"#utility.yul\":389:454   */\n  swap1\n  pop\n    /* \"#utility.yul\":334:460   */\n  swap2\n  swap1\n  pop\n  jump\t// out\n    /* \"#utility.yul\":466:562   */\ntag_11:\n    /* \"#utility.yul\":503:510   */\n  0x00\n    /* \"#utility.yul\":532:556   */\n  tag_20\n    /* \"#utility.yul\":550:555   */\n  dup3\n    /* \"#utility.yul\":532:556   */\n  tag_10\n  jump\t// in\ntag_20:\n    /* \"#utility.yul\":521:556   */\n  swap1\n  pop\n    /* \"#utility.yul\":466:562   */\n  swap2\n  swap1\n  pop\n  jump\t// out\n    /* \"#utility.yul\":568:690   */\ntag_12:\n    /* \"#utility.yul\":641:665   */\n  tag_22\n    /* \"#utility.yul\":659:664   */\n  dup2\n    /* \"#utility.yul\":641:665   */\n  tag_11\n  jump\t// in\ntag_22:\n    /* \"#utility.yul\":634:639   */\n  dup2\n    /* \"#utility.yul\":631:666   */\n  eq\n    /* \"#utility.yul\":621:684   */\n  tag_23\n  jumpi\n    /* \"#utility.yul\":680:681   */\n  0x00\n    /* \"#utility.yul\":677:678   */\n  dup1\n    /* \"#utility.yul\":670:682   */\n  revert\n    /* \"#utility.yul\":621:684   */\ntag_23:\n    /* \"#utility.yul\":568:690   */\n  pop\n  jump\t// out\n    /* \"#utility.yul\":696:839   */\ntag_13:\n    /* \"#utility.yul\":753:758   */\n  0x00\n    /* \"#utility.yul\":784:790   */\n  dup2\n    /* \"#utility.yul\":778:791   */\n  mload\n    /* \"#utility.yul\":769:791   */\n  swap1\n  pop\n    /* \"#utility.yul\":800:833   */\n  tag_25\n    /* \"#utility.yul\":827:832   */\n  dup2\n    /* \"#utility.yul\":800:833   */\n  tag_12\n  jump\t// in\ntag_25:\n    /* \"#utility.yul\":696:839   */\n  swap3\n  swap2\n  pop\n  pop\n  jump\t// out\n    /* \"#utility.yul\":845:1196   */\ntag_3:\n    /* \"#utility.yul\":915:921   */\n  0x00\n    /* \"#utility.yul\":964:966   */\n  0x20\n    /* \"#utility.yul\":952:961   */\n  dup3\n    /* \"#utility.yul\":943:950   */\n  dup5\n    /* \"#utility.yul\":939:962   */\n  sub\n    /* \"#utility.yul\":935:967   */\n  slt\n    /* \"#utility.yul\":932:1051   */\n  iszero\n  tag_27\n  jumpi\n    /* \"#utility.yul\":970:1049   */\n  tag_28\n  tag_8\n  jump\t// in\ntag_28:\n    /* \"#utility.yul\":932:1051   */\ntag_27:\n    /* \"#utility.yul\":1090:1091   */\n  0x00\n    /* \"#utility.yul\":1115:1179   */\n  tag_29\n    /* \"#utility.yul\":1171:1178   */\n  dup5\n    /* \"#utility.yul\":1162:1168   */\n  dup3\n    /* \"#utility.yul\":1151:1160   */\n  dup6\n    /* \"#utility.yul\":1147:1169   */\n  add\n    /* \"#utility.yul\":1115:1179   */\n  tag_13\n  jump\t// in\ntag_29:\n    /* \"#utility.yul\":1105:1179   */\n  swap2\n  pop\n    /* \"#utility.yul\":1061:1189   */\n  pop\n    /* \"#utility.yul\":845:1196   */\n  swap3\n  swap2\n  pop\n  pop\n  jump\t// out\n    /* \"desarrollo-de-una-dao/contracts/JugadoresAFichar.sol\":111:1950  contract JugadoresAFichar {... */\ntag_6:\n  dataSize(sub_0)\n  dup1\n  dataOffset(sub_0)\n  0x00\n  codecopy\n  0x00\n  return\nstop\n\nsub_0: assembly {\n        /* \"desarrollo-de-una-dao/contracts/JugadoresAFichar.sol\":111:1950  contract JugadoresAFichar {... */\n      mstore(0x40, 0x80)\n      callvalue\n      dup1\n      iszero\n      tag_1\n      jumpi\n      0x00\n      dup1\n      revert\n    tag_1:\n      pop\n      jumpi(tag_2, lt(calldatasize, 0x04))\n      shr(0xe0, calldataload(0x00))\n      dup1\n      0x9b5c91bb\n      gt\n      tag_12\n      jumpi\n      dup1\n      0x9b5c91bb\n      eq\n      tag_7\n      jumpi\n      dup1\n      0xa2cda6a9\n      eq\n      tag_8\n      jumpi\n      dup1\n      0xd472f0f9\n      eq\n      tag_9\n      jumpi\n      dup1\n      0xe5d94cae\n      eq\n      tag_10\n      jumpi\n      dup1\n      0xf203a7a9\n      eq\n      tag_11\n      jumpi\n      jump(tag_2)\n    tag_12:\n      dup1\n      0x1e3baba3\n      eq\n      tag_3\n      jumpi\n      dup1\n      0x3b1c4fea\n      eq\n      tag_4\n      jumpi\n      dup1\n      0x89bb4209\n      eq\n      tag_5\n      jumpi\n      dup1\n      0x9594c203\n      eq\n      tag_6\n      jumpi\n    tag_2:\n      0x00\n      dup1\n      revert\n        /* \"desarrollo-de-una-dao/contracts/JugadoresAFichar.sol\":225:273  mapping(address => string) public nombrecompleto */\n    tag_3:\n      tag_13\n      0x04\n      dup1\n      calldatasize\n      sub\n      dup2\n      add\n      swap1\n      tag_14\n      swap2\n      swap1\n      tag_15\n      jump\t// in\n    tag_14:\n      tag_16\n      jump\t// in\n    tag_13:\n      mload(0x40)\n      tag_17\n      swap2\n      swap1\n      tag_18\n      jump\t// in\n    tag_17:\n      mload(0x40)\n      dup1\n      swap2\n      sub\n      swap1\n      return\n        /* \"desarrollo-de-una-dao/contracts/JugadoresAFichar.sol\":1488:1593  function existeJug(address jugador)external view returns (bool){... */\n    tag_4:\n      tag_19\n      0x04\n      dup1\n      calldatasize\n      sub\n      dup2\n      add\n      swap1\n      tag_20\n      swap2\n      swap1\n      tag_15\n      jump\t// in\n    tag_20:\n      tag_21\n      jump\t// in\n    tag_19:\n      mload(0x40)\n      tag_22\n      swap2\n      swap1\n      tag_23\n      jump\t// in\n    tag_22:\n      mload(0x40)\n      dup1\n      swap2\n      sub\n      swap1\n      return\n        /* \"desarrollo-de-una-dao/contracts/JugadoresAFichar.sol\":279:323  mapping(address => uint256) public value_jug */\n    tag_5:\n      tag_24\n      0x04\n      dup1\n      calldatasize\n      sub\n      dup2\n      add\n      swap1\n      tag_25\n      swap2\n      swap1\n      tag_15\n      jump\t// in\n    tag_25:\n      tag_26\n      jump\t// in\n    tag_24:\n      mload(0x40)\n      tag_27\n      swap2\n      swap1\n      tag_28\n      jump\t// in\n    tag_27:\n      mload(0x40)\n      dup1\n      swap2\n      sub\n      swap1\n      return\n        /* \"desarrollo-de-una-dao/contracts/JugadoresAFichar.sol\":1192:1481  function eliminarJugador(address _jugador) external onlyOjeador{... */\n    tag_6:\n      tag_29\n      0x04\n      dup1\n      calldatasize\n      sub\n      dup2\n      add\n      swap1\n      tag_30\n      swap2\n      swap1\n      tag_15\n      jump\t// in\n    tag_30:\n      tag_31\n      jump\t// in\n    tag_29:\n      stop\n        /* \"desarrollo-de-una-dao/contracts/JugadoresAFichar.sol\":801:1145  function anadirJugador(address _jugador, string memory nombre, uint256 precio) external onlyOjeador{... */\n    tag_7:\n      tag_32\n      0x04\n      dup1\n      calldatasize\n      sub\n      dup2\n      add\n      swap1\n      tag_33\n      swap2\n      swap1\n      tag_34\n      jump\t// in\n    tag_33:\n      tag_35\n      jump\t// in\n    tag_32:\n      stop\n        /* \"desarrollo-de-una-dao/contracts/JugadoresAFichar.sol\":1647:1763  function obtenerPrecio(address _jugador) external view returns (uint256) {... */\n    tag_8:\n      tag_36\n      0x04\n      dup1\n      calldatasize\n      sub\n      dup2\n      add\n      swap1\n      tag_37\n      swap2\n      swap1\n      tag_15\n      jump\t// in\n    tag_37:\n      tag_38\n      jump\t// in\n    tag_36:\n      mload(0x40)\n      tag_39\n      swap2\n      swap1\n      tag_28\n      jump\t// in\n    tag_39:\n      mload(0x40)\n      dup1\n      swap2\n      sub\n      swap1\n      return\n        /* \"desarrollo-de-una-dao/contracts/JugadoresAFichar.sol\":329:360  Ojeador public ojeadorContract_ */\n    tag_9:\n      tag_40\n      tag_41\n      jump\t// in\n    tag_40:\n      mload(0x40)\n      tag_42\n      swap2\n      swap1\n      tag_43\n      jump\t// in\n    tag_42:\n      mload(0x40)\n      dup1\n      swap2\n      sub\n      swap1\n      return\n        /* \"desarrollo-de-una-dao/contracts/JugadoresAFichar.sol\":178:219  mapping(address => bool) public jugadores */\n    tag_10:\n      tag_44\n      0x04\n      dup1\n      calldatasize\n      sub\n      dup2\n      add\n      swap1\n      tag_45\n      swap2\n      swap1\n      tag_15\n      jump\t// in\n    tag_45:\n      tag_46\n      jump\t// in\n    tag_44:\n      mload(0x40)\n      tag_47\n      swap2\n      swap1\n      tag_23\n      jump\t// in\n    tag_47:\n      mload(0x40)\n      dup1\n      swap2\n      sub\n      swap1\n      return\n        /* \"desarrollo-de-una-dao/contracts/JugadoresAFichar.sol\":1821:1948  function obtenerNombre(address _jugador) external view returns (string memory) {... */\n    tag_11:\n      tag_48\n      0x04\n      dup1\n      calldatasize\n      sub\n      dup2\n      add\n      swap1\n      tag_49\n      swap2\n      swap1\n      tag_15\n      jump\t// in\n    tag_49:\n      tag_50\n      jump\t// in\n    tag_48:\n      mload(0x40)\n      tag_51\n      swap2\n      swap1\n      tag_18\n      jump\t// in\n    tag_51:\n      mload(0x40)\n      dup1\n      swap2\n      sub\n      swap1\n      return\n        /* \"desarrollo-de-una-dao/contracts/JugadoresAFichar.sol\":225:273  mapping(address => string) public nombrecompleto */\n    tag_16:\n      mstore(0x20, 0x01)\n      dup1\n      0x00\n      mstore\n      keccak256(0x00, 0x40)\n      0x00\n      swap2\n      pop\n      swap1\n      pop\n      dup1\n      sload\n      tag_52\n      swap1\n      tag_53\n      jump\t// in\n    tag_52:\n      dup1\n      0x1f\n      add\n      0x20\n      dup1\n      swap2\n      div\n      mul\n      0x20\n      add\n      mload(0x40)\n      swap1\n      dup2\n      add\n      0x40\n      mstore\n      dup1\n      swap3\n      swap2\n      swap1\n      dup2\n      dup2\n      mstore\n      0x20\n      add\n      dup3\n      dup1\n      sload\n      tag_54\n      swap1\n      tag_53\n      jump\t// in\n    tag_54:\n      dup1\n      iszero\n      tag_55\n      jumpi\n      dup1\n      0x1f\n      lt\n      tag_56\n      jumpi\n      0x0100\n      dup1\n      dup4\n      sload\n      div\n      mul\n      dup4\n      mstore\n      swap2\n      0x20\n      add\n      swap2\n      jump(tag_55)\n    tag_56:\n      dup3\n      add\n      swap2\n      swap1\n      0x00\n      mstore\n      keccak256(0x00, 0x20)\n      swap1\n    tag_57:\n      dup2\n      sload\n      dup2\n      mstore\n      swap1\n      0x01\n      add\n      swap1\n      0x20\n      add\n      dup1\n      dup4\n      gt\n      tag_57\n      jumpi\n      dup3\n      swap1\n      sub\n      0x1f\n      and\n      dup3\n      add\n      swap2\n    tag_55:\n      pop\n      pop\n      pop\n      pop\n      pop\n      dup2\n      jump\t// out\n        /* \"desarrollo-de-una-dao/contracts/JugadoresAFichar.sol\":1488:1593  function existeJug(address jugador)external view returns (bool){... */\n    tag_21:\n        /* \"desarrollo-de-una-dao/contracts/JugadoresAFichar.sol\":1546:1550  bool */\n      0x00\n        /* \"desarrollo-de-una-dao/contracts/JugadoresAFichar.sol\":1568:1577  jugadores */\n      dup1\n        /* \"desarrollo-de-una-dao/contracts/JugadoresAFichar.sol\":1568:1586  jugadores[jugador] */\n      0x00\n        /* \"desarrollo-de-una-dao/contracts/JugadoresAFichar.sol\":1578:1585  jugador */\n      dup4\n        /* \"desarrollo-de-una-dao/contracts/JugadoresAFichar.sol\":1568:1586  jugadores[jugador] */\n      0xffffffffffffffffffffffffffffffffffffffff\n      and\n      0xffffffffffffffffffffffffffffffffffffffff\n      and\n      dup2\n      mstore\n      0x20\n      add\n      swap1\n      dup2\n      mstore\n      0x20\n      add\n      0x00\n      keccak256\n      0x00\n      swap1\n      sload\n      swap1\n      0x0100\n      exp\n      swap1\n      div\n      0xff\n      and\n        /* \"desarrollo-de-una-dao/contracts/JugadoresAFichar.sol\":1561:1586  return jugadores[jugador] */\n      swap1\n      pop\n        /* \"desarrollo-de-una-dao/contracts/JugadoresAFichar.sol\":1488:1593  function existeJug(address jugador)external view returns (bool){... */\n      swap2\n      swap1\n      pop\n      jump\t// out\n        /* \"desarrollo-de-una-dao/contracts/JugadoresAFichar.sol\":279:323  mapping(address => uint256) public value_jug */\n    tag_26:\n      mstore(0x20, 0x02)\n      dup1\n      0x00\n      mstore\n      keccak256(0x00, 0x40)\n      0x00\n      swap2\n      pop\n      swap1\n      pop\n      sload\n      dup2\n      jump\t// out\n        /* \"desarrollo-de-una-dao/contracts/JugadoresAFichar.sol\":1192:1481  function eliminarJugador(address _jugador) external onlyOjeador{... */\n    tag_31:\n        /* \"desarrollo-de-una-dao/contracts/JugadoresAFichar.sol\":510:526  ojeadorContract_ */\n      0x03\n      0x00\n      swap1\n      sload\n      swap1\n      0x0100\n      exp\n      swap1\n      div\n      0xffffffffffffffffffffffffffffffffffffffff\n      and\n        /* \"desarrollo-de-una-dao/contracts/JugadoresAFichar.sol\":510:536  ojeadorContract_.isOjeador */\n      0xffffffffffffffffffffffffffffffffffffffff\n      and\n      0x8654ad8e\n        /* \"desarrollo-de-una-dao/contracts/JugadoresAFichar.sol\":537:547  msg.sender */\n      caller\n        /* \"desarrollo-de-una-dao/contracts/JugadoresAFichar.sol\":510:548  ojeadorContract_.isOjeador(msg.sender) */\n      mload(0x40)\n      dup3\n      0xffffffff\n      and\n      0xe0\n      shl\n      dup2\n      mstore\n      0x04\n      add\n      tag_60\n      swap2\n      swap1\n      tag_61\n      jump\t// in\n    tag_60:\n      0x20\n      mload(0x40)\n      dup1\n      dup4\n      sub\n      dup2\n      dup7\n      gas\n      staticcall\n      iszero\n      dup1\n      iszero\n      tag_63\n      jumpi\n      returndatasize\n      0x00\n      dup1\n      returndatacopy\n      revert(0x00, returndatasize)\n    tag_63:\n      pop\n      pop\n      pop\n      pop\n      mload(0x40)\n      returndatasize\n      not(0x1f)\n      0x1f\n      dup3\n      add\n      and\n      dup3\n      add\n      dup1\n      0x40\n      mstore\n      pop\n      dup2\n      add\n      swap1\n      tag_64\n      swap2\n      swap1\n      tag_65\n      jump\t// in\n    tag_64:\n        /* \"desarrollo-de-una-dao/contracts/JugadoresAFichar.sol\":502:595  require(ojeadorContract_.isOjeador(msg.sender), \"Solo ojeadores pueden realizar esta accion\") */\n      tag_66\n      jumpi\n      mload(0x40)\n      0x08c379a000000000000000000000000000000000000000000000000000000000\n      dup2\n      mstore\n      0x04\n      add\n      tag_67\n      swap1\n      tag_68\n      jump\t// in\n    tag_67:\n      mload(0x40)\n      dup1\n      swap2\n      sub\n      swap1\n      revert\n    tag_66:\n        /* \"desarrollo-de-una-dao/contracts/JugadoresAFichar.sol\":1273:1282  jugadores */\n      0x00\n        /* \"desarrollo-de-una-dao/contracts/JugadoresAFichar.sol\":1273:1292  jugadores[_jugador] */\n      dup1\n        /* \"desarrollo-de-una-dao/contracts/JugadoresAFichar.sol\":1283:1291  _jugador */\n      dup3\n        /* \"desarrollo-de-una-dao/contracts/JugadoresAFichar.sol\":1273:1292  jugadores[_jugador] */\n      0xffffffffffffffffffffffffffffffffffffffff\n      and\n      0xffffffffffffffffffffffffffffffffffffffff\n      and\n      dup2\n      mstore\n      0x20\n      add\n      swap1\n      dup2\n      mstore\n      0x20\n      add\n      0x00\n      keccak256\n      0x00\n      swap1\n      sload\n      swap1\n      0x0100\n      exp\n      swap1\n      div\n      0xff\n      and\n        /* \"desarrollo-de-una-dao/contracts/JugadoresAFichar.sol\":1265:1320  require(jugadores[_jugador], \"No esta en la prelista.\") */\n      tag_70\n      jumpi\n      mload(0x40)\n      0x08c379a000000000000000000000000000000000000000000000000000000000\n      dup2\n      mstore\n      0x04\n      add\n      tag_71\n      swap1\n      tag_72\n      jump\t// in\n    tag_71:\n      mload(0x40)\n      dup1\n      swap2\n      sub\n      swap1\n      revert\n    tag_70:\n        /* \"desarrollo-de-una-dao/contracts/JugadoresAFichar.sol\":1337:1346  jugadores */\n      0x00\n        /* \"desarrollo-de-una-dao/contracts/JugadoresAFichar.sol\":1337:1356  jugadores[_jugador] */\n      dup1\n        /* \"desarrollo-de-una-dao/contracts/JugadoresAFichar.sol\":1347:1355  _jugador */\n      dup3\n        /* \"desarrollo-de-una-dao/contracts/JugadoresAFichar.sol\":1337:1356  jugadores[_jugador] */\n      0xffffffffffffffffffffffffffffffffffffffff\n      and\n      0xffffffffffffffffffffffffffffffffffffffff\n      and\n      dup2\n      mstore\n      0x20\n      add\n      swap1\n      dup2\n      mstore\n      0x20\n      add\n      0x00\n      keccak256\n      0x00\n        /* \"desarrollo-de-una-dao/contracts/JugadoresAFichar.sol\":1330:1356  delete jugadores[_jugador] */\n      0x0100\n      exp\n      dup2\n      sload\n      swap1\n      0xff\n      mul\n      not\n      and\n      swap1\n      sstore\n        /* \"desarrollo-de-una-dao/contracts/JugadoresAFichar.sol\":1373:1387  nombrecompleto */\n      0x01\n        /* \"desarrollo-de-una-dao/contracts/JugadoresAFichar.sol\":1373:1397  nombrecompleto[_jugador] */\n      0x00\n        /* \"desarrollo-de-una-dao/contracts/JugadoresAFichar.sol\":1388:1396  _jugador */\n      dup3\n        /* \"desarrollo-de-una-dao/contracts/JugadoresAFichar.sol\":1373:1397  nombrecompleto[_jugador] */\n      0xffffffffffffffffffffffffffffffffffffffff\n      and\n      0xffffffffffffffffffffffffffffffffffffffff\n      and\n      dup2\n      mstore\n      0x20\n      add\n      swap1\n      dup2\n      mstore\n      0x20\n      add\n      0x00\n      keccak256\n      0x00\n        /* \"desarrollo-de-una-dao/contracts/JugadoresAFichar.sol\":1366:1397  delete nombrecompleto[_jugador] */\n      tag_73\n      swap2\n      swap1\n      tag_74\n      jump\t// in\n    tag_73:\n        /* \"desarrollo-de-una-dao/contracts/JugadoresAFichar.sol\":1414:1423  value_jug */\n      0x02\n        /* \"desarrollo-de-una-dao/contracts/JugadoresAFichar.sol\":1414:1433  value_jug[_jugador] */\n      0x00\n        /* \"desarrollo-de-una-dao/contracts/JugadoresAFichar.sol\":1424:1432  _jugador */\n      dup3\n        /* \"desarrollo-de-una-dao/contracts/JugadoresAFichar.sol\":1414:1433  value_jug[_jugador] */\n      0xffffffffffffffffffffffffffffffffffffffff\n      and\n      0xffffffffffffffffffffffffffffffffffffffff\n      and\n      dup2\n      mstore\n      0x20\n      add\n      swap1\n      dup2\n      mstore\n      0x20\n      add\n      0x00\n      keccak256\n        /* \"desarrollo-de-una-dao/contracts/JugadoresAFichar.sol\":1407:1433  delete value_jug[_jugador] */\n      0x00\n      swap1\n      sstore\n        /* \"desarrollo-de-una-dao/contracts/JugadoresAFichar.sol\":1448:1474  JugadorEliminado(_jugador) */\n      0x3aefdad6ac3f1015d0d6439c26648d372b11980bf42e4d8aea26cf8b18d402de\n        /* \"desarrollo-de-una-dao/contracts/JugadoresAFichar.sol\":1465:1473  _jugador */\n      dup2\n        /* \"desarrollo-de-una-dao/contracts/JugadoresAFichar.sol\":1448:1474  JugadorEliminado(_jugador) */\n      mload(0x40)\n      tag_75\n      swap2\n      swap1\n      tag_61\n      jump\t// in\n    tag_75:\n      mload(0x40)\n      dup1\n      swap2\n      sub\n      swap1\n      log1\n        /* \"desarrollo-de-una-dao/contracts/JugadoresAFichar.sol\":1192:1481  function eliminarJugador(address _jugador) external onlyOjeador{... */\n      pop\n      jump\t// out\n        /* \"desarrollo-de-una-dao/contracts/JugadoresAFichar.sol\":801:1145  function anadirJugador(address _jugador, string memory nombre, uint256 precio) external onlyOjeador{... */\n    tag_35:\n        /* \"desarrollo-de-una-dao/contracts/JugadoresAFichar.sol\":510:526  ojeadorContract_ */\n      0x03\n      0x00\n      swap1\n      sload\n      swap1\n      0x0100\n      exp\n      swap1\n      div\n      0xffffffffffffffffffffffffffffffffffffffff\n      and\n        /* \"desarrollo-de-una-dao/contracts/JugadoresAFichar.sol\":510:536  ojeadorContract_.isOjeador */\n      0xffffffffffffffffffffffffffffffffffffffff\n      and\n      0x8654ad8e\n        /* \"desarrollo-de-una-dao/contracts/JugadoresAFichar.sol\":537:547  msg.sender */\n      caller\n        /* \"desarrollo-de-una-dao/contracts/JugadoresAFichar.sol\":510:548  ojeadorContract_.isOjeador(msg.sender) */\n      mload(0x40)\n      dup3\n      0xffffffff\n      and\n      0xe0\n      shl\n      dup2\n      mstore\n      0x04\n      add\n      tag_77\n      swap2\n      swap1\n      tag_61\n      jump\t// in\n    tag_77:\n      0x20\n      mload(0x40)\n      dup1\n      dup4\n      sub\n      dup2\n      dup7\n      gas\n      staticcall\n      iszero\n      dup1\n      iszero\n      tag_79\n      jumpi\n      returndatasize\n      0x00\n      dup1\n      returndatacopy\n      revert(0x00, returndatasize)\n    tag_79:\n      pop\n      pop\n      pop\n      pop\n      mload(0x40)\n      returndatasize\n      not(0x1f)\n      0x1f\n      dup3\n      add\n      and\n      dup3\n      add\n      dup1\n      0x40\n      mstore\n      pop\n      dup2\n      add\n      swap1\n      tag_80\n      swap2\n      swap1\n      tag_65\n      jump\t// in\n    tag_80:\n        /* \"desarrollo-de-una-dao/contracts/JugadoresAFichar.sol\":502:595  require(ojeadorContract_.isOjeador(msg.sender), \"Solo ojeadores pueden realizar esta accion\") */\n      tag_81\n      jumpi\n      mload(0x40)\n      0x08c379a000000000000000000000000000000000000000000000000000000000\n      dup2\n      mstore\n      0x04\n      add\n      tag_82\n      swap1\n      tag_68\n      jump\t// in\n    tag_82:\n      mload(0x40)\n      dup1\n      swap2\n      sub\n      swap1\n      revert\n    tag_81:\n        /* \"desarrollo-de-una-dao/contracts/JugadoresAFichar.sol\":919:928  jugadores */\n      0x00\n        /* \"desarrollo-de-una-dao/contracts/JugadoresAFichar.sol\":919:938  jugadores[_jugador] */\n      dup1\n        /* \"desarrollo-de-una-dao/contracts/JugadoresAFichar.sol\":929:937  _jugador */\n      dup5\n        /* \"desarrollo-de-una-dao/contracts/JugadoresAFichar.sol\":919:938  jugadores[_jugador] */\n      0xffffffffffffffffffffffffffffffffffffffff\n      and\n      0xffffffffffffffffffffffffffffffffffffffff\n      and\n      dup2\n      mstore\n      0x20\n      add\n      swap1\n      dup2\n      mstore\n      0x20\n      add\n      0x00\n      keccak256\n      0x00\n      swap1\n      sload\n      swap1\n      0x0100\n      exp\n      swap1\n      div\n      0xff\n      and\n        /* \"desarrollo-de-una-dao/contracts/JugadoresAFichar.sol\":918:938  !jugadores[_jugador] */\n      iszero\n        /* \"desarrollo-de-una-dao/contracts/JugadoresAFichar.sol\":910:966  require(!jugadores[_jugador], \"Ya esta en la prelista.\") */\n      tag_84\n      jumpi\n      mload(0x40)\n      0x08c379a000000000000000000000000000000000000000000000000000000000\n      dup2\n      mstore\n      0x04\n      add\n      tag_85\n      swap1\n      tag_86\n      jump\t// in\n    tag_85:\n      mload(0x40)\n      dup1\n      swap2\n      sub\n      swap1\n      revert\n    tag_84:\n        /* \"desarrollo-de-una-dao/contracts/JugadoresAFichar.sol\":998:1002  true */\n      0x01\n        /* \"desarrollo-de-una-dao/contracts/JugadoresAFichar.sol\":976:985  jugadores */\n      0x00\n        /* \"desarrollo-de-una-dao/contracts/JugadoresAFichar.sol\":976:995  jugadores[_jugador] */\n      dup1\n        /* \"desarrollo-de-una-dao/contracts/JugadoresAFichar.sol\":986:994  _jugador */\n      dup6\n        /* \"desarrollo-de-una-dao/contracts/JugadoresAFichar.sol\":976:995  jugadores[_jugador] */\n      0xffffffffffffffffffffffffffffffffffffffff\n      and\n      0xffffffffffffffffffffffffffffffffffffffff\n      and\n      dup2\n      mstore\n      0x20\n      add\n      swap1\n      dup2\n      mstore\n      0x20\n      add\n      0x00\n      keccak256\n      0x00\n        /* \"desarrollo-de-una-dao/contracts/JugadoresAFichar.sol\":976:1002  jugadores[_jugador] = true */\n      0x0100\n      exp\n      dup2\n      sload\n      dup2\n      0xff\n      mul\n      not\n      and\n      swap1\n      dup4\n      iszero\n      iszero\n      mul\n      or\n      swap1\n      sstore\n      pop\n        /* \"desarrollo-de-una-dao/contracts/JugadoresAFichar.sol\":1039:1045  nombre */\n      dup2\n        /* \"desarrollo-de-una-dao/contracts/JugadoresAFichar.sol\":1012:1026  nombrecompleto */\n      0x01\n        /* \"desarrollo-de-una-dao/contracts/JugadoresAFichar.sol\":1012:1036  nombrecompleto[_jugador] */\n      0x00\n        /* \"desarrollo-de-una-dao/contracts/JugadoresAFichar.sol\":1027:1035  _jugador */\n      dup6\n        /* \"desarrollo-de-una-dao/contracts/JugadoresAFichar.sol\":1012:1036  nombrecompleto[_jugador] */\n      0xffffffffffffffffffffffffffffffffffffffff\n      and\n      0xffffffffffffffffffffffffffffffffffffffff\n      and\n      dup2\n      mstore\n      0x20\n      add\n      swap1\n      dup2\n      mstore\n      0x20\n      add\n      0x00\n      keccak256\n        /* \"desarrollo-de-una-dao/contracts/JugadoresAFichar.sol\":1012:1045  nombrecompleto[_jugador] = nombre */\n      swap1\n      dup2\n      tag_87\n      swap2\n      swap1\n      tag_88\n      jump\t// in\n    tag_87:\n      pop\n        /* \"desarrollo-de-una-dao/contracts/JugadoresAFichar.sol\":1077:1083  precio */\n      dup1\n        /* \"desarrollo-de-una-dao/contracts/JugadoresAFichar.sol\":1055:1064  value_jug */\n      0x02\n        /* \"desarrollo-de-una-dao/contracts/JugadoresAFichar.sol\":1055:1074  value_jug[_jugador] */\n      0x00\n        /* \"desarrollo-de-una-dao/contracts/JugadoresAFichar.sol\":1065:1073  _jugador */\n      dup6\n        /* \"desarrollo-de-una-dao/contracts/JugadoresAFichar.sol\":1055:1074  value_jug[_jugador] */\n      0xffffffffffffffffffffffffffffffffffffffff\n      and\n      0xffffffffffffffffffffffffffffffffffffffff\n      and\n      dup2\n      mstore\n      0x20\n      add\n      swap1\n      dup2\n      mstore\n      0x20\n      add\n      0x00\n      keccak256\n        /* \"desarrollo-de-una-dao/contracts/JugadoresAFichar.sol\":1055:1083  value_jug[_jugador] = precio */\n      dup2\n      swap1\n      sstore\n      pop\n        /* \"desarrollo-de-una-dao/contracts/JugadoresAFichar.sol\":1098:1138  JugadorAnadido(_jugador, nombre, precio) */\n      0x78f0a3a35eb139c4d939044dc0da407f83d5c02e2d15f41becb6877fb11f9baf\n        /* \"desarrollo-de-una-dao/contracts/JugadoresAFichar.sol\":1113:1121  _jugador */\n      dup4\n        /* \"desarrollo-de-una-dao/contracts/JugadoresAFichar.sol\":1123:1129  nombre */\n      dup4\n        /* \"desarrollo-de-una-dao/contracts/JugadoresAFichar.sol\":1131:1137  precio */\n      dup4\n        /* \"desarrollo-de-una-dao/contracts/JugadoresAFichar.sol\":1098:1138  JugadorAnadido(_jugador, nombre, precio) */\n      mload(0x40)\n      tag_89\n      swap4\n      swap3\n      swap2\n      swap1\n      tag_90\n      jump\t// in\n    tag_89:\n      mload(0x40)\n      dup1\n      swap2\n      sub\n      swap1\n      log1\n        /* \"desarrollo-de-una-dao/contracts/JugadoresAFichar.sol\":801:1145  function anadirJugador(address _jugador, string memory nombre, uint256 precio) external onlyOjeador{... */\n      pop\n      pop\n      pop\n      jump\t// out\n        /* \"desarrollo-de-una-dao/contracts/JugadoresAFichar.sol\":1647:1763  function obtenerPrecio(address _jugador) external view returns (uint256) {... */\n    tag_38:\n        /* \"desarrollo-de-una-dao/contracts/JugadoresAFichar.sol\":1711:1718  uint256 */\n      0x00\n        /* \"desarrollo-de-una-dao/contracts/JugadoresAFichar.sol\":1737:1746  value_jug */\n      0x02\n        /* \"desarrollo-de-una-dao/contracts/JugadoresAFichar.sol\":1737:1756  value_jug[_jugador] */\n      0x00\n        /* \"desarrollo-de-una-dao/contracts/JugadoresAFichar.sol\":1747:1755  _jugador */\n      dup4\n        /* \"desarrollo-de-una-dao/contracts/JugadoresAFichar.sol\":1737:1756  value_jug[_jugador] */\n      0xffffffffffffffffffffffffffffffffffffffff\n      and\n      0xffffffffffffffffffffffffffffffffffffffff\n      and\n      dup2\n      mstore\n      0x20\n      add\n      swap1\n      dup2\n      mstore\n      0x20\n      add\n      0x00\n      keccak256\n      sload\n        /* \"desarrollo-de-una-dao/contracts/JugadoresAFichar.sol\":1730:1756  return value_jug[_jugador] */\n      swap1\n      pop\n        /* \"desarrollo-de-una-dao/contracts/JugadoresAFichar.sol\":1647:1763  function obtenerPrecio(address _jugador) external view returns (uint256) {... */\n      swap2\n      swap1\n      pop\n      jump\t// out\n        /* \"desarrollo-de-una-dao/contracts/JugadoresAFichar.sol\":329:360  Ojeador public ojeadorContract_ */\n    tag_41:\n      0x03\n      0x00\n      swap1\n      sload\n      swap1\n      0x0100\n      exp\n      swap1\n      div\n      0xffffffffffffffffffffffffffffffffffffffff\n      and\n      dup2\n      jump\t// out\n        /* \"desarrollo-de-una-dao/contracts/JugadoresAFichar.sol\":178:219  mapping(address => bool) public jugadores */\n    tag_46:\n      mstore(0x20, 0x00)\n      dup1\n      0x00\n      mstore\n      keccak256(0x00, 0x40)\n      0x00\n      swap2\n      pop\n      sload\n      swap1\n      0x0100\n      exp\n      swap1\n      div\n      0xff\n      and\n      dup2\n      jump\t// out\n        /* \"desarrollo-de-una-dao/contracts/JugadoresAFichar.sol\":1821:1948  function obtenerNombre(address _jugador) external view returns (string memory) {... */\n    tag_50:\n        /* \"desarrollo-de-una-dao/contracts/JugadoresAFichar.sol\":1885:1898  string memory */\n      0x60\n        /* \"desarrollo-de-una-dao/contracts/JugadoresAFichar.sol\":1917:1931  nombrecompleto */\n      0x01\n        /* \"desarrollo-de-una-dao/contracts/JugadoresAFichar.sol\":1917:1941  nombrecompleto[_jugador] */\n      0x00\n        /* \"desarrollo-de-una-dao/contracts/JugadoresAFichar.sol\":1932:1940  _jugador */\n      dup4\n        /* \"desarrollo-de-una-dao/contracts/JugadoresAFichar.sol\":1917:1941  nombrecompleto[_jugador] */\n      0xffffffffffffffffffffffffffffffffffffffff\n      and\n      0xffffffffffffffffffffffffffffffffffffffff\n      and\n      dup2\n      mstore\n      0x20\n      add\n      swap1\n      dup2\n      mstore\n      0x20\n      add\n      0x00\n      keccak256\n        /* \"desarrollo-de-una-dao/contracts/JugadoresAFichar.sol\":1910:1941  return nombrecompleto[_jugador] */\n      dup1\n      sload\n      tag_93\n      swap1\n      tag_53\n      jump\t// in\n    tag_93:\n      dup1\n      0x1f\n      add\n      0x20\n      dup1\n      swap2\n      div\n      mul\n      0x20\n      add\n      mload(0x40)\n      swap1\n      dup2\n      add\n      0x40\n      mstore\n      dup1\n      swap3\n      swap2\n      swap1\n      dup2\n      dup2\n      mstore\n      0x20\n      add\n      dup3\n      dup1\n      sload\n      tag_94\n      swap1\n      tag_53\n      jump\t// in\n    tag_94:\n      dup1\n      iszero\n      tag_95\n      jumpi\n      dup1\n      0x1f\n      lt\n      tag_96\n      jumpi\n      0x0100\n      dup1\n      dup4\n      sload\n      div\n      mul\n      dup4\n      mstore\n      swap2\n      0x20\n      add\n      swap2\n      jump(tag_95)\n    tag_96:\n      dup3\n      add\n      swap2\n      swap1\n      0x00\n      mstore\n      keccak256(0x00, 0x20)\n      swap1\n    tag_97:\n      dup2\n      sload\n      dup2\n      mstore\n      swap1\n      0x01\n      add\n      swap1\n      0x20\n      add\n      dup1\n      dup4\n      gt\n      tag_97\n      jumpi\n      dup3\n      swap1\n      sub\n      0x1f\n      and\n      dup3\n      add\n      swap2\n    tag_95:\n      pop\n      pop\n      pop\n      pop\n      pop\n      swap1\n      pop\n        /* \"desarrollo-de-una-dao/contracts/JugadoresAFichar.sol\":1821:1948  function obtenerNombre(address _jugador) external view returns (string memory) {... */\n      swap2\n      swap1\n      pop\n      jump\t// out\n    tag_74:\n      pop\n      dup1\n      sload\n      tag_98\n      swap1\n      tag_53\n      jump\t// in\n    tag_98:\n      0x00\n      dup3\n      sstore\n      dup1\n      0x1f\n      lt\n      tag_100\n      jumpi\n      pop\n      jump(tag_99)\n    tag_100:\n      0x1f\n      add\n      0x20\n      swap1\n      div\n      swap1\n      0x00\n      mstore\n      keccak256(0x00, 0x20)\n      swap1\n      dup2\n      add\n      swap1\n      tag_101\n      swap2\n      swap1\n      tag_102\n      jump\t// in\n    tag_101:\n    tag_99:\n      pop\n      jump\t// out\n    tag_102:\n    tag_103:\n      dup1\n      dup3\n      gt\n      iszero\n      tag_104\n      jumpi\n      0x00\n      dup2\n      0x00\n      swap1\n      sstore\n      pop\n      0x01\n      add\n      jump(tag_103)\n    tag_104:\n      pop\n      swap1\n      jump\t// out\n        /* \"#utility.yul\":7:82   */\n    tag_105:\n        /* \"#utility.yul\":40:46   */\n      0x00\n        /* \"#utility.yul\":73:75   */\n      0x40\n        /* \"#utility.yul\":67:76   */\n      mload\n        /* \"#utility.yul\":57:76   */\n      swap1\n      pop\n        /* \"#utility.yul\":7:82   */\n      swap1\n      jump\t// out\n        /* \"#utility.yul\":88:205   */\n    tag_106:\n        /* \"#utility.yul\":197:198   */\n      0x00\n        /* \"#utility.yul\":194:195   */\n      dup1\n        /* \"#utility.yul\":187:199   */\n      revert\n        /* \"#utility.yul\":211:328   */\n    tag_107:\n        /* \"#utility.yul\":320:321   */\n      0x00\n        /* \"#utility.yul\":317:318   */\n      dup1\n        /* \"#utility.yul\":310:322   */\n      revert\n        /* \"#utility.yul\":334:460   */\n    tag_108:\n        /* \"#utility.yul\":371:378   */\n      0x00\n        /* \"#utility.yul\":411:453   */\n      0xffffffffffffffffffffffffffffffffffffffff\n        /* \"#utility.yul\":404:409   */\n      dup3\n        /* \"#utility.yul\":400:454   */\n      and\n        /* \"#utility.yul\":389:454   */\n      swap1\n      pop\n        /* \"#utility.yul\":334:460   */\n      swap2\n      swap1\n      pop\n      jump\t// out\n        /* \"#utility.yul\":466:562   */\n    tag_109:\n        /* \"#utility.yul\":503:510   */\n      0x00\n        /* \"#utility.yul\":532:556   */\n      tag_167\n        /* \"#utility.yul\":550:555   */\n      dup3\n        /* \"#utility.yul\":532:556   */\n      tag_108\n      jump\t// in\n    tag_167:\n        /* \"#utility.yul\":521:556   */\n      swap1\n      pop\n        /* \"#utility.yul\":466:562   */\n      swap2\n      swap1\n      pop\n      jump\t// out\n        /* \"#utility.yul\":568:690   */\n    tag_110:\n        /* \"#utility.yul\":641:665   */\n      tag_169\n        /* \"#utility.yul\":659:664   */\n      dup2\n        /* \"#utility.yul\":641:665   */\n      tag_109\n      jump\t// in\n    tag_169:\n        /* \"#utility.yul\":634:639   */\n      dup2\n        /* \"#utility.yul\":631:666   */\n      eq\n        /* \"#utility.yul\":621:684   */\n      tag_170\n      jumpi\n        /* \"#utility.yul\":680:681   */\n      0x00\n        /* \"#utility.yul\":677:678   */\n      dup1\n        /* \"#utility.yul\":670:682   */\n      revert\n        /* \"#utility.yul\":621:684   */\n    tag_170:\n        /* \"#utility.yul\":568:690   */\n      pop\n      jump\t// out\n        /* \"#utility.yul\":696:835   */\n    tag_111:\n        /* \"#utility.yul\":742:747   */\n      0x00\n        /* \"#utility.yul\":780:786   */\n      dup2\n        /* \"#utility.yul\":767:787   */\n      calldataload\n        /* \"#utility.yul\":758:787   */\n      swap1\n      pop\n        /* \"#utility.yul\":796:829   */\n      tag_172\n        /* \"#utility.yul\":823:828   */\n      dup2\n        /* \"#utility.yul\":796:829   */\n      tag_110\n      jump\t// in\n    tag_172:\n        /* \"#utility.yul\":696:835   */\n      swap3\n      swap2\n      pop\n      pop\n      jump\t// out\n        /* \"#utility.yul\":841:1170   */\n    tag_15:\n        /* \"#utility.yul\":900:906   */\n      0x00\n        /* \"#utility.yul\":949:951   */\n      0x20\n        /* \"#utility.yul\":937:946   */\n      dup3\n        /* \"#utility.yul\":928:935   */\n      dup5\n        /* \"#utility.yul\":924:947   */\n      sub\n        /* \"#utility.yul\":920:952   */\n      slt\n        /* \"#utility.yul\":917:1036   */\n      iszero\n      tag_174\n      jumpi\n        /* \"#utility.yul\":955:1034   */\n      tag_175\n      tag_106\n      jump\t// in\n    tag_175:\n        /* \"#utility.yul\":917:1036   */\n    tag_174:\n        /* \"#utility.yul\":1075:1076   */\n      0x00\n        /* \"#utility.yul\":1100:1153   */\n      tag_176\n        /* \"#utility.yul\":1145:1152   */\n      dup5\n        /* \"#utility.yul\":1136:1142   */\n      dup3\n        /* \"#utility.yul\":1125:1134   */\n      dup6\n        /* \"#utility.yul\":1121:1143   */\n      add\n        /* \"#utility.yul\":1100:1153   */\n      tag_111\n      jump\t// in\n    tag_176:\n        /* \"#utility.yul\":1090:1153   */\n      swap2\n      pop\n        /* \"#utility.yul\":1046:1163   */\n      pop\n        /* \"#utility.yul\":841:1170   */\n      swap3\n      swap2\n      pop\n      pop\n      jump\t// out\n        /* \"#utility.yul\":1176:1275   */\n    tag_112:\n        /* \"#utility.yul\":1228:1234   */\n      0x00\n        /* \"#utility.yul\":1262:1267   */\n      dup2\n        /* \"#utility.yul\":1256:1268   */\n      mload\n        /* \"#utility.yul\":1246:1268   */\n      swap1\n      pop\n        /* \"#utility.yul\":1176:1275   */\n      swap2\n      swap1\n      pop\n      jump\t// out\n        /* \"#utility.yul\":1281:1450   */\n    tag_113:\n        /* \"#utility.yul\":1365:1376   */\n      0x00\n        /* \"#utility.yul\":1399:1405   */\n      dup3\n        /* \"#utility.yul\":1394:1397   */\n      dup3\n        /* \"#utility.yul\":1387:1406   */\n      mstore\n        /* \"#utility.yul\":1439:1443   */\n      0x20\n        /* \"#utility.yul\":1434:1437   */\n      dup3\n        /* \"#utility.yul\":1430:1444   */\n      add\n        /* \"#utility.yul\":1415:1444   */\n      swap1\n      pop\n        /* \"#utility.yul\":1281:1450   */\n      swap3\n      swap2\n      pop\n      pop\n      jump\t// out\n        /* \"#utility.yul\":1456:1595   */\n    tag_114:\n        /* \"#utility.yul\":1545:1551   */\n      dup3\n        /* \"#utility.yul\":1540:1543   */\n      dup2\n        /* \"#utility.yul\":1535:1538   */\n      dup4\n        /* \"#utility.yul\":1529:1552   */\n      mcopy\n        /* \"#utility.yul\":1586:1587   */\n      0x00\n        /* \"#utility.yul\":1577:1583   */\n      dup4\n        /* \"#utility.yul\":1572:1575   */\n      dup4\n        /* \"#utility.yul\":1568:1584   */\n      add\n        /* \"#utility.yul\":1561:1588   */\n      mstore\n        /* \"#utility.yul\":1456:1595   */\n      pop\n      pop\n      pop\n      jump\t// out\n        /* \"#utility.yul\":1601:1703   */\n    tag_115:\n        /* \"#utility.yul\":1642:1648   */\n      0x00\n        /* \"#utility.yul\":1693:1695   */\n      0x1f\n        /* \"#utility.yul\":1689:1696   */\n      not\n        /* \"#utility.yul\":1684:1686   */\n      0x1f\n        /* \"#utility.yul\":1677:1682   */\n      dup4\n        /* \"#utility.yul\":1673:1687   */\n      add\n        /* \"#utility.yul\":1669:1697   */\n      and\n        /* \"#utility.yul\":1659:1697   */\n      swap1\n      pop\n        /* \"#utility.yul\":1601:1703   */\n      swap2\n      swap1\n      pop\n      jump\t// out\n        /* \"#utility.yul\":1709:2086   */\n    tag_116:\n        /* \"#utility.yul\":1797:1800   */\n      0x00\n        /* \"#utility.yul\":1825:1864   */\n      tag_182\n        /* \"#utility.yul\":1858:1863   */\n      dup3\n        /* \"#utility.yul\":1825:1864   */\n      tag_112\n      jump\t// in\n    tag_182:\n        /* \"#utility.yul\":1880:1951   */\n      tag_183\n        /* \"#utility.yul\":1944:1950   */\n      dup2\n        /* \"#utility.yul\":1939:1942   */\n      dup6\n        /* \"#utility.yul\":1880:1951   */\n      tag_113\n      jump\t// in\n    tag_183:\n        /* \"#utility.yul\":1873:1951   */\n      swap4\n      pop\n        /* \"#utility.yul\":1960:2025   */\n      tag_184\n        /* \"#utility.yul\":2018:2024   */\n      dup2\n        /* \"#utility.yul\":2013:2016   */\n      dup6\n        /* \"#utility.yul\":2006:2010   */\n      0x20\n        /* \"#utility.yul\":1999:2004   */\n      dup7\n        /* \"#utility.yul\":1995:2011   */\n      add\n        /* \"#utility.yul\":1960:2025   */\n      tag_114\n      jump\t// in\n    tag_184:\n        /* \"#utility.yul\":2050:2079   */\n      tag_185\n        /* \"#utility.yul\":2072:2078   */\n      dup2\n        /* \"#utility.yul\":2050:2079   */\n      tag_115\n      jump\t// in\n    tag_185:\n        /* \"#utility.yul\":2045:2048   */\n      dup5\n        /* \"#utility.yul\":2041:2080   */\n      add\n        /* \"#utility.yul\":2034:2080   */\n      swap2\n      pop\n        /* \"#utility.yul\":1801:2086   */\n      pop\n        /* \"#utility.yul\":1709:2086   */\n      swap3\n      swap2\n      pop\n      pop\n      jump\t// out\n        /* \"#utility.yul\":2092:2405   */\n    tag_18:\n        /* \"#utility.yul\":2205:2209   */\n      0x00\n        /* \"#utility.yul\":2243:2245   */\n      0x20\n        /* \"#utility.yul\":2232:2241   */\n      dup3\n        /* \"#utility.yul\":2228:2246   */\n      add\n        /* \"#utility.yul\":2220:2246   */\n      swap1\n      pop\n        /* \"#utility.yul\":2292:2301   */\n      dup2\n        /* \"#utility.yul\":2286:2290   */\n      dup2\n        /* \"#utility.yul\":2282:2302   */\n      sub\n        /* \"#utility.yul\":2278:2279   */\n      0x00\n        /* \"#utility.yul\":2267:2276   */\n      dup4\n        /* \"#utility.yul\":2263:2280   */\n      add\n        /* \"#utility.yul\":2256:2303   */\n      mstore\n        /* \"#utility.yul\":2320:2398   */\n      tag_187\n        /* \"#utility.yul\":2393:2397   */\n      dup2\n        /* \"#utility.yul\":2384:2390   */\n      dup5\n        /* \"#utility.yul\":2320:2398   */\n      tag_116\n      jump\t// in\n    tag_187:\n        /* \"#utility.yul\":2312:2398   */\n      swap1\n      pop\n        /* \"#utility.yul\":2092:2405   */\n      swap3\n      swap2\n      pop\n      pop\n      jump\t// out\n        /* \"#utility.yul\":2411:2501   */\n    tag_117:\n        /* \"#utility.yul\":2445:2452   */\n      0x00\n        /* \"#utility.yul\":2488:2493   */\n      dup2\n        /* \"#utility.yul\":2481:2494   */\n      iszero\n        /* \"#utility.yul\":2474:2495   */\n      iszero\n        /* \"#utility.yul\":2463:2495   */\n      swap1\n      pop\n        /* \"#utility.yul\":2411:2501   */\n      swap2\n      swap1\n      pop\n      jump\t// out\n        /* \"#utility.yul\":2507:2616   */\n    tag_118:\n        /* \"#utility.yul\":2588:2609   */\n      tag_190\n        /* \"#utility.yul\":2603:2608   */\n      dup2\n        /* \"#utility.yul\":2588:2609   */\n      tag_117\n      jump\t// in\n    tag_190:\n        /* \"#utility.yul\":2583:2586   */\n      dup3\n        /* \"#utility.yul\":2576:2610   */\n      mstore\n        /* \"#utility.yul\":2507:2616   */\n      pop\n      pop\n      jump\t// out\n        /* \"#utility.yul\":2622:2832   */\n    tag_23:\n        /* \"#utility.yul\":2709:2713   */\n      0x00\n        /* \"#utility.yul\":2747:2749   */\n      0x20\n        /* \"#utility.yul\":2736:2745   */\n      dup3\n        /* \"#utility.yul\":2732:2750   */\n      add\n        /* \"#utility.yul\":2724:2750   */\n      swap1\n      pop\n        /* \"#utility.yul\":2760:2825   */\n      tag_192\n        /* \"#utility.yul\":2822:2823   */\n      0x00\n        /* \"#utility.yul\":2811:2820   */\n      dup4\n        /* \"#utility.yul\":2807:2824   */\n      add\n        /* \"#utility.yul\":2798:2804   */\n      dup5\n        /* \"#utility.yul\":2760:2825   */\n      tag_118\n      jump\t// in\n    tag_192:\n        /* \"#utility.yul\":2622:2832   */\n      swap3\n      swap2\n      pop\n      pop\n      jump\t// out\n        /* \"#utility.yul\":2838:2915   */\n    tag_119:\n        /* \"#utility.yul\":2875:2882   */\n      0x00\n        /* \"#utility.yul\":2904:2909   */\n      dup2\n        /* \"#utility.yul\":2893:2909   */\n      swap1\n      pop\n        /* \"#utility.yul\":2838:2915   */\n      swap2\n      swap1\n      pop\n      jump\t// out\n        /* \"#utility.yul\":2921:3039   */\n    tag_120:\n        /* \"#utility.yul\":3008:3032   */\n      tag_195\n        /* \"#utility.yul\":3026:3031   */\n      dup2\n        /* \"#utility.yul\":3008:3032   */\n      tag_119\n      jump\t// in\n    tag_195:\n        /* \"#utility.yul\":3003:3006   */\n      dup3\n        /* \"#utility.yul\":2996:3033   */\n      mstore\n        /* \"#utility.yul\":2921:3039   */\n      pop\n      pop\n      jump\t// out\n        /* \"#utility.yul\":3045:3267   */\n    tag_28:\n        /* \"#utility.yul\":3138:3142   */\n      0x00\n        /* \"#utility.yul\":3176:3178   */\n      0x20\n        /* \"#utility.yul\":3165:3174   */\n      dup3\n        /* \"#utility.yul\":3161:3179   */\n      add\n        /* \"#utility.yul\":3153:3179   */\n      swap1\n      pop\n        /* \"#utility.yul\":3189:3260   */\n      tag_197\n        /* \"#utility.yul\":3257:3258   */\n      0x00\n        /* \"#utility.yul\":3246:3255   */\n      dup4\n        /* \"#utility.yul\":3242:3259   */\n      add\n        /* \"#utility.yul\":3233:3239   */\n      dup5\n        /* \"#utility.yul\":3189:3260   */\n      tag_120\n      jump\t// in\n    tag_197:\n        /* \"#utility.yul\":3045:3267   */\n      swap3\n      swap2\n      pop\n      pop\n      jump\t// out\n        /* \"#utility.yul\":3273:3390   */\n    tag_121:\n        /* \"#utility.yul\":3382:3383   */\n      0x00\n        /* \"#utility.yul\":3379:3380   */\n      dup1\n        /* \"#utility.yul\":3372:3384   */\n      revert\n        /* \"#utility.yul\":3396:3513   */\n    tag_122:\n        /* \"#utility.yul\":3505:3506   */\n      0x00\n        /* \"#utility.yul\":3502:3503   */\n      dup1\n        /* \"#utility.yul\":3495:3507   */\n      revert\n        /* \"#utility.yul\":3519:3699   */\n    tag_123:\n        /* \"#utility.yul\":3567:3644   */\n      0x4e487b7100000000000000000000000000000000000000000000000000000000\n        /* \"#utility.yul\":3564:3565   */\n      0x00\n        /* \"#utility.yul\":3557:3645   */\n      mstore\n        /* \"#utility.yul\":3664:3668   */\n      0x41\n        /* \"#utility.yul\":3661:3662   */\n      0x04\n        /* \"#utility.yul\":3654:3669   */\n      mstore\n        /* \"#utility.yul\":3688:3692   */\n      0x24\n        /* \"#utility.yul\":3685:3686   */\n      0x00\n        /* \"#utility.yul\":3678:3693   */\n      revert\n        /* \"#utility.yul\":3705:3986   */\n    tag_124:\n        /* \"#utility.yul\":3788:3815   */\n      tag_202\n        /* \"#utility.yul\":3810:3814   */\n      dup3\n        /* \"#utility.yul\":3788:3815   */\n      tag_115\n      jump\t// in\n    tag_202:\n        /* \"#utility.yul\":3780:3786   */\n      dup2\n        /* \"#utility.yul\":3776:3816   */\n      add\n        /* \"#utility.yul\":3918:3924   */\n      dup2\n        /* \"#utility.yul\":3906:3916   */\n      dup2\n        /* \"#utility.yul\":3903:3925   */\n      lt\n        /* \"#utility.yul\":3882:3900   */\n      0xffffffffffffffff\n        /* \"#utility.yul\":3870:3880   */\n      dup3\n        /* \"#utility.yul\":3867:3901   */\n      gt\n        /* \"#utility.yul\":3864:3926   */\n      or\n        /* \"#utility.yul\":3861:3949   */\n      iszero\n      tag_203\n      jumpi\n        /* \"#utility.yul\":3929:3947   */\n      tag_204\n      tag_123\n      jump\t// in\n    tag_204:\n        /* \"#utility.yul\":3861:3949   */\n    tag_203:\n        /* \"#utility.yul\":3969:3979   */\n      dup1\n        /* \"#utility.yul\":3965:3967   */\n      0x40\n        /* \"#utility.yul\":3958:3980   */\n      mstore\n        /* \"#utility.yul\":3748:3986   */\n      pop\n        /* \"#utility.yul\":3705:3986   */\n      pop\n      pop\n      jump\t// out\n        /* \"#utility.yul\":3992:4121   */\n    tag_125:\n        /* \"#utility.yul\":4026:4032   */\n      0x00\n        /* \"#utility.yul\":4053:4073   */\n      tag_206\n      tag_105\n      jump\t// in\n    tag_206:\n        /* \"#utility.yul\":4043:4073   */\n      swap1\n      pop\n        /* \"#utility.yul\":4082:4115   */\n      tag_207\n        /* \"#utility.yul\":4110:4114   */\n      dup3\n        /* \"#utility.yul\":4102:4108   */\n      dup3\n        /* \"#utility.yul\":4082:4115   */\n      tag_124\n      jump\t// in\n    tag_207:\n        /* \"#utility.yul\":3992:4121   */\n      swap2\n      swap1\n      pop\n      jump\t// out\n        /* \"#utility.yul\":4127:4435   */\n    tag_126:\n        /* \"#utility.yul\":4189:4193   */\n      0x00\n        /* \"#utility.yul\":4279:4297   */\n      0xffffffffffffffff\n        /* \"#utility.yul\":4271:4277   */\n      dup3\n        /* \"#utility.yul\":4268:4298   */\n      gt\n        /* \"#utility.yul\":4265:4321   */\n      iszero\n      tag_209\n      jumpi\n        /* \"#utility.yul\":4301:4319   */\n      tag_210\n      tag_123\n      jump\t// in\n    tag_210:\n        /* \"#utility.yul\":4265:4321   */\n    tag_209:\n        /* \"#utility.yul\":4339:4368   */\n      tag_211\n        /* \"#utility.yul\":4361:4367   */\n      dup3\n        /* \"#utility.yul\":4339:4368   */\n      tag_115\n      jump\t// in\n    tag_211:\n        /* \"#utility.yul\":4331:4368   */\n      swap1\n      pop\n        /* \"#utility.yul\":4423:4427   */\n      0x20\n        /* \"#utility.yul\":4417:4421   */\n      dup2\n        /* \"#utility.yul\":4413:4428   */\n      add\n        /* \"#utility.yul\":4405:4428   */\n      swap1\n      pop\n        /* \"#utility.yul\":4127:4435   */\n      swap2\n      swap1\n      pop\n      jump\t// out\n        /* \"#utility.yul\":4441:4589   */\n    tag_127:\n        /* \"#utility.yul\":4539:4545   */\n      dup3\n        /* \"#utility.yul\":4534:4537   */\n      dup2\n        /* \"#utility.yul\":4529:4532   */\n      dup4\n        /* \"#utility.yul\":4516:4546   */\n      calldatacopy\n        /* \"#utility.yul\":4580:4581   */\n      0x00\n        /* \"#utility.yul\":4571:4577   */\n      dup4\n        /* \"#utility.yul\":4566:4569   */\n      dup4\n        /* \"#utility.yul\":4562:4578   */\n      add\n        /* \"#utility.yul\":4555:4582   */\n      mstore\n        /* \"#utility.yul\":4441:4589   */\n      pop\n      pop\n      pop\n      jump\t// out\n        /* \"#utility.yul\":4595:5020   */\n    tag_128:\n        /* \"#utility.yul\":4673:4678   */\n      0x00\n        /* \"#utility.yul\":4698:4764   */\n      tag_214\n        /* \"#utility.yul\":4714:4763   */\n      tag_215\n        /* \"#utility.yul\":4756:4762   */\n      dup5\n        /* \"#utility.yul\":4714:4763   */\n      tag_126\n      jump\t// in\n    tag_215:\n        /* \"#utility.yul\":4698:4764   */\n      tag_125\n      jump\t// in\n    tag_214:\n        /* \"#utility.yul\":4689:4764   */\n      swap1\n      pop\n        /* \"#utility.yul\":4787:4793   */\n      dup3\n        /* \"#utility.yul\":4780:4785   */\n      dup2\n        /* \"#utility.yul\":4773:4794   */\n      mstore\n        /* \"#utility.yul\":4825:4829   */\n      0x20\n        /* \"#utility.yul\":4818:4823   */\n      dup2\n        /* \"#utility.yul\":4814:4830   */\n      add\n        /* \"#utility.yul\":4863:4866   */\n      dup5\n        /* \"#utility.yul\":4854:4860   */\n      dup5\n        /* \"#utility.yul\":4849:4852   */\n      dup5\n        /* \"#utility.yul\":4845:4861   */\n      add\n        /* \"#utility.yul\":4842:4867   */\n      gt\n        /* \"#utility.yul\":4839:4951   */\n      iszero\n      tag_216\n      jumpi\n        /* \"#utility.yul\":4870:4949   */\n      tag_217\n      tag_122\n      jump\t// in\n    tag_217:\n        /* \"#utility.yul\":4839:4951   */\n    tag_216:\n        /* \"#utility.yul\":4960:5014   */\n      tag_218\n        /* \"#utility.yul\":5007:5013   */\n      dup5\n        /* \"#utility.yul\":5002:5005   */\n      dup3\n        /* \"#utility.yul\":4997:5000   */\n      dup6\n        /* \"#utility.yul\":4960:5014   */\n      tag_127\n      jump\t// in\n    tag_218:\n        /* \"#utility.yul\":4679:5020   */\n      pop\n        /* \"#utility.yul\":4595:5020   */\n      swap4\n      swap3\n      pop\n      pop\n      pop\n      jump\t// out\n        /* \"#utility.yul\":5040:5380   */\n    tag_129:\n        /* \"#utility.yul\":5096:5101   */\n      0x00\n        /* \"#utility.yul\":5145:5148   */\n      dup3\n        /* \"#utility.yul\":5138:5142   */\n      0x1f\n        /* \"#utility.yul\":5130:5136   */\n      dup4\n        /* \"#utility.yul\":5126:5143   */\n      add\n        /* \"#utility.yul\":5122:5149   */\n      slt\n        /* \"#utility.yul\":5112:5234   */\n      tag_220\n      jumpi\n        /* \"#utility.yul\":5153:5232   */\n      tag_221\n      tag_121\n      jump\t// in\n    tag_221:\n        /* \"#utility.yul\":5112:5234   */\n    tag_220:\n        /* \"#utility.yul\":5270:5276   */\n      dup2\n        /* \"#utility.yul\":5257:5277   */\n      calldataload\n        /* \"#utility.yul\":5295:5374   */\n      tag_222\n        /* \"#utility.yul\":5370:5373   */\n      dup5\n        /* \"#utility.yul\":5362:5368   */\n      dup3\n        /* \"#utility.yul\":5355:5359   */\n      0x20\n        /* \"#utility.yul\":5347:5353   */\n      dup7\n        /* \"#utility.yul\":5343:5360   */\n      add\n        /* \"#utility.yul\":5295:5374   */\n      tag_128\n      jump\t// in\n    tag_222:\n        /* \"#utility.yul\":5286:5374   */\n      swap2\n      pop\n        /* \"#utility.yul\":5102:5380   */\n      pop\n        /* \"#utility.yul\":5040:5380   */\n      swap3\n      swap2\n      pop\n      pop\n      jump\t// out\n        /* \"#utility.yul\":5386:5508   */\n    tag_130:\n        /* \"#utility.yul\":5459:5483   */\n      tag_224\n        /* \"#utility.yul\":5477:5482   */\n      dup2\n        /* \"#utility.yul\":5459:5483   */\n      tag_119\n      jump\t// in\n    tag_224:\n        /* \"#utility.yul\":5452:5457   */\n      dup2\n        /* \"#utility.yul\":5449:5484   */\n      eq\n        /* \"#utility.yul\":5439:5502   */\n      tag_225\n      jumpi\n        /* \"#utility.yul\":5498:5499   */\n      0x00\n        /* \"#utility.yul\":5495:5496   */\n      dup1\n        /* \"#utility.yul\":5488:5500   */\n      revert\n        /* \"#utility.yul\":5439:5502   */\n    tag_225:\n        /* \"#utility.yul\":5386:5508   */\n      pop\n      jump\t// out\n        /* \"#utility.yul\":5514:5653   */\n    tag_131:\n        /* \"#utility.yul\":5560:5565   */\n      0x00\n        /* \"#utility.yul\":5598:5604   */\n      dup2\n        /* \"#utility.yul\":5585:5605   */\n      calldataload\n        /* \"#utility.yul\":5576:5605   */\n      swap1\n      pop\n        /* \"#utility.yul\":5614:5647   */\n      tag_227\n        /* \"#utility.yul\":5641:5646   */\n      dup2\n        /* \"#utility.yul\":5614:5647   */\n      tag_130\n      jump\t// in\n    tag_227:\n        /* \"#utility.yul\":5514:5653   */\n      swap3\n      swap2\n      pop\n      pop\n      jump\t// out\n        /* \"#utility.yul\":5659:6458   */\n    tag_34:\n        /* \"#utility.yul\":5746:5752   */\n      0x00\n        /* \"#utility.yul\":5754:5760   */\n      dup1\n        /* \"#utility.yul\":5762:5768   */\n      0x00\n        /* \"#utility.yul\":5811:5813   */\n      0x60\n        /* \"#utility.yul\":5799:5808   */\n      dup5\n        /* \"#utility.yul\":5790:5797   */\n      dup7\n        /* \"#utility.yul\":5786:5809   */\n      sub\n        /* \"#utility.yul\":5782:5814   */\n      slt\n        /* \"#utility.yul\":5779:5898   */\n      iszero\n      tag_229\n      jumpi\n        /* \"#utility.yul\":5817:5896   */\n      tag_230\n      tag_106\n      jump\t// in\n    tag_230:\n        /* \"#utility.yul\":5779:5898   */\n    tag_229:\n        /* \"#utility.yul\":5937:5938   */\n      0x00\n        /* \"#utility.yul\":5962:6015   */\n      tag_231\n        /* \"#utility.yul\":6007:6014   */\n      dup7\n        /* \"#utility.yul\":5998:6004   */\n      dup3\n        /* \"#utility.yul\":5987:5996   */\n      dup8\n        /* \"#utility.yul\":5983:6005   */\n      add\n        /* \"#utility.yul\":5962:6015   */\n      tag_111\n      jump\t// in\n    tag_231:\n        /* \"#utility.yul\":5952:6015   */\n      swap4\n      pop\n        /* \"#utility.yul\":5908:6025   */\n      pop\n        /* \"#utility.yul\":6092:6094   */\n      0x20\n        /* \"#utility.yul\":6081:6090   */\n      dup5\n        /* \"#utility.yul\":6077:6095   */\n      add\n        /* \"#utility.yul\":6064:6096   */\n      calldataload\n        /* \"#utility.yul\":6123:6141   */\n      0xffffffffffffffff\n        /* \"#utility.yul\":6115:6121   */\n      dup2\n        /* \"#utility.yul\":6112:6142   */\n      gt\n        /* \"#utility.yul\":6109:6226   */\n      iszero\n      tag_232\n      jumpi\n        /* \"#utility.yul\":6145:6224   */\n      tag_233\n      tag_107\n      jump\t// in\n    tag_233:\n        /* \"#utility.yul\":6109:6226   */\n    tag_232:\n        /* \"#utility.yul\":6250:6313   */\n      tag_234\n        /* \"#utility.yul\":6305:6312   */\n      dup7\n        /* \"#utility.yul\":6296:6302   */\n      dup3\n        /* \"#utility.yul\":6285:6294   */\n      dup8\n        /* \"#utility.yul\":6281:6303   */\n      add\n        /* \"#utility.yul\":6250:6313   */\n      tag_129\n      jump\t// in\n    tag_234:\n        /* \"#utility.yul\":6240:6313   */\n      swap3\n      pop\n        /* \"#utility.yul\":6035:6323   */\n      pop\n        /* \"#utility.yul\":6362:6364   */\n      0x40\n        /* \"#utility.yul\":6388:6441   */\n      tag_235\n        /* \"#utility.yul\":6433:6440   */\n      dup7\n        /* \"#utility.yul\":6424:6430   */\n      dup3\n        /* \"#utility.yul\":6413:6422   */\n      dup8\n        /* \"#utility.yul\":6409:6431   */\n      add\n        /* \"#utility.yul\":6388:6441   */\n      tag_131\n      jump\t// in\n    tag_235:\n        /* \"#utility.yul\":6378:6441   */\n      swap2\n      pop\n        /* \"#utility.yul\":6333:6451   */\n      pop\n        /* \"#utility.yul\":5659:6458   */\n      swap3\n      pop\n      swap3\n      pop\n      swap3\n      jump\t// out\n        /* \"#utility.yul\":6464:6524   */\n    tag_132:\n        /* \"#utility.yul\":6492:6495   */\n      0x00\n        /* \"#utility.yul\":6513:6518   */\n      dup2\n        /* \"#utility.yul\":6506:6518   */\n      swap1\n      pop\n        /* \"#utility.yul\":6464:6524   */\n      swap2\n      swap1\n      pop\n      jump\t// out\n        /* \"#utility.yul\":6530:6672   */\n    tag_133:\n        /* \"#utility.yul\":6580:6589   */\n      0x00\n        /* \"#utility.yul\":6613:6666   */\n      tag_238\n        /* \"#utility.yul\":6631:6665   */\n      tag_239\n        /* \"#utility.yul\":6640:6664   */\n      tag_240\n        /* \"#utility.yul\":6658:6663   */\n      dup5\n        /* \"#utility.yul\":6640:6664   */\n      tag_108\n      jump\t// in\n    tag_240:\n        /* \"#utility.yul\":6631:6665   */\n      tag_132\n      jump\t// in\n    tag_239:\n        /* \"#utility.yul\":6613:6666   */\n      tag_108\n      jump\t// in\n    tag_238:\n        /* \"#utility.yul\":6600:6666   */\n      swap1\n      pop\n        /* \"#utility.yul\":6530:6672   */\n      swap2\n      swap1\n      pop\n      jump\t// out\n        /* \"#utility.yul\":6678:6804   */\n    tag_134:\n        /* \"#utility.yul\":6728:6737   */\n      0x00\n        /* \"#utility.yul\":6761:6798   */\n      tag_242\n        /* \"#utility.yul\":6792:6797   */\n      dup3\n        /* \"#utility.yul\":6761:6798   */\n      tag_133\n      jump\t// in\n    tag_242:\n        /* \"#utility.yul\":6748:6798   */\n      swap1\n      pop\n        /* \"#utility.yul\":6678:6804   */\n      swap2\n      swap1\n      pop\n      jump\t// out\n        /* \"#utility.yul\":6810:6951   */\n    tag_135:\n        /* \"#utility.yul\":6875:6884   */\n      0x00\n        /* \"#utility.yul\":6908:6945   */\n      tag_244\n        /* \"#utility.yul\":6939:6944   */\n      dup3\n        /* \"#utility.yul\":6908:6945   */\n      tag_134\n      jump\t// in\n    tag_244:\n        /* \"#utility.yul\":6895:6945   */\n      swap1\n      pop\n        /* \"#utility.yul\":6810:6951   */\n      swap2\n      swap1\n      pop\n      jump\t// out\n        /* \"#utility.yul\":6957:7118   */\n    tag_136:\n        /* \"#utility.yul\":7059:7111   */\n      tag_246\n        /* \"#utility.yul\":7105:7110   */\n      dup2\n        /* \"#utility.yul\":7059:7111   */\n      tag_135\n      jump\t// in\n    tag_246:\n        /* \"#utility.yul\":7054:7057   */\n      dup3\n        /* \"#utility.yul\":7047:7112   */\n      mstore\n        /* \"#utility.yul\":6957:7118   */\n      pop\n      pop\n      jump\t// out\n        /* \"#utility.yul\":7124:7376   */\n    tag_43:\n        /* \"#utility.yul\":7232:7236   */\n      0x00\n        /* \"#utility.yul\":7270:7272   */\n      0x20\n        /* \"#utility.yul\":7259:7268   */\n      dup3\n        /* \"#utility.yul\":7255:7273   */\n      add\n        /* \"#utility.yul\":7247:7273   */\n      swap1\n      pop\n        /* \"#utility.yul\":7283:7369   */\n      tag_248\n        /* \"#utility.yul\":7366:7367   */\n      0x00\n        /* \"#utility.yul\":7355:7364   */\n      dup4\n        /* \"#utility.yul\":7351:7368   */\n      add\n        /* \"#utility.yul\":7342:7348   */\n      dup5\n        /* \"#utility.yul\":7283:7369   */\n      tag_136\n      jump\t// in\n    tag_248:\n        /* \"#utility.yul\":7124:7376   */\n      swap3\n      swap2\n      pop\n      pop\n      jump\t// out\n        /* \"#utility.yul\":7382:7562   */\n    tag_137:\n        /* \"#utility.yul\":7430:7507   */\n      0x4e487b7100000000000000000000000000000000000000000000000000000000\n        /* \"#utility.yul\":7427:7428   */\n      0x00\n        /* \"#utility.yul\":7420:7508   */\n      mstore\n        /* \"#utility.yul\":7527:7531   */\n      0x22\n        /* \"#utility.yul\":7524:7525   */\n      0x04\n        /* \"#utility.yul\":7517:7532   */\n      mstore\n        /* \"#utility.yul\":7551:7555   */\n      0x24\n        /* \"#utility.yul\":7548:7549   */\n      0x00\n        /* \"#utility.yul\":7541:7556   */\n      revert\n        /* \"#utility.yul\":7568:7888   */\n    tag_53:\n        /* \"#utility.yul\":7612:7618   */\n      0x00\n        /* \"#utility.yul\":7649:7650   */\n      0x02\n        /* \"#utility.yul\":7643:7647   */\n      dup3\n        /* \"#utility.yul\":7639:7651   */\n      div\n        /* \"#utility.yul\":7629:7651   */\n      swap1\n      pop\n        /* \"#utility.yul\":7696:7697   */\n      0x01\n        /* \"#utility.yul\":7690:7694   */\n      dup3\n        /* \"#utility.yul\":7686:7698   */\n      and\n        /* \"#utility.yul\":7717:7735   */\n      dup1\n        /* \"#utility.yul\":7707:7788   */\n      tag_251\n      jumpi\n        /* \"#utility.yul\":7773:7777   */\n      0x7f\n        /* \"#utility.yul\":7765:7771   */\n      dup3\n        /* \"#utility.yul\":7761:7778   */\n      and\n        /* \"#utility.yul\":7751:7778   */\n      swap2\n      pop\n        /* \"#utility.yul\":7707:7788   */\n    tag_251:\n        /* \"#utility.yul\":7835:7837   */\n      0x20\n        /* \"#utility.yul\":7827:7833   */\n      dup3\n        /* \"#utility.yul\":7824:7838   */\n      lt\n        /* \"#utility.yul\":7804:7822   */\n      dup2\n        /* \"#utility.yul\":7801:7839   */\n      sub\n        /* \"#utility.yul\":7798:7882   */\n      tag_252\n      jumpi\n        /* \"#utility.yul\":7854:7872   */\n      tag_253\n      tag_137\n      jump\t// in\n    tag_253:\n        /* \"#utility.yul\":7798:7882   */\n    tag_252:\n        /* \"#utility.yul\":7619:7888   */\n      pop\n        /* \"#utility.yul\":7568:7888   */\n      swap2\n      swap1\n      pop\n      jump\t// out\n        /* \"#utility.yul\":7894:8012   */\n    tag_138:\n        /* \"#utility.yul\":7981:8005   */\n      tag_255\n        /* \"#utility.yul\":7999:8004   */\n      dup2\n        /* \"#utility.yul\":7981:8005   */\n      tag_109\n      jump\t// in\n    tag_255:\n        /* \"#utility.yul\":7976:7979   */\n      dup3\n        /* \"#utility.yul\":7969:8006   */\n      mstore\n        /* \"#utility.yul\":7894:8012   */\n      pop\n      pop\n      jump\t// out\n        /* \"#utility.yul\":8018:8240   */\n    tag_61:\n        /* \"#utility.yul\":8111:8115   */\n      0x00\n        /* \"#utility.yul\":8149:8151   */\n      0x20\n        /* \"#utility.yul\":8138:8147   */\n      dup3\n        /* \"#utility.yul\":8134:8152   */\n      add\n        /* \"#utility.yul\":8126:8152   */\n      swap1\n      pop\n        /* \"#utility.yul\":8162:8233   */\n      tag_257\n        /* \"#utility.yul\":8230:8231   */\n      0x00\n        /* \"#utility.yul\":8219:8228   */\n      dup4\n        /* \"#utility.yul\":8215:8232   */\n      add\n        /* \"#utility.yul\":8206:8212   */\n      dup5\n        /* \"#utility.yul\":8162:8233   */\n      tag_138\n      jump\t// in\n    tag_257:\n        /* \"#utility.yul\":8018:8240   */\n      swap3\n      swap2\n      pop\n      pop\n      jump\t// out\n        /* \"#utility.yul\":8246:8362   */\n    tag_139:\n        /* \"#utility.yul\":8316:8337   */\n      tag_259\n        /* \"#utility.yul\":8331:8336   */\n      dup2\n        /* \"#utility.yul\":8316:8337   */\n      tag_117\n      jump\t// in\n    tag_259:\n        /* \"#utility.yul\":8309:8314   */\n      dup2\n        /* \"#utility.yul\":8306:8338   */\n      eq\n        /* \"#utility.yul\":8296:8356   */\n      tag_260\n      jumpi\n        /* \"#utility.yul\":8352:8353   */\n      0x00\n        /* \"#utility.yul\":8349:8350   */\n      dup1\n        /* \"#utility.yul\":8342:8354   */\n      revert\n        /* \"#utility.yul\":8296:8356   */\n    tag_260:\n        /* \"#utility.yul\":8246:8362   */\n      pop\n      jump\t// out\n        /* \"#utility.yul\":8368:8505   */\n    tag_140:\n        /* \"#utility.yul\":8422:8427   */\n      0x00\n        /* \"#utility.yul\":8453:8459   */\n      dup2\n        /* \"#utility.yul\":8447:8460   */\n      mload\n        /* \"#utility.yul\":8438:8460   */\n      swap1\n      pop\n        /* \"#utility.yul\":8469:8499   */\n      tag_262\n        /* \"#utility.yul\":8493:8498   */\n      dup2\n        /* \"#utility.yul\":8469:8499   */\n      tag_139\n      jump\t// in\n    tag_262:\n        /* \"#utility.yul\":8368:8505   */\n      swap3\n      swap2\n      pop\n      pop\n      jump\t// out\n        /* \"#utility.yul\":8511:8856   */\n    tag_65:\n        /* \"#utility.yul\":8578:8584   */\n      0x00\n        /* \"#utility.yul\":8627:8629   */\n      0x20\n        /* \"#utility.yul\":8615:8624   */\n      dup3\n        /* \"#utility.yul\":8606:8613   */\n      dup5\n        /* \"#utility.yul\":8602:8625   */\n      sub\n        /* \"#utility.yul\":8598:8630   */\n      slt\n        /* \"#utility.yul\":8595:8714   */\n      iszero\n      tag_264\n      jumpi\n        /* \"#utility.yul\":8633:8712   */\n      tag_265\n      tag_106\n      jump\t// in\n    tag_265:\n        /* \"#utility.yul\":8595:8714   */\n    tag_264:\n        /* \"#utility.yul\":8753:8754   */\n      0x00\n        /* \"#utility.yul\":8778:8839   */\n      tag_266\n        /* \"#utility.yul\":8831:8838   */\n      dup5\n        /* \"#utility.yul\":8822:8828   */\n      dup3\n        /* \"#utility.yul\":8811:8820   */\n      dup6\n        /* \"#utility.yul\":8807:8829   */\n      add\n        /* \"#utility.yul\":8778:8839   */\n      tag_140\n      jump\t// in\n    tag_266:\n        /* \"#utility.yul\":8768:8839   */\n      swap2\n      pop\n        /* \"#utility.yul\":8724:8849   */\n      pop\n        /* \"#utility.yul\":8511:8856   */\n      swap3\n      swap2\n      pop\n      pop\n      jump\t// out\n        /* \"#utility.yul\":8862:9091   */\n    tag_141:\n        /* \"#utility.yul\":9002:9036   */\n      0x536f6c6f206f6a6561646f7265732070756564656e207265616c697a61722065\n        /* \"#utility.yul\":8998:8999   */\n      0x00\n        /* \"#utility.yul\":8990:8996   */\n      dup3\n        /* \"#utility.yul\":8986:9000   */\n      add\n        /* \"#utility.yul\":8979:9037   */\n      mstore\n        /* \"#utility.yul\":9071:9083   */\n      0x73746120616363696f6e00000000000000000000000000000000000000000000\n        /* \"#utility.yul\":9066:9068   */\n      0x20\n        /* \"#utility.yul\":9058:9064   */\n      dup3\n        /* \"#utility.yul\":9054:9069   */\n      add\n        /* \"#utility.yul\":9047:9084   */\n      mstore\n        /* \"#utility.yul\":8862:9091   */\n      pop\n      jump\t// out\n        /* \"#utility.yul\":9097:9463   */\n    tag_142:\n        /* \"#utility.yul\":9239:9242   */\n      0x00\n        /* \"#utility.yul\":9260:9327   */\n      tag_269\n        /* \"#utility.yul\":9324:9326   */\n      0x2a\n        /* \"#utility.yul\":9319:9322   */\n      dup4\n        /* \"#utility.yul\":9260:9327   */\n      tag_113\n      jump\t// in\n    tag_269:\n        /* \"#utility.yul\":9253:9327   */\n      swap2\n      pop\n        /* \"#utility.yul\":9336:9429   */\n      tag_270\n        /* \"#utility.yul\":9425:9428   */\n      dup3\n        /* \"#utility.yul\":9336:9429   */\n      tag_141\n      jump\t// in\n    tag_270:\n        /* \"#utility.yul\":9454:9456   */\n      0x40\n        /* \"#utility.yul\":9449:9452   */\n      dup3\n        /* \"#utility.yul\":9445:9457   */\n      add\n        /* \"#utility.yul\":9438:9457   */\n      swap1\n      pop\n        /* \"#utility.yul\":9097:9463   */\n      swap2\n      swap1\n      pop\n      jump\t// out\n        /* \"#utility.yul\":9469:9888   */\n    tag_68:\n        /* \"#utility.yul\":9635:9639   */\n      0x00\n        /* \"#utility.yul\":9673:9675   */\n      0x20\n        /* \"#utility.yul\":9662:9671   */\n      dup3\n        /* \"#utility.yul\":9658:9676   */\n      add\n        /* \"#utility.yul\":9650:9676   */\n      swap1\n      pop\n        /* \"#utility.yul\":9722:9731   */\n      dup2\n        /* \"#utility.yul\":9716:9720   */\n      dup2\n        /* \"#utility.yul\":9712:9732   */\n      sub\n        /* \"#utility.yul\":9708:9709   */\n      0x00\n        /* \"#utility.yul\":9697:9706   */\n      dup4\n        /* \"#utility.yul\":9693:9710   */\n      add\n        /* \"#utility.yul\":9686:9733   */\n      mstore\n        /* \"#utility.yul\":9750:9881   */\n      tag_272\n        /* \"#utility.yul\":9876:9880   */\n      dup2\n        /* \"#utility.yul\":9750:9881   */\n      tag_142\n      jump\t// in\n    tag_272:\n        /* \"#utility.yul\":9742:9881   */\n      swap1\n      pop\n        /* \"#utility.yul\":9469:9888   */\n      swap2\n      swap1\n      pop\n      jump\t// out\n        /* \"#utility.yul\":9894:10067   */\n    tag_143:\n        /* \"#utility.yul\":10034:10059   */\n      0x4e6f206573746120656e206c61207072656c697374612e000000000000000000\n        /* \"#utility.yul\":10030:10031   */\n      0x00\n        /* \"#utility.yul\":10022:10028   */\n      dup3\n        /* \"#utility.yul\":10018:10032   */\n      add\n        /* \"#utility.yul\":10011:10060   */\n      mstore\n        /* \"#utility.yul\":9894:10067   */\n      pop\n      jump\t// out\n        /* \"#utility.yul\":10073:10439   */\n    tag_144:\n        /* \"#utility.yul\":10215:10218   */\n      0x00\n        /* \"#utility.yul\":10236:10303   */\n      tag_275\n        /* \"#utility.yul\":10300:10302   */\n      0x17\n        /* \"#utility.yul\":10295:10298   */\n      dup4\n        /* \"#utility.yul\":10236:10303   */\n      tag_113\n      jump\t// in\n    tag_275:\n        /* \"#utility.yul\":10229:10303   */\n      swap2\n      pop\n        /* \"#utility.yul\":10312:10405   */\n      tag_276\n        /* \"#utility.yul\":10401:10404   */\n      dup3\n        /* \"#utility.yul\":10312:10405   */\n      tag_143\n      jump\t// in\n    tag_276:\n        /* \"#utility.yul\":10430:10432   */\n      0x20\n        /* \"#utility.yul\":10425:10428   */\n      dup3\n        /* \"#utility.yul\":10421:10433   */\n      add\n        /* \"#utility.yul\":10414:10433   */\n      swap1\n      pop\n        /* \"#utility.yul\":10073:10439   */\n      swap2\n      swap1\n      pop\n      jump\t// out\n        /* \"#utility.yul\":10445:10864   */\n    tag_72:\n        /* \"#utility.yul\":10611:10615   */\n      0x00\n        /* \"#utility.yul\":10649:10651   */\n      0x20\n        /* \"#utility.yul\":10638:10647   */\n      dup3\n        /* \"#utility.yul\":10634:10652   */\n      add\n        /* \"#utility.yul\":10626:10652   */\n      swap1\n      pop\n        /* \"#utility.yul\":10698:10707   */\n      dup2\n        /* \"#utility.yul\":10692:10696   */\n      dup2\n        /* \"#utility.yul\":10688:10708   */\n      sub\n        /* \"#utility.yul\":10684:10685   */\n      0x00\n        /* \"#utility.yul\":10673:10682   */\n      dup4\n        /* \"#utility.yul\":10669:10686   */\n      add\n        /* \"#utility.yul\":10662:10709   */\n      mstore\n        /* \"#utility.yul\":10726:10857   */\n      tag_278\n        /* \"#utility.yul\":10852:10856   */\n      dup2\n        /* \"#utility.yul\":10726:10857   */\n      tag_144\n      jump\t// in\n    tag_278:\n        /* \"#utility.yul\":10718:10857   */\n      swap1\n      pop\n        /* \"#utility.yul\":10445:10864   */\n      swap2\n      swap1\n      pop\n      jump\t// out\n        /* \"#utility.yul\":10870:11043   */\n    tag_145:\n        /* \"#utility.yul\":11010:11035   */\n      0x5961206573746120656e206c61207072656c697374612e000000000000000000\n        /* \"#utility.yul\":11006:11007   */\n      0x00\n        /* \"#utility.yul\":10998:11004   */\n      dup3\n        /* \"#utility.yul\":10994:11008   */\n      add\n        /* \"#utility.yul\":10987:11036   */\n      mstore\n        /* \"#utility.yul\":10870:11043   */\n      pop\n      jump\t// out\n        /* \"#utility.yul\":11049:11415   */\n    tag_146:\n        /* \"#utility.yul\":11191:11194   */\n      0x00\n        /* \"#utility.yul\":11212:11279   */\n      tag_281\n        /* \"#utility.yul\":11276:11278   */\n      0x17\n        /* \"#utility.yul\":11271:11274   */\n      dup4\n        /* \"#utility.yul\":11212:11279   */\n      tag_113\n      jump\t// in\n    tag_281:\n        /* \"#utility.yul\":11205:11279   */\n      swap2\n      pop\n        /* \"#utility.yul\":11288:11381   */\n      tag_282\n        /* \"#utility.yul\":11377:11380   */\n      dup3\n        /* \"#utility.yul\":11288:11381   */\n      tag_145\n      jump\t// in\n    tag_282:\n        /* \"#utility.yul\":11406:11408   */\n      0x20\n        /* \"#utility.yul\":11401:11404   */\n      dup3\n        /* \"#utility.yul\":11397:11409   */\n      add\n        /* \"#utility.yul\":11390:11409   */\n      swap1\n      pop\n        /* \"#utility.yul\":11049:11415   */\n      swap2\n      swap1\n      pop\n      jump\t// out\n        /* \"#utility.yul\":11421:11840   */\n    tag_86:\n        /* \"#utility.yul\":11587:11591   */\n      0x00\n        /* \"#utility.yul\":11625:11627   */\n      0x20\n        /* \"#utility.yul\":11614:11623   */\n      dup3\n        /* \"#utility.yul\":11610:11628   */\n      add\n        /* \"#utility.yul\":11602:11628   */\n      swap1\n      pop\n        /* \"#utility.yul\":11674:11683   */\n      dup2\n        /* \"#utility.yul\":11668:11672   */\n      dup2\n        /* \"#utility.yul\":11664:11684   */\n      sub\n        /* \"#utility.yul\":11660:11661   */\n      0x00\n        /* \"#utility.yul\":11649:11658   */\n      dup4\n        /* \"#utility.yul\":11645:11662   */\n      add\n        /* \"#utility.yul\":11638:11685   */\n      mstore\n        /* \"#utility.yul\":11702:11833   */\n      tag_284\n        /* \"#utility.yul\":11828:11832   */\n      dup2\n        /* \"#utility.yul\":11702:11833   */\n      tag_146\n      jump\t// in\n    tag_284:\n        /* \"#utility.yul\":11694:11833   */\n      swap1\n      pop\n        /* \"#utility.yul\":11421:11840   */\n      swap2\n      swap1\n      pop\n      jump\t// out\n        /* \"#utility.yul\":11846:11987   */\n    tag_147:\n        /* \"#utility.yul\":11895:11899   */\n      0x00\n        /* \"#utility.yul\":11918:11921   */\n      dup2\n        /* \"#utility.yul\":11910:11921   */\n      swap1\n      pop\n        /* \"#utility.yul\":11941:11944   */\n      dup2\n        /* \"#utility.yul\":11938:11939   */\n      0x00\n        /* \"#utility.yul\":11931:11945   */\n      mstore\n        /* \"#utility.yul\":11975:11979   */\n      0x20\n        /* \"#utility.yul\":11972:11973   */\n      0x00\n        /* \"#utility.yul\":11962:11980   */\n      keccak256\n        /* \"#utility.yul\":11954:11980   */\n      swap1\n      pop\n        /* \"#utility.yul\":11846:11987   */\n      swap2\n      swap1\n      pop\n      jump\t// out\n        /* \"#utility.yul\":11993:12086   */\n    tag_148:\n        /* \"#utility.yul\":12030:12036   */\n      0x00\n        /* \"#utility.yul\":12077:12079   */\n      0x20\n        /* \"#utility.yul\":12072:12074   */\n      0x1f\n        /* \"#utility.yul\":12065:12070   */\n      dup4\n        /* \"#utility.yul\":12061:12075   */\n      add\n        /* \"#utility.yul\":12057:12080   */\n      div\n        /* \"#utility.yul\":12047:12080   */\n      swap1\n      pop\n        /* \"#utility.yul\":11993:12086   */\n      swap2\n      swap1\n      pop\n      jump\t// out\n        /* \"#utility.yul\":12092:12199   */\n    tag_149:\n        /* \"#utility.yul\":12136:12144   */\n      0x00\n        /* \"#utility.yul\":12186:12191   */\n      dup3\n        /* \"#utility.yul\":12180:12184   */\n      dup3\n        /* \"#utility.yul\":12176:12192   */\n      shl\n        /* \"#utility.yul\":12155:12192   */\n      swap1\n      pop\n        /* \"#utility.yul\":12092:12199   */\n      swap3\n      swap2\n      pop\n      pop\n      jump\t// out\n        /* \"#utility.yul\":12205:12598   */\n    tag_150:\n        /* \"#utility.yul\":12274:12280   */\n      0x00\n        /* \"#utility.yul\":12324:12325   */\n      0x08\n        /* \"#utility.yul\":12312:12322   */\n      dup4\n        /* \"#utility.yul\":12308:12326   */\n      mul\n        /* \"#utility.yul\":12347:12444   */\n      tag_289\n        /* \"#utility.yul\":12377:12443   */\n      0xffffffffffffffffffffffffffffffffffffffffffffffffffffffffffffffff\n        /* \"#utility.yul\":12366:12375   */\n      dup3\n        /* \"#utility.yul\":12347:12444   */\n      tag_149\n      jump\t// in\n    tag_289:\n        /* \"#utility.yul\":12465:12504   */\n      tag_290\n        /* \"#utility.yul\":12495:12503   */\n      dup7\n        /* \"#utility.yul\":12484:12493   */\n      dup4\n        /* \"#utility.yul\":12465:12504   */\n      tag_149\n      jump\t// in\n    tag_290:\n        /* \"#utility.yul\":12453:12504   */\n      swap6\n      pop\n        /* \"#utility.yul\":12537:12541   */\n      dup1\n        /* \"#utility.yul\":12533:12542   */\n      not\n        /* \"#utility.yul\":12526:12531   */\n      dup5\n        /* \"#utility.yul\":12522:12543   */\n      and\n        /* \"#utility.yul\":12513:12543   */\n      swap4\n      pop\n        /* \"#utility.yul\":12586:12590   */\n      dup1\n        /* \"#utility.yul\":12576:12584   */\n      dup7\n        /* \"#utility.yul\":12572:12591   */\n      and\n        /* \"#utility.yul\":12565:12570   */\n      dup5\n        /* \"#utility.yul\":12562:12592   */\n      or\n        /* \"#utility.yul\":12552:12592   */\n      swap3\n      pop\n        /* \"#utility.yul\":12281:12598   */\n      pop\n      pop\n        /* \"#utility.yul\":12205:12598   */\n      swap4\n      swap3\n      pop\n      pop\n      pop\n      jump\t// out\n        /* \"#utility.yul\":12604:12746   */\n    tag_151:\n        /* \"#utility.yul\":12654:12663   */\n      0x00\n        /* \"#utility.yul\":12687:12740   */\n      tag_292\n        /* \"#utility.yul\":12705:12739   */\n      tag_293\n        /* \"#utility.yul\":12714:12738   */\n      tag_294\n        /* \"#utility.yul\":12732:12737   */\n      dup5\n        /* \"#utility.yul\":12714:12738   */\n      tag_119\n      jump\t// in\n    tag_294:\n        /* \"#utility.yul\":12705:12739   */\n      tag_132\n      jump\t// in\n    tag_293:\n        /* \"#utility.yul\":12687:12740   */\n      tag_119\n      jump\t// in\n    tag_292:\n        /* \"#utility.yul\":12674:12740   */\n      swap1\n      pop\n        /* \"#utility.yul\":12604:12746   */\n      swap2\n      swap1\n      pop\n      jump\t// out\n        /* \"#utility.yul\":12752:12827   */\n    tag_152:\n        /* \"#utility.yul\":12795:12798   */\n      0x00\n        /* \"#utility.yul\":12816:12821   */\n      dup2\n        /* \"#utility.yul\":12809:12821   */\n      swap1\n      pop\n        /* \"#utility.yul\":12752:12827   */\n      swap2\n      swap1\n      pop\n      jump\t// out\n        /* \"#utility.yul\":12833:13102   */\n    tag_153:\n        /* \"#utility.yul\":12943:12982   */\n      tag_297\n        /* \"#utility.yul\":12974:12981   */\n      dup4\n        /* \"#utility.yul\":12943:12982   */\n      tag_151\n      jump\t// in\n    tag_297:\n        /* \"#utility.yul\":13004:13095   */\n      tag_298\n        /* \"#utility.yul\":13053:13094   */\n      tag_299\n        /* \"#utility.yul\":13077:13093   */\n      dup3\n        /* \"#utility.yul\":13053:13094   */\n      tag_152\n      jump\t// in\n    tag_299:\n        /* \"#utility.yul\":13045:13051   */\n      dup5\n        /* \"#utility.yul\":13038:13042   */\n      dup5\n        /* \"#utility.yul\":13032:13043   */\n      sload\n        /* \"#utility.yul\":13004:13095   */\n      tag_150\n      jump\t// in\n    tag_298:\n        /* \"#utility.yul\":12998:13002   */\n      dup3\n        /* \"#utility.yul\":12991:13096   */\n      sstore\n        /* \"#utility.yul\":12909:13102   */\n      pop\n        /* \"#utility.yul\":12833:13102   */\n      pop\n      pop\n      pop\n      jump\t// out\n        /* \"#utility.yul\":13108:13181   */\n    tag_154:\n        /* \"#utility.yul\":13153:13156   */\n      0x00\n        /* \"#utility.yul\":13108:13181   */\n      swap1\n      jump\t// out\n        /* \"#utility.yul\":13187:13376   */\n    tag_155:\n        /* \"#utility.yul\":13264:13296   */\n      tag_302\n      tag_154\n      jump\t// in\n    tag_302:\n        /* \"#utility.yul\":13305:13370   */\n      tag_303\n        /* \"#utility.yul\":13363:13369   */\n      dup2\n        /* \"#utility.yul\":13355:13361   */\n      dup5\n        /* \"#utility.yul\":13349:13353   */\n      dup5\n        /* \"#utility.yul\":13305:13370   */\n      tag_153\n      jump\t// in\n    tag_303:\n        /* \"#utility.yul\":13240:13376   */\n      pop\n        /* \"#utility.yul\":13187:13376   */\n      pop\n      pop\n      jump\t// out\n        /* \"#utility.yul\":13382:13568   */\n    tag_156:\n        /* \"#utility.yul\":13442:13562   */\n    tag_305:\n        /* \"#utility.yul\":13459:13462   */\n      dup2\n        /* \"#utility.yul\":13452:13457   */\n      dup2\n        /* \"#utility.yul\":13449:13463   */\n      lt\n        /* \"#utility.yul\":13442:13562   */\n      iszero\n      tag_307\n      jumpi\n        /* \"#utility.yul\":13513:13552   */\n      tag_308\n        /* \"#utility.yul\":13550:13551   */\n      0x00\n        /* \"#utility.yul\":13543:13548   */\n      dup3\n        /* \"#utility.yul\":13513:13552   */\n      tag_155\n      jump\t// in\n    tag_308:\n        /* \"#utility.yul\":13486:13487   */\n      0x01\n        /* \"#utility.yul\":13479:13484   */\n      dup2\n        /* \"#utility.yul\":13475:13488   */\n      add\n        /* \"#utility.yul\":13466:13488   */\n      swap1\n      pop\n        /* \"#utility.yul\":13442:13562   */\n      jump(tag_305)\n    tag_307:\n        /* \"#utility.yul\":13382:13568   */\n      pop\n      pop\n      jump\t// out\n        /* \"#utility.yul\":13574:14117   */\n    tag_157:\n        /* \"#utility.yul\":13675:13677   */\n      0x1f\n        /* \"#utility.yul\":13670:13673   */\n      dup3\n        /* \"#utility.yul\":13667:13678   */\n      gt\n        /* \"#utility.yul\":13664:14110   */\n      iszero\n      tag_310\n      jumpi\n        /* \"#utility.yul\":13709:13747   */\n      tag_311\n        /* \"#utility.yul\":13741:13746   */\n      dup2\n        /* \"#utility.yul\":13709:13747   */\n      tag_147\n      jump\t// in\n    tag_311:\n        /* \"#utility.yul\":13793:13822   */\n      tag_312\n        /* \"#utility.yul\":13811:13821   */\n      dup5\n        /* \"#utility.yul\":13793:13822   */\n      tag_148\n      jump\t// in\n    tag_312:\n        /* \"#utility.yul\":13783:13791   */\n      dup2\n        /* \"#utility.yul\":13779:13823   */\n      add\n        /* \"#utility.yul\":13976:13978   */\n      0x20\n        /* \"#utility.yul\":13964:13974   */\n      dup6\n        /* \"#utility.yul\":13961:13979   */\n      lt\n        /* \"#utility.yul\":13958:14007   */\n      iszero\n      tag_313\n      jumpi\n        /* \"#utility.yul\":13997:14005   */\n      dup2\n        /* \"#utility.yul\":13982:14005   */\n      swap1\n      pop\n        /* \"#utility.yul\":13958:14007   */\n    tag_313:\n        /* \"#utility.yul\":14020:14100   */\n      tag_314\n        /* \"#utility.yul\":14076:14098   */\n      tag_315\n        /* \"#utility.yul\":14094:14097   */\n      dup6\n        /* \"#utility.yul\":14076:14098   */\n      tag_148\n      jump\t// in\n    tag_315:\n        /* \"#utility.yul\":14066:14074   */\n      dup4\n        /* \"#utility.yul\":14062:14099   */\n      add\n        /* \"#utility.yul\":14049:14060   */\n      dup3\n        /* \"#utility.yul\":14020:14100   */\n      tag_156\n      jump\t// in\n    tag_314:\n        /* \"#utility.yul\":13679:14110   */\n      pop\n      pop\n        /* \"#utility.yul\":13664:14110   */\n    tag_310:\n        /* \"#utility.yul\":13574:14117   */\n      pop\n      pop\n      pop\n      jump\t// out\n        /* \"#utility.yul\":14123:14240   */\n    tag_158:\n        /* \"#utility.yul\":14177:14185   */\n      0x00\n        /* \"#utility.yul\":14227:14232   */\n      dup3\n        /* \"#utility.yul\":14221:14225   */\n      dup3\n        /* \"#utility.yul\":14217:14233   */\n      shr\n        /* \"#utility.yul\":14196:14233   */\n      swap1\n      pop\n        /* \"#utility.yul\":14123:14240   */\n      swap3\n      swap2\n      pop\n      pop\n      jump\t// out\n        /* \"#utility.yul\":14246:14415   */\n    tag_159:\n        /* \"#utility.yul\":14290:14296   */\n      0x00\n        /* \"#utility.yul\":14323:14374   */\n      tag_318\n        /* \"#utility.yul\":14371:14372   */\n      0x00\n        /* \"#utility.yul\":14367:14373   */\n      not\n        /* \"#utility.yul\":14359:14364   */\n      dup5\n        /* \"#utility.yul\":14356:14357   */\n      0x08\n        /* \"#utility.yul\":14352:14365   */\n      mul\n        /* \"#utility.yul\":14323:14374   */\n      tag_158\n      jump\t// in\n    tag_318:\n        /* \"#utility.yul\":14319:14375   */\n      not\n        /* \"#utility.yul\":14404:14408   */\n      dup1\n        /* \"#utility.yul\":14398:14402   */\n      dup4\n        /* \"#utility.yul\":14394:14409   */\n      and\n        /* \"#utility.yul\":14384:14409   */\n      swap2\n      pop\n        /* \"#utility.yul\":14297:14415   */\n      pop\n        /* \"#utility.yul\":14246:14415   */\n      swap3\n      swap2\n      pop\n      pop\n      jump\t// out\n        /* \"#utility.yul\":14420:14715   */\n    tag_160:\n        /* \"#utility.yul\":14496:14500   */\n      0x00\n        /* \"#utility.yul\":14642:14671   */\n      tag_320\n        /* \"#utility.yul\":14667:14670   */\n      dup4\n        /* \"#utility.yul\":14661:14665   */\n      dup4\n        /* \"#utility.yul\":14642:14671   */\n      tag_159\n      jump\t// in\n    tag_320:\n        /* \"#utility.yul\":14634:14671   */\n      swap2\n      pop\n        /* \"#utility.yul\":14704:14707   */\n      dup3\n        /* \"#utility.yul\":14701:14702   */\n      0x02\n        /* \"#utility.yul\":14697:14708   */\n      mul\n        /* \"#utility.yul\":14691:14695   */\n      dup3\n        /* \"#utility.yul\":14688:14709   */\n      or\n        /* \"#utility.yul\":14680:14709   */\n      swap1\n      pop\n        /* \"#utility.yul\":14420:14715   */\n      swap3\n      swap2\n      pop\n      pop\n      jump\t// out\n        /* \"#utility.yul\":14720:16115   */\n    tag_88:\n        /* \"#utility.yul\":14837:14874   */\n      tag_322\n        /* \"#utility.yul\":14870:14873   */\n      dup3\n        /* \"#utility.yul\":14837:14874   */\n      tag_112\n      jump\t// in\n    tag_322:\n        /* \"#utility.yul\":14939:14957   */\n      0xffffffffffffffff\n        /* \"#utility.yul\":14931:14937   */\n      dup2\n        /* \"#utility.yul\":14928:14958   */\n      gt\n        /* \"#utility.yul\":14925:14981   */\n      iszero\n      tag_323\n      jumpi\n        /* \"#utility.yul\":14961:14979   */\n      tag_324\n      tag_123\n      jump\t// in\n    tag_324:\n        /* \"#utility.yul\":14925:14981   */\n    tag_323:\n        /* \"#utility.yul\":15005:15043   */\n      tag_325\n        /* \"#utility.yul\":15037:15041   */\n      dup3\n        /* \"#utility.yul\":15031:15042   */\n      sload\n        /* \"#utility.yul\":15005:15043   */\n      tag_53\n      jump\t// in\n    tag_325:\n        /* \"#utility.yul\":15090:15157   */\n      tag_326\n        /* \"#utility.yul\":15150:15156   */\n      dup3\n        /* \"#utility.yul\":15142:15148   */\n      dup3\n        /* \"#utility.yul\":15136:15140   */\n      dup6\n        /* \"#utility.yul\":15090:15157   */\n      tag_157\n      jump\t// in\n    tag_326:\n        /* \"#utility.yul\":15184:15185   */\n      0x00\n        /* \"#utility.yul\":15208:15212   */\n      0x20\n        /* \"#utility.yul\":15195:15212   */\n      swap1\n      pop\n        /* \"#utility.yul\":15240:15242   */\n      0x1f\n        /* \"#utility.yul\":15232:15238   */\n      dup4\n        /* \"#utility.yul\":15229:15243   */\n      gt\n        /* \"#utility.yul\":15257:15258   */\n      0x01\n        /* \"#utility.yul\":15252:15870   */\n      dup2\n      eq\n      tag_328\n      jumpi\n        /* \"#utility.yul\":15914:15915   */\n      0x00\n        /* \"#utility.yul\":15931:15937   */\n      dup5\n        /* \"#utility.yul\":15928:16005   */\n      iszero\n      tag_329\n      jumpi\n        /* \"#utility.yul\":15980:15989   */\n      dup3\n        /* \"#utility.yul\":15975:15978   */\n      dup8\n        /* \"#utility.yul\":15971:15990   */\n      add\n        /* \"#utility.yul\":15965:15991   */\n      mload\n        /* \"#utility.yul\":15956:15991   */\n      swap1\n      pop\n        /* \"#utility.yul\":15928:16005   */\n    tag_329:\n        /* \"#utility.yul\":16031:16098   */\n      tag_330\n        /* \"#utility.yul\":16091:16097   */\n      dup6\n        /* \"#utility.yul\":16084:16089   */\n      dup3\n        /* \"#utility.yul\":16031:16098   */\n      tag_160\n      jump\t// in\n    tag_330:\n        /* \"#utility.yul\":16025:16029   */\n      dup7\n        /* \"#utility.yul\":16018:16099   */\n      sstore\n        /* \"#utility.yul\":15887:16109   */\n      pop\n        /* \"#utility.yul\":15222:16109   */\n      jump(tag_327)\n        /* \"#utility.yul\":15252:15870   */\n    tag_328:\n        /* \"#utility.yul\":15304:15308   */\n      0x1f\n        /* \"#utility.yul\":15300:15309   */\n      not\n        /* \"#utility.yul\":15292:15298   */\n      dup5\n        /* \"#utility.yul\":15288:15310   */\n      and\n        /* \"#utility.yul\":15338:15375   */\n      tag_331\n        /* \"#utility.yul\":15370:15374   */\n      dup7\n        /* \"#utility.yul\":15338:15375   */\n      tag_147\n      jump\t// in\n    tag_331:\n        /* \"#utility.yul\":15397:15398   */\n      0x00\n        /* \"#utility.yul\":15411:15619   */\n    tag_332:\n        /* \"#utility.yul\":15425:15432   */\n      dup3\n        /* \"#utility.yul\":15422:15423   */\n      dup2\n        /* \"#utility.yul\":15419:15433   */\n      lt\n        /* \"#utility.yul\":15411:15619   */\n      iszero\n      tag_334\n      jumpi\n        /* \"#utility.yul\":15504:15513   */\n      dup5\n        /* \"#utility.yul\":15499:15502   */\n      dup10\n        /* \"#utility.yul\":15495:15514   */\n      add\n        /* \"#utility.yul\":15489:15515   */\n      mload\n        /* \"#utility.yul\":15481:15487   */\n      dup3\n        /* \"#utility.yul\":15474:15516   */\n      sstore\n        /* \"#utility.yul\":15555:15556   */\n      0x01\n        /* \"#utility.yul\":15547:15553   */\n      dup3\n        /* \"#utility.yul\":15543:15557   */\n      add\n        /* \"#utility.yul\":15533:15557   */\n      swap2\n      pop\n        /* \"#utility.yul\":15602:15604   */\n      0x20\n        /* \"#utility.yul\":15591:15600   */\n      dup6\n        /* \"#utility.yul\":15587:15605   */\n      add\n        /* \"#utility.yul\":15574:15605   */\n      swap5\n      pop\n        /* \"#utility.yul\":15448:15452   */\n      0x20\n        /* \"#utility.yul\":15445:15446   */\n      dup2\n        /* \"#utility.yul\":15441:15453   */\n      add\n        /* \"#utility.yul\":15436:15453   */\n      swap1\n      pop\n        /* \"#utility.yul\":15411:15619   */\n      jump(tag_332)\n    tag_334:\n        /* \"#utility.yul\":15647:15653   */\n      dup7\n        /* \"#utility.yul\":15638:15645   */\n      dup4\n        /* \"#utility.yul\":15635:15654   */\n      lt\n        /* \"#utility.yul\":15632:15811   */\n      iszero\n      tag_335\n      jumpi\n        /* \"#utility.yul\":15705:15714   */\n      dup5\n        /* \"#utility.yul\":15700:15703   */\n      dup10\n        /* \"#utility.yul\":15696:15715   */\n      add\n        /* \"#utility.yul\":15690:15716   */\n      mload\n        /* \"#utility.yul\":15748:15796   */\n      tag_336\n        /* \"#utility.yul\":15790:15794   */\n      0x1f\n        /* \"#utility.yul\":15782:15788   */\n      dup10\n        /* \"#utility.yul\":15778:15795   */\n      and\n        /* \"#utility.yul\":15767:15776   */\n      dup3\n        /* \"#utility.yul\":15748:15796   */\n      tag_159\n      jump\t// in\n    tag_336:\n        /* \"#utility.yul\":15740:15746   */\n      dup4\n        /* \"#utility.yul\":15733:15797   */\n      sstore\n        /* \"#utility.yul\":15655:15811   */\n      pop\n        /* \"#utility.yul\":15632:15811   */\n    tag_335:\n        /* \"#utility.yul\":15857:15858   */\n      0x01\n        /* \"#utility.yul\":15853:15854   */\n      0x02\n        /* \"#utility.yul\":15845:15851   */\n      dup9\n        /* \"#utility.yul\":15841:15855   */\n      mul\n        /* \"#utility.yul\":15837:15859   */\n      add\n        /* \"#utility.yul\":15831:15835   */\n      dup9\n        /* \"#utility.yul\":15824:15860   */\n      sstore\n        /* \"#utility.yul\":15259:15870   */\n      pop\n      pop\n      pop\n        /* \"#utility.yul\":15222:16109   */\n    tag_327:\n      pop\n        /* \"#utility.yul\":14812:16115   */\n      pop\n      pop\n      pop\n        /* \"#utility.yul\":14720:16115   */\n      pop\n      pop\n      jump\t// out\n        /* \"#utility.yul\":16121:16654   */\n    tag_90:\n        /* \"#utility.yul\":16290:16294   */\n      0x00\n        /* \"#utility.yul\":16328:16330   */\n      0x60\n        /* \"#utility.yul\":16317:16326   */\n      dup3\n        /* \"#utility.yul\":16313:16331   */\n      add\n        /* \"#utility.yul\":16305:16331   */\n      swap1\n      pop\n        /* \"#utility.yul\":16341:16412   */\n      tag_338\n        /* \"#utility.yul\":16409:16410   */\n      0x00\n        /* \"#utility.yul\":16398:16407   */\n      dup4\n        /* \"#utility.yul\":16394:16411   */\n      add\n        /* \"#utility.yul\":16385:16391   */\n      dup7\n        /* \"#utility.yul\":16341:16412   */\n      tag_138\n      jump\t// in\n    tag_338:\n        /* \"#utility.yul\":16459:16468   */\n      dup2\n        /* \"#utility.yul\":16453:16457   */\n      dup2\n        /* \"#utility.yul\":16449:16469   */\n      sub\n        /* \"#utility.yul\":16444:16446   */\n      0x20\n        /* \"#utility.yul\":16433:16442   */\n      dup4\n        /* \"#utility.yul\":16429:16447   */\n      add\n        /* \"#utility.yul\":16422:16470   */\n      mstore\n        /* \"#utility.yul\":16487:16565   */\n      tag_339\n        /* \"#utility.yul\":16560:16564   */\n      dup2\n        /* \"#utility.yul\":16551:16557   */\n      dup6\n        /* \"#utility.yul\":16487:16565   */\n      tag_116\n      jump\t// in\n    tag_339:\n        /* \"#utility.yul\":16479:16565   */\n      swap1\n      pop\n        /* \"#utility.yul\":16575:16647   */\n      tag_340\n        /* \"#utility.yul\":16643:16645   */\n      0x40\n        /* \"#utility.yul\":16632:16641   */\n      dup4\n        /* \"#utility.yul\":16628:16646   */\n      add\n        /* \"#utility.yul\":16619:16625   */\n      dup5\n        /* \"#utility.yul\":16575:16647   */\n      tag_120\n      jump\t// in\n    tag_340:\n        /* \"#utility.yul\":16121:16654   */\n      swap5\n      swap4\n      pop\n      pop\n      pop\n      pop\n      jump\t// out\n\n    auxdata: 0xa264697066735822122012ecff15af0a530bf02a4664010490906b5deb9371dfea4fc23ff8591047dba464736f6c63430008190033\n}\n",
				"bytecode": {
					"linkReferences": {},
					"object": "608060405234801561000f575f80fd5b50604051611381380380611381833981810160405281019061003191906100d5565b8060035f6101000a81548173ffffffffffffffffffffffffffffffffffffffff021916908373ffffffffffffffffffffffffffffffffffffffff16021790555050610100565b5f80fd5b5f73ffffffffffffffffffffffffffffffffffffffff82169050919050565b5f6100a48261007b565b9050919050565b6100b48161009a565b81146100be575f80fd5b50565b5f815190506100cf816100ab565b92915050565b5f602082840312156100ea576100e9610077565b5b5f6100f7848285016100c1565b91505092915050565b6112748061010d5f395ff3fe608060405234801561000f575f80fd5b5060043610610091575f3560e01c80639b5c91bb116100645780639b5c91bb14610141578063a2cda6a91461015d578063d472f0f91461018d578063e5d94cae146101ab578063f203a7a9146101db57610091565b80631e3baba3146100955780633b1c4fea146100c557806389bb4209146100f55780639594c20314610125575b5f80fd5b6100af60048036038101906100aa9190610a12565b61020b565b6040516100bc9190610aad565b60405180910390f35b6100df60048036038101906100da9190610a12565b6102a6565b6040516100ec9190610ae7565b60405180910390f35b61010f600480360381019061010a9190610a12565b6102f7565b60405161011c9190610b18565b60405180910390f35b61013f600480360381019061013a9190610a12565b61030c565b005b61015b60048036038101906101569190610c87565b610579565b005b61017760048036038101906101729190610a12565b6107fb565b6040516101849190610b18565b60405180910390f35b610195610841565b6040516101a29190610d4e565b60405180910390f35b6101c560048036038101906101c09190610a12565b610866565b6040516101d29190610ae7565b60405180910390f35b6101f560048036038101906101f09190610a12565b610882565b6040516102029190610aad565b60405180910390f35b6001602052805f5260405f205f91509050805461022790610d94565b80601f016020809104026020016040519081016040528092919081815260200182805461025390610d94565b801561029e5780601f106102755761010080835404028352916020019161029e565b820191905f5260205f20905b81548152906001019060200180831161028157829003601f168201915b505050505081565b5f805f8373ffffffffffffffffffffffffffffffffffffffff1673ffffffffffffffffffffffffffffffffffffffff1681526020019081526020015f205f9054906101000a900460ff169050919050565b6002602052805f5260405f205f915090505481565b60035f9054906101000a900473ffffffffffffffffffffffffffffffffffffffff1673ffffffffffffffffffffffffffffffffffffffff16638654ad8e336040518263ffffffff1660e01b81526004016103669190610dd3565b602060405180830381865afa158015610381573d5f803e3d5ffd5b505050506040513d601f19601f820116820180604052508101906103a59190610e16565b6103e4576040517f08c379a00000000000000000000000000000000000000000000000000000000081526004016103db90610eb1565b60405180910390fd5b5f808273ffffffffffffffffffffffffffffffffffffffff1673ffffffffffffffffffffffffffffffffffffffff1681526020019081526020015f205f9054906101000a900460ff1661046c576040517f08c379a000000000000000000000000000000000000000000000000000000000815260040161046390610f19565b60405180910390fd5b5f808273ffffffffffffffffffffffffffffffffffffffff1673ffffffffffffffffffffffffffffffffffffffff1681526020019081526020015f205f6101000a81549060ff021916905560015f8273ffffffffffffffffffffffffffffffffffffffff1673ffffffffffffffffffffffffffffffffffffffff1681526020019081526020015f205f6104ff919061094f565b60025f8273ffffffffffffffffffffffffffffffffffffffff1673ffffffffffffffffffffffffffffffffffffffff1681526020019081526020015f205f90557f3aefdad6ac3f1015d0d6439c26648d372b11980bf42e4d8aea26cf8b18d402de8160405161056e9190610dd3565b60405180910390a150565b60035f9054906101000a900473ffffffffffffffffffffffffffffffffffffffff1673ffffffffffffffffffffffffffffffffffffffff16638654ad8e336040518263ffffffff1660e01b81526004016105d39190610dd3565b602060405180830381865afa1580156105ee573d5f803e3d5ffd5b505050506040513d601f19601f820116820180604052508101906106129190610e16565b610651576040517f08c379a000000000000000000000000000000000000000000000000000000000815260040161064890610eb1565b60405180910390fd5b5f808473ffffffffffffffffffffffffffffffffffffffff1673ffffffffffffffffffffffffffffffffffffffff1681526020019081526020015f205f9054906101000a900460ff16156106da576040517f08c379a00000000000000000000000000000000000000000000000000000000081526004016106d190610f81565b60405180910390fd5b60015f808573ffffffffffffffffffffffffffffffffffffffff1673ffffffffffffffffffffffffffffffffffffffff1681526020019081526020015f205f6101000a81548160ff0219169083151502179055508160015f8573ffffffffffffffffffffffffffffffffffffffff1673ffffffffffffffffffffffffffffffffffffffff1681526020019081526020015f2090816107789190611133565b508060025f8573ffffffffffffffffffffffffffffffffffffffff1673ffffffffffffffffffffffffffffffffffffffff1681526020019081526020015f20819055507f78f0a3a35eb139c4d939044dc0da407f83d5c02e2d15f41becb6877fb11f9baf8383836040516107ee93929190611202565b60405180910390a1505050565b5f60025f8373ffffffffffffffffffffffffffffffffffffffff1673ffffffffffffffffffffffffffffffffffffffff1681526020019081526020015f20549050919050565b60035f9054906101000a900473ffffffffffffffffffffffffffffffffffffffff1681565b5f602052805f5260405f205f915054906101000a900460ff1681565b606060015f8373ffffffffffffffffffffffffffffffffffffffff1673ffffffffffffffffffffffffffffffffffffffff1681526020019081526020015f2080546108cc90610d94565b80601f01602080910402602001604051908101604052809291908181526020018280546108f890610d94565b80156109435780601f1061091a57610100808354040283529160200191610943565b820191905f5260205f20905b81548152906001019060200180831161092657829003601f168201915b50505050509050919050565b50805461095b90610d94565b5f825580601f1061096c5750610989565b601f0160209004905f5260205f2090810190610988919061098c565b5b50565b5b808211156109a3575f815f90555060010161098d565b5090565b5f604051905090565b5f80fd5b5f80fd5b5f73ffffffffffffffffffffffffffffffffffffffff82169050919050565b5f6109e1826109b8565b9050919050565b6109f1816109d7565b81146109fb575f80fd5b50565b5f81359050610a0c816109e8565b92915050565b5f60208284031215610a2757610a266109b0565b5b5f610a34848285016109fe565b91505092915050565b5f81519050919050565b5f82825260208201905092915050565b8281835e5f83830152505050565b5f601f19601f8301169050919050565b5f610a7f82610a3d565b610a898185610a47565b9350610a99818560208601610a57565b610aa281610a65565b840191505092915050565b5f6020820190508181035f830152610ac58184610a75565b905092915050565b5f8115159050919050565b610ae181610acd565b82525050565b5f602082019050610afa5f830184610ad8565b92915050565b5f819050919050565b610b1281610b00565b82525050565b5f602082019050610b2b5f830184610b09565b92915050565b5f80fd5b5f80fd5b7f4e487b71000000000000000000000000000000000000000000000000000000005f52604160045260245ffd5b610b6f82610a65565b810181811067ffffffffffffffff82111715610b8e57610b8d610b39565b5b80604052505050565b5f610ba06109a7565b9050610bac8282610b66565b919050565b5f67ffffffffffffffff821115610bcb57610bca610b39565b5b610bd482610a65565b9050602081019050919050565b828183375f83830152505050565b5f610c01610bfc84610bb1565b610b97565b905082815260208101848484011115610c1d57610c1c610b35565b5b610c28848285610be1565b509392505050565b5f82601f830112610c4457610c43610b31565b5b8135610c54848260208601610bef565b91505092915050565b610c6681610b00565b8114610c70575f80fd5b50565b5f81359050610c8181610c5d565b92915050565b5f805f60608486031215610c9e57610c9d6109b0565b5b5f610cab868287016109fe565b935050602084013567ffffffffffffffff811115610ccc57610ccb6109b4565b5b610cd886828701610c30565b9250506040610ce986828701610c73565b9150509250925092565b5f819050919050565b5f610d16610d11610d0c846109b8565b610cf3565b6109b8565b9050919050565b5f610d2782610cfc565b9050919050565b5f610d3882610d1d565b9050919050565b610d4881610d2e565b82525050565b5f602082019050610d615f830184610d3f565b92915050565b7f4e487b71000000000000000000000000000000000000000000000000000000005f52602260045260245ffd5b5f6002820490506001821680610dab57607f821691505b602082108103610dbe57610dbd610d67565b5b50919050565b610dcd816109d7565b82525050565b5f602082019050610de65f830184610dc4565b92915050565b610df581610acd565b8114610dff575f80fd5b50565b5f81519050610e1081610dec565b92915050565b5f60208284031215610e2b57610e2a6109b0565b5b5f610e3884828501610e02565b91505092915050565b7f536f6c6f206f6a6561646f7265732070756564656e207265616c697a617220655f8201527f73746120616363696f6e00000000000000000000000000000000000000000000602082015250565b5f610e9b602a83610a47565b9150610ea682610e41565b604082019050919050565b5f6020820190508181035f830152610ec881610e8f565b9050919050565b7f4e6f206573746120656e206c61207072656c697374612e0000000000000000005f82015250565b5f610f03601783610a47565b9150610f0e82610ecf565b602082019050919050565b5f6020820190508181035f830152610f3081610ef7565b9050919050565b7f5961206573746120656e206c61207072656c697374612e0000000000000000005f82015250565b5f610f6b601783610a47565b9150610f7682610f37565b602082019050919050565b5f6020820190508181035f830152610f9881610f5f565b9050919050565b5f819050815f5260205f209050919050565b5f6020601f8301049050919050565b5f82821b905092915050565b5f60088302610ffb7fffffffffffffffffffffffffffffffffffffffffffffffffffffffffffffffff82610fc0565b6110058683610fc0565b95508019841693508086168417925050509392505050565b5f61103761103261102d84610b00565b610cf3565b610b00565b9050919050565b5f819050919050565b6110508361101d565b61106461105c8261103e565b848454610fcc565b825550505050565b5f90565b61107861106c565b611083818484611047565b505050565b5b818110156110a65761109b5f82611070565b600181019050611089565b5050565b601f8211156110eb576110bc81610f9f565b6110c584610fb1565b810160208510156110d4578190505b6110e86110e085610fb1565b830182611088565b50505b505050565b5f82821c905092915050565b5f61110b5f19846008026110f0565b1980831691505092915050565b5f61112383836110fc565b9150826002028217905092915050565b61113c82610a3d565b67ffffffffffffffff81111561115557611154610b39565b5b61115f8254610d94565b61116a8282856110aa565b5f60209050601f83116001811461119b575f8415611189578287015190505b6111938582611118565b8655506111fa565b601f1984166111a986610f9f565b5f5b828110156111d0578489015182556001820191506020850194506020810190506111ab565b868310156111ed57848901516111e9601f8916826110fc565b8355505b6001600288020188555050505b505050505050565b5f6060820190506112155f830186610dc4565b81810360208301526112278185610a75565b90506112366040830184610b09565b94935050505056fea264697066735822122012ecff15af0a530bf02a4664010490906b5deb9371dfea4fc23ff8591047dba464736f6c63430008190033",
					"opcodes": "PUSH1 0x80 PUSH1 0x40 MSTORE CALLVALUE DUP1 ISZERO PUSH2 0xF JUMPI PUSH0 DUP1 REVERT JUMPDEST POP PUSH1 0x40 MLOAD PUSH2 0x1381 CODESIZE SUB DUP1 PUSH2 0x1381 DUP4 CODECOPY DUP2 DUP2 ADD PUSH1 0x40 MSTORE DUP2 ADD SWAP1 PUSH2 0x31 SWAP2 SWAP1 PUSH2 0xD5 JUMP JUMPDEST DUP1 PUSH1 0x3 PUSH0 PUSH2 0x100 EXP DUP2 SLOAD DUP2 PUSH20 0xFFFFFFFFFFFFFFFFFFFFFFFFFFFFFFFFFFFFFFFF MUL NOT AND SWAP1 DUP4 PUSH20 0xFFFFFFFFFFFFFFFFFFFFFFFFFFFFFFFFFFFFFFFF AND MUL OR SWAP1 SSTORE POP POP PUSH2 0x100 JUMP JUMPDEST PUSH0 DUP1 REVERT JUMPDEST PUSH0 PUSH20 0xFFFFFFFFFFFFFFFFFFFFFFFFFFFFFFFFFFFFFFFF DUP3 AND SWAP1 POP SWAP2 SWAP1 POP JUMP JUMPDEST PUSH0 PUSH2 0xA4 DUP3 PUSH2 0x7B JUMP JUMPDEST SWAP1 POP SWAP2 SWAP1 POP JUMP JUMPDEST PUSH2 0xB4 DUP2 PUSH2 0x9A JUMP JUMPDEST DUP2 EQ PUSH2 0xBE JUMPI PUSH0 DUP1 REVERT JUMPDEST POP JUMP JUMPDEST PUSH0 DUP2 MLOAD SWAP1 POP PUSH2 0xCF DUP2 PUSH2 0xAB JUMP JUMPDEST SWAP3 SWAP2 POP POP JUMP JUMPDEST PUSH0 PUSH1 0x20 DUP3 DUP5 SUB SLT ISZERO PUSH2 0xEA JUMPI PUSH2 0xE9 PUSH2 0x77 JUMP JUMPDEST JUMPDEST PUSH0 PUSH2 0xF7 DUP5 DUP3 DUP6 ADD PUSH2 0xC1 JUMP JUMPDEST SWAP2 POP POP SWAP3 SWAP2 POP POP JUMP JUMPDEST PUSH2 0x1274 DUP1 PUSH2 0x10D PUSH0 CODECOPY PUSH0 RETURN INVALID PUSH1 0x80 PUSH1 0x40 MSTORE CALLVALUE DUP1 ISZERO PUSH2 0xF JUMPI PUSH0 DUP1 REVERT JUMPDEST POP PUSH1 0x4 CALLDATASIZE LT PUSH2 0x91 JUMPI PUSH0 CALLDATALOAD PUSH1 0xE0 SHR DUP1 PUSH4 0x9B5C91BB GT PUSH2 0x64 JUMPI DUP1 PUSH4 0x9B5C91BB EQ PUSH2 0x141 JUMPI DUP1 PUSH4 0xA2CDA6A9 EQ PUSH2 0x15D JUMPI DUP1 PUSH4 0xD472F0F9 EQ PUSH2 0x18D JUMPI DUP1 PUSH4 0xE5D94CAE EQ PUSH2 0x1AB JUMPI DUP1 PUSH4 0xF203A7A9 EQ PUSH2 0x1DB JUMPI PUSH2 0x91 JUMP JUMPDEST DUP1 PUSH4 0x1E3BABA3 EQ PUSH2 0x95 JUMPI DUP1 PUSH4 0x3B1C4FEA EQ PUSH2 0xC5 JUMPI DUP1 PUSH4 0x89BB4209 EQ PUSH2 0xF5 JUMPI DUP1 PUSH4 0x9594C203 EQ PUSH2 0x125 JUMPI JUMPDEST PUSH0 DUP1 REVERT JUMPDEST PUSH2 0xAF PUSH1 0x4 DUP1 CALLDATASIZE SUB DUP2 ADD SWAP1 PUSH2 0xAA SWAP2 SWAP1 PUSH2 0xA12 JUMP JUMPDEST PUSH2 0x20B JUMP JUMPDEST PUSH1 0x40 MLOAD PUSH2 0xBC SWAP2 SWAP1 PUSH2 0xAAD JUMP JUMPDEST PUSH1 0x40 MLOAD DUP1 SWAP2 SUB SWAP1 RETURN JUMPDEST PUSH2 0xDF PUSH1 0x4 DUP1 CALLDATASIZE SUB DUP2 ADD SWAP1 PUSH2 0xDA SWAP2 SWAP1 PUSH2 0xA12 JUMP JUMPDEST PUSH2 0x2A6 JUMP JUMPDEST PUSH1 0x40 MLOAD PUSH2 0xEC SWAP2 SWAP1 PUSH2 0xAE7 JUMP JUMPDEST PUSH1 0x40 MLOAD DUP1 SWAP2 SUB SWAP1 RETURN JUMPDEST PUSH2 0x10F PUSH1 0x4 DUP1 CALLDATASIZE SUB DUP2 ADD SWAP1 PUSH2 0x10A SWAP2 SWAP1 PUSH2 0xA12 JUMP JUMPDEST PUSH2 0x2F7 JUMP JUMPDEST PUSH1 0x40 MLOAD PUSH2 0x11C SWAP2 SWAP1 PUSH2 0xB18 JUMP JUMPDEST PUSH1 0x40 MLOAD DUP1 SWAP2 SUB SWAP1 RETURN JUMPDEST PUSH2 0x13F PUSH1 0x4 DUP1 CALLDATASIZE SUB DUP2 ADD SWAP1 PUSH2 0x13A SWAP2 SWAP1 PUSH2 0xA12 JUMP JUMPDEST PUSH2 0x30C JUMP JUMPDEST STOP JUMPDEST PUSH2 0x15B PUSH1 0x4 DUP1 CALLDATASIZE SUB DUP2 ADD SWAP1 PUSH2 0x156 SWAP2 SWAP1 PUSH2 0xC87 JUMP JUMPDEST PUSH2 0x579 JUMP JUMPDEST STOP JUMPDEST PUSH2 0x177 PUSH1 0x4 DUP1 CALLDATASIZE SUB DUP2 ADD SWAP1 PUSH2 0x172 SWAP2 SWAP1 PUSH2 0xA12 JUMP JUMPDEST PUSH2 0x7FB JUMP JUMPDEST PUSH1 0x40 MLOAD PUSH2 0x184 SWAP2 SWAP1 PUSH2 0xB18 JUMP JUMPDEST PUSH1 0x40 MLOAD DUP1 SWAP2 SUB SWAP1 RETURN JUMPDEST PUSH2 0x195 PUSH2 0x841 JUMP JUMPDEST PUSH1 0x40 MLOAD PUSH2 0x1A2 SWAP2 SWAP1 PUSH2 0xD4E JUMP JUMPDEST PUSH1 0x40 MLOAD DUP1 SWAP2 SUB SWAP1 RETURN JUMPDEST PUSH2 0x1C5 PUSH1 0x4 DUP1 CALLDATASIZE SUB DUP2 ADD SWAP1 PUSH2 0x1C0 SWAP2 SWAP1 PUSH2 0xA12 JUMP JUMPDEST PUSH2 0x866 JUMP JUMPDEST PUSH1 0x40 MLOAD PUSH2 0x1D2 SWAP2 SWAP1 PUSH2 0xAE7 JUMP JUMPDEST PUSH1 0x40 MLOAD DUP1 SWAP2 SUB SWAP1 RETURN JUMPDEST PUSH2 0x1F5 PUSH1 0x4 DUP1 CALLDATASIZE SUB DUP2 ADD SWAP1 PUSH2 0x1F0 SWAP2 SWAP1 PUSH2 0xA12 JUMP JUMPDEST PUSH2 0x882 JUMP JUMPDEST PUSH1 0x40 MLOAD PUSH2 0x202 SWAP2 SWAP1 PUSH2 0xAAD JUMP JUMPDEST PUSH1 0x40 MLOAD DUP1 SWAP2 SUB SWAP1 RETURN JUMPDEST PUSH1 0x1 PUSH1 0x20 MSTORE DUP1 PUSH0 MSTORE PUSH1 0x40 PUSH0 KECCAK256 PUSH0 SWAP2 POP SWAP1 POP DUP1 SLOAD PUSH2 0x227 SWAP1 PUSH2 0xD94 JUMP JUMPDEST DUP1 PUSH1 0x1F ADD PUSH1 0x20 DUP1 SWAP2 DIV MUL PUSH1 0x20 ADD PUSH1 0x40 MLOAD SWAP1 DUP2 ADD PUSH1 0x40 MSTORE DUP1 SWAP3 SWAP2 SWAP1 DUP2 DUP2 MSTORE PUSH1 0x20 ADD DUP3 DUP1 SLOAD PUSH2 0x253 SWAP1 PUSH2 0xD94 JUMP JUMPDEST DUP1 ISZERO PUSH2 0x29E JUMPI DUP1 PUSH1 0x1F LT PUSH2 0x275 JUMPI PUSH2 0x100 DUP1 DUP4 SLOAD DIV MUL DUP4 MSTORE SWAP2 PUSH1 0x20 ADD SWAP2 PUSH2 0x29E JUMP JUMPDEST DUP3 ADD SWAP2 SWAP1 PUSH0 MSTORE PUSH1 0x20 PUSH0 KECCAK256 SWAP1 JUMPDEST DUP2 SLOAD DUP2 MSTORE SWAP1 PUSH1 0x1 ADD SWAP1 PUSH1 0x20 ADD DUP1 DUP4 GT PUSH2 0x281 JUMPI DUP3 SWAP1 SUB PUSH1 0x1F AND DUP3 ADD SWAP2 JUMPDEST POP POP POP POP POP DUP2 JUMP JUMPDEST PUSH0 DUP1 PUSH0 DUP4 PUSH20 0xFFFFFFFFFFFFFFFFFFFFFFFFFFFFFFFFFFFFFFFF AND PUSH20 0xFFFFFFFFFFFFFFFFFFFFFFFFFFFFFFFFFFFFFFFF AND DUP2 MSTORE PUSH1 0x20 ADD SWAP1 DUP2 MSTORE PUSH1 0x20 ADD PUSH0 KECCAK256 PUSH0 SWAP1 SLOAD SWAP1 PUSH2 0x100 EXP SWAP1 DIV PUSH1 0xFF AND SWAP1 POP SWAP2 SWAP1 POP JUMP JUMPDEST PUSH1 0x2 PUSH1 0x20 MSTORE DUP1 PUSH0 MSTORE PUSH1 0x40 PUSH0 KECCAK256 PUSH0 SWAP2 POP SWAP1 POP SLOAD DUP2 JUMP JUMPDEST PUSH1 0x3 PUSH0 SWAP1 SLOAD SWAP1 PUSH2 0x100 EXP SWAP1 DIV PUSH20 0xFFFFFFFFFFFFFFFFFFFFFFFFFFFFFFFFFFFFFFFF AND PUSH20 0xFFFFFFFFFFFFFFFFFFFFFFFFFFFFFFFFFFFFFFFF AND PUSH4 0x8654AD8E CALLER PUSH1 0x40 MLOAD DUP3 PUSH4 0xFFFFFFFF AND PUSH1 0xE0 SHL DUP2 MSTORE PUSH1 0x4 ADD PUSH2 0x366 SWAP2 SWAP1 PUSH2 0xDD3 JUMP JUMPDEST PUSH1 0x20 PUSH1 0x40 MLOAD DUP1 DUP4 SUB DUP2 DUP7 GAS STATICCALL ISZERO DUP1 ISZERO PUSH2 0x381 JUMPI RETURNDATASIZE PUSH0 DUP1 RETURNDATACOPY RETURNDATASIZE PUSH0 REVERT JUMPDEST POP POP POP POP PUSH1 0x40 MLOAD RETURNDATASIZE PUSH1 0x1F NOT PUSH1 0x1F DUP3 ADD AND DUP3 ADD DUP1 PUSH1 0x40 MSTORE POP DUP2 ADD SWAP1 PUSH2 0x3A5 SWAP2 SWAP1 PUSH2 0xE16 JUMP JUMPDEST PUSH2 0x3E4 JUMPI PUSH1 0x40 MLOAD PUSH32 0x8C379A000000000000000000000000000000000000000000000000000000000 DUP2 MSTORE PUSH1 0x4 ADD PUSH2 0x3DB SWAP1 PUSH2 0xEB1 JUMP JUMPDEST PUSH1 0x40 MLOAD DUP1 SWAP2 SUB SWAP1 REVERT JUMPDEST PUSH0 DUP1 DUP3 PUSH20 0xFFFFFFFFFFFFFFFFFFFFFFFFFFFFFFFFFFFFFFFF AND PUSH20 0xFFFFFFFFFFFFFFFFFFFFFFFFFFFFFFFFFFFFFFFF AND DUP2 MSTORE PUSH1 0x20 ADD SWAP1 DUP2 MSTORE PUSH1 0x20 ADD PUSH0 KECCAK256 PUSH0 SWAP1 SLOAD SWAP1 PUSH2 0x100 EXP SWAP1 DIV PUSH1 0xFF AND PUSH2 0x46C JUMPI PUSH1 0x40 MLOAD PUSH32 0x8C379A000000000000000000000000000000000000000000000000000000000 DUP2 MSTORE PUSH1 0x4 ADD PUSH2 0x463 SWAP1 PUSH2 0xF19 JUMP JUMPDEST PUSH1 0x40 MLOAD DUP1 SWAP2 SUB SWAP1 REVERT JUMPDEST PUSH0 DUP1 DUP3 PUSH20 0xFFFFFFFFFFFFFFFFFFFFFFFFFFFFFFFFFFFFFFFF AND PUSH20 0xFFFFFFFFFFFFFFFFFFFFFFFFFFFFFFFFFFFFFFFF AND DUP2 MSTORE PUSH1 0x20 ADD SWAP1 DUP2 MSTORE PUSH1 0x20 ADD PUSH0 KECCAK256 PUSH0 PUSH2 0x100 EXP DUP2 SLOAD SWAP1 PUSH1 0xFF MUL NOT AND SWAP1 SSTORE PUSH1 0x1 PUSH0 DUP3 PUSH20 0xFFFFFFFFFFFFFFFFFFFFFFFFFFFFFFFFFFFFFFFF AND PUSH20 0xFFFFFFFFFFFFFFFFFFFFFFFFFFFFFFFFFFFFFFFF AND DUP2 MSTORE PUSH1 0x20 ADD SWAP1 DUP2 MSTORE PUSH1 0x20 ADD PUSH0 KECCAK256 PUSH0 PUSH2 0x4FF SWAP2 SWAP1 PUSH2 0x94F JUMP JUMPDEST PUSH1 0x2 PUSH0 DUP3 PUSH20 0xFFFFFFFFFFFFFFFFFFFFFFFFFFFFFFFFFFFFFFFF AND PUSH20 0xFFFFFFFFFFFFFFFFFFFFFFFFFFFFFFFFFFFFFFFF AND DUP2 MSTORE PUSH1 0x20 ADD SWAP1 DUP2 MSTORE PUSH1 0x20 ADD PUSH0 KECCAK256 PUSH0 SWAP1 SSTORE PUSH32 0x3AEFDAD6AC3F1015D0D6439C26648D372B11980BF42E4D8AEA26CF8B18D402DE DUP2 PUSH1 0x40 MLOAD PUSH2 0x56E SWAP2 SWAP1 PUSH2 0xDD3 JUMP JUMPDEST PUSH1 0x40 MLOAD DUP1 SWAP2 SUB SWAP1 LOG1 POP JUMP JUMPDEST PUSH1 0x3 PUSH0 SWAP1 SLOAD SWAP1 PUSH2 0x100 EXP SWAP1 DIV PUSH20 0xFFFFFFFFFFFFFFFFFFFFFFFFFFFFFFFFFFFFFFFF AND PUSH20 0xFFFFFFFFFFFFFFFFFFFFFFFFFFFFFFFFFFFFFFFF AND PUSH4 0x8654AD8E CALLER PUSH1 0x40 MLOAD DUP3 PUSH4 0xFFFFFFFF AND PUSH1 0xE0 SHL DUP2 MSTORE PUSH1 0x4 ADD PUSH2 0x5D3 SWAP2 SWAP1 PUSH2 0xDD3 JUMP JUMPDEST PUSH1 0x20 PUSH1 0x40 MLOAD DUP1 DUP4 SUB DUP2 DUP7 GAS STATICCALL ISZERO DUP1 ISZERO PUSH2 0x5EE JUMPI RETURNDATASIZE PUSH0 DUP1 RETURNDATACOPY RETURNDATASIZE PUSH0 REVERT JUMPDEST POP POP POP POP PUSH1 0x40 MLOAD RETURNDATASIZE PUSH1 0x1F NOT PUSH1 0x1F DUP3 ADD AND DUP3 ADD DUP1 PUSH1 0x40 MSTORE POP DUP2 ADD SWAP1 PUSH2 0x612 SWAP2 SWAP1 PUSH2 0xE16 JUMP JUMPDEST PUSH2 0x651 JUMPI PUSH1 0x40 MLOAD PUSH32 0x8C379A000000000000000000000000000000000000000000000000000000000 DUP2 MSTORE PUSH1 0x4 ADD PUSH2 0x648 SWAP1 PUSH2 0xEB1 JUMP JUMPDEST PUSH1 0x40 MLOAD DUP1 SWAP2 SUB SWAP1 REVERT JUMPDEST PUSH0 DUP1 DUP5 PUSH20 0xFFFFFFFFFFFFFFFFFFFFFFFFFFFFFFFFFFFFFFFF AND PUSH20 0xFFFFFFFFFFFFFFFFFFFFFFFFFFFFFFFFFFFFFFFF AND DUP2 MSTORE PUSH1 0x20 ADD SWAP1 DUP2 MSTORE PUSH1 0x20 ADD PUSH0 KECCAK256 PUSH0 SWAP1 SLOAD SWAP1 PUSH2 0x100 EXP SWAP1 DIV PUSH1 0xFF AND ISZERO PUSH2 0x6DA JUMPI PUSH1 0x40 MLOAD PUSH32 0x8C379A000000000000000000000000000000000000000000000000000000000 DUP2 MSTORE PUSH1 0x4 ADD PUSH2 0x6D1 SWAP1 PUSH2 0xF81 JUMP JUMPDEST PUSH1 0x40 MLOAD DUP1 SWAP2 SUB SWAP1 REVERT JUMPDEST PUSH1 0x1 PUSH0 DUP1 DUP6 PUSH20 0xFFFFFFFFFFFFFFFFFFFFFFFFFFFFFFFFFFFFFFFF AND PUSH20 0xFFFFFFFFFFFFFFFFFFFFFFFFFFFFFFFFFFFFFFFF AND DUP2 MSTORE PUSH1 0x20 ADD SWAP1 DUP2 MSTORE PUSH1 0x20 ADD PUSH0 KECCAK256 PUSH0 PUSH2 0x100 EXP DUP2 SLOAD DUP2 PUSH1 0xFF MUL NOT AND SWAP1 DUP4 ISZERO ISZERO MUL OR SWAP1 SSTORE POP DUP2 PUSH1 0x1 PUSH0 DUP6 PUSH20 0xFFFFFFFFFFFFFFFFFFFFFFFFFFFFFFFFFFFFFFFF AND PUSH20 0xFFFFFFFFFFFFFFFFFFFFFFFFFFFFFFFFFFFFFFFF AND DUP2 MSTORE PUSH1 0x20 ADD SWAP1 DUP2 MSTORE PUSH1 0x20 ADD PUSH0 KECCAK256 SWAP1 DUP2 PUSH2 0x778 SWAP2 SWAP1 PUSH2 0x1133 JUMP JUMPDEST POP DUP1 PUSH1 0x2 PUSH0 DUP6 PUSH20 0xFFFFFFFFFFFFFFFFFFFFFFFFFFFFFFFFFFFFFFFF AND PUSH20 0xFFFFFFFFFFFFFFFFFFFFFFFFFFFFFFFFFFFFFFFF AND DUP2 MSTORE PUSH1 0x20 ADD SWAP1 DUP2 MSTORE PUSH1 0x20 ADD PUSH0 KECCAK256 DUP2 SWAP1 SSTORE POP PUSH32 0x78F0A3A35EB139C4D939044DC0DA407F83D5C02E2D15F41BECB6877FB11F9BAF DUP4 DUP4 DUP4 PUSH1 0x40 MLOAD PUSH2 0x7EE SWAP4 SWAP3 SWAP2 SWAP1 PUSH2 0x1202 JUMP JUMPDEST PUSH1 0x40 MLOAD DUP1 SWAP2 SUB SWAP1 LOG1 POP POP POP JUMP JUMPDEST PUSH0 PUSH1 0x2 PUSH0 DUP4 PUSH20 0xFFFFFFFFFFFFFFFFFFFFFFFFFFFFFFFFFFFFFFFF AND PUSH20 0xFFFFFFFFFFFFFFFFFFFFFFFFFFFFFFFFFFFFFFFF AND DUP2 MSTORE PUSH1 0x20 ADD SWAP1 DUP2 MSTORE PUSH1 0x20 ADD PUSH0 KECCAK256 SLOAD SWAP1 POP SWAP2 SWAP1 POP JUMP JUMPDEST PUSH1 0x3 PUSH0 SWAP1 SLOAD SWAP1 PUSH2 0x100 EXP SWAP1 DIV PUSH20 0xFFFFFFFFFFFFFFFFFFFFFFFFFFFFFFFFFFFFFFFF AND DUP2 JUMP JUMPDEST PUSH0 PUSH1 0x20 MSTORE DUP1 PUSH0 MSTORE PUSH1 0x40 PUSH0 KECCAK256 PUSH0 SWAP2 POP SLOAD SWAP1 PUSH2 0x100 EXP SWAP1 DIV PUSH1 0xFF AND DUP2 JUMP JUMPDEST PUSH1 0x60 PUSH1 0x1 PUSH0 DUP4 PUSH20 0xFFFFFFFFFFFFFFFFFFFFFFFFFFFFFFFFFFFFFFFF AND PUSH20 0xFFFFFFFFFFFFFFFFFFFFFFFFFFFFFFFFFFFFFFFF AND DUP2 MSTORE PUSH1 0x20 ADD SWAP1 DUP2 MSTORE PUSH1 0x20 ADD PUSH0 KECCAK256 DUP1 SLOAD PUSH2 0x8CC SWAP1 PUSH2 0xD94 JUMP JUMPDEST DUP1 PUSH1 0x1F ADD PUSH1 0x20 DUP1 SWAP2 DIV MUL PUSH1 0x20 ADD PUSH1 0x40 MLOAD SWAP1 DUP2 ADD PUSH1 0x40 MSTORE DUP1 SWAP3 SWAP2 SWAP1 DUP2 DUP2 MSTORE PUSH1 0x20 ADD DUP3 DUP1 SLOAD PUSH2 0x8F8 SWAP1 PUSH2 0xD94 JUMP JUMPDEST DUP1 ISZERO PUSH2 0x943 JUMPI DUP1 PUSH1 0x1F LT PUSH2 0x91A JUMPI PUSH2 0x100 DUP1 DUP4 SLOAD DIV MUL DUP4 MSTORE SWAP2 PUSH1 0x20 ADD SWAP2 PUSH2 0x943 JUMP JUMPDEST DUP3 ADD SWAP2 SWAP1 PUSH0 MSTORE PUSH1 0x20 PUSH0 KECCAK256 SWAP1 JUMPDEST DUP2 SLOAD DUP2 MSTORE SWAP1 PUSH1 0x1 ADD SWAP1 PUSH1 0x20 ADD DUP1 DUP4 GT PUSH2 0x926 JUMPI DUP3 SWAP1 SUB PUSH1 0x1F AND DUP3 ADD SWAP2 JUMPDEST POP POP POP POP POP SWAP1 POP SWAP2 SWAP1 POP JUMP JUMPDEST POP DUP1 SLOAD PUSH2 0x95B SWAP1 PUSH2 0xD94 JUMP JUMPDEST PUSH0 DUP3 SSTORE DUP1 PUSH1 0x1F LT PUSH2 0x96C JUMPI POP PUSH2 0x989 JUMP JUMPDEST PUSH1 0x1F ADD PUSH1 0x20 SWAP1 DIV SWAP1 PUSH0 MSTORE PUSH1 0x20 PUSH0 KECCAK256 SWAP1 DUP2 ADD SWAP1 PUSH2 0x988 SWAP2 SWAP1 PUSH2 0x98C JUMP JUMPDEST JUMPDEST POP JUMP JUMPDEST JUMPDEST DUP1 DUP3 GT ISZERO PUSH2 0x9A3 JUMPI PUSH0 DUP2 PUSH0 SWAP1 SSTORE POP PUSH1 0x1 ADD PUSH2 0x98D JUMP JUMPDEST POP SWAP1 JUMP JUMPDEST PUSH0 PUSH1 0x40 MLOAD SWAP1 POP SWAP1 JUMP JUMPDEST PUSH0 DUP1 REVERT JUMPDEST PUSH0 DUP1 REVERT JUMPDEST PUSH0 PUSH20 0xFFFFFFFFFFFFFFFFFFFFFFFFFFFFFFFFFFFFFFFF DUP3 AND SWAP1 POP SWAP2 SWAP1 POP JUMP JUMPDEST PUSH0 PUSH2 0x9E1 DUP3 PUSH2 0x9B8 JUMP JUMPDEST SWAP1 POP SWAP2 SWAP1 POP JUMP JUMPDEST PUSH2 0x9F1 DUP2 PUSH2 0x9D7 JUMP JUMPDEST DUP2 EQ PUSH2 0x9FB JUMPI PUSH0 DUP1 REVERT JUMPDEST POP JUMP JUMPDEST PUSH0 DUP2 CALLDATALOAD SWAP1 POP PUSH2 0xA0C DUP2 PUSH2 0x9E8 JUMP JUMPDEST SWAP3 SWAP2 POP POP JUMP JUMPDEST PUSH0 PUSH1 0x20 DUP3 DUP5 SUB SLT ISZERO PUSH2 0xA27 JUMPI PUSH2 0xA26 PUSH2 0x9B0 JUMP JUMPDEST JUMPDEST PUSH0 PUSH2 0xA34 DUP5 DUP3 DUP6 ADD PUSH2 0x9FE JUMP JUMPDEST SWAP2 POP POP SWAP3 SWAP2 POP POP JUMP JUMPDEST PUSH0 DUP2 MLOAD SWAP1 POP SWAP2 SWAP1 POP JUMP JUMPDEST PUSH0 DUP3 DUP3 MSTORE PUSH1 0x20 DUP3 ADD SWAP1 POP SWAP3 SWAP2 POP POP JUMP JUMPDEST DUP3 DUP2 DUP4 MCOPY PUSH0 DUP4 DUP4 ADD MSTORE POP POP POP JUMP JUMPDEST PUSH0 PUSH1 0x1F NOT PUSH1 0x1F DUP4 ADD AND SWAP1 POP SWAP2 SWAP1 POP JUMP JUMPDEST PUSH0 PUSH2 0xA7F DUP3 PUSH2 0xA3D JUMP JUMPDEST PUSH2 0xA89 DUP2 DUP6 PUSH2 0xA47 JUMP JUMPDEST SWAP4 POP PUSH2 0xA99 DUP2 DUP6 PUSH1 0x20 DUP7 ADD PUSH2 0xA57 JUMP JUMPDEST PUSH2 0xAA2 DUP2 PUSH2 0xA65 JUMP JUMPDEST DUP5 ADD SWAP2 POP POP SWAP3 SWAP2 POP POP JUMP JUMPDEST PUSH0 PUSH1 0x20 DUP3 ADD SWAP1 POP DUP2 DUP2 SUB PUSH0 DUP4 ADD MSTORE PUSH2 0xAC5 DUP2 DUP5 PUSH2 0xA75 JUMP JUMPDEST SWAP1 POP SWAP3 SWAP2 POP POP JUMP JUMPDEST PUSH0 DUP2 ISZERO ISZERO SWAP1 POP SWAP2 SWAP1 POP JUMP JUMPDEST PUSH2 0xAE1 DUP2 PUSH2 0xACD JUMP JUMPDEST DUP3 MSTORE POP POP JUMP JUMPDEST PUSH0 PUSH1 0x20 DUP3 ADD SWAP1 POP PUSH2 0xAFA PUSH0 DUP4 ADD DUP5 PUSH2 0xAD8 JUMP JUMPDEST SWAP3 SWAP2 POP POP JUMP JUMPDEST PUSH0 DUP2 SWAP1 POP SWAP2 SWAP1 POP JUMP JUMPDEST PUSH2 0xB12 DUP2 PUSH2 0xB00 JUMP JUMPDEST DUP3 MSTORE POP POP JUMP JUMPDEST PUSH0 PUSH1 0x20 DUP3 ADD SWAP1 POP PUSH2 0xB2B PUSH0 DUP4 ADD DUP5 PUSH2 0xB09 JUMP JUMPDEST SWAP3 SWAP2 POP POP JUMP JUMPDEST PUSH0 DUP1 REVERT JUMPDEST PUSH0 DUP1 REVERT JUMPDEST PUSH32 0x4E487B7100000000000000000000000000000000000000000000000000000000 PUSH0 MSTORE PUSH1 0x41 PUSH1 0x4 MSTORE PUSH1 0x24 PUSH0 REVERT JUMPDEST PUSH2 0xB6F DUP3 PUSH2 0xA65 JUMP JUMPDEST DUP2 ADD DUP2 DUP2 LT PUSH8 0xFFFFFFFFFFFFFFFF DUP3 GT OR ISZERO PUSH2 0xB8E JUMPI PUSH2 0xB8D PUSH2 0xB39 JUMP JUMPDEST JUMPDEST DUP1 PUSH1 0x40 MSTORE POP POP POP JUMP JUMPDEST PUSH0 PUSH2 0xBA0 PUSH2 0x9A7 JUMP JUMPDEST SWAP1 POP PUSH2 0xBAC DUP3 DUP3 PUSH2 0xB66 JUMP JUMPDEST SWAP2 SWAP1 POP JUMP JUMPDEST PUSH0 PUSH8 0xFFFFFFFFFFFFFFFF DUP3 GT ISZERO PUSH2 0xBCB JUMPI PUSH2 0xBCA PUSH2 0xB39 JUMP JUMPDEST JUMPDEST PUSH2 0xBD4 DUP3 PUSH2 0xA65 JUMP JUMPDEST SWAP1 POP PUSH1 0x20 DUP2 ADD SWAP1 POP SWAP2 SWAP1 POP JUMP JUMPDEST DUP3 DUP2 DUP4 CALLDATACOPY PUSH0 DUP4 DUP4 ADD MSTORE POP POP POP JUMP JUMPDEST PUSH0 PUSH2 0xC01 PUSH2 0xBFC DUP5 PUSH2 0xBB1 JUMP JUMPDEST PUSH2 0xB97 JUMP JUMPDEST SWAP1 POP DUP3 DUP2 MSTORE PUSH1 0x20 DUP2 ADD DUP5 DUP5 DUP5 ADD GT ISZERO PUSH2 0xC1D JUMPI PUSH2 0xC1C PUSH2 0xB35 JUMP JUMPDEST JUMPDEST PUSH2 0xC28 DUP5 DUP3 DUP6 PUSH2 0xBE1 JUMP JUMPDEST POP SWAP4 SWAP3 POP POP POP JUMP JUMPDEST PUSH0 DUP3 PUSH1 0x1F DUP4 ADD SLT PUSH2 0xC44 JUMPI PUSH2 0xC43 PUSH2 0xB31 JUMP JUMPDEST JUMPDEST DUP2 CALLDATALOAD PUSH2 0xC54 DUP5 DUP3 PUSH1 0x20 DUP7 ADD PUSH2 0xBEF JUMP JUMPDEST SWAP2 POP POP SWAP3 SWAP2 POP POP JUMP JUMPDEST PUSH2 0xC66 DUP2 PUSH2 0xB00 JUMP JUMPDEST DUP2 EQ PUSH2 0xC70 JUMPI PUSH0 DUP1 REVERT JUMPDEST POP JUMP JUMPDEST PUSH0 DUP2 CALLDATALOAD SWAP1 POP PUSH2 0xC81 DUP2 PUSH2 0xC5D JUMP JUMPDEST SWAP3 SWAP2 POP POP JUMP JUMPDEST PUSH0 DUP1 PUSH0 PUSH1 0x60 DUP5 DUP7 SUB SLT ISZERO PUSH2 0xC9E JUMPI PUSH2 0xC9D PUSH2 0x9B0 JUMP JUMPDEST JUMPDEST PUSH0 PUSH2 0xCAB DUP7 DUP3 DUP8 ADD PUSH2 0x9FE JUMP JUMPDEST SWAP4 POP POP PUSH1 0x20 DUP5 ADD CALLDATALOAD PUSH8 0xFFFFFFFFFFFFFFFF DUP2 GT ISZERO PUSH2 0xCCC JUMPI PUSH2 0xCCB PUSH2 0x9B4 JUMP JUMPDEST JUMPDEST PUSH2 0xCD8 DUP7 DUP3 DUP8 ADD PUSH2 0xC30 JUMP JUMPDEST SWAP3 POP POP PUSH1 0x40 PUSH2 0xCE9 DUP7 DUP3 DUP8 ADD PUSH2 0xC73 JUMP JUMPDEST SWAP2 POP POP SWAP3 POP SWAP3 POP SWAP3 JUMP JUMPDEST PUSH0 DUP2 SWAP1 POP SWAP2 SWAP1 POP JUMP JUMPDEST PUSH0 PUSH2 0xD16 PUSH2 0xD11 PUSH2 0xD0C DUP5 PUSH2 0x9B8 JUMP JUMPDEST PUSH2 0xCF3 JUMP JUMPDEST PUSH2 0x9B8 JUMP JUMPDEST SWAP1 POP SWAP2 SWAP1 POP JUMP JUMPDEST PUSH0 PUSH2 0xD27 DUP3 PUSH2 0xCFC JUMP JUMPDEST SWAP1 POP SWAP2 SWAP1 POP JUMP JUMPDEST PUSH0 PUSH2 0xD38 DUP3 PUSH2 0xD1D JUMP JUMPDEST SWAP1 POP SWAP2 SWAP1 POP JUMP JUMPDEST PUSH2 0xD48 DUP2 PUSH2 0xD2E JUMP JUMPDEST DUP3 MSTORE POP POP JUMP JUMPDEST PUSH0 PUSH1 0x20 DUP3 ADD SWAP1 POP PUSH2 0xD61 PUSH0 DUP4 ADD DUP5 PUSH2 0xD3F JUMP JUMPDEST SWAP3 SWAP2 POP POP JUMP JUMPDEST PUSH32 0x4E487B7100000000000000000000000000000000000000000000000000000000 PUSH0 MSTORE PUSH1 0x22 PUSH1 0x4 MSTORE PUSH1 0x24 PUSH0 REVERT JUMPDEST PUSH0 PUSH1 0x2 DUP3 DIV SWAP1 POP PUSH1 0x1 DUP3 AND DUP1 PUSH2 0xDAB JUMPI PUSH1 0x7F DUP3 AND SWAP2 POP JUMPDEST PUSH1 0x20 DUP3 LT DUP2 SUB PUSH2 0xDBE JUMPI PUSH2 0xDBD PUSH2 0xD67 JUMP JUMPDEST JUMPDEST POP SWAP2 SWAP1 POP JUMP JUMPDEST PUSH2 0xDCD DUP2 PUSH2 0x9D7 JUMP JUMPDEST DUP3 MSTORE POP POP JUMP JUMPDEST PUSH0 PUSH1 0x20 DUP3 ADD SWAP1 POP PUSH2 0xDE6 PUSH0 DUP4 ADD DUP5 PUSH2 0xDC4 JUMP JUMPDEST SWAP3 SWAP2 POP POP JUMP JUMPDEST PUSH2 0xDF5 DUP2 PUSH2 0xACD JUMP JUMPDEST DUP2 EQ PUSH2 0xDFF JUMPI PUSH0 DUP1 REVERT JUMPDEST POP JUMP JUMPDEST PUSH0 DUP2 MLOAD SWAP1 POP PUSH2 0xE10 DUP2 PUSH2 0xDEC JUMP JUMPDEST SWAP3 SWAP2 POP POP JUMP JUMPDEST PUSH0 PUSH1 0x20 DUP3 DUP5 SUB SLT ISZERO PUSH2 0xE2B JUMPI PUSH2 0xE2A PUSH2 0x9B0 JUMP JUMPDEST JUMPDEST PUSH0 PUSH2 0xE38 DUP5 DUP3 DUP6 ADD PUSH2 0xE02 JUMP JUMPDEST SWAP2 POP POP SWAP3 SWAP2 POP POP JUMP JUMPDEST PUSH32 0x536F6C6F206F6A6561646F7265732070756564656E207265616C697A61722065 PUSH0 DUP3 ADD MSTORE PUSH32 0x73746120616363696F6E00000000000000000000000000000000000000000000 PUSH1 0x20 DUP3 ADD MSTORE POP JUMP JUMPDEST PUSH0 PUSH2 0xE9B PUSH1 0x2A DUP4 PUSH2 0xA47 JUMP JUMPDEST SWAP2 POP PUSH2 0xEA6 DUP3 PUSH2 0xE41 JUMP JUMPDEST PUSH1 0x40 DUP3 ADD SWAP1 POP SWAP2 SWAP1 POP JUMP JUMPDEST PUSH0 PUSH1 0x20 DUP3 ADD SWAP1 POP DUP2 DUP2 SUB PUSH0 DUP4 ADD MSTORE PUSH2 0xEC8 DUP2 PUSH2 0xE8F JUMP JUMPDEST SWAP1 POP SWAP2 SWAP1 POP JUMP JUMPDEST PUSH32 0x4E6F206573746120656E206C61207072656C697374612E000000000000000000 PUSH0 DUP3 ADD MSTORE POP JUMP JUMPDEST PUSH0 PUSH2 0xF03 PUSH1 0x17 DUP4 PUSH2 0xA47 JUMP JUMPDEST SWAP2 POP PUSH2 0xF0E DUP3 PUSH2 0xECF JUMP JUMPDEST PUSH1 0x20 DUP3 ADD SWAP1 POP SWAP2 SWAP1 POP JUMP JUMPDEST PUSH0 PUSH1 0x20 DUP3 ADD SWAP1 POP DUP2 DUP2 SUB PUSH0 DUP4 ADD MSTORE PUSH2 0xF30 DUP2 PUSH2 0xEF7 JUMP JUMPDEST SWAP1 POP SWAP2 SWAP1 POP JUMP JUMPDEST PUSH32 0x5961206573746120656E206C61207072656C697374612E000000000000000000 PUSH0 DUP3 ADD MSTORE POP JUMP JUMPDEST PUSH0 PUSH2 0xF6B PUSH1 0x17 DUP4 PUSH2 0xA47 JUMP JUMPDEST SWAP2 POP PUSH2 0xF76 DUP3 PUSH2 0xF37 JUMP JUMPDEST PUSH1 0x20 DUP3 ADD SWAP1 POP SWAP2 SWAP1 POP JUMP JUMPDEST PUSH0 PUSH1 0x20 DUP3 ADD SWAP1 POP DUP2 DUP2 SUB PUSH0 DUP4 ADD MSTORE PUSH2 0xF98 DUP2 PUSH2 0xF5F JUMP JUMPDEST SWAP1 POP SWAP2 SWAP1 POP JUMP JUMPDEST PUSH0 DUP2 SWAP1 POP DUP2 PUSH0 MSTORE PUSH1 0x20 PUSH0 KECCAK256 SWAP1 POP SWAP2 SWAP1 POP JUMP JUMPDEST PUSH0 PUSH1 0x20 PUSH1 0x1F DUP4 ADD DIV SWAP1 POP SWAP2 SWAP1 POP JUMP JUMPDEST PUSH0 DUP3 DUP3 SHL SWAP1 POP SWAP3 SWAP2 POP POP JUMP JUMPDEST PUSH0 PUSH1 0x8 DUP4 MUL PUSH2 0xFFB PUSH32 0xFFFFFFFFFFFFFFFFFFFFFFFFFFFFFFFFFFFFFFFFFFFFFFFFFFFFFFFFFFFFFFFF DUP3 PUSH2 0xFC0 JUMP JUMPDEST PUSH2 0x1005 DUP7 DUP4 PUSH2 0xFC0 JUMP JUMPDEST SWAP6 POP DUP1 NOT DUP5 AND SWAP4 POP DUP1 DUP7 AND DUP5 OR SWAP3 POP POP POP SWAP4 SWAP3 POP POP POP JUMP JUMPDEST PUSH0 PUSH2 0x1037 PUSH2 0x1032 PUSH2 0x102D DUP5 PUSH2 0xB00 JUMP JUMPDEST PUSH2 0xCF3 JUMP JUMPDEST PUSH2 0xB00 JUMP JUMPDEST SWAP1 POP SWAP2 SWAP1 POP JUMP JUMPDEST PUSH0 DUP2 SWAP1 POP SWAP2 SWAP1 POP JUMP JUMPDEST PUSH2 0x1050 DUP4 PUSH2 0x101D JUMP JUMPDEST PUSH2 0x1064 PUSH2 0x105C DUP3 PUSH2 0x103E JUMP JUMPDEST DUP5 DUP5 SLOAD PUSH2 0xFCC JUMP JUMPDEST DUP3 SSTORE POP POP POP POP JUMP JUMPDEST PUSH0 SWAP1 JUMP JUMPDEST PUSH2 0x1078 PUSH2 0x106C JUMP JUMPDEST PUSH2 0x1083 DUP2 DUP5 DUP5 PUSH2 0x1047 JUMP JUMPDEST POP POP POP JUMP JUMPDEST JUMPDEST DUP2 DUP2 LT ISZERO PUSH2 0x10A6 JUMPI PUSH2 0x109B PUSH0 DUP3 PUSH2 0x1070 JUMP JUMPDEST PUSH1 0x1 DUP2 ADD SWAP1 POP PUSH2 0x1089 JUMP JUMPDEST POP POP JUMP JUMPDEST PUSH1 0x1F DUP3 GT ISZERO PUSH2 0x10EB JUMPI PUSH2 0x10BC DUP2 PUSH2 0xF9F JUMP JUMPDEST PUSH2 0x10C5 DUP5 PUSH2 0xFB1 JUMP JUMPDEST DUP2 ADD PUSH1 0x20 DUP6 LT ISZERO PUSH2 0x10D4 JUMPI DUP2 SWAP1 POP JUMPDEST PUSH2 0x10E8 PUSH2 0x10E0 DUP6 PUSH2 0xFB1 JUMP JUMPDEST DUP4 ADD DUP3 PUSH2 0x1088 JUMP JUMPDEST POP POP JUMPDEST POP POP POP JUMP JUMPDEST PUSH0 DUP3 DUP3 SHR SWAP1 POP SWAP3 SWAP2 POP POP JUMP JUMPDEST PUSH0 PUSH2 0x110B PUSH0 NOT DUP5 PUSH1 0x8 MUL PUSH2 0x10F0 JUMP JUMPDEST NOT DUP1 DUP4 AND SWAP2 POP POP SWAP3 SWAP2 POP POP JUMP JUMPDEST PUSH0 PUSH2 0x1123 DUP4 DUP4 PUSH2 0x10FC JUMP JUMPDEST SWAP2 POP DUP3 PUSH1 0x2 MUL DUP3 OR SWAP1 POP SWAP3 SWAP2 POP POP JUMP JUMPDEST PUSH2 0x113C DUP3 PUSH2 0xA3D JUMP JUMPDEST PUSH8 0xFFFFFFFFFFFFFFFF DUP2 GT ISZERO PUSH2 0x1155 JUMPI PUSH2 0x1154 PUSH2 0xB39 JUMP JUMPDEST JUMPDEST PUSH2 0x115F DUP3 SLOAD PUSH2 0xD94 JUMP JUMPDEST PUSH2 0x116A DUP3 DUP3 DUP6 PUSH2 0x10AA JUMP JUMPDEST PUSH0 PUSH1 0x20 SWAP1 POP PUSH1 0x1F DUP4 GT PUSH1 0x1 DUP2 EQ PUSH2 0x119B JUMPI PUSH0 DUP5 ISZERO PUSH2 0x1189 JUMPI DUP3 DUP8 ADD MLOAD SWAP1 POP JUMPDEST PUSH2 0x1193 DUP6 DUP3 PUSH2 0x1118 JUMP JUMPDEST DUP7 SSTORE POP PUSH2 0x11FA JUMP JUMPDEST PUSH1 0x1F NOT DUP5 AND PUSH2 0x11A9 DUP7 PUSH2 0xF9F JUMP JUMPDEST PUSH0 JUMPDEST DUP3 DUP2 LT ISZERO PUSH2 0x11D0 JUMPI DUP5 DUP10 ADD MLOAD DUP3 SSTORE PUSH1 0x1 DUP3 ADD SWAP2 POP PUSH1 0x20 DUP6 ADD SWAP5 POP PUSH1 0x20 DUP2 ADD SWAP1 POP PUSH2 0x11AB JUMP JUMPDEST DUP7 DUP4 LT ISZERO PUSH2 0x11ED JUMPI DUP5 DUP10 ADD MLOAD PUSH2 0x11E9 PUSH1 0x1F DUP10 AND DUP3 PUSH2 0x10FC JUMP JUMPDEST DUP4 SSTORE POP JUMPDEST PUSH1 0x1 PUSH1 0x2 DUP9 MUL ADD DUP9 SSTORE POP POP POP JUMPDEST POP POP POP POP POP POP JUMP JUMPDEST PUSH0 PUSH1 0x60 DUP3 ADD SWAP1 POP PUSH2 0x1215 PUSH0 DUP4 ADD DUP7 PUSH2 0xDC4 JUMP JUMPDEST DUP2 DUP2 SUB PUSH1 0x20 DUP4 ADD MSTORE PUSH2 0x1227 DUP2 DUP6 PUSH2 0xA75 JUMP JUMPDEST SWAP1 POP PUSH2 0x1236 PUSH1 0x40 DUP4 ADD DUP5 PUSH2 0xB09 JUMP JUMPDEST SWAP5 SWAP4 POP POP POP POP JUMP INVALID LOG2 PUSH5 0x6970667358 0x22 SLT KECCAK256 SLT 0xEC SELFDESTRUCT ISZERO 0xAF EXP MSTORE8 SIGNEXTEND CREATE 0x2A CHAINID PUSH5 0x10490906B TSTORE 0xEB SWAP4 PUSH18 0xDFEA4FC23FF8591047DBA464736F6C634300 ADDMOD NOT STOP CALLER "
				},
				"gasEstimates": {
					"creation": {
						"codeDepositCost": "944800",
						"executionCost": "infinite",
						"totalCost": "infinite"
					},
					"external": {
						"anadirJugador(address,string,uint256)": "infinite",
						"eliminarJugador(address)": "infinite",
						"existeJug(address)": "2893",
						"jugadores(address)": "2898",
						"nombrecompleto(address)": "infinite",
						"obtenerNombre(address)": "infinite",
						"obtenerPrecio(address)": "2851",
						"ojeadorContract_()": "infinite",
						"value_jug(address)": "2847"
					}
				},
				"methodIdentifiers": {
					"anadirJugador(address,string,uint256)": "9b5c91bb",
					"eliminarJugador(address)": "9594c203",
					"existeJug(address)": "3b1c4fea",
					"jugadores(address)": "e5d94cae",
					"nombrecompleto(address)": "1e3baba3",
					"obtenerNombre(address)": "f203a7a9",
					"obtenerPrecio(address)": "a2cda6a9",
					"ojeadorContract_()": "d472f0f9",
					"value_jug(address)": "89bb4209"
				}
			},
			"storageLayout": {
				"storage": [
					{
						"astId": 6,
						"contract": "desarrollo-de-una-dao/contracts/JugadoresAFichar.sol:JugadoresAFichar",
						"label": "jugadores",
						"offset": 0,
						"slot": "0",
						"type": "t_mapping(t_address,t_bool)"
					},
					{
						"astId": 10,
						"contract": "desarrollo-de-una-dao/contracts/JugadoresAFichar.sol:JugadoresAFichar",
						"label": "nombrecompleto",
						"offset": 0,
						"slot": "1",
						"type": "t_mapping(t_address,t_string_storage)"
					},
					{
						"astId": 14,
						"contract": "desarrollo-de-una-dao/contracts/JugadoresAFichar.sol:JugadoresAFichar",
						"label": "value_jug",
						"offset": 0,
						"slot": "2",
						"type": "t_mapping(t_address,t_uint256)"
					},
					{
						"astId": 17,
						"contract": "desarrollo-de-una-dao/contracts/JugadoresAFichar.sol:JugadoresAFichar",
						"label": "ojeadorContract_",
						"offset": 0,
						"slot": "3",
						"type": "t_contract(Ojeador)395"
					}
				],
				"types": {
					"t_address": {
						"encoding": "inplace",
						"label": "address",
						"numberOfBytes": "20"
					},
					"t_bool": {
						"encoding": "inplace",
						"label": "bool",
						"numberOfBytes": "1"
					},
					"t_contract(Ojeador)395": {
						"encoding": "inplace",
						"label": "contract Ojeador",
						"numberOfBytes": "20"
					},
					"t_mapping(t_address,t_bool)": {
						"encoding": "mapping",
						"key": "t_address",
						"label": "mapping(address => bool)",
						"numberOfBytes": "32",
						"value": "t_bool"
					},
					"t_mapping(t_address,t_string_storage)": {
						"encoding": "mapping",
						"key": "t_address",
						"label": "mapping(address => string)",
						"numberOfBytes": "32",
						"value": "t_string_storage"
					},
					"t_mapping(t_address,t_uint256)": {
						"encoding": "mapping",
						"key": "t_address",
						"label": "mapping(address => uint256)",
						"numberOfBytes": "32",
						"value": "t_uint256"
					},
					"t_string_storage": {
						"encoding": "bytes",
						"label": "string",
						"numberOfBytes": "32"
					},
					"t_uint256": {
						"encoding": "inplace",
						"label": "uint256",
						"numberOfBytes": "32"
					}
				}
			},
			"userdoc": {
				"kind": "user",
				"methods": {},
				"version": 1
			}
		}
	}
}